{"contracts/Bond.sol":{"Bond":{"abi":[{"inputs":[{"internalType":"address","name":"_treasuryWallet","type":"address"},{"internalType":"address","name":"_USDT","type":"address"},{"internalType":"address","name":"_bitConey","type":"address"},{"internalType":"address","name":"_bitconeyWallet","type":"address"}],"stateMutability":"nonpayable","type":"constructor"},{"anonymous":false,"inputs":[{"indexed":true,"internalType":"address","name":"user","type":"address"},{"indexed":false,"internalType":"uint256","name":"amount","type":"uint256"},{"indexed":false,"internalType":"uint256","name":"time","type":"uint256"}],"name":"BondEvent","type":"event"},{"anonymous":false,"inputs":[{"indexed":true,"internalType":"address","name":"user","type":"address"},{"indexed":false,"internalType":"uint256","name":"amount","type":"uint256"}],"name":"ClaimEvent","type":"event"},{"anonymous":false,"inputs":[{"indexed":true,"internalType":"address","name":"previousOwner","type":"address"},{"indexed":true,"internalType":"address","name":"newOwner","type":"address"}],"name":"OwnershipTransferred","type":"event"},{"inputs":[],"name":"DOUBLE_MULTER","outputs":[{"internalType":"uint256","name":"","type":"uint256"}],"stateMutability":"view","type":"function"},{"inputs":[],"name":"USDT","outputs":[{"internalType":"address","name":"","type":"address"}],"stateMutability":"view","type":"function"},{"inputs":[],"name":"bitConey","outputs":[{"internalType":"contract IERC20Metadata","name":"","type":"address"}],"stateMutability":"view","type":"function"},{"inputs":[{"internalType":"uint256","name":"_amount","type":"uint256"}],"name":"bond","outputs":[],"stateMutability":"nonpayable","type":"function"},{"inputs":[],"name":"bondAmount","outputs":[{"internalType":"uint256","name":"","type":"uint256"}],"stateMutability":"view","type":"function"},{"inputs":[{"internalType":"address","name":"","type":"address"}],"name":"bondInfo","outputs":[{"internalType":"uint256","name":"amount","type":"uint256"},{"internalType":"uint256","name":"bondingTime","type":"uint256"},{"internalType":"uint256","name":"bondPrice","type":"uint256"}],"stateMutability":"view","type":"function"},{"inputs":[],"name":"bondPrice","outputs":[{"internalType":"uint256","name":"","type":"uint256"}],"stateMutability":"view","type":"function"},{"inputs":[],"name":"bondingPeriod","outputs":[{"internalType":"uint256","name":"","type":"uint256"}],"stateMutability":"view","type":"function"},{"inputs":[],"name":"claim","outputs":[],"stateMutability":"nonpayable","type":"function"},{"inputs":[{"internalType":"address","name":"user","type":"address"}],"name":"getUserClaimTime","outputs":[{"internalType":"uint256","name":"","type":"uint256"}],"stateMutability":"view","type":"function"},{"inputs":[{"internalType":"uint256","name":"_amount","type":"uint256"}],"name":"isAvailableBondByAmount","outputs":[{"internalType":"bool","name":"","type":"bool"}],"stateMutability":"view","type":"function"},{"inputs":[],"name":"isAvailableBondByTime","outputs":[{"internalType":"bool","name":"","type":"bool"}],"stateMutability":"view","type":"function"},{"inputs":[{"internalType":"address","name":"user","type":"address"}],"name":"isAvailableClaim","outputs":[{"internalType":"bool","name":"","type":"bool"}],"stateMutability":"view","type":"function"},{"inputs":[],"name":"lockingPeriod","outputs":[{"internalType":"uint256","name":"","type":"uint256"}],"stateMutability":"view","type":"function"},{"inputs":[],"name":"maxBondAmount","outputs":[{"internalType":"uint256","name":"","type":"uint256"}],"stateMutability":"view","type":"function"},{"inputs":[],"name":"owner","outputs":[{"internalType":"address","name":"","type":"address"}],"stateMutability":"view","type":"function"},{"inputs":[],"name":"renounceOwnership","outputs":[],"stateMutability":"nonpayable","type":"function"},{"inputs":[],"name":"setInitialBondState","outputs":[],"stateMutability":"nonpayable","type":"function"},{"inputs":[{"internalType":"uint256","name":"_period","type":"uint256"}],"name":"setLockingPeriod","outputs":[],"stateMutability":"nonpayable","type":"function"},{"inputs":[{"internalType":"uint256","name":"_amount","type":"uint256"}],"name":"setMaxBondAmount","outputs":[],"stateMutability":"nonpayable","type":"function"},{"inputs":[{"internalType":"uint256","name":"_price","type":"uint256"},{"internalType":"uint256","name":"_period","type":"uint256"}],"name":"setStartBond","outputs":[],"stateMutability":"nonpayable","type":"function"},{"inputs":[],"name":"startBond","outputs":[{"internalType":"bool","name":"","type":"bool"}],"stateMutability":"view","type":"function"},{"inputs":[{"internalType":"address","name":"newOwner","type":"address"}],"name":"transferOwnership","outputs":[],"stateMutability":"nonpayable","type":"function"},{"inputs":[{"internalType":"address","name":"user","type":"address"}],"name":"userClaimAmount","outputs":[{"internalType":"uint256","name":"","type":"uint256"}],"stateMutability":"view","type":"function"}],"evm":{"bytecode":{"linkReferences":{},"object":"60c0604052624f1a0060045564e8d4a51000600555600260065534801561002557600080fd5b50604051610c62380380610c62833981016040819052610044916100f6565b61004d3361008a565b600880546001600160a01b039586166001600160a01b03199182161790915592841660805290831660a0526009805491909316911617905561014a565b600080546001600160a01b038381166001600160a01b0319831681178455604051919092169283917f8be0079c531659141344cd1fd0a4f28419497f9722a3daafe3b4186f6b6457e09190a35050565b80516001600160a01b03811681146100f157600080fd5b919050565b6000806000806080858703121561010c57600080fd5b610115856100da565b9350610123602086016100da565b9250610131604086016100da565b915061013f606086016100da565b905092959194509250565b60805160a051610ae561017d600039600081816101ac015261051d01526000818161027b015261071d0152610ae56000f3fe608060405234801561001057600080fd5b50600436106101275760003560e01c806246a76a1461012c57806309fde0801461015457806310b40b4914610175578063221a3f8c1461018957806326b321d1146101925780632fa81a71146101a757806332e5eeaf146101e65780633d3e42c1146101f95780634d88db4d146102015780634e71d92d14610214578063550066d51461021c578063699a20b814610225578063715018a61461022e5780637eb96b7b1461023657806380f323a7146102495780638da5cb5b146102525780639940686e1461025a578063c31c6fb91461026d578063c54e44eb14610276578063cd1234b31461029d578063d7ccfb0b146102e7578063e03d44a1146102f0578063e1fbe49a146102f8578063f2fde38b1461030b575b600080fd5b61013f61013a366004610989565b61031e565b60405190151581526020015b60405180910390f35b610167610162366004610989565b610375565b60405190815260200161014b565b60005461013f90600160a01b900460ff1681565b61016760055481565b6101a56101a03660046109b9565b6103e2565b005b6101ce7f000000000000000000000000000000000000000000000000000000000000000081565b6040516001600160a01b03909116815260200161014b565b6101a56101f43660046109b9565b6103ef565b6101a56103fc565b6101a561020f3660046109d2565b610413565b6101a561044e565b61016760045481565b61016760065481565b6101a56105de565b610167610244366004610989565b6105f2565b61016760015481565b6101ce61065d565b6101a56102683660046109b9565b61066c565b61016760035481565b6101ce7f000000000000000000000000000000000000000000000000000000000000000081565b6102cc6102ab366004610989565b600a6020526000908152604090208054600182015460029092015490919083565b6040805193845260208401929092529082015260600161014b565b61016760075481565b61013f6107e3565b61013f6103063660046109b9565b6107fc565b6101a5610319366004610989565b610861565b6001600160a01b0381166000908152600a60205260408120600101541580159061036f57506004546001600160a01b0383166000908152600a6020526040902060010154429161036d91610a0a565b105b92915050565b6004546001600160a01b0382166000908152600a6020526040812060010154909142916103a29190610a0a565b116103ae57600061036f565b6004546001600160a01b0383166000908152600a602052604090206001015442916103d891610a0a565b61036f9190610a1d565b6103ea6108da565b600455565b6103f76108da565b600555565b6104046108da565b6000805460ff60a01b19169055565b61041b6108da565b6000805460ff60a01b1916600160a01b1781556001554260025560078290556104478162015180610a30565b6003555050565b6104573361031e565b61049a5760405162461bcd60e51b815260206004820152600f60248201526e109bdb990e9b9bc8195e1c1a5c9959608a1b60448201526064015b60405180910390fd5b336000908152600a602052604081205490036104ea5760405162461bcd60e51b815260206004820152600f60248201526e109bdb990e881b9bc81c995dd85c99608a1b6044820152606401610491565b60006104f5336105f2565b336000818152600a60205260408082209190915560095490516323b872dd60e01b81529293507f00000000000000000000000000000000000000000000000000000000000000006001600160a01b03908116936323b872dd936105619390921691908690600401610a47565b6020604051808303816000875af1158015610580573d6000803e3d6000fd5b505050506040513d601f19601f820116820180604052508101906105a49190610a6b565b5060405181815233907fcf90cf38909cf403e9a6b19be28f518cafff82c84df42f7baaa56d1a607663cd906020015b60405180910390a250565b6105e66108da565b6105f06000610939565b565b6000806007541161060457600061036f565b6006546007546001600160a01b0384166000908152600a6020526040902054670de0b6b3a7640000919061063f90662386f26fc10000610a30565b6106499190610a8d565b6106539190610a8d565b61036f9190610a30565b6000546001600160a01b031690565b6106746107e3565b80156106845750610684816107fc565b6106c05760405162461bcd60e51b815260206004820152600d60248201526c6e6f7420617661696c61626c6560981b6044820152606401610491565b336000908152600a6020526040812080548392906106df908490610a0a565b9091555050336000818152600a60205260409081902042600182015560075460029091015560085490516323b872dd60e01b81526001600160a01b037f00000000000000000000000000000000000000000000000000000000000000008116936323b872dd9361075793919216908690600401610a47565b6020604051808303816000875af1158015610776573d6000803e3d6000fd5b505050506040513d601f19601f8201168201806040525081019061079a9190610a6b565b50336000818152600a6020908152604091829020600101548251858152918201527f060bf72b9acaee8f3f1e5d2c4a34af2c7120cb51ed5e94133d5edc0c5ff82cb491016105d3565b6000426003546002546107f69190610a0a565b11905090565b60008060075411801561036f5750600154600654600754670de0b6b3a76400009061082e86662386f26fc10000610a30565b6108389190610a8d565b6108429190610a8d565b61084c9190610a30565b6108569190610a0a565b600554101592915050565b6108696108da565b6001600160a01b0381166108ce5760405162461bcd60e51b815260206004820152602660248201527f4f776e61626c653a206e6577206f776e657220697320746865207a65726f206160448201526564647265737360d01b6064820152608401610491565b6108d781610939565b50565b336108e361065d565b6001600160a01b0316146105f05760405162461bcd60e51b815260206004820181905260248201527f4f776e61626c653a2063616c6c6572206973206e6f7420746865206f776e65726044820152606401610491565b600080546001600160a01b038381166001600160a01b0319831681178455604051919092169283917f8be0079c531659141344cd1fd0a4f28419497f9722a3daafe3b4186f6b6457e09190a35050565b60006020828403121561099b57600080fd5b81356001600160a01b03811681146109b257600080fd5b9392505050565b6000602082840312156109cb57600080fd5b5035919050565b600080604083850312156109e557600080fd5b50508035926020909101359150565b634e487b7160e01b600052601160045260246000fd5b8082018082111561036f5761036f6109f4565b8181038181111561036f5761036f6109f4565b808202811582820484141761036f5761036f6109f4565b6001600160a01b039384168152919092166020820152604081019190915260600190565b600060208284031215610a7d57600080fd5b815180151581146109b257600080fd5b600082610aaa57634e487b7160e01b600052601260045260246000fd5b50049056fea26469706673582212209f352b79bf0df4edf97d5bc17bcaf7aa14aa336ab5dd332ae08a81b1805a494d64736f6c63430008110033","opcodes":"PUSH1 0xC0 PUSH1 0x40 MSTORE PUSH3 0x4F1A00 PUSH1 0x4 SSTORE PUSH5 0xE8D4A51000 PUSH1 0x5 SSTORE PUSH1 0x2 PUSH1 0x6 SSTORE CALLVALUE DUP1 ISZERO PUSH2 0x25 JUMPI PUSH1 0x0 DUP1 REVERT JUMPDEST POP PUSH1 0x40 MLOAD PUSH2 0xC62 CODESIZE SUB DUP1 PUSH2 0xC62 DUP4 CODECOPY DUP2 ADD PUSH1 0x40 DUP2 SWAP1 MSTORE PUSH2 0x44 SWAP2 PUSH2 0xF6 JUMP JUMPDEST PUSH2 0x4D CALLER PUSH2 0x8A JUMP JUMPDEST PUSH1 0x8 DUP1 SLOAD PUSH1 0x1 PUSH1 0x1 PUSH1 0xA0 SHL SUB SWAP6 DUP7 AND PUSH1 0x1 PUSH1 0x1 PUSH1 0xA0 SHL SUB NOT SWAP2 DUP3 AND OR SWAP1 SWAP2 SSTORE SWAP3 DUP5 AND PUSH1 0x80 MSTORE SWAP1 DUP4 AND PUSH1 0xA0 MSTORE PUSH1 0x9 DUP1 SLOAD SWAP2 SWAP1 SWAP4 AND SWAP2 AND OR SWAP1 SSTORE PUSH2 0x14A JUMP JUMPDEST PUSH1 0x0 DUP1 SLOAD PUSH1 0x1 PUSH1 0x1 PUSH1 0xA0 SHL SUB DUP4 DUP2 AND PUSH1 0x1 PUSH1 0x1 PUSH1 0xA0 SHL SUB NOT DUP4 AND DUP2 OR DUP5 SSTORE PUSH1 0x40 MLOAD SWAP2 SWAP1 SWAP3 AND SWAP3 DUP4 SWAP2 PUSH32 0x8BE0079C531659141344CD1FD0A4F28419497F9722A3DAAFE3B4186F6B6457E0 SWAP2 SWAP1 LOG3 POP POP JUMP JUMPDEST DUP1 MLOAD PUSH1 0x1 PUSH1 0x1 PUSH1 0xA0 SHL SUB DUP2 AND DUP2 EQ PUSH2 0xF1 JUMPI PUSH1 0x0 DUP1 REVERT JUMPDEST SWAP2 SWAP1 POP JUMP JUMPDEST PUSH1 0x0 DUP1 PUSH1 0x0 DUP1 PUSH1 0x80 DUP6 DUP8 SUB SLT ISZERO PUSH2 0x10C JUMPI PUSH1 0x0 DUP1 REVERT JUMPDEST PUSH2 0x115 DUP6 PUSH2 0xDA JUMP JUMPDEST SWAP4 POP PUSH2 0x123 PUSH1 0x20 DUP7 ADD PUSH2 0xDA JUMP JUMPDEST SWAP3 POP PUSH2 0x131 PUSH1 0x40 DUP7 ADD PUSH2 0xDA JUMP JUMPDEST SWAP2 POP PUSH2 0x13F PUSH1 0x60 DUP7 ADD PUSH2 0xDA JUMP JUMPDEST SWAP1 POP SWAP3 SWAP6 SWAP2 SWAP5 POP SWAP3 POP JUMP JUMPDEST PUSH1 0x80 MLOAD PUSH1 0xA0 MLOAD PUSH2 0xAE5 PUSH2 0x17D PUSH1 0x0 CODECOPY PUSH1 0x0 DUP2 DUP2 PUSH2 0x1AC ADD MSTORE PUSH2 0x51D ADD MSTORE PUSH1 0x0 DUP2 DUP2 PUSH2 0x27B ADD MSTORE PUSH2 0x71D ADD MSTORE PUSH2 0xAE5 PUSH1 0x0 RETURN INVALID PUSH1 0x80 PUSH1 0x40 MSTORE CALLVALUE DUP1 ISZERO PUSH2 0x10 JUMPI PUSH1 0x0 DUP1 REVERT JUMPDEST POP PUSH1 0x4 CALLDATASIZE LT PUSH2 0x127 JUMPI PUSH1 0x0 CALLDATALOAD PUSH1 0xE0 SHR DUP1 PUSH3 0x46A76A EQ PUSH2 0x12C JUMPI DUP1 PUSH4 0x9FDE080 EQ PUSH2 0x154 JUMPI DUP1 PUSH4 0x10B40B49 EQ PUSH2 0x175 JUMPI DUP1 PUSH4 0x221A3F8C EQ PUSH2 0x189 JUMPI DUP1 PUSH4 0x26B321D1 EQ PUSH2 0x192 JUMPI DUP1 PUSH4 0x2FA81A71 EQ PUSH2 0x1A7 JUMPI DUP1 PUSH4 0x32E5EEAF EQ PUSH2 0x1E6 JUMPI DUP1 PUSH4 0x3D3E42C1 EQ PUSH2 0x1F9 JUMPI DUP1 PUSH4 0x4D88DB4D EQ PUSH2 0x201 JUMPI DUP1 PUSH4 0x4E71D92D EQ PUSH2 0x214 JUMPI DUP1 PUSH4 0x550066D5 EQ PUSH2 0x21C JUMPI DUP1 PUSH4 0x699A20B8 EQ PUSH2 0x225 JUMPI DUP1 PUSH4 0x715018A6 EQ PUSH2 0x22E JUMPI DUP1 PUSH4 0x7EB96B7B EQ PUSH2 0x236 JUMPI DUP1 PUSH4 0x80F323A7 EQ PUSH2 0x249 JUMPI DUP1 PUSH4 0x8DA5CB5B EQ PUSH2 0x252 JUMPI DUP1 PUSH4 0x9940686E EQ PUSH2 0x25A JUMPI DUP1 PUSH4 0xC31C6FB9 EQ PUSH2 0x26D JUMPI DUP1 PUSH4 0xC54E44EB EQ PUSH2 0x276 JUMPI DUP1 PUSH4 0xCD1234B3 EQ PUSH2 0x29D JUMPI DUP1 PUSH4 0xD7CCFB0B EQ PUSH2 0x2E7 JUMPI DUP1 PUSH4 0xE03D44A1 EQ PUSH2 0x2F0 JUMPI DUP1 PUSH4 0xE1FBE49A EQ PUSH2 0x2F8 JUMPI DUP1 PUSH4 0xF2FDE38B EQ PUSH2 0x30B JUMPI JUMPDEST PUSH1 0x0 DUP1 REVERT JUMPDEST PUSH2 0x13F PUSH2 0x13A CALLDATASIZE PUSH1 0x4 PUSH2 0x989 JUMP JUMPDEST PUSH2 0x31E JUMP JUMPDEST PUSH1 0x40 MLOAD SWAP1 ISZERO ISZERO DUP2 MSTORE PUSH1 0x20 ADD JUMPDEST PUSH1 0x40 MLOAD DUP1 SWAP2 SUB SWAP1 RETURN JUMPDEST PUSH2 0x167 PUSH2 0x162 CALLDATASIZE PUSH1 0x4 PUSH2 0x989 JUMP JUMPDEST PUSH2 0x375 JUMP JUMPDEST PUSH1 0x40 MLOAD SWAP1 DUP2 MSTORE PUSH1 0x20 ADD PUSH2 0x14B JUMP JUMPDEST PUSH1 0x0 SLOAD PUSH2 0x13F SWAP1 PUSH1 0x1 PUSH1 0xA0 SHL SWAP1 DIV PUSH1 0xFF AND DUP2 JUMP JUMPDEST PUSH2 0x167 PUSH1 0x5 SLOAD DUP2 JUMP JUMPDEST PUSH2 0x1A5 PUSH2 0x1A0 CALLDATASIZE PUSH1 0x4 PUSH2 0x9B9 JUMP JUMPDEST PUSH2 0x3E2 JUMP JUMPDEST STOP JUMPDEST PUSH2 0x1CE PUSH32 0x0 DUP2 JUMP JUMPDEST PUSH1 0x40 MLOAD PUSH1 0x1 PUSH1 0x1 PUSH1 0xA0 SHL SUB SWAP1 SWAP2 AND DUP2 MSTORE PUSH1 0x20 ADD PUSH2 0x14B JUMP JUMPDEST PUSH2 0x1A5 PUSH2 0x1F4 CALLDATASIZE PUSH1 0x4 PUSH2 0x9B9 JUMP JUMPDEST PUSH2 0x3EF JUMP JUMPDEST PUSH2 0x1A5 PUSH2 0x3FC JUMP JUMPDEST PUSH2 0x1A5 PUSH2 0x20F CALLDATASIZE PUSH1 0x4 PUSH2 0x9D2 JUMP JUMPDEST PUSH2 0x413 JUMP JUMPDEST PUSH2 0x1A5 PUSH2 0x44E JUMP JUMPDEST PUSH2 0x167 PUSH1 0x4 SLOAD DUP2 JUMP JUMPDEST PUSH2 0x167 PUSH1 0x6 SLOAD DUP2 JUMP JUMPDEST PUSH2 0x1A5 PUSH2 0x5DE JUMP JUMPDEST PUSH2 0x167 PUSH2 0x244 CALLDATASIZE PUSH1 0x4 PUSH2 0x989 JUMP JUMPDEST PUSH2 0x5F2 JUMP JUMPDEST PUSH2 0x167 PUSH1 0x1 SLOAD DUP2 JUMP JUMPDEST PUSH2 0x1CE PUSH2 0x65D JUMP JUMPDEST PUSH2 0x1A5 PUSH2 0x268 CALLDATASIZE PUSH1 0x4 PUSH2 0x9B9 JUMP JUMPDEST PUSH2 0x66C JUMP JUMPDEST PUSH2 0x167 PUSH1 0x3 SLOAD DUP2 JUMP JUMPDEST PUSH2 0x1CE PUSH32 0x0 DUP2 JUMP JUMPDEST PUSH2 0x2CC PUSH2 0x2AB CALLDATASIZE PUSH1 0x4 PUSH2 0x989 JUMP JUMPDEST PUSH1 0xA PUSH1 0x20 MSTORE PUSH1 0x0 SWAP1 DUP2 MSTORE PUSH1 0x40 SWAP1 KECCAK256 DUP1 SLOAD PUSH1 0x1 DUP3 ADD SLOAD PUSH1 0x2 SWAP1 SWAP3 ADD SLOAD SWAP1 SWAP2 SWAP1 DUP4 JUMP JUMPDEST PUSH1 0x40 DUP1 MLOAD SWAP4 DUP5 MSTORE PUSH1 0x20 DUP5 ADD SWAP3 SWAP1 SWAP3 MSTORE SWAP1 DUP3 ADD MSTORE PUSH1 0x60 ADD PUSH2 0x14B JUMP JUMPDEST PUSH2 0x167 PUSH1 0x7 SLOAD DUP2 JUMP JUMPDEST PUSH2 0x13F PUSH2 0x7E3 JUMP JUMPDEST PUSH2 0x13F PUSH2 0x306 CALLDATASIZE PUSH1 0x4 PUSH2 0x9B9 JUMP JUMPDEST PUSH2 0x7FC JUMP JUMPDEST PUSH2 0x1A5 PUSH2 0x319 CALLDATASIZE PUSH1 0x4 PUSH2 0x989 JUMP JUMPDEST PUSH2 0x861 JUMP JUMPDEST PUSH1 0x1 PUSH1 0x1 PUSH1 0xA0 SHL SUB DUP2 AND PUSH1 0x0 SWAP1 DUP2 MSTORE PUSH1 0xA PUSH1 0x20 MSTORE PUSH1 0x40 DUP2 KECCAK256 PUSH1 0x1 ADD SLOAD ISZERO DUP1 ISZERO SWAP1 PUSH2 0x36F JUMPI POP PUSH1 0x4 SLOAD PUSH1 0x1 PUSH1 0x1 PUSH1 0xA0 SHL SUB DUP4 AND PUSH1 0x0 SWAP1 DUP2 MSTORE PUSH1 0xA PUSH1 0x20 MSTORE PUSH1 0x40 SWAP1 KECCAK256 PUSH1 0x1 ADD SLOAD TIMESTAMP SWAP2 PUSH2 0x36D SWAP2 PUSH2 0xA0A JUMP JUMPDEST LT JUMPDEST SWAP3 SWAP2 POP POP JUMP JUMPDEST PUSH1 0x4 SLOAD PUSH1 0x1 PUSH1 0x1 PUSH1 0xA0 SHL SUB DUP3 AND PUSH1 0x0 SWAP1 DUP2 MSTORE PUSH1 0xA PUSH1 0x20 MSTORE PUSH1 0x40 DUP2 KECCAK256 PUSH1 0x1 ADD SLOAD SWAP1 SWAP2 TIMESTAMP SWAP2 PUSH2 0x3A2 SWAP2 SWAP1 PUSH2 0xA0A JUMP JUMPDEST GT PUSH2 0x3AE JUMPI PUSH1 0x0 PUSH2 0x36F JUMP JUMPDEST PUSH1 0x4 SLOAD PUSH1 0x1 PUSH1 0x1 PUSH1 0xA0 SHL SUB DUP4 AND PUSH1 0x0 SWAP1 DUP2 MSTORE PUSH1 0xA PUSH1 0x20 MSTORE PUSH1 0x40 SWAP1 KECCAK256 PUSH1 0x1 ADD SLOAD TIMESTAMP SWAP2 PUSH2 0x3D8 SWAP2 PUSH2 0xA0A JUMP JUMPDEST PUSH2 0x36F SWAP2 SWAP1 PUSH2 0xA1D JUMP JUMPDEST PUSH2 0x3EA PUSH2 0x8DA JUMP JUMPDEST PUSH1 0x4 SSTORE JUMP JUMPDEST PUSH2 0x3F7 PUSH2 0x8DA JUMP JUMPDEST PUSH1 0x5 SSTORE JUMP JUMPDEST PUSH2 0x404 PUSH2 0x8DA JUMP JUMPDEST PUSH1 0x0 DUP1 SLOAD PUSH1 0xFF PUSH1 0xA0 SHL NOT AND SWAP1 SSTORE JUMP JUMPDEST PUSH2 0x41B PUSH2 0x8DA JUMP JUMPDEST PUSH1 0x0 DUP1 SLOAD PUSH1 0xFF PUSH1 0xA0 SHL NOT AND PUSH1 0x1 PUSH1 0xA0 SHL OR DUP2 SSTORE PUSH1 0x1 SSTORE TIMESTAMP PUSH1 0x2 SSTORE PUSH1 0x7 DUP3 SWAP1 SSTORE PUSH2 0x447 DUP2 PUSH3 0x15180 PUSH2 0xA30 JUMP JUMPDEST PUSH1 0x3 SSTORE POP POP JUMP JUMPDEST PUSH2 0x457 CALLER PUSH2 0x31E JUMP JUMPDEST PUSH2 0x49A JUMPI PUSH1 0x40 MLOAD PUSH3 0x461BCD PUSH1 0xE5 SHL DUP2 MSTORE PUSH1 0x20 PUSH1 0x4 DUP3 ADD MSTORE PUSH1 0xF PUSH1 0x24 DUP3 ADD MSTORE PUSH15 0x109BDB990E9B9BC8195E1C1A5C9959 PUSH1 0x8A SHL PUSH1 0x44 DUP3 ADD MSTORE PUSH1 0x64 ADD JUMPDEST PUSH1 0x40 MLOAD DUP1 SWAP2 SUB SWAP1 REVERT JUMPDEST CALLER PUSH1 0x0 SWAP1 DUP2 MSTORE PUSH1 0xA PUSH1 0x20 MSTORE PUSH1 0x40 DUP2 KECCAK256 SLOAD SWAP1 SUB PUSH2 0x4EA JUMPI PUSH1 0x40 MLOAD PUSH3 0x461BCD PUSH1 0xE5 SHL DUP2 MSTORE PUSH1 0x20 PUSH1 0x4 DUP3 ADD MSTORE PUSH1 0xF PUSH1 0x24 DUP3 ADD MSTORE PUSH15 0x109BDB990E881B9BC81C995DD85C99 PUSH1 0x8A SHL PUSH1 0x44 DUP3 ADD MSTORE PUSH1 0x64 ADD PUSH2 0x491 JUMP JUMPDEST PUSH1 0x0 PUSH2 0x4F5 CALLER PUSH2 0x5F2 JUMP JUMPDEST CALLER PUSH1 0x0 DUP2 DUP2 MSTORE PUSH1 0xA PUSH1 0x20 MSTORE PUSH1 0x40 DUP1 DUP3 KECCAK256 SWAP2 SWAP1 SWAP2 SSTORE PUSH1 0x9 SLOAD SWAP1 MLOAD PUSH4 0x23B872DD PUSH1 0xE0 SHL DUP2 MSTORE SWAP3 SWAP4 POP PUSH32 0x0 PUSH1 0x1 PUSH1 0x1 PUSH1 0xA0 SHL SUB SWAP1 DUP2 AND SWAP4 PUSH4 0x23B872DD SWAP4 PUSH2 0x561 SWAP4 SWAP1 SWAP3 AND SWAP2 SWAP1 DUP7 SWAP1 PUSH1 0x4 ADD PUSH2 0xA47 JUMP JUMPDEST PUSH1 0x20 PUSH1 0x40 MLOAD DUP1 DUP4 SUB DUP2 PUSH1 0x0 DUP8 GAS CALL ISZERO DUP1 ISZERO PUSH2 0x580 JUMPI RETURNDATASIZE PUSH1 0x0 DUP1 RETURNDATACOPY RETURNDATASIZE PUSH1 0x0 REVERT JUMPDEST POP POP POP POP PUSH1 0x40 MLOAD RETURNDATASIZE PUSH1 0x1F NOT PUSH1 0x1F DUP3 ADD AND DUP3 ADD DUP1 PUSH1 0x40 MSTORE POP DUP2 ADD SWAP1 PUSH2 0x5A4 SWAP2 SWAP1 PUSH2 0xA6B JUMP JUMPDEST POP PUSH1 0x40 MLOAD DUP2 DUP2 MSTORE CALLER SWAP1 PUSH32 0xCF90CF38909CF403E9A6B19BE28F518CAFFF82C84DF42F7BAAA56D1A607663CD SWAP1 PUSH1 0x20 ADD JUMPDEST PUSH1 0x40 MLOAD DUP1 SWAP2 SUB SWAP1 LOG2 POP JUMP JUMPDEST PUSH2 0x5E6 PUSH2 0x8DA JUMP JUMPDEST PUSH2 0x5F0 PUSH1 0x0 PUSH2 0x939 JUMP JUMPDEST JUMP JUMPDEST PUSH1 0x0 DUP1 PUSH1 0x7 SLOAD GT PUSH2 0x604 JUMPI PUSH1 0x0 PUSH2 0x36F JUMP JUMPDEST PUSH1 0x6 SLOAD PUSH1 0x7 SLOAD PUSH1 0x1 PUSH1 0x1 PUSH1 0xA0 SHL SUB DUP5 AND PUSH1 0x0 SWAP1 DUP2 MSTORE PUSH1 0xA PUSH1 0x20 MSTORE PUSH1 0x40 SWAP1 KECCAK256 SLOAD PUSH8 0xDE0B6B3A7640000 SWAP2 SWAP1 PUSH2 0x63F SWAP1 PUSH7 0x2386F26FC10000 PUSH2 0xA30 JUMP JUMPDEST PUSH2 0x649 SWAP2 SWAP1 PUSH2 0xA8D JUMP JUMPDEST PUSH2 0x653 SWAP2 SWAP1 PUSH2 0xA8D JUMP JUMPDEST PUSH2 0x36F SWAP2 SWAP1 PUSH2 0xA30 JUMP JUMPDEST PUSH1 0x0 SLOAD PUSH1 0x1 PUSH1 0x1 PUSH1 0xA0 SHL SUB AND SWAP1 JUMP JUMPDEST PUSH2 0x674 PUSH2 0x7E3 JUMP JUMPDEST DUP1 ISZERO PUSH2 0x684 JUMPI POP PUSH2 0x684 DUP2 PUSH2 0x7FC JUMP JUMPDEST PUSH2 0x6C0 JUMPI PUSH1 0x40 MLOAD PUSH3 0x461BCD PUSH1 0xE5 SHL DUP2 MSTORE PUSH1 0x20 PUSH1 0x4 DUP3 ADD MSTORE PUSH1 0xD PUSH1 0x24 DUP3 ADD MSTORE PUSH13 0x6E6F7420617661696C61626C65 PUSH1 0x98 SHL PUSH1 0x44 DUP3 ADD MSTORE PUSH1 0x64 ADD PUSH2 0x491 JUMP JUMPDEST CALLER PUSH1 0x0 SWAP1 DUP2 MSTORE PUSH1 0xA PUSH1 0x20 MSTORE PUSH1 0x40 DUP2 KECCAK256 DUP1 SLOAD DUP4 SWAP3 SWAP1 PUSH2 0x6DF SWAP1 DUP5 SWAP1 PUSH2 0xA0A JUMP JUMPDEST SWAP1 SWAP2 SSTORE POP POP CALLER PUSH1 0x0 DUP2 DUP2 MSTORE PUSH1 0xA PUSH1 0x20 MSTORE PUSH1 0x40 SWAP1 DUP2 SWAP1 KECCAK256 TIMESTAMP PUSH1 0x1 DUP3 ADD SSTORE PUSH1 0x7 SLOAD PUSH1 0x2 SWAP1 SWAP2 ADD SSTORE PUSH1 0x8 SLOAD SWAP1 MLOAD PUSH4 0x23B872DD PUSH1 0xE0 SHL DUP2 MSTORE PUSH1 0x1 PUSH1 0x1 PUSH1 0xA0 SHL SUB PUSH32 0x0 DUP2 AND SWAP4 PUSH4 0x23B872DD SWAP4 PUSH2 0x757 SWAP4 SWAP2 SWAP3 AND SWAP1 DUP7 SWAP1 PUSH1 0x4 ADD PUSH2 0xA47 JUMP JUMPDEST PUSH1 0x20 PUSH1 0x40 MLOAD DUP1 DUP4 SUB DUP2 PUSH1 0x0 DUP8 GAS CALL ISZERO DUP1 ISZERO PUSH2 0x776 JUMPI RETURNDATASIZE PUSH1 0x0 DUP1 RETURNDATACOPY RETURNDATASIZE PUSH1 0x0 REVERT JUMPDEST POP POP POP POP PUSH1 0x40 MLOAD RETURNDATASIZE PUSH1 0x1F NOT PUSH1 0x1F DUP3 ADD AND DUP3 ADD DUP1 PUSH1 0x40 MSTORE POP DUP2 ADD SWAP1 PUSH2 0x79A SWAP2 SWAP1 PUSH2 0xA6B JUMP JUMPDEST POP CALLER PUSH1 0x0 DUP2 DUP2 MSTORE PUSH1 0xA PUSH1 0x20 SWAP1 DUP2 MSTORE PUSH1 0x40 SWAP2 DUP3 SWAP1 KECCAK256 PUSH1 0x1 ADD SLOAD DUP3 MLOAD DUP6 DUP2 MSTORE SWAP2 DUP3 ADD MSTORE PUSH32 0x60BF72B9ACAEE8F3F1E5D2C4A34AF2C7120CB51ED5E94133D5EDC0C5FF82CB4 SWAP2 ADD PUSH2 0x5D3 JUMP JUMPDEST PUSH1 0x0 TIMESTAMP PUSH1 0x3 SLOAD PUSH1 0x2 SLOAD PUSH2 0x7F6 SWAP2 SWAP1 PUSH2 0xA0A JUMP JUMPDEST GT SWAP1 POP SWAP1 JUMP JUMPDEST PUSH1 0x0 DUP1 PUSH1 0x7 SLOAD GT DUP1 ISZERO PUSH2 0x36F JUMPI POP PUSH1 0x1 SLOAD PUSH1 0x6 SLOAD PUSH1 0x7 SLOAD PUSH8 0xDE0B6B3A7640000 SWAP1 PUSH2 0x82E DUP7 PUSH7 0x2386F26FC10000 PUSH2 0xA30 JUMP JUMPDEST PUSH2 0x838 SWAP2 SWAP1 PUSH2 0xA8D JUMP JUMPDEST PUSH2 0x842 SWAP2 SWAP1 PUSH2 0xA8D JUMP JUMPDEST PUSH2 0x84C SWAP2 SWAP1 PUSH2 0xA30 JUMP JUMPDEST PUSH2 0x856 SWAP2 SWAP1 PUSH2 0xA0A JUMP JUMPDEST PUSH1 0x5 SLOAD LT ISZERO SWAP3 SWAP2 POP POP JUMP JUMPDEST PUSH2 0x869 PUSH2 0x8DA JUMP JUMPDEST PUSH1 0x1 PUSH1 0x1 PUSH1 0xA0 SHL SUB DUP2 AND PUSH2 0x8CE JUMPI PUSH1 0x40 MLOAD PUSH3 0x461BCD PUSH1 0xE5 SHL DUP2 MSTORE PUSH1 0x20 PUSH1 0x4 DUP3 ADD MSTORE PUSH1 0x26 PUSH1 0x24 DUP3 ADD MSTORE PUSH32 0x4F776E61626C653A206E6577206F776E657220697320746865207A65726F2061 PUSH1 0x44 DUP3 ADD MSTORE PUSH6 0x646472657373 PUSH1 0xD0 SHL PUSH1 0x64 DUP3 ADD MSTORE PUSH1 0x84 ADD PUSH2 0x491 JUMP JUMPDEST PUSH2 0x8D7 DUP2 PUSH2 0x939 JUMP JUMPDEST POP JUMP JUMPDEST CALLER PUSH2 0x8E3 PUSH2 0x65D JUMP JUMPDEST PUSH1 0x1 PUSH1 0x1 PUSH1 0xA0 SHL SUB AND EQ PUSH2 0x5F0 JUMPI PUSH1 0x40 MLOAD PUSH3 0x461BCD PUSH1 0xE5 SHL DUP2 MSTORE PUSH1 0x20 PUSH1 0x4 DUP3 ADD DUP2 SWAP1 MSTORE PUSH1 0x24 DUP3 ADD MSTORE PUSH32 0x4F776E61626C653A2063616C6C6572206973206E6F7420746865206F776E6572 PUSH1 0x44 DUP3 ADD MSTORE PUSH1 0x64 ADD PUSH2 0x491 JUMP JUMPDEST PUSH1 0x0 DUP1 SLOAD PUSH1 0x1 PUSH1 0x1 PUSH1 0xA0 SHL SUB DUP4 DUP2 AND PUSH1 0x1 PUSH1 0x1 PUSH1 0xA0 SHL SUB NOT DUP4 AND DUP2 OR DUP5 SSTORE PUSH1 0x40 MLOAD SWAP2 SWAP1 SWAP3 AND SWAP3 DUP4 SWAP2 PUSH32 0x8BE0079C531659141344CD1FD0A4F28419497F9722A3DAAFE3B4186F6B6457E0 SWAP2 SWAP1 LOG3 POP POP JUMP JUMPDEST PUSH1 0x0 PUSH1 0x20 DUP3 DUP5 SUB SLT ISZERO PUSH2 0x99B JUMPI PUSH1 0x0 DUP1 REVERT JUMPDEST DUP2 CALLDATALOAD PUSH1 0x1 PUSH1 0x1 PUSH1 0xA0 SHL SUB DUP2 AND DUP2 EQ PUSH2 0x9B2 JUMPI PUSH1 0x0 DUP1 REVERT JUMPDEST SWAP4 SWAP3 POP POP POP JUMP JUMPDEST PUSH1 0x0 PUSH1 0x20 DUP3 DUP5 SUB SLT ISZERO PUSH2 0x9CB JUMPI PUSH1 0x0 DUP1 REVERT JUMPDEST POP CALLDATALOAD SWAP2 SWAP1 POP JUMP JUMPDEST PUSH1 0x0 DUP1 PUSH1 0x40 DUP4 DUP6 SUB SLT ISZERO PUSH2 0x9E5 JUMPI PUSH1 0x0 DUP1 REVERT JUMPDEST POP POP DUP1 CALLDATALOAD SWAP3 PUSH1 0x20 SWAP1 SWAP2 ADD CALLDATALOAD SWAP2 POP JUMP JUMPDEST PUSH4 0x4E487B71 PUSH1 0xE0 SHL PUSH1 0x0 MSTORE PUSH1 0x11 PUSH1 0x4 MSTORE PUSH1 0x24 PUSH1 0x0 REVERT JUMPDEST DUP1 DUP3 ADD DUP1 DUP3 GT ISZERO PUSH2 0x36F JUMPI PUSH2 0x36F PUSH2 0x9F4 JUMP JUMPDEST DUP2 DUP2 SUB DUP2 DUP2 GT ISZERO PUSH2 0x36F JUMPI PUSH2 0x36F PUSH2 0x9F4 JUMP JUMPDEST DUP1 DUP3 MUL DUP2 ISZERO DUP3 DUP3 DIV DUP5 EQ OR PUSH2 0x36F JUMPI PUSH2 0x36F PUSH2 0x9F4 JUMP JUMPDEST PUSH1 0x1 PUSH1 0x1 PUSH1 0xA0 SHL SUB SWAP4 DUP5 AND DUP2 MSTORE SWAP2 SWAP1 SWAP3 AND PUSH1 0x20 DUP3 ADD MSTORE PUSH1 0x40 DUP2 ADD SWAP2 SWAP1 SWAP2 MSTORE PUSH1 0x60 ADD SWAP1 JUMP JUMPDEST PUSH1 0x0 PUSH1 0x20 DUP3 DUP5 SUB SLT ISZERO PUSH2 0xA7D JUMPI PUSH1 0x0 DUP1 REVERT JUMPDEST DUP2 MLOAD DUP1 ISZERO ISZERO DUP2 EQ PUSH2 0x9B2 JUMPI PUSH1 0x0 DUP1 REVERT JUMPDEST PUSH1 0x0 DUP3 PUSH2 0xAAA JUMPI PUSH4 0x4E487B71 PUSH1 0xE0 SHL PUSH1 0x0 MSTORE PUSH1 0x12 PUSH1 0x4 MSTORE PUSH1 0x24 PUSH1 0x0 REVERT JUMPDEST POP DIV SWAP1 JUMP INVALID LOG2 PUSH5 0x6970667358 0x22 SLT KECCAK256 SWAP16 CALLDATALOAD 0x2B PUSH26 0xBF0DF4EDF97D5BC17BCAF7AA14AA336AB5DD332AE08A81B1805A 0x49 0x4D PUSH5 0x736F6C6343 STOP ADDMOD GT STOP CALLER "},"methodIdentifiers":{"DOUBLE_MULTER()":"699a20b8","USDT()":"c54e44eb","bitConey()":"2fa81a71","bond(uint256)":"9940686e","bondAmount()":"80f323a7","bondInfo(address)":"cd1234b3","bondPrice()":"d7ccfb0b","bondingPeriod()":"c31c6fb9","claim()":"4e71d92d","getUserClaimTime(address)":"09fde080","isAvailableBondByAmount(uint256)":"e1fbe49a","isAvailableBondByTime()":"e03d44a1","isAvailableClaim(address)":"0046a76a","lockingPeriod()":"550066d5","maxBondAmount()":"221a3f8c","owner()":"8da5cb5b","renounceOwnership()":"715018a6","setInitialBondState()":"3d3e42c1","setLockingPeriod(uint256)":"26b321d1","setMaxBondAmount(uint256)":"32e5eeaf","setStartBond(uint256,uint256)":"4d88db4d","startBond()":"10b40b49","transferOwnership(address)":"f2fde38b","userClaimAmount(address)":"7eb96b7b"}},"storageLayout":{"storage":[{"astId":7,"contract":"contracts/Bond.sol:Bond","label":"_owner","offset":0,"slot":"0","type":"t_address"},{"astId":247,"contract":"contracts/Bond.sol:Bond","label":"startBond","offset":20,"slot":"0","type":"t_bool"},{"astId":249,"contract":"contracts/Bond.sol:Bond","label":"bondAmount","offset":0,"slot":"1","type":"t_uint256"},{"astId":251,"contract":"contracts/Bond.sol:Bond","label":"bondStartTime","offset":0,"slot":"2","type":"t_uint256"},{"astId":253,"contract":"contracts/Bond.sol:Bond","label":"bondingPeriod","offset":0,"slot":"3","type":"t_uint256"},{"astId":256,"contract":"contracts/Bond.sol:Bond","label":"lockingPeriod","offset":0,"slot":"4","type":"t_uint256"},{"astId":263,"contract":"contracts/Bond.sol:Bond","label":"maxBondAmount","offset":0,"slot":"5","type":"t_uint256"},{"astId":266,"contract":"contracts/Bond.sol:Bond","label":"DOUBLE_MULTER","offset":0,"slot":"6","type":"t_uint256"},{"astId":268,"contract":"contracts/Bond.sol:Bond","label":"bondPrice","offset":0,"slot":"7","type":"t_uint256"},{"astId":275,"contract":"contracts/Bond.sol:Bond","label":"treasuryWallet","offset":0,"slot":"8","type":"t_address"},{"astId":277,"contract":"contracts/Bond.sol:Bond","label":"bitconeyWallet","offset":0,"slot":"9","type":"t_address"},{"astId":289,"contract":"contracts/Bond.sol:Bond","label":"bondInfo","offset":0,"slot":"10","type":"t_mapping(t_address,t_struct(BondInfo)284_storage)"}],"types":{"t_address":{"encoding":"inplace","label":"address","numberOfBytes":"20"},"t_bool":{"encoding":"inplace","label":"bool","numberOfBytes":"1"},"t_mapping(t_address,t_struct(BondInfo)284_storage)":{"encoding":"mapping","key":"t_address","label":"mapping(address => struct Bond.BondInfo)","numberOfBytes":"32","value":"t_struct(BondInfo)284_storage"},"t_struct(BondInfo)284_storage":{"encoding":"inplace","label":"struct Bond.BondInfo","members":[{"astId":279,"contract":"contracts/Bond.sol:Bond","label":"amount","offset":0,"slot":"0","type":"t_uint256"},{"astId":281,"contract":"contracts/Bond.sol:Bond","label":"bondingTime","offset":0,"slot":"1","type":"t_uint256"},{"astId":283,"contract":"contracts/Bond.sol:Bond","label":"bondPrice","offset":0,"slot":"2","type":"t_uint256"}],"numberOfBytes":"96"},"t_uint256":{"encoding":"inplace","label":"uint256","numberOfBytes":"32"}}}}}}