{"contracts/Stake.sol":{"Stake":{"abi":[{"inputs":[{"internalType":"address","name":"_treasury","type":"address"},{"internalType":"address","name":"_manager","type":"address"},{"internalType":"address","name":"_bitConeyAddr","type":"address"},{"internalType":"address","name":"_BUSD","type":"address"},{"internalType":"address","name":"_USDT","type":"address"}],"stateMutability":"nonpayable","type":"constructor"},{"anonymous":false,"inputs":[{"indexed":true,"internalType":"uint256","name":"blockNumber","type":"uint256"},{"indexed":false,"internalType":"uint256","name":"prizeAmount","type":"uint256"},{"indexed":false,"internalType":"uint256","name":"startTime","type":"uint256"}],"name":"CreateBlock","type":"event"},{"anonymous":false,"inputs":[{"indexed":true,"internalType":"uint256","name":"blockNumber","type":"uint256"},{"indexed":false,"internalType":"address","name":"coin","type":"address"},{"indexed":false,"internalType":"uint256","name":"amount","type":"uint256"},{"indexed":false,"internalType":"uint256","name":"stakedTime","type":"uint256"},{"indexed":true,"internalType":"address","name":"user","type":"address"}],"name":"Invest","type":"event"},{"anonymous":false,"inputs":[{"indexed":true,"internalType":"address","name":"previousOwner","type":"address"},{"indexed":true,"internalType":"address","name":"newOwner","type":"address"}],"name":"OwnershipTransferred","type":"event"},{"anonymous":false,"inputs":[{"indexed":false,"internalType":"address","name":"account","type":"address"}],"name":"Paused","type":"event"},{"anonymous":false,"inputs":[{"indexed":false,"internalType":"address","name":"account","type":"address"}],"name":"Unpaused","type":"event"},{"anonymous":false,"inputs":[{"indexed":true,"internalType":"uint256","name":"_blockNumber","type":"uint256"},{"indexed":true,"internalType":"address","name":"user","type":"address"},{"indexed":false,"internalType":"uint256","name":"reward","type":"uint256"},{"indexed":false,"internalType":"uint256","name":"entrance","type":"uint256"}],"name":"Withdraw","type":"event"},{"inputs":[],"name":"BUSD","outputs":[{"internalType":"address","name":"","type":"address"}],"stateMutability":"view","type":"function"},{"inputs":[],"name":"USDT","outputs":[{"internalType":"address","name":"","type":"address"}],"stateMutability":"view","type":"function"},{"inputs":[],"name":"bitConey","outputs":[{"internalType":"contract IERC20Metadata","name":"","type":"address"}],"stateMutability":"view","type":"function"},{"inputs":[{"internalType":"uint256","name":"","type":"uint256"}],"name":"blockInfo","outputs":[{"internalType":"uint256","name":"blockNumber","type":"uint256"},{"internalType":"uint256","name":"prizeAmount","type":"uint256"},{"internalType":"uint256","name":"startTime","type":"uint256"},{"internalType":"uint256","name":"price","type":"uint256"},{"internalType":"uint256","name":"pooledAmount","type":"uint256"}],"stateMutability":"view","type":"function"},{"inputs":[{"internalType":"uint256","name":"_blockNumber","type":"uint256"},{"internalType":"uint256","name":"_prizeAmount","type":"uint256"},{"internalType":"uint256","name":"_price","type":"uint256"}],"name":"createBlock","outputs":[],"stateMutability":"nonpayable","type":"function"},{"inputs":[],"name":"entranceMulter","outputs":[{"internalType":"uint256","name":"","type":"uint256"}],"stateMutability":"view","type":"function"},{"inputs":[{"internalType":"uint256","name":"_blockNumber","type":"uint256"}],"name":"getUserListFromBlock","outputs":[{"internalType":"address[]","name":"userList","type":"address[]"}],"stateMutability":"view","type":"function"},{"inputs":[{"internalType":"uint256","name":"_blockNumber","type":"uint256"},{"internalType":"address","name":"_coin","type":"address"},{"internalType":"uint256","name":"amount","type":"uint256"}],"name":"invest","outputs":[],"stateMutability":"nonpayable","type":"function"},{"inputs":[],"name":"manager","outputs":[{"internalType":"address","name":"","type":"address"}],"stateMutability":"view","type":"function"},{"inputs":[],"name":"maxDepositMulter","outputs":[{"internalType":"uint256","name":"","type":"uint256"}],"stateMutability":"view","type":"function"},{"inputs":[],"name":"maxPooledAmountMulter","outputs":[{"internalType":"uint256","name":"","type":"uint256"}],"stateMutability":"view","type":"function"},{"inputs":[],"name":"owner","outputs":[{"internalType":"address","name":"","type":"address"}],"stateMutability":"view","type":"function"},{"inputs":[],"name":"paused","outputs":[{"internalType":"bool","name":"","type":"bool"}],"stateMutability":"view","type":"function"},{"inputs":[],"name":"priceDecimal","outputs":[{"internalType":"uint256","name":"","type":"uint256"}],"stateMutability":"view","type":"function"},{"inputs":[],"name":"renounceOwnership","outputs":[],"stateMutability":"nonpayable","type":"function"},{"inputs":[{"internalType":"uint256","name":"_multer","type":"uint256"}],"name":"setEntranceMulter","outputs":[],"stateMutability":"nonpayable","type":"function"},{"inputs":[{"internalType":"uint256","name":"time","type":"uint256"}],"name":"setLockTimeforReward","outputs":[],"stateMutability":"nonpayable","type":"function"},{"inputs":[{"internalType":"address","name":"_manager","type":"address"}],"name":"setManager","outputs":[],"stateMutability":"nonpayable","type":"function"},{"inputs":[{"internalType":"uint256","name":"_multer","type":"uint256"}],"name":"setMaxDepositMulter","outputs":[],"stateMutability":"nonpayable","type":"function"},{"inputs":[{"internalType":"uint256","name":"_multer","type":"uint256"}],"name":"setMaxPooledAmountMulter","outputs":[],"stateMutability":"nonpayable","type":"function"},{"inputs":[{"internalType":"uint256","name":"value","type":"uint256"}],"name":"setMinStakeValue","outputs":[],"stateMutability":"nonpayable","type":"function"},{"inputs":[{"internalType":"bool","name":"flag","type":"bool"}],"name":"setPause","outputs":[],"stateMutability":"nonpayable","type":"function"},{"inputs":[{"internalType":"address","name":"_wallet","type":"address"}],"name":"setTreasury","outputs":[],"stateMutability":"nonpayable","type":"function"},{"inputs":[{"internalType":"uint256","name":"time","type":"uint256"}],"name":"setValidTimeforNewBlock","outputs":[],"stateMutability":"nonpayable","type":"function"},{"inputs":[{"internalType":"uint256","name":"","type":"uint256"},{"internalType":"address","name":"","type":"address"}],"name":"stakeInfo","outputs":[{"internalType":"address","name":"coin","type":"address"},{"internalType":"uint256","name":"amount","type":"uint256"},{"internalType":"uint256","name":"stakedTime","type":"uint256"},{"internalType":"bool","name":"refunded","type":"bool"}],"stateMutability":"view","type":"function"},{"inputs":[{"internalType":"address","name":"newOwner","type":"address"}],"name":"transferOwnership","outputs":[],"stateMutability":"nonpayable","type":"function"},{"inputs":[],"name":"treasury","outputs":[{"internalType":"address","name":"","type":"address"}],"stateMutability":"view","type":"function"},{"inputs":[{"internalType":"uint256","name":"_blockNumber","type":"uint256"}],"name":"widthdraw","outputs":[],"stateMutability":"nonpayable","type":"function"}],"evm":{"bytecode":{"linkReferences":{},"object":"60c06040526008600555600a6006556019600755605a60085561012c600a55610e10600b55678ac7230489e80000600c553480156200003d57600080fd5b50604051620019ce380380620019ce833981016040819052620000609162000135565b6200006b33620000c8565b6000805460ff60a01b19169055600380546001600160a01b03199081166001600160a01b03978816179091556004805482169587169590951790945560098054909416928516929092179092559082166080521660a052620001a5565b600080546001600160a01b038381166001600160a01b0319831681178455604051919092169283917f8be0079c531659141344cd1fd0a4f28419497f9722a3daafe3b4186f6b6457e09190a35050565b80516001600160a01b03811681146200013057600080fd5b919050565b600080600080600060a086880312156200014e57600080fd5b620001598662000118565b9450620001696020870162000118565b9350620001796040870162000118565b9250620001896060870162000118565b9150620001996080870162000118565b90509295509295909350565b60805160a0516117f5620001d9600039600081816103a70152610d740152600081816102590152610daf01526117f56000f3fe608060405234801561001057600080fd5b50600436106101545760003560e01c8063065310791461015957806310e4e0191461016e5780631f10a89a146101815780632fa81a71146101945780633bcd77da146101bd5780634228e2211461022157806345c44a1b14610238578063481c6a7514610241578063484f4ea9146102545780634bcf529d1461027b5780634d9859441461028e5780635c975abb146102a157806361d027b3146102b9578063715018a6146102cc5780637584f914146102d4578063814cbf301461034c578063844ed61d1461035f5780638da5cb5b1461037f578063bc9113f014610387578063bedb86fb1461038f578063c54e44eb146103a2578063d0ebdbe7146103c9578063e0da260c146103dc578063f0f44260146103ef578063f2fde38b14610402578063f58cf3ff14610415578063fe3cde3f1461041e578063fecba3a514610431575b600080fd5b61016c61016736600461142f565b610444565b005b61016c61017c366004611448565b61045d565b61016c61018f36600461142f565b61056f565b6009546101a7906001600160a01b031681565b6040516101b49190611474565b60405180910390f35b6101f96101cb36600461142f565b6001602081905260009182526040909120805491810154600282015460048301546005909301549192909185565b604080519586526020860194909452928401919091526060830152608082015260a0016101b4565b61022a60055481565b6040519081526020016101b4565b61022a60075481565b6004546101a7906001600160a01b031681565b6101a77f000000000000000000000000000000000000000000000000000000000000000081565b61016c61028936600461142f565b61057c565b61016c61029c36600461142f565b610589565b6102a9610596565b60405190151581526020016101b4565b6003546101a7906001600160a01b031681565b61016c6105a6565b6103206102e23660046114a4565b6002602081815260009384526040808520909152918352912080546001820154928201546003909201546001600160a01b0390911692919060ff1684565b604080516001600160a01b039095168552602085019390935291830152151560608201526080016101b4565b61016c61035a36600461142f565b6105ba565b61037261036d36600461142f565b6105c7565b6040516101b491906114d0565b6101a761068e565b61022a600881565b61016c61039d36600461152b565b61069d565b6101a77f000000000000000000000000000000000000000000000000000000000000000081565b61016c6103d736600461154f565b6106be565b61016c6103ea36600461142f565b6106e8565b61016c6103fd36600461154f565b610ae8565b61016c61041036600461154f565b610b12565b61022a60085481565b61016c61042c36600461142f565b610b88565b61016c61043f36600461156a565b610ba1565b61044c61103a565b61045781603c6115b5565b600b5550565b610465611099565b6004546001600160a01b031633146104b25760405162461bcd60e51b815260206004820152600b60248201526a2737ba1036b0b730b3b2b960a91b60448201526064015b60405180910390fd5b600083815260016020526040902054156104ff5760405162461bcd60e51b815260206004820152600e60248201526d616c72656164792065786973747360901b60448201526064016104a9565b60008381526001602081905260409182902085815590810184905542600282018190556004909101839055905184917fe0676b694d0bfe16e5e764f5d05a4da18534efe97b72a21aa785e3e6767b42c19161056291868252602082015260400190565b60405180910390a2505050565b61057761103a565b600755565b61058461103a565b600555565b61059161103a565b600c55565b600054600160a01b900460ff1690565b6105ae61103a565b6105b860006110e1565b565b6105c261103a565b600855565b6000818152600160205260409020600301546060906001600160401b038111156105f3576105f36115cc565b60405190808252806020026020018201604052801561061c578160200160208202803683370190505b50600083815260016020908152604091829020600301805483518184028101840190945280845293945091929083018282801561068257602002820191906000526020600020905b81546001600160a01b03168152600190910190602001808311610664575b50505050509050919050565b6000546001600160a01b031690565b6106a561103a565b80156106b6576106b3611131565b50565b6106b361118b565b6106c661103a565b600480546001600160a01b0319166001600160a01b0392909216919091179055565b600081815260026020908152604080832033845290915290206003015460ff161561074a5760405162461bcd60e51b8152602060048201526012602482015271185b1c9958591e481dda5d1a191c985dd95960721b60448201526064016104a9565b600b54600082815260026020818152604080842033855290915290912001544291610774916115e2565b106107ad5760405162461bcd60e51b81526020600482015260096024820152686e6f7420726561647960b81b60448201526064016104a9565b600081815260026020908152604080832033845290915281206001015490036108025760405162461bcd60e51b81526020600482015260076024820152663737903ab9b2b960c91b60448201526064016104a9565b6000805b60008381526001602052604090206003015481101561087a576000838152600160205260409020600301805433919083908110610845576108456115f5565b6000918252602090912001546001600160a01b031603610868576001915061087a565b806108728161160b565b915050610806565b5060018115151461088d5761088d611624565b6006546005546000848152600160208190526040822001549092916108b1916115b5565b6108bb919061163a565b90506000600960009054906101000a90046001600160a01b03166001600160a01b031663313ce5676040518163ffffffff1660e01b8152600401602060405180830381865afa158015610912573d6000803e3d6000fd5b505050506040513d601f19601f82011682018060405250810190610936919061165c565b61094190600a611763565b61094d6008600a611772565b6008546000878152600160208190526040909120600481015491015460649291610976916115b5565b61098091906115b5565b61099290670de0b6b3a76400006115b5565b61099c919061163a565b6109a6919061163a565b6109b0919061163a565b60008581526001602081815260408084208301546002835281852033865290925290922001546109e091906115b5565b6109ea919061163a565b6000858152600260209081526040808320338085529252909120600301805460ff191660011790556009549192506001600160a01b03919091169063a9059cbb90610a3584866115e2565b6040516001600160e01b031960e085901b1681526001600160a01b03909216600483015260248201526044016020604051808303816000875af1158015610a80573d6000803e3d6000fd5b505050506040513d601f19601f82011682018060405250810190610aa4919061177e565b506040805182815260208101849052339186917fb0ecf14e184effded5473bba77dcfab32b094b77ac1fbb36beec2aef55587970910160405180910390a350505050565b610af061103a565b600380546001600160a01b0319166001600160a01b0392909216919091179055565b610b1a61103a565b6001600160a01b038116610b7f5760405162461bcd60e51b815260206004820152602660248201527f4f776e61626c653a206e6577206f776e657220697320746865207a65726f206160448201526564647265737360d01b60648201526084016104a9565b6106b3816110e1565b610b9061103a565b610b9b81603c6115b5565b600a5550565b610ba9611099565b60008381526001602052604090205415801590610bd757506000838152600160208190526040909120015415155b8015610bf3575060008381526001602052604090206002015415155b610c2d5760405162461bcd60e51b815260206004820152600b60248201526a139bdd081a5b9a5d1a585b60aa1b60448201526064016104a9565b600a546000848152600160205260409020600201544291610c4d916115e2565b11610c865760405162461bcd60e51b815260206004820152600960248201526874696d65206f75742160b81b60448201526064016104a9565b600083815260026020908152604080832033845290915290206001015415610ce05760405162461bcd60e51b815260206004820152600d60248201526c63616e7420616464206d6f726560981b60448201526064016104a9565b610cea83826111c7565b610d275760405162461bcd60e51b815260206004820152600e60248201526d1a5b9d985b1a5908185b5bdd5b9d60921b60448201526064016104a9565b610d3183826112d6565b610d725760405162461bcd60e51b8152602060048201526012602482015271195e18d9595908199d5b1b08185b5bdd5b9d60721b60448201526064016104a9565b7f00000000000000000000000000000000000000000000000000000000000000006001600160a01b0316826001600160a01b03161480610de357507f00000000000000000000000000000000000000000000000000000000000000006001600160a01b0316826001600160a01b0316145b610e245760405162461bcd60e51b81526020600482015260126024820152713737ba1030bb30b4b630b136329031b7b4b760711b60448201526064016104a9565b600083815260016020818152604083206003810180549384018155845290832090910180546001600160a01b031916331790558482526005018054839290610e6d9084906115e2565b9091555050600083815260026020818152604080842033808652908352818520600180820188905581546001600160a01b0319166001600160a01b038a81169190911783554292909601919091556009546006546005548b89529583905293909620015494909316936323b872dd9392309291610eea91906115b5565b610ef4919061163a565b6040518463ffffffff1660e01b8152600401610f129392919061179b565b6020604051808303816000875af1158015610f31573d6000803e3d6000fd5b505050506040513d601f19601f82011682018060405250810190610f55919061177e565b506003546040516323b872dd60e01b81526001600160a01b03808516926323b872dd92610f8a9233921690869060040161179b565b6020604051808303816000875af1158015610fa9573d6000803e3d6000fd5b505050506040513d601f19601f82011682018060405250810190610fcd919061177e565b50600083815260026020818152604080842033808652908352938190209092015482516001600160a01b038716815291820185905281830152905185917f7a82030cdcb2e8909ecf6432d973748c3c907ede3a2d61ff7cc5b1c1b8de4287919081900360600190a3505050565b3361104361068e565b6001600160a01b0316146105b85760405162461bcd60e51b815260206004820181905260248201527f4f776e61626c653a2063616c6c6572206973206e6f7420746865206f776e657260448201526064016104a9565b6110a1610596565b156105b85760405162461bcd60e51b815260206004820152601060248201526f14185d5cd8589b194e881c185d5cd95960821b60448201526064016104a9565b600080546001600160a01b038381166001600160a01b0319831681178455604051919092169283917f8be0079c531659141344cd1fd0a4f28419497f9722a3daafe3b4186f6b6457e09190a35050565b611139611099565b6000805460ff60a01b1916600160a01b1790557f62e78cea01bee320cd4e420270b5ea74000d11b0c9f74754ebdbfc544b05a2586111743390565b6040516111819190611474565b60405180910390a1565b6111936113e4565b6000805460ff60a01b191690557f5db9ee0a495bf2e6ff9c91a7834c1ba4fdd244a5e8aa4e537bd38aeae4b073aa33611174565b600081600c54111580156112cd5750600960009054906101000a90046001600160a01b03166001600160a01b031663313ce5676040518163ffffffff1660e01b8152600401602060405180830381865afa158015611229573d6000803e3d6000fd5b505050506040513d601f19601f8201168201806040525081019061124d919061165c565b61125890600a611763565b6112646008600a611772565b6007546000868152600160208190526040909120908101546004909101546064929161128f916115b5565b61129991906115b5565b6112ab90670de0b6b3a76400006115b5565b6112b5919061163a565b6112bf919061163a565b6112c9919061163a565b8211155b90505b92915050565b6009546040805163313ce56760e01b815290516000926001600160a01b03169163313ce5679160048083019260209291908290030181865afa158015611320573d6000803e3d6000fd5b505050506040513d601f19601f82011682018060405250810190611344919061165c565b61134f90600a611763565b61135b6008600a611772565b6008546000868152600160208190526040909120600481015491015460649291611384916115b5565b61138e91906115b5565b6113a090670de0b6b3a76400006115b5565b6113aa919061163a565b6113b4919061163a565b6113be919061163a565b6000848152600160205260409020600501546113db9084906115e2565b11159392505050565b6113ec610596565b6105b85760405162461bcd60e51b815260206004820152601460248201527314185d5cd8589b194e881b9bdd081c185d5cd95960621b60448201526064016104a9565b60006020828403121561144157600080fd5b5035919050565b60008060006060848603121561145d57600080fd5b505081359360208301359350604090920135919050565b6001600160a01b0391909116815260200190565b80356001600160a01b038116811461149f57600080fd5b919050565b600080604083850312156114b757600080fd5b823591506114c760208401611488565b90509250929050565b6020808252825182820181905260009190848201906040850190845b818110156115115783516001600160a01b0316835292840192918401916001016114ec565b50909695505050505050565b80151581146106b357600080fd5b60006020828403121561153d57600080fd5b81356115488161151d565b9392505050565b60006020828403121561156157600080fd5b6112cd82611488565b60008060006060848603121561157f57600080fd5b8335925061158f60208501611488565b9150604084013590509250925092565b634e487b7160e01b600052601160045260246000fd5b80820281158282048414176112d0576112d061159f565b634e487b7160e01b600052604160045260246000fd5b808201808211156112d0576112d061159f565b634e487b7160e01b600052603260045260246000fd5b60006001820161161d5761161d61159f565b5060010190565b634e487b7160e01b600052600160045260246000fd5b60008261165757634e487b7160e01b600052601260045260246000fd5b500490565b60006020828403121561166e57600080fd5b815160ff8116811461154857600080fd5b600181815b808511156116ba5781600019048211156116a0576116a061159f565b808516156116ad57918102915b93841c9390800290611684565b509250929050565b6000826116d1575060016112d0565b816116de575060006112d0565b81600181146116f457600281146116fe5761171a565b60019150506112d0565b60ff84111561170f5761170f61159f565b50506001821b6112d0565b5060208310610133831016604e8410600b841016171561173d575081810a6112d0565b611747838361167f565b806000190482111561175b5761175b61159f565b029392505050565b60006112cd60ff8416836116c2565b60006112cd83836116c2565b60006020828403121561179057600080fd5b81516115488161151d565b6001600160a01b03938416815291909216602082015260408101919091526060019056fea2646970667358221220588f6dab5a61fad7bcf8d1c229dfd11d5741d8fa2e2711f755ad50910783a29b64736f6c63430008110033","opcodes":"PUSH1 0xC0 PUSH1 0x40 MSTORE PUSH1 0x8 PUSH1 0x5 SSTORE PUSH1 0xA PUSH1 0x6 SSTORE PUSH1 0x19 PUSH1 0x7 SSTORE PUSH1 0x5A PUSH1 0x8 SSTORE PUSH2 0x12C PUSH1 0xA SSTORE PUSH2 0xE10 PUSH1 0xB SSTORE PUSH8 0x8AC7230489E80000 PUSH1 0xC SSTORE CALLVALUE DUP1 ISZERO PUSH3 0x3D JUMPI PUSH1 0x0 DUP1 REVERT JUMPDEST POP PUSH1 0x40 MLOAD PUSH3 0x19CE CODESIZE SUB DUP1 PUSH3 0x19CE DUP4 CODECOPY DUP2 ADD PUSH1 0x40 DUP2 SWAP1 MSTORE PUSH3 0x60 SWAP2 PUSH3 0x135 JUMP JUMPDEST PUSH3 0x6B CALLER PUSH3 0xC8 JUMP JUMPDEST PUSH1 0x0 DUP1 SLOAD PUSH1 0xFF PUSH1 0xA0 SHL NOT AND SWAP1 SSTORE PUSH1 0x3 DUP1 SLOAD PUSH1 0x1 PUSH1 0x1 PUSH1 0xA0 SHL SUB NOT SWAP1 DUP2 AND PUSH1 0x1 PUSH1 0x1 PUSH1 0xA0 SHL SUB SWAP8 DUP9 AND OR SWAP1 SWAP2 SSTORE PUSH1 0x4 DUP1 SLOAD DUP3 AND SWAP6 DUP8 AND SWAP6 SWAP1 SWAP6 OR SWAP1 SWAP5 SSTORE PUSH1 0x9 DUP1 SLOAD SWAP1 SWAP5 AND SWAP3 DUP6 AND SWAP3 SWAP1 SWAP3 OR SWAP1 SWAP3 SSTORE SWAP1 DUP3 AND PUSH1 0x80 MSTORE AND PUSH1 0xA0 MSTORE PUSH3 0x1A5 JUMP JUMPDEST PUSH1 0x0 DUP1 SLOAD PUSH1 0x1 PUSH1 0x1 PUSH1 0xA0 SHL SUB DUP4 DUP2 AND PUSH1 0x1 PUSH1 0x1 PUSH1 0xA0 SHL SUB NOT DUP4 AND DUP2 OR DUP5 SSTORE PUSH1 0x40 MLOAD SWAP2 SWAP1 SWAP3 AND SWAP3 DUP4 SWAP2 PUSH32 0x8BE0079C531659141344CD1FD0A4F28419497F9722A3DAAFE3B4186F6B6457E0 SWAP2 SWAP1 LOG3 POP POP JUMP JUMPDEST DUP1 MLOAD PUSH1 0x1 PUSH1 0x1 PUSH1 0xA0 SHL SUB DUP2 AND DUP2 EQ PUSH3 0x130 JUMPI PUSH1 0x0 DUP1 REVERT JUMPDEST SWAP2 SWAP1 POP JUMP JUMPDEST PUSH1 0x0 DUP1 PUSH1 0x0 DUP1 PUSH1 0x0 PUSH1 0xA0 DUP7 DUP9 SUB SLT ISZERO PUSH3 0x14E JUMPI PUSH1 0x0 DUP1 REVERT JUMPDEST PUSH3 0x159 DUP7 PUSH3 0x118 JUMP JUMPDEST SWAP5 POP PUSH3 0x169 PUSH1 0x20 DUP8 ADD PUSH3 0x118 JUMP JUMPDEST SWAP4 POP PUSH3 0x179 PUSH1 0x40 DUP8 ADD PUSH3 0x118 JUMP JUMPDEST SWAP3 POP PUSH3 0x189 PUSH1 0x60 DUP8 ADD PUSH3 0x118 JUMP JUMPDEST SWAP2 POP PUSH3 0x199 PUSH1 0x80 DUP8 ADD PUSH3 0x118 JUMP JUMPDEST SWAP1 POP SWAP3 SWAP6 POP SWAP3 SWAP6 SWAP1 SWAP4 POP JUMP JUMPDEST PUSH1 0x80 MLOAD PUSH1 0xA0 MLOAD PUSH2 0x17F5 PUSH3 0x1D9 PUSH1 0x0 CODECOPY PUSH1 0x0 DUP2 DUP2 PUSH2 0x3A7 ADD MSTORE PUSH2 0xD74 ADD MSTORE PUSH1 0x0 DUP2 DUP2 PUSH2 0x259 ADD MSTORE PUSH2 0xDAF ADD MSTORE PUSH2 0x17F5 PUSH1 0x0 RETURN INVALID PUSH1 0x80 PUSH1 0x40 MSTORE CALLVALUE DUP1 ISZERO PUSH2 0x10 JUMPI PUSH1 0x0 DUP1 REVERT JUMPDEST POP PUSH1 0x4 CALLDATASIZE LT PUSH2 0x154 JUMPI PUSH1 0x0 CALLDATALOAD PUSH1 0xE0 SHR DUP1 PUSH4 0x6531079 EQ PUSH2 0x159 JUMPI DUP1 PUSH4 0x10E4E019 EQ PUSH2 0x16E JUMPI DUP1 PUSH4 0x1F10A89A EQ PUSH2 0x181 JUMPI DUP1 PUSH4 0x2FA81A71 EQ PUSH2 0x194 JUMPI DUP1 PUSH4 0x3BCD77DA EQ PUSH2 0x1BD JUMPI DUP1 PUSH4 0x4228E221 EQ PUSH2 0x221 JUMPI DUP1 PUSH4 0x45C44A1B EQ PUSH2 0x238 JUMPI DUP1 PUSH4 0x481C6A75 EQ PUSH2 0x241 JUMPI DUP1 PUSH4 0x484F4EA9 EQ PUSH2 0x254 JUMPI DUP1 PUSH4 0x4BCF529D EQ PUSH2 0x27B JUMPI DUP1 PUSH4 0x4D985944 EQ PUSH2 0x28E JUMPI DUP1 PUSH4 0x5C975ABB EQ PUSH2 0x2A1 JUMPI DUP1 PUSH4 0x61D027B3 EQ PUSH2 0x2B9 JUMPI DUP1 PUSH4 0x715018A6 EQ PUSH2 0x2CC JUMPI DUP1 PUSH4 0x7584F914 EQ PUSH2 0x2D4 JUMPI DUP1 PUSH4 0x814CBF30 EQ PUSH2 0x34C JUMPI DUP1 PUSH4 0x844ED61D EQ PUSH2 0x35F JUMPI DUP1 PUSH4 0x8DA5CB5B EQ PUSH2 0x37F JUMPI DUP1 PUSH4 0xBC9113F0 EQ PUSH2 0x387 JUMPI DUP1 PUSH4 0xBEDB86FB EQ PUSH2 0x38F JUMPI DUP1 PUSH4 0xC54E44EB EQ PUSH2 0x3A2 JUMPI DUP1 PUSH4 0xD0EBDBE7 EQ PUSH2 0x3C9 JUMPI DUP1 PUSH4 0xE0DA260C EQ PUSH2 0x3DC JUMPI DUP1 PUSH4 0xF0F44260 EQ PUSH2 0x3EF JUMPI DUP1 PUSH4 0xF2FDE38B EQ PUSH2 0x402 JUMPI DUP1 PUSH4 0xF58CF3FF EQ PUSH2 0x415 JUMPI DUP1 PUSH4 0xFE3CDE3F EQ PUSH2 0x41E JUMPI DUP1 PUSH4 0xFECBA3A5 EQ PUSH2 0x431 JUMPI JUMPDEST PUSH1 0x0 DUP1 REVERT JUMPDEST PUSH2 0x16C PUSH2 0x167 CALLDATASIZE PUSH1 0x4 PUSH2 0x142F JUMP JUMPDEST PUSH2 0x444 JUMP JUMPDEST STOP JUMPDEST PUSH2 0x16C PUSH2 0x17C CALLDATASIZE PUSH1 0x4 PUSH2 0x1448 JUMP JUMPDEST PUSH2 0x45D JUMP JUMPDEST PUSH2 0x16C PUSH2 0x18F CALLDATASIZE PUSH1 0x4 PUSH2 0x142F JUMP JUMPDEST PUSH2 0x56F JUMP JUMPDEST PUSH1 0x9 SLOAD PUSH2 0x1A7 SWAP1 PUSH1 0x1 PUSH1 0x1 PUSH1 0xA0 SHL SUB AND DUP2 JUMP JUMPDEST PUSH1 0x40 MLOAD PUSH2 0x1B4 SWAP2 SWAP1 PUSH2 0x1474 JUMP JUMPDEST PUSH1 0x40 MLOAD DUP1 SWAP2 SUB SWAP1 RETURN JUMPDEST PUSH2 0x1F9 PUSH2 0x1CB CALLDATASIZE PUSH1 0x4 PUSH2 0x142F JUMP JUMPDEST PUSH1 0x1 PUSH1 0x20 DUP2 SWAP1 MSTORE PUSH1 0x0 SWAP2 DUP3 MSTORE PUSH1 0x40 SWAP1 SWAP2 KECCAK256 DUP1 SLOAD SWAP2 DUP2 ADD SLOAD PUSH1 0x2 DUP3 ADD SLOAD PUSH1 0x4 DUP4 ADD SLOAD PUSH1 0x5 SWAP1 SWAP4 ADD SLOAD SWAP2 SWAP3 SWAP1 SWAP2 DUP6 JUMP JUMPDEST PUSH1 0x40 DUP1 MLOAD SWAP6 DUP7 MSTORE PUSH1 0x20 DUP7 ADD SWAP5 SWAP1 SWAP5 MSTORE SWAP3 DUP5 ADD SWAP2 SWAP1 SWAP2 MSTORE PUSH1 0x60 DUP4 ADD MSTORE PUSH1 0x80 DUP3 ADD MSTORE PUSH1 0xA0 ADD PUSH2 0x1B4 JUMP JUMPDEST PUSH2 0x22A PUSH1 0x5 SLOAD DUP2 JUMP JUMPDEST PUSH1 0x40 MLOAD SWAP1 DUP2 MSTORE PUSH1 0x20 ADD PUSH2 0x1B4 JUMP JUMPDEST PUSH2 0x22A PUSH1 0x7 SLOAD DUP2 JUMP JUMPDEST PUSH1 0x4 SLOAD PUSH2 0x1A7 SWAP1 PUSH1 0x1 PUSH1 0x1 PUSH1 0xA0 SHL SUB AND DUP2 JUMP JUMPDEST PUSH2 0x1A7 PUSH32 0x0 DUP2 JUMP JUMPDEST PUSH2 0x16C PUSH2 0x289 CALLDATASIZE PUSH1 0x4 PUSH2 0x142F JUMP JUMPDEST PUSH2 0x57C JUMP JUMPDEST PUSH2 0x16C PUSH2 0x29C CALLDATASIZE PUSH1 0x4 PUSH2 0x142F JUMP JUMPDEST PUSH2 0x589 JUMP JUMPDEST PUSH2 0x2A9 PUSH2 0x596 JUMP JUMPDEST PUSH1 0x40 MLOAD SWAP1 ISZERO ISZERO DUP2 MSTORE PUSH1 0x20 ADD PUSH2 0x1B4 JUMP JUMPDEST PUSH1 0x3 SLOAD PUSH2 0x1A7 SWAP1 PUSH1 0x1 PUSH1 0x1 PUSH1 0xA0 SHL SUB AND DUP2 JUMP JUMPDEST PUSH2 0x16C PUSH2 0x5A6 JUMP JUMPDEST PUSH2 0x320 PUSH2 0x2E2 CALLDATASIZE PUSH1 0x4 PUSH2 0x14A4 JUMP JUMPDEST PUSH1 0x2 PUSH1 0x20 DUP2 DUP2 MSTORE PUSH1 0x0 SWAP4 DUP5 MSTORE PUSH1 0x40 DUP1 DUP6 KECCAK256 SWAP1 SWAP2 MSTORE SWAP2 DUP4 MSTORE SWAP2 KECCAK256 DUP1 SLOAD PUSH1 0x1 DUP3 ADD SLOAD SWAP3 DUP3 ADD SLOAD PUSH1 0x3 SWAP1 SWAP3 ADD SLOAD PUSH1 0x1 PUSH1 0x1 PUSH1 0xA0 SHL SUB SWAP1 SWAP2 AND SWAP3 SWAP2 SWAP1 PUSH1 0xFF AND DUP5 JUMP JUMPDEST PUSH1 0x40 DUP1 MLOAD PUSH1 0x1 PUSH1 0x1 PUSH1 0xA0 SHL SUB SWAP1 SWAP6 AND DUP6 MSTORE PUSH1 0x20 DUP6 ADD SWAP4 SWAP1 SWAP4 MSTORE SWAP2 DUP4 ADD MSTORE ISZERO ISZERO PUSH1 0x60 DUP3 ADD MSTORE PUSH1 0x80 ADD PUSH2 0x1B4 JUMP JUMPDEST PUSH2 0x16C PUSH2 0x35A CALLDATASIZE PUSH1 0x4 PUSH2 0x142F JUMP JUMPDEST PUSH2 0x5BA JUMP JUMPDEST PUSH2 0x372 PUSH2 0x36D CALLDATASIZE PUSH1 0x4 PUSH2 0x142F JUMP JUMPDEST PUSH2 0x5C7 JUMP JUMPDEST PUSH1 0x40 MLOAD PUSH2 0x1B4 SWAP2 SWAP1 PUSH2 0x14D0 JUMP JUMPDEST PUSH2 0x1A7 PUSH2 0x68E JUMP JUMPDEST PUSH2 0x22A PUSH1 0x8 DUP2 JUMP JUMPDEST PUSH2 0x16C PUSH2 0x39D CALLDATASIZE PUSH1 0x4 PUSH2 0x152B JUMP JUMPDEST PUSH2 0x69D JUMP JUMPDEST PUSH2 0x1A7 PUSH32 0x0 DUP2 JUMP JUMPDEST PUSH2 0x16C PUSH2 0x3D7 CALLDATASIZE PUSH1 0x4 PUSH2 0x154F JUMP JUMPDEST PUSH2 0x6BE JUMP JUMPDEST PUSH2 0x16C PUSH2 0x3EA CALLDATASIZE PUSH1 0x4 PUSH2 0x142F JUMP JUMPDEST PUSH2 0x6E8 JUMP JUMPDEST PUSH2 0x16C PUSH2 0x3FD CALLDATASIZE PUSH1 0x4 PUSH2 0x154F JUMP JUMPDEST PUSH2 0xAE8 JUMP JUMPDEST PUSH2 0x16C PUSH2 0x410 CALLDATASIZE PUSH1 0x4 PUSH2 0x154F JUMP JUMPDEST PUSH2 0xB12 JUMP JUMPDEST PUSH2 0x22A PUSH1 0x8 SLOAD DUP2 JUMP JUMPDEST PUSH2 0x16C PUSH2 0x42C CALLDATASIZE PUSH1 0x4 PUSH2 0x142F JUMP JUMPDEST PUSH2 0xB88 JUMP JUMPDEST PUSH2 0x16C PUSH2 0x43F CALLDATASIZE PUSH1 0x4 PUSH2 0x156A JUMP JUMPDEST PUSH2 0xBA1 JUMP JUMPDEST PUSH2 0x44C PUSH2 0x103A JUMP JUMPDEST PUSH2 0x457 DUP2 PUSH1 0x3C PUSH2 0x15B5 JUMP JUMPDEST PUSH1 0xB SSTORE POP JUMP JUMPDEST PUSH2 0x465 PUSH2 0x1099 JUMP JUMPDEST PUSH1 0x4 SLOAD PUSH1 0x1 PUSH1 0x1 PUSH1 0xA0 SHL SUB AND CALLER EQ PUSH2 0x4B2 JUMPI PUSH1 0x40 MLOAD PUSH3 0x461BCD PUSH1 0xE5 SHL DUP2 MSTORE PUSH1 0x20 PUSH1 0x4 DUP3 ADD MSTORE PUSH1 0xB PUSH1 0x24 DUP3 ADD MSTORE PUSH11 0x2737BA1036B0B730B3B2B9 PUSH1 0xA9 SHL PUSH1 0x44 DUP3 ADD MSTORE PUSH1 0x64 ADD JUMPDEST PUSH1 0x40 MLOAD DUP1 SWAP2 SUB SWAP1 REVERT JUMPDEST PUSH1 0x0 DUP4 DUP2 MSTORE PUSH1 0x1 PUSH1 0x20 MSTORE PUSH1 0x40 SWAP1 KECCAK256 SLOAD ISZERO PUSH2 0x4FF JUMPI PUSH1 0x40 MLOAD PUSH3 0x461BCD PUSH1 0xE5 SHL DUP2 MSTORE PUSH1 0x20 PUSH1 0x4 DUP3 ADD MSTORE PUSH1 0xE PUSH1 0x24 DUP3 ADD MSTORE PUSH14 0x616C726561647920657869737473 PUSH1 0x90 SHL PUSH1 0x44 DUP3 ADD MSTORE PUSH1 0x64 ADD PUSH2 0x4A9 JUMP JUMPDEST PUSH1 0x0 DUP4 DUP2 MSTORE PUSH1 0x1 PUSH1 0x20 DUP2 SWAP1 MSTORE PUSH1 0x40 SWAP2 DUP3 SWAP1 KECCAK256 DUP6 DUP2 SSTORE SWAP1 DUP2 ADD DUP5 SWAP1 SSTORE TIMESTAMP PUSH1 0x2 DUP3 ADD DUP2 SWAP1 SSTORE PUSH1 0x4 SWAP1 SWAP2 ADD DUP4 SWAP1 SSTORE SWAP1 MLOAD DUP5 SWAP2 PUSH32 0xE0676B694D0BFE16E5E764F5D05A4DA18534EFE97B72A21AA785E3E6767B42C1 SWAP2 PUSH2 0x562 SWAP2 DUP7 DUP3 MSTORE PUSH1 0x20 DUP3 ADD MSTORE PUSH1 0x40 ADD SWAP1 JUMP JUMPDEST PUSH1 0x40 MLOAD DUP1 SWAP2 SUB SWAP1 LOG2 POP POP POP JUMP JUMPDEST PUSH2 0x577 PUSH2 0x103A JUMP JUMPDEST PUSH1 0x7 SSTORE JUMP JUMPDEST PUSH2 0x584 PUSH2 0x103A JUMP JUMPDEST PUSH1 0x5 SSTORE JUMP JUMPDEST PUSH2 0x591 PUSH2 0x103A JUMP JUMPDEST PUSH1 0xC SSTORE JUMP JUMPDEST PUSH1 0x0 SLOAD PUSH1 0x1 PUSH1 0xA0 SHL SWAP1 DIV PUSH1 0xFF AND SWAP1 JUMP JUMPDEST PUSH2 0x5AE PUSH2 0x103A JUMP JUMPDEST PUSH2 0x5B8 PUSH1 0x0 PUSH2 0x10E1 JUMP JUMPDEST JUMP JUMPDEST PUSH2 0x5C2 PUSH2 0x103A JUMP JUMPDEST PUSH1 0x8 SSTORE JUMP JUMPDEST PUSH1 0x0 DUP2 DUP2 MSTORE PUSH1 0x1 PUSH1 0x20 MSTORE PUSH1 0x40 SWAP1 KECCAK256 PUSH1 0x3 ADD SLOAD PUSH1 0x60 SWAP1 PUSH1 0x1 PUSH1 0x1 PUSH1 0x40 SHL SUB DUP2 GT ISZERO PUSH2 0x5F3 JUMPI PUSH2 0x5F3 PUSH2 0x15CC JUMP JUMPDEST PUSH1 0x40 MLOAD SWAP1 DUP1 DUP3 MSTORE DUP1 PUSH1 0x20 MUL PUSH1 0x20 ADD DUP3 ADD PUSH1 0x40 MSTORE DUP1 ISZERO PUSH2 0x61C JUMPI DUP2 PUSH1 0x20 ADD PUSH1 0x20 DUP3 MUL DUP1 CALLDATASIZE DUP4 CALLDATACOPY ADD SWAP1 POP JUMPDEST POP PUSH1 0x0 DUP4 DUP2 MSTORE PUSH1 0x1 PUSH1 0x20 SWAP1 DUP2 MSTORE PUSH1 0x40 SWAP2 DUP3 SWAP1 KECCAK256 PUSH1 0x3 ADD DUP1 SLOAD DUP4 MLOAD DUP2 DUP5 MUL DUP2 ADD DUP5 ADD SWAP1 SWAP5 MSTORE DUP1 DUP5 MSTORE SWAP4 SWAP5 POP SWAP2 SWAP3 SWAP1 DUP4 ADD DUP3 DUP3 DUP1 ISZERO PUSH2 0x682 JUMPI PUSH1 0x20 MUL DUP3 ADD SWAP2 SWAP1 PUSH1 0x0 MSTORE PUSH1 0x20 PUSH1 0x0 KECCAK256 SWAP1 JUMPDEST DUP2 SLOAD PUSH1 0x1 PUSH1 0x1 PUSH1 0xA0 SHL SUB AND DUP2 MSTORE PUSH1 0x1 SWAP1 SWAP2 ADD SWAP1 PUSH1 0x20 ADD DUP1 DUP4 GT PUSH2 0x664 JUMPI JUMPDEST POP POP POP POP POP SWAP1 POP SWAP2 SWAP1 POP JUMP JUMPDEST PUSH1 0x0 SLOAD PUSH1 0x1 PUSH1 0x1 PUSH1 0xA0 SHL SUB AND SWAP1 JUMP JUMPDEST PUSH2 0x6A5 PUSH2 0x103A JUMP JUMPDEST DUP1 ISZERO PUSH2 0x6B6 JUMPI PUSH2 0x6B3 PUSH2 0x1131 JUMP JUMPDEST POP JUMP JUMPDEST PUSH2 0x6B3 PUSH2 0x118B JUMP JUMPDEST PUSH2 0x6C6 PUSH2 0x103A JUMP JUMPDEST PUSH1 0x4 DUP1 SLOAD PUSH1 0x1 PUSH1 0x1 PUSH1 0xA0 SHL SUB NOT AND PUSH1 0x1 PUSH1 0x1 PUSH1 0xA0 SHL SUB SWAP3 SWAP1 SWAP3 AND SWAP2 SWAP1 SWAP2 OR SWAP1 SSTORE JUMP JUMPDEST PUSH1 0x0 DUP2 DUP2 MSTORE PUSH1 0x2 PUSH1 0x20 SWAP1 DUP2 MSTORE PUSH1 0x40 DUP1 DUP4 KECCAK256 CALLER DUP5 MSTORE SWAP1 SWAP2 MSTORE SWAP1 KECCAK256 PUSH1 0x3 ADD SLOAD PUSH1 0xFF AND ISZERO PUSH2 0x74A JUMPI PUSH1 0x40 MLOAD PUSH3 0x461BCD PUSH1 0xE5 SHL DUP2 MSTORE PUSH1 0x20 PUSH1 0x4 DUP3 ADD MSTORE PUSH1 0x12 PUSH1 0x24 DUP3 ADD MSTORE PUSH18 0x185B1C9958591E481DDA5D1A191C985DD959 PUSH1 0x72 SHL PUSH1 0x44 DUP3 ADD MSTORE PUSH1 0x64 ADD PUSH2 0x4A9 JUMP JUMPDEST PUSH1 0xB SLOAD PUSH1 0x0 DUP3 DUP2 MSTORE PUSH1 0x2 PUSH1 0x20 DUP2 DUP2 MSTORE PUSH1 0x40 DUP1 DUP5 KECCAK256 CALLER DUP6 MSTORE SWAP1 SWAP2 MSTORE SWAP1 SWAP2 KECCAK256 ADD SLOAD TIMESTAMP SWAP2 PUSH2 0x774 SWAP2 PUSH2 0x15E2 JUMP JUMPDEST LT PUSH2 0x7AD JUMPI PUSH1 0x40 MLOAD PUSH3 0x461BCD PUSH1 0xE5 SHL DUP2 MSTORE PUSH1 0x20 PUSH1 0x4 DUP3 ADD MSTORE PUSH1 0x9 PUSH1 0x24 DUP3 ADD MSTORE PUSH9 0x6E6F74207265616479 PUSH1 0xB8 SHL PUSH1 0x44 DUP3 ADD MSTORE PUSH1 0x64 ADD PUSH2 0x4A9 JUMP JUMPDEST PUSH1 0x0 DUP2 DUP2 MSTORE PUSH1 0x2 PUSH1 0x20 SWAP1 DUP2 MSTORE PUSH1 0x40 DUP1 DUP4 KECCAK256 CALLER DUP5 MSTORE SWAP1 SWAP2 MSTORE DUP2 KECCAK256 PUSH1 0x1 ADD SLOAD SWAP1 SUB PUSH2 0x802 JUMPI PUSH1 0x40 MLOAD PUSH3 0x461BCD PUSH1 0xE5 SHL DUP2 MSTORE PUSH1 0x20 PUSH1 0x4 DUP3 ADD MSTORE PUSH1 0x7 PUSH1 0x24 DUP3 ADD MSTORE PUSH7 0x3737903AB9B2B9 PUSH1 0xC9 SHL PUSH1 0x44 DUP3 ADD MSTORE PUSH1 0x64 ADD PUSH2 0x4A9 JUMP JUMPDEST PUSH1 0x0 DUP1 JUMPDEST PUSH1 0x0 DUP4 DUP2 MSTORE PUSH1 0x1 PUSH1 0x20 MSTORE PUSH1 0x40 SWAP1 KECCAK256 PUSH1 0x3 ADD SLOAD DUP2 LT ISZERO PUSH2 0x87A JUMPI PUSH1 0x0 DUP4 DUP2 MSTORE PUSH1 0x1 PUSH1 0x20 MSTORE PUSH1 0x40 SWAP1 KECCAK256 PUSH1 0x3 ADD DUP1 SLOAD CALLER SWAP2 SWAP1 DUP4 SWAP1 DUP2 LT PUSH2 0x845 JUMPI PUSH2 0x845 PUSH2 0x15F5 JUMP JUMPDEST PUSH1 0x0 SWAP2 DUP3 MSTORE PUSH1 0x20 SWAP1 SWAP2 KECCAK256 ADD SLOAD PUSH1 0x1 PUSH1 0x1 PUSH1 0xA0 SHL SUB AND SUB PUSH2 0x868 JUMPI PUSH1 0x1 SWAP2 POP PUSH2 0x87A JUMP JUMPDEST DUP1 PUSH2 0x872 DUP2 PUSH2 0x160B JUMP JUMPDEST SWAP2 POP POP PUSH2 0x806 JUMP JUMPDEST POP PUSH1 0x1 DUP2 ISZERO ISZERO EQ PUSH2 0x88D JUMPI PUSH2 0x88D PUSH2 0x1624 JUMP JUMPDEST PUSH1 0x6 SLOAD PUSH1 0x5 SLOAD PUSH1 0x0 DUP5 DUP2 MSTORE PUSH1 0x1 PUSH1 0x20 DUP2 SWAP1 MSTORE PUSH1 0x40 DUP3 KECCAK256 ADD SLOAD SWAP1 SWAP3 SWAP2 PUSH2 0x8B1 SWAP2 PUSH2 0x15B5 JUMP JUMPDEST PUSH2 0x8BB SWAP2 SWAP1 PUSH2 0x163A JUMP JUMPDEST SWAP1 POP PUSH1 0x0 PUSH1 0x9 PUSH1 0x0 SWAP1 SLOAD SWAP1 PUSH2 0x100 EXP SWAP1 DIV PUSH1 0x1 PUSH1 0x1 PUSH1 0xA0 SHL SUB AND PUSH1 0x1 PUSH1 0x1 PUSH1 0xA0 SHL SUB AND PUSH4 0x313CE567 PUSH1 0x40 MLOAD DUP2 PUSH4 0xFFFFFFFF AND PUSH1 0xE0 SHL DUP2 MSTORE PUSH1 0x4 ADD PUSH1 0x20 PUSH1 0x40 MLOAD DUP1 DUP4 SUB DUP2 DUP7 GAS STATICCALL ISZERO DUP1 ISZERO PUSH2 0x912 JUMPI RETURNDATASIZE PUSH1 0x0 DUP1 RETURNDATACOPY RETURNDATASIZE PUSH1 0x0 REVERT JUMPDEST POP POP POP POP PUSH1 0x40 MLOAD RETURNDATASIZE PUSH1 0x1F NOT PUSH1 0x1F DUP3 ADD AND DUP3 ADD DUP1 PUSH1 0x40 MSTORE POP DUP2 ADD SWAP1 PUSH2 0x936 SWAP2 SWAP1 PUSH2 0x165C JUMP JUMPDEST PUSH2 0x941 SWAP1 PUSH1 0xA PUSH2 0x1763 JUMP JUMPDEST PUSH2 0x94D PUSH1 0x8 PUSH1 0xA PUSH2 0x1772 JUMP JUMPDEST PUSH1 0x8 SLOAD PUSH1 0x0 DUP8 DUP2 MSTORE PUSH1 0x1 PUSH1 0x20 DUP2 SWAP1 MSTORE PUSH1 0x40 SWAP1 SWAP2 KECCAK256 PUSH1 0x4 DUP2 ADD SLOAD SWAP2 ADD SLOAD PUSH1 0x64 SWAP3 SWAP2 PUSH2 0x976 SWAP2 PUSH2 0x15B5 JUMP JUMPDEST PUSH2 0x980 SWAP2 SWAP1 PUSH2 0x15B5 JUMP JUMPDEST PUSH2 0x992 SWAP1 PUSH8 0xDE0B6B3A7640000 PUSH2 0x15B5 JUMP JUMPDEST PUSH2 0x99C SWAP2 SWAP1 PUSH2 0x163A JUMP JUMPDEST PUSH2 0x9A6 SWAP2 SWAP1 PUSH2 0x163A JUMP JUMPDEST PUSH2 0x9B0 SWAP2 SWAP1 PUSH2 0x163A JUMP JUMPDEST PUSH1 0x0 DUP6 DUP2 MSTORE PUSH1 0x1 PUSH1 0x20 DUP2 DUP2 MSTORE PUSH1 0x40 DUP1 DUP5 KECCAK256 DUP4 ADD SLOAD PUSH1 0x2 DUP4 MSTORE DUP2 DUP6 KECCAK256 CALLER DUP7 MSTORE SWAP1 SWAP3 MSTORE SWAP1 SWAP3 KECCAK256 ADD SLOAD PUSH2 0x9E0 SWAP2 SWAP1 PUSH2 0x15B5 JUMP JUMPDEST PUSH2 0x9EA SWAP2 SWAP1 PUSH2 0x163A JUMP JUMPDEST PUSH1 0x0 DUP6 DUP2 MSTORE PUSH1 0x2 PUSH1 0x20 SWAP1 DUP2 MSTORE PUSH1 0x40 DUP1 DUP4 KECCAK256 CALLER DUP1 DUP6 MSTORE SWAP3 MSTORE SWAP1 SWAP2 KECCAK256 PUSH1 0x3 ADD DUP1 SLOAD PUSH1 0xFF NOT AND PUSH1 0x1 OR SWAP1 SSTORE PUSH1 0x9 SLOAD SWAP2 SWAP3 POP PUSH1 0x1 PUSH1 0x1 PUSH1 0xA0 SHL SUB SWAP2 SWAP1 SWAP2 AND SWAP1 PUSH4 0xA9059CBB SWAP1 PUSH2 0xA35 DUP5 DUP7 PUSH2 0x15E2 JUMP JUMPDEST PUSH1 0x40 MLOAD PUSH1 0x1 PUSH1 0x1 PUSH1 0xE0 SHL SUB NOT PUSH1 0xE0 DUP6 SWAP1 SHL AND DUP2 MSTORE PUSH1 0x1 PUSH1 0x1 PUSH1 0xA0 SHL SUB SWAP1 SWAP3 AND PUSH1 0x4 DUP4 ADD MSTORE PUSH1 0x24 DUP3 ADD MSTORE PUSH1 0x44 ADD PUSH1 0x20 PUSH1 0x40 MLOAD DUP1 DUP4 SUB DUP2 PUSH1 0x0 DUP8 GAS CALL ISZERO DUP1 ISZERO PUSH2 0xA80 JUMPI RETURNDATASIZE PUSH1 0x0 DUP1 RETURNDATACOPY RETURNDATASIZE PUSH1 0x0 REVERT JUMPDEST POP POP POP POP PUSH1 0x40 MLOAD RETURNDATASIZE PUSH1 0x1F NOT PUSH1 0x1F DUP3 ADD AND DUP3 ADD DUP1 PUSH1 0x40 MSTORE POP DUP2 ADD SWAP1 PUSH2 0xAA4 SWAP2 SWAP1 PUSH2 0x177E JUMP JUMPDEST POP PUSH1 0x40 DUP1 MLOAD DUP3 DUP2 MSTORE PUSH1 0x20 DUP2 ADD DUP5 SWAP1 MSTORE CALLER SWAP2 DUP7 SWAP2 PUSH32 0xB0ECF14E184EFFDED5473BBA77DCFAB32B094B77AC1FBB36BEEC2AEF55587970 SWAP2 ADD PUSH1 0x40 MLOAD DUP1 SWAP2 SUB SWAP1 LOG3 POP POP POP POP JUMP JUMPDEST PUSH2 0xAF0 PUSH2 0x103A JUMP JUMPDEST PUSH1 0x3 DUP1 SLOAD PUSH1 0x1 PUSH1 0x1 PUSH1 0xA0 SHL SUB NOT AND PUSH1 0x1 PUSH1 0x1 PUSH1 0xA0 SHL SUB SWAP3 SWAP1 SWAP3 AND SWAP2 SWAP1 SWAP2 OR SWAP1 SSTORE JUMP JUMPDEST PUSH2 0xB1A PUSH2 0x103A JUMP JUMPDEST PUSH1 0x1 PUSH1 0x1 PUSH1 0xA0 SHL SUB DUP2 AND PUSH2 0xB7F JUMPI PUSH1 0x40 MLOAD PUSH3 0x461BCD PUSH1 0xE5 SHL DUP2 MSTORE PUSH1 0x20 PUSH1 0x4 DUP3 ADD MSTORE PUSH1 0x26 PUSH1 0x24 DUP3 ADD MSTORE PUSH32 0x4F776E61626C653A206E6577206F776E657220697320746865207A65726F2061 PUSH1 0x44 DUP3 ADD MSTORE PUSH6 0x646472657373 PUSH1 0xD0 SHL PUSH1 0x64 DUP3 ADD MSTORE PUSH1 0x84 ADD PUSH2 0x4A9 JUMP JUMPDEST PUSH2 0x6B3 DUP2 PUSH2 0x10E1 JUMP JUMPDEST PUSH2 0xB90 PUSH2 0x103A JUMP JUMPDEST PUSH2 0xB9B DUP2 PUSH1 0x3C PUSH2 0x15B5 JUMP JUMPDEST PUSH1 0xA SSTORE POP JUMP JUMPDEST PUSH2 0xBA9 PUSH2 0x1099 JUMP JUMPDEST PUSH1 0x0 DUP4 DUP2 MSTORE PUSH1 0x1 PUSH1 0x20 MSTORE PUSH1 0x40 SWAP1 KECCAK256 SLOAD ISZERO DUP1 ISZERO SWAP1 PUSH2 0xBD7 JUMPI POP PUSH1 0x0 DUP4 DUP2 MSTORE PUSH1 0x1 PUSH1 0x20 DUP2 SWAP1 MSTORE PUSH1 0x40 SWAP1 SWAP2 KECCAK256 ADD SLOAD ISZERO ISZERO JUMPDEST DUP1 ISZERO PUSH2 0xBF3 JUMPI POP PUSH1 0x0 DUP4 DUP2 MSTORE PUSH1 0x1 PUSH1 0x20 MSTORE PUSH1 0x40 SWAP1 KECCAK256 PUSH1 0x2 ADD SLOAD ISZERO ISZERO JUMPDEST PUSH2 0xC2D JUMPI PUSH1 0x40 MLOAD PUSH3 0x461BCD PUSH1 0xE5 SHL DUP2 MSTORE PUSH1 0x20 PUSH1 0x4 DUP3 ADD MSTORE PUSH1 0xB PUSH1 0x24 DUP3 ADD MSTORE PUSH11 0x139BDD081A5B9A5D1A585B PUSH1 0xAA SHL PUSH1 0x44 DUP3 ADD MSTORE PUSH1 0x64 ADD PUSH2 0x4A9 JUMP JUMPDEST PUSH1 0xA SLOAD PUSH1 0x0 DUP5 DUP2 MSTORE PUSH1 0x1 PUSH1 0x20 MSTORE PUSH1 0x40 SWAP1 KECCAK256 PUSH1 0x2 ADD SLOAD TIMESTAMP SWAP2 PUSH2 0xC4D SWAP2 PUSH2 0x15E2 JUMP JUMPDEST GT PUSH2 0xC86 JUMPI PUSH1 0x40 MLOAD PUSH3 0x461BCD PUSH1 0xE5 SHL DUP2 MSTORE PUSH1 0x20 PUSH1 0x4 DUP3 ADD MSTORE PUSH1 0x9 PUSH1 0x24 DUP3 ADD MSTORE PUSH9 0x74696D65206F757421 PUSH1 0xB8 SHL PUSH1 0x44 DUP3 ADD MSTORE PUSH1 0x64 ADD PUSH2 0x4A9 JUMP JUMPDEST PUSH1 0x0 DUP4 DUP2 MSTORE PUSH1 0x2 PUSH1 0x20 SWAP1 DUP2 MSTORE PUSH1 0x40 DUP1 DUP4 KECCAK256 CALLER DUP5 MSTORE SWAP1 SWAP2 MSTORE SWAP1 KECCAK256 PUSH1 0x1 ADD SLOAD ISZERO PUSH2 0xCE0 JUMPI PUSH1 0x40 MLOAD PUSH3 0x461BCD PUSH1 0xE5 SHL DUP2 MSTORE PUSH1 0x20 PUSH1 0x4 DUP3 ADD MSTORE PUSH1 0xD PUSH1 0x24 DUP3 ADD MSTORE PUSH13 0x63616E7420616464206D6F7265 PUSH1 0x98 SHL PUSH1 0x44 DUP3 ADD MSTORE PUSH1 0x64 ADD PUSH2 0x4A9 JUMP JUMPDEST PUSH2 0xCEA DUP4 DUP3 PUSH2 0x11C7 JUMP JUMPDEST PUSH2 0xD27 JUMPI PUSH1 0x40 MLOAD PUSH3 0x461BCD PUSH1 0xE5 SHL DUP2 MSTORE PUSH1 0x20 PUSH1 0x4 DUP3 ADD MSTORE PUSH1 0xE PUSH1 0x24 DUP3 ADD MSTORE PUSH14 0x1A5B9D985B1A5908185B5BDD5B9D PUSH1 0x92 SHL PUSH1 0x44 DUP3 ADD MSTORE PUSH1 0x64 ADD PUSH2 0x4A9 JUMP JUMPDEST PUSH2 0xD31 DUP4 DUP3 PUSH2 0x12D6 JUMP JUMPDEST PUSH2 0xD72 JUMPI PUSH1 0x40 MLOAD PUSH3 0x461BCD PUSH1 0xE5 SHL DUP2 MSTORE PUSH1 0x20 PUSH1 0x4 DUP3 ADD MSTORE PUSH1 0x12 PUSH1 0x24 DUP3 ADD MSTORE PUSH18 0x195E18D9595908199D5B1B08185B5BDD5B9D PUSH1 0x72 SHL PUSH1 0x44 DUP3 ADD MSTORE PUSH1 0x64 ADD PUSH2 0x4A9 JUMP JUMPDEST PUSH32 0x0 PUSH1 0x1 PUSH1 0x1 PUSH1 0xA0 SHL SUB AND DUP3 PUSH1 0x1 PUSH1 0x1 PUSH1 0xA0 SHL SUB AND EQ DUP1 PUSH2 0xDE3 JUMPI POP PUSH32 0x0 PUSH1 0x1 PUSH1 0x1 PUSH1 0xA0 SHL SUB AND DUP3 PUSH1 0x1 PUSH1 0x1 PUSH1 0xA0 SHL SUB AND EQ JUMPDEST PUSH2 0xE24 JUMPI PUSH1 0x40 MLOAD PUSH3 0x461BCD PUSH1 0xE5 SHL DUP2 MSTORE PUSH1 0x20 PUSH1 0x4 DUP3 ADD MSTORE PUSH1 0x12 PUSH1 0x24 DUP3 ADD MSTORE PUSH18 0x3737BA1030BB30B4B630B136329031B7B4B7 PUSH1 0x71 SHL PUSH1 0x44 DUP3 ADD MSTORE PUSH1 0x64 ADD PUSH2 0x4A9 JUMP JUMPDEST PUSH1 0x0 DUP4 DUP2 MSTORE PUSH1 0x1 PUSH1 0x20 DUP2 DUP2 MSTORE PUSH1 0x40 DUP4 KECCAK256 PUSH1 0x3 DUP2 ADD DUP1 SLOAD SWAP4 DUP5 ADD DUP2 SSTORE DUP5 MSTORE SWAP1 DUP4 KECCAK256 SWAP1 SWAP2 ADD DUP1 SLOAD PUSH1 0x1 PUSH1 0x1 PUSH1 0xA0 SHL SUB NOT AND CALLER OR SWAP1 SSTORE DUP5 DUP3 MSTORE PUSH1 0x5 ADD DUP1 SLOAD DUP4 SWAP3 SWAP1 PUSH2 0xE6D SWAP1 DUP5 SWAP1 PUSH2 0x15E2 JUMP JUMPDEST SWAP1 SWAP2 SSTORE POP POP PUSH1 0x0 DUP4 DUP2 MSTORE PUSH1 0x2 PUSH1 0x20 DUP2 DUP2 MSTORE PUSH1 0x40 DUP1 DUP5 KECCAK256 CALLER DUP1 DUP7 MSTORE SWAP1 DUP4 MSTORE DUP2 DUP6 KECCAK256 PUSH1 0x1 DUP1 DUP3 ADD DUP9 SWAP1 SSTORE DUP2 SLOAD PUSH1 0x1 PUSH1 0x1 PUSH1 0xA0 SHL SUB NOT AND PUSH1 0x1 PUSH1 0x1 PUSH1 0xA0 SHL SUB DUP11 DUP2 AND SWAP2 SWAP1 SWAP2 OR DUP4 SSTORE TIMESTAMP SWAP3 SWAP1 SWAP7 ADD SWAP2 SWAP1 SWAP2 SSTORE PUSH1 0x9 SLOAD PUSH1 0x6 SLOAD PUSH1 0x5 SLOAD DUP12 DUP10 MSTORE SWAP6 DUP4 SWAP1 MSTORE SWAP4 SWAP1 SWAP7 KECCAK256 ADD SLOAD SWAP5 SWAP1 SWAP4 AND SWAP4 PUSH4 0x23B872DD SWAP4 SWAP3 ADDRESS SWAP3 SWAP2 PUSH2 0xEEA SWAP2 SWAP1 PUSH2 0x15B5 JUMP JUMPDEST PUSH2 0xEF4 SWAP2 SWAP1 PUSH2 0x163A JUMP JUMPDEST PUSH1 0x40 MLOAD DUP5 PUSH4 0xFFFFFFFF AND PUSH1 0xE0 SHL DUP2 MSTORE PUSH1 0x4 ADD PUSH2 0xF12 SWAP4 SWAP3 SWAP2 SWAP1 PUSH2 0x179B JUMP JUMPDEST PUSH1 0x20 PUSH1 0x40 MLOAD DUP1 DUP4 SUB DUP2 PUSH1 0x0 DUP8 GAS CALL ISZERO DUP1 ISZERO PUSH2 0xF31 JUMPI RETURNDATASIZE PUSH1 0x0 DUP1 RETURNDATACOPY RETURNDATASIZE PUSH1 0x0 REVERT JUMPDEST POP POP POP POP PUSH1 0x40 MLOAD RETURNDATASIZE PUSH1 0x1F NOT PUSH1 0x1F DUP3 ADD AND DUP3 ADD DUP1 PUSH1 0x40 MSTORE POP DUP2 ADD SWAP1 PUSH2 0xF55 SWAP2 SWAP1 PUSH2 0x177E JUMP JUMPDEST POP PUSH1 0x3 SLOAD PUSH1 0x40 MLOAD PUSH4 0x23B872DD PUSH1 0xE0 SHL DUP2 MSTORE PUSH1 0x1 PUSH1 0x1 PUSH1 0xA0 SHL SUB DUP1 DUP6 AND SWAP3 PUSH4 0x23B872DD SWAP3 PUSH2 0xF8A SWAP3 CALLER SWAP3 AND SWAP1 DUP7 SWAP1 PUSH1 0x4 ADD PUSH2 0x179B JUMP JUMPDEST PUSH1 0x20 PUSH1 0x40 MLOAD DUP1 DUP4 SUB DUP2 PUSH1 0x0 DUP8 GAS CALL ISZERO DUP1 ISZERO PUSH2 0xFA9 JUMPI RETURNDATASIZE PUSH1 0x0 DUP1 RETURNDATACOPY RETURNDATASIZE PUSH1 0x0 REVERT JUMPDEST POP POP POP POP PUSH1 0x40 MLOAD RETURNDATASIZE PUSH1 0x1F NOT PUSH1 0x1F DUP3 ADD AND DUP3 ADD DUP1 PUSH1 0x40 MSTORE POP DUP2 ADD SWAP1 PUSH2 0xFCD SWAP2 SWAP1 PUSH2 0x177E JUMP JUMPDEST POP PUSH1 0x0 DUP4 DUP2 MSTORE PUSH1 0x2 PUSH1 0x20 DUP2 DUP2 MSTORE PUSH1 0x40 DUP1 DUP5 KECCAK256 CALLER DUP1 DUP7 MSTORE SWAP1 DUP4 MSTORE SWAP4 DUP2 SWAP1 KECCAK256 SWAP1 SWAP3 ADD SLOAD DUP3 MLOAD PUSH1 0x1 PUSH1 0x1 PUSH1 0xA0 SHL SUB DUP8 AND DUP2 MSTORE SWAP2 DUP3 ADD DUP6 SWAP1 MSTORE DUP2 DUP4 ADD MSTORE SWAP1 MLOAD DUP6 SWAP2 PUSH32 0x7A82030CDCB2E8909ECF6432D973748C3C907EDE3A2D61FF7CC5B1C1B8DE4287 SWAP2 SWAP1 DUP2 SWAP1 SUB PUSH1 0x60 ADD SWAP1 LOG3 POP POP POP JUMP JUMPDEST CALLER PUSH2 0x1043 PUSH2 0x68E JUMP JUMPDEST PUSH1 0x1 PUSH1 0x1 PUSH1 0xA0 SHL SUB AND EQ PUSH2 0x5B8 JUMPI PUSH1 0x40 MLOAD PUSH3 0x461BCD PUSH1 0xE5 SHL DUP2 MSTORE PUSH1 0x20 PUSH1 0x4 DUP3 ADD DUP2 SWAP1 MSTORE PUSH1 0x24 DUP3 ADD MSTORE PUSH32 0x4F776E61626C653A2063616C6C6572206973206E6F7420746865206F776E6572 PUSH1 0x44 DUP3 ADD MSTORE PUSH1 0x64 ADD PUSH2 0x4A9 JUMP JUMPDEST PUSH2 0x10A1 PUSH2 0x596 JUMP JUMPDEST ISZERO PUSH2 0x5B8 JUMPI PUSH1 0x40 MLOAD PUSH3 0x461BCD PUSH1 0xE5 SHL DUP2 MSTORE PUSH1 0x20 PUSH1 0x4 DUP3 ADD MSTORE PUSH1 0x10 PUSH1 0x24 DUP3 ADD MSTORE PUSH16 0x14185D5CD8589B194E881C185D5CD959 PUSH1 0x82 SHL PUSH1 0x44 DUP3 ADD MSTORE PUSH1 0x64 ADD PUSH2 0x4A9 JUMP JUMPDEST PUSH1 0x0 DUP1 SLOAD PUSH1 0x1 PUSH1 0x1 PUSH1 0xA0 SHL SUB DUP4 DUP2 AND PUSH1 0x1 PUSH1 0x1 PUSH1 0xA0 SHL SUB NOT DUP4 AND DUP2 OR DUP5 SSTORE PUSH1 0x40 MLOAD SWAP2 SWAP1 SWAP3 AND SWAP3 DUP4 SWAP2 PUSH32 0x8BE0079C531659141344CD1FD0A4F28419497F9722A3DAAFE3B4186F6B6457E0 SWAP2 SWAP1 LOG3 POP POP JUMP JUMPDEST PUSH2 0x1139 PUSH2 0x1099 JUMP JUMPDEST PUSH1 0x0 DUP1 SLOAD PUSH1 0xFF PUSH1 0xA0 SHL NOT AND PUSH1 0x1 PUSH1 0xA0 SHL OR SWAP1 SSTORE PUSH32 0x62E78CEA01BEE320CD4E420270B5EA74000D11B0C9F74754EBDBFC544B05A258 PUSH2 0x1174 CALLER SWAP1 JUMP JUMPDEST PUSH1 0x40 MLOAD PUSH2 0x1181 SWAP2 SWAP1 PUSH2 0x1474 JUMP JUMPDEST PUSH1 0x40 MLOAD DUP1 SWAP2 SUB SWAP1 LOG1 JUMP JUMPDEST PUSH2 0x1193 PUSH2 0x13E4 JUMP JUMPDEST PUSH1 0x0 DUP1 SLOAD PUSH1 0xFF PUSH1 0xA0 SHL NOT AND SWAP1 SSTORE PUSH32 0x5DB9EE0A495BF2E6FF9C91A7834C1BA4FDD244A5E8AA4E537BD38AEAE4B073AA CALLER PUSH2 0x1174 JUMP JUMPDEST PUSH1 0x0 DUP2 PUSH1 0xC SLOAD GT ISZERO DUP1 ISZERO PUSH2 0x12CD JUMPI POP PUSH1 0x9 PUSH1 0x0 SWAP1 SLOAD SWAP1 PUSH2 0x100 EXP SWAP1 DIV PUSH1 0x1 PUSH1 0x1 PUSH1 0xA0 SHL SUB AND PUSH1 0x1 PUSH1 0x1 PUSH1 0xA0 SHL SUB AND PUSH4 0x313CE567 PUSH1 0x40 MLOAD DUP2 PUSH4 0xFFFFFFFF AND PUSH1 0xE0 SHL DUP2 MSTORE PUSH1 0x4 ADD PUSH1 0x20 PUSH1 0x40 MLOAD DUP1 DUP4 SUB DUP2 DUP7 GAS STATICCALL ISZERO DUP1 ISZERO PUSH2 0x1229 JUMPI RETURNDATASIZE PUSH1 0x0 DUP1 RETURNDATACOPY RETURNDATASIZE PUSH1 0x0 REVERT JUMPDEST POP POP POP POP PUSH1 0x40 MLOAD RETURNDATASIZE PUSH1 0x1F NOT PUSH1 0x1F DUP3 ADD AND DUP3 ADD DUP1 PUSH1 0x40 MSTORE POP DUP2 ADD SWAP1 PUSH2 0x124D SWAP2 SWAP1 PUSH2 0x165C JUMP JUMPDEST PUSH2 0x1258 SWAP1 PUSH1 0xA PUSH2 0x1763 JUMP JUMPDEST PUSH2 0x1264 PUSH1 0x8 PUSH1 0xA PUSH2 0x1772 JUMP JUMPDEST PUSH1 0x7 SLOAD PUSH1 0x0 DUP7 DUP2 MSTORE PUSH1 0x1 PUSH1 0x20 DUP2 SWAP1 MSTORE PUSH1 0x40 SWAP1 SWAP2 KECCAK256 SWAP1 DUP2 ADD SLOAD PUSH1 0x4 SWAP1 SWAP2 ADD SLOAD PUSH1 0x64 SWAP3 SWAP2 PUSH2 0x128F SWAP2 PUSH2 0x15B5 JUMP JUMPDEST PUSH2 0x1299 SWAP2 SWAP1 PUSH2 0x15B5 JUMP JUMPDEST PUSH2 0x12AB SWAP1 PUSH8 0xDE0B6B3A7640000 PUSH2 0x15B5 JUMP JUMPDEST PUSH2 0x12B5 SWAP2 SWAP1 PUSH2 0x163A JUMP JUMPDEST PUSH2 0x12BF SWAP2 SWAP1 PUSH2 0x163A JUMP JUMPDEST PUSH2 0x12C9 SWAP2 SWAP1 PUSH2 0x163A JUMP JUMPDEST DUP3 GT ISZERO JUMPDEST SWAP1 POP JUMPDEST SWAP3 SWAP2 POP POP JUMP JUMPDEST PUSH1 0x9 SLOAD PUSH1 0x40 DUP1 MLOAD PUSH4 0x313CE567 PUSH1 0xE0 SHL DUP2 MSTORE SWAP1 MLOAD PUSH1 0x0 SWAP3 PUSH1 0x1 PUSH1 0x1 PUSH1 0xA0 SHL SUB AND SWAP2 PUSH4 0x313CE567 SWAP2 PUSH1 0x4 DUP1 DUP4 ADD SWAP3 PUSH1 0x20 SWAP3 SWAP2 SWAP1 DUP3 SWAP1 SUB ADD DUP2 DUP7 GAS STATICCALL ISZERO DUP1 ISZERO PUSH2 0x1320 JUMPI RETURNDATASIZE PUSH1 0x0 DUP1 RETURNDATACOPY RETURNDATASIZE PUSH1 0x0 REVERT JUMPDEST POP POP POP POP PUSH1 0x40 MLOAD RETURNDATASIZE PUSH1 0x1F NOT PUSH1 0x1F DUP3 ADD AND DUP3 ADD DUP1 PUSH1 0x40 MSTORE POP DUP2 ADD SWAP1 PUSH2 0x1344 SWAP2 SWAP1 PUSH2 0x165C JUMP JUMPDEST PUSH2 0x134F SWAP1 PUSH1 0xA PUSH2 0x1763 JUMP JUMPDEST PUSH2 0x135B PUSH1 0x8 PUSH1 0xA PUSH2 0x1772 JUMP JUMPDEST PUSH1 0x8 SLOAD PUSH1 0x0 DUP7 DUP2 MSTORE PUSH1 0x1 PUSH1 0x20 DUP2 SWAP1 MSTORE PUSH1 0x40 SWAP1 SWAP2 KECCAK256 PUSH1 0x4 DUP2 ADD SLOAD SWAP2 ADD SLOAD PUSH1 0x64 SWAP3 SWAP2 PUSH2 0x1384 SWAP2 PUSH2 0x15B5 JUMP JUMPDEST PUSH2 0x138E SWAP2 SWAP1 PUSH2 0x15B5 JUMP JUMPDEST PUSH2 0x13A0 SWAP1 PUSH8 0xDE0B6B3A7640000 PUSH2 0x15B5 JUMP JUMPDEST PUSH2 0x13AA SWAP2 SWAP1 PUSH2 0x163A JUMP JUMPDEST PUSH2 0x13B4 SWAP2 SWAP1 PUSH2 0x163A JUMP JUMPDEST PUSH2 0x13BE SWAP2 SWAP1 PUSH2 0x163A JUMP JUMPDEST PUSH1 0x0 DUP5 DUP2 MSTORE PUSH1 0x1 PUSH1 0x20 MSTORE PUSH1 0x40 SWAP1 KECCAK256 PUSH1 0x5 ADD SLOAD PUSH2 0x13DB SWAP1 DUP5 SWAP1 PUSH2 0x15E2 JUMP JUMPDEST GT ISZERO SWAP4 SWAP3 POP POP POP JUMP JUMPDEST PUSH2 0x13EC PUSH2 0x596 JUMP JUMPDEST PUSH2 0x5B8 JUMPI PUSH1 0x40 MLOAD PUSH3 0x461BCD PUSH1 0xE5 SHL DUP2 MSTORE PUSH1 0x20 PUSH1 0x4 DUP3 ADD MSTORE PUSH1 0x14 PUSH1 0x24 DUP3 ADD MSTORE PUSH20 0x14185D5CD8589B194E881B9BDD081C185D5CD959 PUSH1 0x62 SHL PUSH1 0x44 DUP3 ADD MSTORE PUSH1 0x64 ADD PUSH2 0x4A9 JUMP JUMPDEST PUSH1 0x0 PUSH1 0x20 DUP3 DUP5 SUB SLT ISZERO PUSH2 0x1441 JUMPI PUSH1 0x0 DUP1 REVERT JUMPDEST POP CALLDATALOAD SWAP2 SWAP1 POP JUMP JUMPDEST PUSH1 0x0 DUP1 PUSH1 0x0 PUSH1 0x60 DUP5 DUP7 SUB SLT ISZERO PUSH2 0x145D JUMPI PUSH1 0x0 DUP1 REVERT JUMPDEST POP POP DUP2 CALLDATALOAD SWAP4 PUSH1 0x20 DUP4 ADD CALLDATALOAD SWAP4 POP PUSH1 0x40 SWAP1 SWAP3 ADD CALLDATALOAD SWAP2 SWAP1 POP JUMP JUMPDEST PUSH1 0x1 PUSH1 0x1 PUSH1 0xA0 SHL SUB SWAP2 SWAP1 SWAP2 AND DUP2 MSTORE PUSH1 0x20 ADD SWAP1 JUMP JUMPDEST DUP1 CALLDATALOAD PUSH1 0x1 PUSH1 0x1 PUSH1 0xA0 SHL SUB DUP2 AND DUP2 EQ PUSH2 0x149F JUMPI PUSH1 0x0 DUP1 REVERT JUMPDEST SWAP2 SWAP1 POP JUMP JUMPDEST PUSH1 0x0 DUP1 PUSH1 0x40 DUP4 DUP6 SUB SLT ISZERO PUSH2 0x14B7 JUMPI PUSH1 0x0 DUP1 REVERT JUMPDEST DUP3 CALLDATALOAD SWAP2 POP PUSH2 0x14C7 PUSH1 0x20 DUP5 ADD PUSH2 0x1488 JUMP JUMPDEST SWAP1 POP SWAP3 POP SWAP3 SWAP1 POP JUMP JUMPDEST PUSH1 0x20 DUP1 DUP3 MSTORE DUP3 MLOAD DUP3 DUP3 ADD DUP2 SWAP1 MSTORE PUSH1 0x0 SWAP2 SWAP1 DUP5 DUP3 ADD SWAP1 PUSH1 0x40 DUP6 ADD SWAP1 DUP5 JUMPDEST DUP2 DUP2 LT ISZERO PUSH2 0x1511 JUMPI DUP4 MLOAD PUSH1 0x1 PUSH1 0x1 PUSH1 0xA0 SHL SUB AND DUP4 MSTORE SWAP3 DUP5 ADD SWAP3 SWAP2 DUP5 ADD SWAP2 PUSH1 0x1 ADD PUSH2 0x14EC JUMP JUMPDEST POP SWAP1 SWAP7 SWAP6 POP POP POP POP POP POP JUMP JUMPDEST DUP1 ISZERO ISZERO DUP2 EQ PUSH2 0x6B3 JUMPI PUSH1 0x0 DUP1 REVERT JUMPDEST PUSH1 0x0 PUSH1 0x20 DUP3 DUP5 SUB SLT ISZERO PUSH2 0x153D JUMPI PUSH1 0x0 DUP1 REVERT JUMPDEST DUP2 CALLDATALOAD PUSH2 0x1548 DUP2 PUSH2 0x151D JUMP JUMPDEST SWAP4 SWAP3 POP POP POP JUMP JUMPDEST PUSH1 0x0 PUSH1 0x20 DUP3 DUP5 SUB SLT ISZERO PUSH2 0x1561 JUMPI PUSH1 0x0 DUP1 REVERT JUMPDEST PUSH2 0x12CD DUP3 PUSH2 0x1488 JUMP JUMPDEST PUSH1 0x0 DUP1 PUSH1 0x0 PUSH1 0x60 DUP5 DUP7 SUB SLT ISZERO PUSH2 0x157F JUMPI PUSH1 0x0 DUP1 REVERT JUMPDEST DUP4 CALLDATALOAD SWAP3 POP PUSH2 0x158F PUSH1 0x20 DUP6 ADD PUSH2 0x1488 JUMP JUMPDEST SWAP2 POP PUSH1 0x40 DUP5 ADD CALLDATALOAD SWAP1 POP SWAP3 POP SWAP3 POP SWAP3 JUMP JUMPDEST PUSH4 0x4E487B71 PUSH1 0xE0 SHL PUSH1 0x0 MSTORE PUSH1 0x11 PUSH1 0x4 MSTORE PUSH1 0x24 PUSH1 0x0 REVERT JUMPDEST DUP1 DUP3 MUL DUP2 ISZERO DUP3 DUP3 DIV DUP5 EQ OR PUSH2 0x12D0 JUMPI PUSH2 0x12D0 PUSH2 0x159F JUMP JUMPDEST PUSH4 0x4E487B71 PUSH1 0xE0 SHL PUSH1 0x0 MSTORE PUSH1 0x41 PUSH1 0x4 MSTORE PUSH1 0x24 PUSH1 0x0 REVERT JUMPDEST DUP1 DUP3 ADD DUP1 DUP3 GT ISZERO PUSH2 0x12D0 JUMPI PUSH2 0x12D0 PUSH2 0x159F JUMP JUMPDEST PUSH4 0x4E487B71 PUSH1 0xE0 SHL PUSH1 0x0 MSTORE PUSH1 0x32 PUSH1 0x4 MSTORE PUSH1 0x24 PUSH1 0x0 REVERT JUMPDEST PUSH1 0x0 PUSH1 0x1 DUP3 ADD PUSH2 0x161D JUMPI PUSH2 0x161D PUSH2 0x159F JUMP JUMPDEST POP PUSH1 0x1 ADD SWAP1 JUMP JUMPDEST PUSH4 0x4E487B71 PUSH1 0xE0 SHL PUSH1 0x0 MSTORE PUSH1 0x1 PUSH1 0x4 MSTORE PUSH1 0x24 PUSH1 0x0 REVERT JUMPDEST PUSH1 0x0 DUP3 PUSH2 0x1657 JUMPI PUSH4 0x4E487B71 PUSH1 0xE0 SHL PUSH1 0x0 MSTORE PUSH1 0x12 PUSH1 0x4 MSTORE PUSH1 0x24 PUSH1 0x0 REVERT JUMPDEST POP DIV SWAP1 JUMP JUMPDEST PUSH1 0x0 PUSH1 0x20 DUP3 DUP5 SUB SLT ISZERO PUSH2 0x166E JUMPI PUSH1 0x0 DUP1 REVERT JUMPDEST DUP2 MLOAD PUSH1 0xFF DUP2 AND DUP2 EQ PUSH2 0x1548 JUMPI PUSH1 0x0 DUP1 REVERT JUMPDEST PUSH1 0x1 DUP2 DUP2 JUMPDEST DUP1 DUP6 GT ISZERO PUSH2 0x16BA JUMPI DUP2 PUSH1 0x0 NOT DIV DUP3 GT ISZERO PUSH2 0x16A0 JUMPI PUSH2 0x16A0 PUSH2 0x159F JUMP JUMPDEST DUP1 DUP6 AND ISZERO PUSH2 0x16AD JUMPI SWAP2 DUP2 MUL SWAP2 JUMPDEST SWAP4 DUP5 SHR SWAP4 SWAP1 DUP1 MUL SWAP1 PUSH2 0x1684 JUMP JUMPDEST POP SWAP3 POP SWAP3 SWAP1 POP JUMP JUMPDEST PUSH1 0x0 DUP3 PUSH2 0x16D1 JUMPI POP PUSH1 0x1 PUSH2 0x12D0 JUMP JUMPDEST DUP2 PUSH2 0x16DE JUMPI POP PUSH1 0x0 PUSH2 0x12D0 JUMP JUMPDEST DUP2 PUSH1 0x1 DUP2 EQ PUSH2 0x16F4 JUMPI PUSH1 0x2 DUP2 EQ PUSH2 0x16FE JUMPI PUSH2 0x171A JUMP JUMPDEST PUSH1 0x1 SWAP2 POP POP PUSH2 0x12D0 JUMP JUMPDEST PUSH1 0xFF DUP5 GT ISZERO PUSH2 0x170F JUMPI PUSH2 0x170F PUSH2 0x159F JUMP JUMPDEST POP POP PUSH1 0x1 DUP3 SHL PUSH2 0x12D0 JUMP JUMPDEST POP PUSH1 0x20 DUP4 LT PUSH2 0x133 DUP4 LT AND PUSH1 0x4E DUP5 LT PUSH1 0xB DUP5 LT AND OR ISZERO PUSH2 0x173D JUMPI POP DUP2 DUP2 EXP PUSH2 0x12D0 JUMP JUMPDEST PUSH2 0x1747 DUP4 DUP4 PUSH2 0x167F JUMP JUMPDEST DUP1 PUSH1 0x0 NOT DIV DUP3 GT ISZERO PUSH2 0x175B JUMPI PUSH2 0x175B PUSH2 0x159F JUMP JUMPDEST MUL SWAP4 SWAP3 POP POP POP JUMP JUMPDEST PUSH1 0x0 PUSH2 0x12CD PUSH1 0xFF DUP5 AND DUP4 PUSH2 0x16C2 JUMP JUMPDEST PUSH1 0x0 PUSH2 0x12CD DUP4 DUP4 PUSH2 0x16C2 JUMP JUMPDEST PUSH1 0x0 PUSH1 0x20 DUP3 DUP5 SUB SLT ISZERO PUSH2 0x1790 JUMPI PUSH1 0x0 DUP1 REVERT JUMPDEST DUP2 MLOAD PUSH2 0x1548 DUP2 PUSH2 0x151D JUMP JUMPDEST PUSH1 0x1 PUSH1 0x1 PUSH1 0xA0 SHL SUB SWAP4 DUP5 AND DUP2 MSTORE SWAP2 SWAP1 SWAP3 AND PUSH1 0x20 DUP3 ADD MSTORE PUSH1 0x40 DUP2 ADD SWAP2 SWAP1 SWAP2 MSTORE PUSH1 0x60 ADD SWAP1 JUMP INVALID LOG2 PUSH5 0x6970667358 0x22 SLT KECCAK256 PC DUP16 PUSH14 0xAB5A61FAD7BCF8D1C229DFD11D57 COINBASE 0xD8 STATICCALL 0x2E 0x27 GT 0xF7 SSTORE 0xAD POP SWAP2 SMOD DUP4 LOG2 SWAP12 PUSH5 0x736F6C6343 STOP ADDMOD GT STOP CALLER "},"methodIdentifiers":{"BUSD()":"484f4ea9","USDT()":"c54e44eb","bitConey()":"2fa81a71","blockInfo(uint256)":"3bcd77da","createBlock(uint256,uint256,uint256)":"10e4e019","entranceMulter()":"4228e221","getUserListFromBlock(uint256)":"844ed61d","invest(uint256,address,uint256)":"fecba3a5","manager()":"481c6a75","maxDepositMulter()":"45c44a1b","maxPooledAmountMulter()":"f58cf3ff","owner()":"8da5cb5b","paused()":"5c975abb","priceDecimal()":"bc9113f0","renounceOwnership()":"715018a6","setEntranceMulter(uint256)":"4bcf529d","setLockTimeforReward(uint256)":"06531079","setManager(address)":"d0ebdbe7","setMaxDepositMulter(uint256)":"1f10a89a","setMaxPooledAmountMulter(uint256)":"814cbf30","setMinStakeValue(uint256)":"4d985944","setPause(bool)":"bedb86fb","setTreasury(address)":"f0f44260","setValidTimeforNewBlock(uint256)":"fe3cde3f","stakeInfo(uint256,address)":"7584f914","transferOwnership(address)":"f2fde38b","treasury()":"61d027b3","widthdraw(uint256)":"e0da260c"}},"storageLayout":{"storage":[{"astId":7,"contract":"contracts/Stake.sol:Stake","label":"_owner","offset":0,"slot":"0","type":"t_address"},{"astId":130,"contract":"contracts/Stake.sol:Stake","label":"_paused","offset":20,"slot":"0","type":"t_bool"},{"astId":384,"contract":"contracts/Stake.sol:Stake","label":"blockInfo","offset":0,"slot":"1","type":"t_mapping(t_uint256,t_struct(BlockInfo)370_storage)"},{"astId":391,"contract":"contracts/Stake.sol:Stake","label":"stakeInfo","offset":0,"slot":"2","type":"t_mapping(t_uint256,t_mapping(t_address,t_struct(StakeInfo)379_storage))"},{"astId":393,"contract":"contracts/Stake.sol:Stake","label":"treasury","offset":0,"slot":"3","type":"t_address"},{"astId":395,"contract":"contracts/Stake.sol:Stake","label":"manager","offset":0,"slot":"4","type":"t_address"},{"astId":398,"contract":"contracts/Stake.sol:Stake","label":"entranceMulter","offset":0,"slot":"5","type":"t_uint256"},{"astId":401,"contract":"contracts/Stake.sol:Stake","label":"entranceDivider","offset":0,"slot":"6","type":"t_uint256"},{"astId":404,"contract":"contracts/Stake.sol:Stake","label":"maxDepositMulter","offset":0,"slot":"7","type":"t_uint256"},{"astId":407,"contract":"contracts/Stake.sol:Stake","label":"maxPooledAmountMulter","offset":0,"slot":"8","type":"t_uint256"},{"astId":413,"contract":"contracts/Stake.sol:Stake","label":"bitConey","offset":0,"slot":"9","type":"t_contract(IERC20Metadata)323"},{"astId":422,"contract":"contracts/Stake.sol:Stake","label":"validTimeforNewBlock","offset":0,"slot":"10","type":"t_uint256"},{"astId":427,"contract":"contracts/Stake.sol:Stake","label":"lockTimeforReward","offset":0,"slot":"11","type":"t_uint256"},{"astId":434,"contract":"contracts/Stake.sol:Stake","label":"minStakeValue","offset":0,"slot":"12","type":"t_uint256"}],"types":{"t_address":{"encoding":"inplace","label":"address","numberOfBytes":"20"},"t_array(t_address)dyn_storage":{"base":"t_address","encoding":"dynamic_array","label":"address[]","numberOfBytes":"32"},"t_bool":{"encoding":"inplace","label":"bool","numberOfBytes":"1"},"t_contract(IERC20Metadata)323":{"encoding":"inplace","label":"contract IERC20Metadata","numberOfBytes":"20"},"t_mapping(t_address,t_struct(StakeInfo)379_storage)":{"encoding":"mapping","key":"t_address","label":"mapping(address => struct Stake.StakeInfo)","numberOfBytes":"32","value":"t_struct(StakeInfo)379_storage"},"t_mapping(t_uint256,t_mapping(t_address,t_struct(StakeInfo)379_storage))":{"encoding":"mapping","key":"t_uint256","label":"mapping(uint256 => mapping(address => struct Stake.StakeInfo))","numberOfBytes":"32","value":"t_mapping(t_address,t_struct(StakeInfo)379_storage)"},"t_mapping(t_uint256,t_struct(BlockInfo)370_storage)":{"encoding":"mapping","key":"t_uint256","label":"mapping(uint256 => struct Stake.BlockInfo)","numberOfBytes":"32","value":"t_struct(BlockInfo)370_storage"},"t_struct(BlockInfo)370_storage":{"encoding":"inplace","label":"struct Stake.BlockInfo","members":[{"astId":358,"contract":"contracts/Stake.sol:Stake","label":"blockNumber","offset":0,"slot":"0","type":"t_uint256"},{"astId":360,"contract":"contracts/Stake.sol:Stake","label":"prizeAmount","offset":0,"slot":"1","type":"t_uint256"},{"astId":362,"contract":"contracts/Stake.sol:Stake","label":"startTime","offset":0,"slot":"2","type":"t_uint256"},{"astId":365,"contract":"contracts/Stake.sol:Stake","label":"userList","offset":0,"slot":"3","type":"t_array(t_address)dyn_storage"},{"astId":367,"contract":"contracts/Stake.sol:Stake","label":"price","offset":0,"slot":"4","type":"t_uint256"},{"astId":369,"contract":"contracts/Stake.sol:Stake","label":"pooledAmount","offset":0,"slot":"5","type":"t_uint256"}],"numberOfBytes":"192"},"t_struct(StakeInfo)379_storage":{"encoding":"inplace","label":"struct Stake.StakeInfo","members":[{"astId":372,"contract":"contracts/Stake.sol:Stake","label":"coin","offset":0,"slot":"0","type":"t_address"},{"astId":374,"contract":"contracts/Stake.sol:Stake","label":"amount","offset":0,"slot":"1","type":"t_uint256"},{"astId":376,"contract":"contracts/Stake.sol:Stake","label":"stakedTime","offset":0,"slot":"2","type":"t_uint256"},{"astId":378,"contract":"contracts/Stake.sol:Stake","label":"refunded","offset":0,"slot":"3","type":"t_bool"}],"numberOfBytes":"128"},"t_uint256":{"encoding":"inplace","label":"uint256","numberOfBytes":"32"}}}}}}