{"contracts/Stake.sol":{"Stake":{"abi":[{"inputs":[{"internalType":"address","name":"_treasury","type":"address"},{"internalType":"address","name":"_manager","type":"address"},{"internalType":"address","name":"_bitConeyAddr","type":"address"}],"stateMutability":"nonpayable","type":"constructor"},{"anonymous":false,"inputs":[{"indexed":true,"internalType":"uint256","name":"blockNumber","type":"uint256"},{"indexed":false,"internalType":"uint256","name":"prizeAmount","type":"uint256"},{"indexed":false,"internalType":"uint256","name":"startTime","type":"uint256"}],"name":"CreateBlock","type":"event"},{"anonymous":false,"inputs":[{"indexed":true,"internalType":"uint256","name":"blockNumber","type":"uint256"},{"indexed":false,"internalType":"address","name":"coin","type":"address"},{"indexed":false,"internalType":"uint256","name":"amount","type":"uint256"},{"indexed":false,"internalType":"uint256","name":"stakedTime","type":"uint256"},{"indexed":true,"internalType":"address","name":"user","type":"address"}],"name":"Invest","type":"event"},{"anonymous":false,"inputs":[{"indexed":true,"internalType":"address","name":"previousOwner","type":"address"},{"indexed":true,"internalType":"address","name":"newOwner","type":"address"}],"name":"OwnershipTransferred","type":"event"},{"anonymous":false,"inputs":[{"indexed":true,"internalType":"uint256","name":"_blockNumber","type":"uint256"},{"indexed":true,"internalType":"address","name":"user","type":"address"},{"indexed":false,"internalType":"uint256","name":"reward","type":"uint256"},{"indexed":false,"internalType":"uint256","name":"entrance","type":"uint256"}],"name":"Withdraw","type":"event"},{"inputs":[],"name":"bitConey","outputs":[{"internalType":"contract IERC20","name":"","type":"address"}],"stateMutability":"view","type":"function"},{"inputs":[{"internalType":"uint256","name":"","type":"uint256"}],"name":"blockInfo","outputs":[{"internalType":"uint256","name":"blockNumber","type":"uint256"},{"internalType":"uint256","name":"prizeAmount","type":"uint256"},{"internalType":"uint256","name":"startTime","type":"uint256"},{"internalType":"uint256","name":"price","type":"uint256"},{"internalType":"uint256","name":"pooledAmount","type":"uint256"}],"stateMutability":"view","type":"function"},{"inputs":[{"internalType":"uint256","name":"_blockNumber","type":"uint256"},{"internalType":"uint256","name":"_prizeAmount","type":"uint256"}],"name":"createBlock","outputs":[],"stateMutability":"nonpayable","type":"function"},{"inputs":[],"name":"entranceMulter","outputs":[{"internalType":"uint256","name":"","type":"uint256"}],"stateMutability":"view","type":"function"},{"inputs":[{"internalType":"uint256","name":"_blockNumber","type":"uint256"}],"name":"getUserListFromBlock","outputs":[{"internalType":"address[]","name":"userList","type":"address[]"}],"stateMutability":"view","type":"function"},{"inputs":[{"internalType":"uint256","name":"_blockNumber","type":"uint256"},{"internalType":"address","name":"_coin","type":"address"},{"internalType":"uint256","name":"amount","type":"uint256"}],"name":"invest","outputs":[],"stateMutability":"nonpayable","type":"function"},{"inputs":[],"name":"manager","outputs":[{"internalType":"address","name":"","type":"address"}],"stateMutability":"view","type":"function"},{"inputs":[],"name":"maxDepositMulter","outputs":[{"internalType":"uint256","name":"","type":"uint256"}],"stateMutability":"view","type":"function"},{"inputs":[],"name":"maxPooledAmountMulter","outputs":[{"internalType":"uint256","name":"","type":"uint256"}],"stateMutability":"view","type":"function"},{"inputs":[],"name":"owner","outputs":[{"internalType":"address","name":"","type":"address"}],"stateMutability":"view","type":"function"},{"inputs":[],"name":"price","outputs":[{"internalType":"uint256","name":"","type":"uint256"}],"stateMutability":"view","type":"function"},{"inputs":[],"name":"renounceOwnership","outputs":[],"stateMutability":"nonpayable","type":"function"},{"inputs":[{"internalType":"uint256","name":"_multer","type":"uint256"}],"name":"setEntranceMulter","outputs":[],"stateMutability":"nonpayable","type":"function"},{"inputs":[{"internalType":"address","name":"_manager","type":"address"}],"name":"setManager","outputs":[],"stateMutability":"nonpayable","type":"function"},{"inputs":[{"internalType":"uint256","name":"_multer","type":"uint256"}],"name":"setMaxDepositMulter","outputs":[],"stateMutability":"nonpayable","type":"function"},{"inputs":[{"internalType":"uint256","name":"_multer","type":"uint256"}],"name":"setMaxPooledAmountMulter","outputs":[],"stateMutability":"nonpayable","type":"function"},{"inputs":[{"internalType":"uint256","name":"_price","type":"uint256"}],"name":"setPrice","outputs":[],"stateMutability":"nonpayable","type":"function"},{"inputs":[{"internalType":"address","name":"_wallet","type":"address"}],"name":"setTreasury","outputs":[],"stateMutability":"nonpayable","type":"function"},{"inputs":[{"internalType":"uint256","name":"","type":"uint256"},{"internalType":"address","name":"","type":"address"}],"name":"stakeInfo","outputs":[{"internalType":"address","name":"coin","type":"address"},{"internalType":"uint256","name":"amount","type":"uint256"},{"internalType":"uint256","name":"stakedTime","type":"uint256"},{"internalType":"bool","name":"refunded","type":"bool"}],"stateMutability":"view","type":"function"},{"inputs":[{"internalType":"address","name":"newOwner","type":"address"}],"name":"transferOwnership","outputs":[],"stateMutability":"nonpayable","type":"function"},{"inputs":[],"name":"treasury","outputs":[{"internalType":"address","name":"","type":"address"}],"stateMutability":"view","type":"function"},{"inputs":[{"internalType":"uint256","name":"_blockNumber","type":"uint256"}],"name":"widthdraw","outputs":[],"stateMutability":"nonpayable","type":"function"}],"evm":{"bytecode":{"linkReferences":{},"object":"6080604052600a6005556008600655600a6007556019600855605a60095534801561002957600080fd5b506040516110d83803806110d8833981016040819052610048916100ff565b61005133610093565b600380546001600160a01b039485166001600160a01b0319918216179091556004805493851693821693909317909255600a8054919093169116179055610142565b600080546001600160a01b038381166001600160a01b0319831681178455604051919092169283917f8be0079c531659141344cd1fd0a4f28419497f9722a3daafe3b4186f6b6457e09190a35050565b80516001600160a01b03811681146100fa57600080fd5b919050565b60008060006060848603121561011457600080fd5b61011d846100e3565b925061012b602085016100e3565b9150610139604085016100e3565b90509250925092565b610f87806101516000396000f3fe608060405234801561001057600080fd5b50600436106101125760003560e01c80631f10a89a146101175780632fa81a711461012c5780633bcd77da1461015c5780634228e221146101c057806345c44a1b146101d7578063481c6a75146101e05780634bcf529d146101f357806361d027b314610206578063715018a6146102195780637584f914146102215780637c51e41b14610299578063814cbf30146102ac578063844ed61d146102bf5780638da5cb5b146102df57806391b7f5ed146102e7578063a035b1fe146102fa578063d0ebdbe714610303578063e0da260c14610316578063f0f4426014610329578063f2fde38b1461033c578063f58cf3ff1461034f578063fecba3a514610358575b600080fd5b61012a610125366004610d6c565b61036b565b005b600a5461013f906001600160a01b031681565b6040516001600160a01b0390911681526020015b60405180910390f35b61019861016a366004610d6c565b6001602081905260009182526040909120805491810154600282015460048301546005909301549192909185565b604080519586526020860194909452928401919091526060830152608082015260a001610153565b6101c960065481565b604051908152602001610153565b6101c960085481565b60045461013f906001600160a01b031681565b61012a610201366004610d6c565b610378565b60035461013f906001600160a01b031681565b61012a610385565b61026d61022f366004610da1565b6002602081815260009384526040808520909152918352912080546001820154928201546003909201546001600160a01b0390911692919060ff1684565b604080516001600160a01b03909516855260208501939093529183015215156060820152608001610153565b61012a6102a7366004610dcd565b610399565b61012a6102ba366004610d6c565b610459565b6102d26102cd366004610d6c565b610466565b6040516101539190610def565b61013f61052d565b61012a6102f5366004610d6c565b61053c565b6101c960055481565b61012a610311366004610e3c565b610549565b61012a610324366004610d6c565b610573565b61012a610337366004610e3c565b610780565b61012a61034a366004610e3c565b6107aa565b6101c960095481565b61012a610366366004610e57565b610823565b610373610bfd565b600855565b610380610bfd565b600655565b61038d610bfd565b6103976000610c5c565b565b6004546001600160a01b031633146103e65760405162461bcd60e51b815260206004820152600b60248201526a2737ba1036b0b730b3b2b960a91b60448201526064015b60405180910390fd5b6000828152600160208190526040918290208481559081018390554260028201819055600554600490920191909155905183917fe0676b694d0bfe16e5e764f5d05a4da18534efe97b72a21aa785e3e6767b42c19161044d91858252602082015260400190565b60405180910390a25050565b610461610bfd565b600955565b6000818152600160205260409020600301546060906001600160401b0381111561049257610492610e8c565b6040519080825280602002602001820160405280156104bb578160200160208202803683370190505b50600083815260016020908152604091829020600301805483518184028101840190945280845293945091929083018282801561052157602002820191906000526020600020905b81546001600160a01b03168152600190910190602001808311610503575b50505050509050919050565b6000546001600160a01b031690565b610544610bfd565b600555565b610551610bfd565b600480546001600160a01b0319166001600160a01b0392909216919091179055565b600081815260026020908152604080832033845290915290206003015460ff16156105d55760405162461bcd60e51b8152602060048201526012602482015271185b1c9958591e481dda5d1a191c985dd95960721b60448201526064016103dd565b6000818152600260208181526040808420338552909152909120015442906105ff90610e10610eb8565b106106385760405162461bcd60e51b81526020600482015260096024820152686e6f7420726561647960b81b60448201526064016103dd565b60075460065460008381526001602081905260408220015490929161065c91610ecb565b6106669190610ee2565b60008381526001602081815260408084206005810154908401546002845282862033875290935290842090920154939450919290916106a491610ecb565b6106ae9190610ee2565b600a549091506001600160a01b031663a9059cbb336106cd8486610eb8565b6040516001600160e01b031960e085901b1681526001600160a01b03909216600483015260248201526044016020604051808303816000875af1158015610718573d6000803e3d6000fd5b505050506040513d601f19601f8201168201806040525081019061073c9190610f04565b506040805182815260208101849052339185917fb0ecf14e184effded5473bba77dcfab32b094b77ac1fbb36beec2aef5558797091015b60405180910390a3505050565b610788610bfd565b600380546001600160a01b0319166001600160a01b0392909216919091179055565b6107b2610bfd565b6001600160a01b0381166108175760405162461bcd60e51b815260206004820152602660248201527f4f776e61626c653a206e6577206f776e657220697320746865207a65726f206160448201526564647265737360d01b60648201526084016103dd565b61082081610c5c565b50565b6000838152600160205260409020541580159061085157506000838152600160208190526040909120015415155b801561086d575060008381526001602052604090206002015415155b6108a75760405162461bcd60e51b815260206004820152600b60248201526a139bdd081a5b9a5d1a585b60aa1b60448201526064016103dd565b60008381526001602052604090206002015442906108c79061012c610eb8565b116109005760405162461bcd60e51b815260206004820152600960248201526874696d65206f75742160b81b60448201526064016103dd565b60008381526002602090815260408083203384529091529020600101541561095a5760405162461bcd60e51b815260206004820152600d60248201526c63616e7420616464206d6f726560981b60448201526064016103dd565b6109648382610cac565b6109a15760405162461bcd60e51b815260206004820152600e60248201526d1a5b9d985b1a5908185b5bdd5b9d60921b60448201526064016103dd565b6109ab8382610d07565b6109ec5760405162461bcd60e51b8152602060048201526012602482015271195e18d9595908199d5b1b08185b5bdd5b9d60721b60448201526064016103dd565b600083815260016020818152604083206003810180549384018155845290832090910180546001600160a01b031916331790558482526005018054839290610a35908490610eb8565b9091555050600083815260026020818152604080842033808652908352818520600180820188905581546001600160a01b0319166001600160a01b038a8116919091178355429290960191909155600a546007546006548b89529583905293909620015494909316936323b872dd9392309291610ab29190610ecb565b610abc9190610ee2565b6040518463ffffffff1660e01b8152600401610ada93929190610f2d565b6020604051808303816000875af1158015610af9573d6000803e3d6000fd5b505050506040513d601f19601f82011682018060405250810190610b1d9190610f04565b506003546040516323b872dd60e01b81526001600160a01b03808516926323b872dd92610b5292339216908690600401610f2d565b6020604051808303816000875af1158015610b71573d6000803e3d6000fd5b505050506040513d601f19601f82011682018060405250810190610b959190610f04565b50600083815260026020818152604080842033808652908352938190209092015482516001600160a01b03871681529182018590529181019190915284907f7a82030cdcb2e8909ecf6432d973748c3c907ede3a2d61ff7cc5b1c1b8de428790606001610773565b33610c0661052d565b6001600160a01b0316146103975760405162461bcd60e51b815260206004820181905260248201527f4f776e61626c653a2063616c6c6572206973206e6f7420746865206f776e657260448201526064016103dd565b600080546001600160a01b038381166001600160a01b0319831681178455604051919092169283917f8be0079c531659141344cd1fd0a4f28419497f9722a3daafe3b4186f6b6457e09190a35050565b6000828152600160205260408120600401548210801590610cfe5750600854600084815260016020819052604090912090810154600490910154610cf09190610ecb565b610cfa9190610ecb565b8211155b90505b92915050565b6009546000838152600160208190526040822060048101549101549192600a929091610d3291610ecb565b610d3c9190610ecb565b610d469190610ee2565b600084815260016020526040902060050154610d63908490610eb8565b11159392505050565b600060208284031215610d7e57600080fd5b5035919050565b80356001600160a01b0381168114610d9c57600080fd5b919050565b60008060408385031215610db457600080fd5b82359150610dc460208401610d85565b90509250929050565b60008060408385031215610de057600080fd5b50508035926020909101359150565b6020808252825182820181905260009190848201906040850190845b81811015610e305783516001600160a01b031683529284019291840191600101610e0b565b50909695505050505050565b600060208284031215610e4e57600080fd5b610cfe82610d85565b600080600060608486031215610e6c57600080fd5b83359250610e7c60208501610d85565b9150604084013590509250925092565b634e487b7160e01b600052604160045260246000fd5b634e487b7160e01b600052601160045260246000fd5b80820180821115610d0157610d01610ea2565b8082028115828204841417610d0157610d01610ea2565b600082610eff57634e487b7160e01b600052601260045260246000fd5b500490565b600060208284031215610f1657600080fd5b81518015158114610f2657600080fd5b9392505050565b6001600160a01b03938416815291909216602082015260408101919091526060019056fea2646970667358221220bfc77d12b604e8a63877888863af150764a7d11f84047cce3020fa66435942fc64736f6c63430008110033","opcodes":"PUSH1 0x80 PUSH1 0x40 MSTORE PUSH1 0xA PUSH1 0x5 SSTORE PUSH1 0x8 PUSH1 0x6 SSTORE PUSH1 0xA PUSH1 0x7 SSTORE PUSH1 0x19 PUSH1 0x8 SSTORE PUSH1 0x5A PUSH1 0x9 SSTORE CALLVALUE DUP1 ISZERO PUSH2 0x29 JUMPI PUSH1 0x0 DUP1 REVERT JUMPDEST POP PUSH1 0x40 MLOAD PUSH2 0x10D8 CODESIZE SUB DUP1 PUSH2 0x10D8 DUP4 CODECOPY DUP2 ADD PUSH1 0x40 DUP2 SWAP1 MSTORE PUSH2 0x48 SWAP2 PUSH2 0xFF JUMP JUMPDEST PUSH2 0x51 CALLER PUSH2 0x93 JUMP JUMPDEST PUSH1 0x3 DUP1 SLOAD PUSH1 0x1 PUSH1 0x1 PUSH1 0xA0 SHL SUB SWAP5 DUP6 AND PUSH1 0x1 PUSH1 0x1 PUSH1 0xA0 SHL SUB NOT SWAP2 DUP3 AND OR SWAP1 SWAP2 SSTORE PUSH1 0x4 DUP1 SLOAD SWAP4 DUP6 AND SWAP4 DUP3 AND SWAP4 SWAP1 SWAP4 OR SWAP1 SWAP3 SSTORE PUSH1 0xA DUP1 SLOAD SWAP2 SWAP1 SWAP4 AND SWAP2 AND OR SWAP1 SSTORE PUSH2 0x142 JUMP JUMPDEST PUSH1 0x0 DUP1 SLOAD PUSH1 0x1 PUSH1 0x1 PUSH1 0xA0 SHL SUB DUP4 DUP2 AND PUSH1 0x1 PUSH1 0x1 PUSH1 0xA0 SHL SUB NOT DUP4 AND DUP2 OR DUP5 SSTORE PUSH1 0x40 MLOAD SWAP2 SWAP1 SWAP3 AND SWAP3 DUP4 SWAP2 PUSH32 0x8BE0079C531659141344CD1FD0A4F28419497F9722A3DAAFE3B4186F6B6457E0 SWAP2 SWAP1 LOG3 POP POP JUMP JUMPDEST DUP1 MLOAD PUSH1 0x1 PUSH1 0x1 PUSH1 0xA0 SHL SUB DUP2 AND DUP2 EQ PUSH2 0xFA JUMPI PUSH1 0x0 DUP1 REVERT JUMPDEST SWAP2 SWAP1 POP JUMP JUMPDEST PUSH1 0x0 DUP1 PUSH1 0x0 PUSH1 0x60 DUP5 DUP7 SUB SLT ISZERO PUSH2 0x114 JUMPI PUSH1 0x0 DUP1 REVERT JUMPDEST PUSH2 0x11D DUP5 PUSH2 0xE3 JUMP JUMPDEST SWAP3 POP PUSH2 0x12B PUSH1 0x20 DUP6 ADD PUSH2 0xE3 JUMP JUMPDEST SWAP2 POP PUSH2 0x139 PUSH1 0x40 DUP6 ADD PUSH2 0xE3 JUMP JUMPDEST SWAP1 POP SWAP3 POP SWAP3 POP SWAP3 JUMP JUMPDEST PUSH2 0xF87 DUP1 PUSH2 0x151 PUSH1 0x0 CODECOPY PUSH1 0x0 RETURN INVALID PUSH1 0x80 PUSH1 0x40 MSTORE CALLVALUE DUP1 ISZERO PUSH2 0x10 JUMPI PUSH1 0x0 DUP1 REVERT JUMPDEST POP PUSH1 0x4 CALLDATASIZE LT PUSH2 0x112 JUMPI PUSH1 0x0 CALLDATALOAD PUSH1 0xE0 SHR DUP1 PUSH4 0x1F10A89A EQ PUSH2 0x117 JUMPI DUP1 PUSH4 0x2FA81A71 EQ PUSH2 0x12C JUMPI DUP1 PUSH4 0x3BCD77DA EQ PUSH2 0x15C JUMPI DUP1 PUSH4 0x4228E221 EQ PUSH2 0x1C0 JUMPI DUP1 PUSH4 0x45C44A1B EQ PUSH2 0x1D7 JUMPI DUP1 PUSH4 0x481C6A75 EQ PUSH2 0x1E0 JUMPI DUP1 PUSH4 0x4BCF529D EQ PUSH2 0x1F3 JUMPI DUP1 PUSH4 0x61D027B3 EQ PUSH2 0x206 JUMPI DUP1 PUSH4 0x715018A6 EQ PUSH2 0x219 JUMPI DUP1 PUSH4 0x7584F914 EQ PUSH2 0x221 JUMPI DUP1 PUSH4 0x7C51E41B EQ PUSH2 0x299 JUMPI DUP1 PUSH4 0x814CBF30 EQ PUSH2 0x2AC JUMPI DUP1 PUSH4 0x844ED61D EQ PUSH2 0x2BF JUMPI DUP1 PUSH4 0x8DA5CB5B EQ PUSH2 0x2DF JUMPI DUP1 PUSH4 0x91B7F5ED EQ PUSH2 0x2E7 JUMPI DUP1 PUSH4 0xA035B1FE EQ PUSH2 0x2FA JUMPI DUP1 PUSH4 0xD0EBDBE7 EQ PUSH2 0x303 JUMPI DUP1 PUSH4 0xE0DA260C EQ PUSH2 0x316 JUMPI DUP1 PUSH4 0xF0F44260 EQ PUSH2 0x329 JUMPI DUP1 PUSH4 0xF2FDE38B EQ PUSH2 0x33C JUMPI DUP1 PUSH4 0xF58CF3FF EQ PUSH2 0x34F JUMPI DUP1 PUSH4 0xFECBA3A5 EQ PUSH2 0x358 JUMPI JUMPDEST PUSH1 0x0 DUP1 REVERT JUMPDEST PUSH2 0x12A PUSH2 0x125 CALLDATASIZE PUSH1 0x4 PUSH2 0xD6C JUMP JUMPDEST PUSH2 0x36B JUMP JUMPDEST STOP JUMPDEST PUSH1 0xA SLOAD PUSH2 0x13F SWAP1 PUSH1 0x1 PUSH1 0x1 PUSH1 0xA0 SHL SUB AND DUP2 JUMP JUMPDEST PUSH1 0x40 MLOAD PUSH1 0x1 PUSH1 0x1 PUSH1 0xA0 SHL SUB SWAP1 SWAP2 AND DUP2 MSTORE PUSH1 0x20 ADD JUMPDEST PUSH1 0x40 MLOAD DUP1 SWAP2 SUB SWAP1 RETURN JUMPDEST PUSH2 0x198 PUSH2 0x16A CALLDATASIZE PUSH1 0x4 PUSH2 0xD6C JUMP JUMPDEST PUSH1 0x1 PUSH1 0x20 DUP2 SWAP1 MSTORE PUSH1 0x0 SWAP2 DUP3 MSTORE PUSH1 0x40 SWAP1 SWAP2 KECCAK256 DUP1 SLOAD SWAP2 DUP2 ADD SLOAD PUSH1 0x2 DUP3 ADD SLOAD PUSH1 0x4 DUP4 ADD SLOAD PUSH1 0x5 SWAP1 SWAP4 ADD SLOAD SWAP2 SWAP3 SWAP1 SWAP2 DUP6 JUMP JUMPDEST PUSH1 0x40 DUP1 MLOAD SWAP6 DUP7 MSTORE PUSH1 0x20 DUP7 ADD SWAP5 SWAP1 SWAP5 MSTORE SWAP3 DUP5 ADD SWAP2 SWAP1 SWAP2 MSTORE PUSH1 0x60 DUP4 ADD MSTORE PUSH1 0x80 DUP3 ADD MSTORE PUSH1 0xA0 ADD PUSH2 0x153 JUMP JUMPDEST PUSH2 0x1C9 PUSH1 0x6 SLOAD DUP2 JUMP JUMPDEST PUSH1 0x40 MLOAD SWAP1 DUP2 MSTORE PUSH1 0x20 ADD PUSH2 0x153 JUMP JUMPDEST PUSH2 0x1C9 PUSH1 0x8 SLOAD DUP2 JUMP JUMPDEST PUSH1 0x4 SLOAD PUSH2 0x13F SWAP1 PUSH1 0x1 PUSH1 0x1 PUSH1 0xA0 SHL SUB AND DUP2 JUMP JUMPDEST PUSH2 0x12A PUSH2 0x201 CALLDATASIZE PUSH1 0x4 PUSH2 0xD6C JUMP JUMPDEST PUSH2 0x378 JUMP JUMPDEST PUSH1 0x3 SLOAD PUSH2 0x13F SWAP1 PUSH1 0x1 PUSH1 0x1 PUSH1 0xA0 SHL SUB AND DUP2 JUMP JUMPDEST PUSH2 0x12A PUSH2 0x385 JUMP JUMPDEST PUSH2 0x26D PUSH2 0x22F CALLDATASIZE PUSH1 0x4 PUSH2 0xDA1 JUMP JUMPDEST PUSH1 0x2 PUSH1 0x20 DUP2 DUP2 MSTORE PUSH1 0x0 SWAP4 DUP5 MSTORE PUSH1 0x40 DUP1 DUP6 KECCAK256 SWAP1 SWAP2 MSTORE SWAP2 DUP4 MSTORE SWAP2 KECCAK256 DUP1 SLOAD PUSH1 0x1 DUP3 ADD SLOAD SWAP3 DUP3 ADD SLOAD PUSH1 0x3 SWAP1 SWAP3 ADD SLOAD PUSH1 0x1 PUSH1 0x1 PUSH1 0xA0 SHL SUB SWAP1 SWAP2 AND SWAP3 SWAP2 SWAP1 PUSH1 0xFF AND DUP5 JUMP JUMPDEST PUSH1 0x40 DUP1 MLOAD PUSH1 0x1 PUSH1 0x1 PUSH1 0xA0 SHL SUB SWAP1 SWAP6 AND DUP6 MSTORE PUSH1 0x20 DUP6 ADD SWAP4 SWAP1 SWAP4 MSTORE SWAP2 DUP4 ADD MSTORE ISZERO ISZERO PUSH1 0x60 DUP3 ADD MSTORE PUSH1 0x80 ADD PUSH2 0x153 JUMP JUMPDEST PUSH2 0x12A PUSH2 0x2A7 CALLDATASIZE PUSH1 0x4 PUSH2 0xDCD JUMP JUMPDEST PUSH2 0x399 JUMP JUMPDEST PUSH2 0x12A PUSH2 0x2BA CALLDATASIZE PUSH1 0x4 PUSH2 0xD6C JUMP JUMPDEST PUSH2 0x459 JUMP JUMPDEST PUSH2 0x2D2 PUSH2 0x2CD CALLDATASIZE PUSH1 0x4 PUSH2 0xD6C JUMP JUMPDEST PUSH2 0x466 JUMP JUMPDEST PUSH1 0x40 MLOAD PUSH2 0x153 SWAP2 SWAP1 PUSH2 0xDEF JUMP JUMPDEST PUSH2 0x13F PUSH2 0x52D JUMP JUMPDEST PUSH2 0x12A PUSH2 0x2F5 CALLDATASIZE PUSH1 0x4 PUSH2 0xD6C JUMP JUMPDEST PUSH2 0x53C JUMP JUMPDEST PUSH2 0x1C9 PUSH1 0x5 SLOAD DUP2 JUMP JUMPDEST PUSH2 0x12A PUSH2 0x311 CALLDATASIZE PUSH1 0x4 PUSH2 0xE3C JUMP JUMPDEST PUSH2 0x549 JUMP JUMPDEST PUSH2 0x12A PUSH2 0x324 CALLDATASIZE PUSH1 0x4 PUSH2 0xD6C JUMP JUMPDEST PUSH2 0x573 JUMP JUMPDEST PUSH2 0x12A PUSH2 0x337 CALLDATASIZE PUSH1 0x4 PUSH2 0xE3C JUMP JUMPDEST PUSH2 0x780 JUMP JUMPDEST PUSH2 0x12A PUSH2 0x34A CALLDATASIZE PUSH1 0x4 PUSH2 0xE3C JUMP JUMPDEST PUSH2 0x7AA JUMP JUMPDEST PUSH2 0x1C9 PUSH1 0x9 SLOAD DUP2 JUMP JUMPDEST PUSH2 0x12A PUSH2 0x366 CALLDATASIZE PUSH1 0x4 PUSH2 0xE57 JUMP JUMPDEST PUSH2 0x823 JUMP JUMPDEST PUSH2 0x373 PUSH2 0xBFD JUMP JUMPDEST PUSH1 0x8 SSTORE JUMP JUMPDEST PUSH2 0x380 PUSH2 0xBFD JUMP JUMPDEST PUSH1 0x6 SSTORE JUMP JUMPDEST PUSH2 0x38D PUSH2 0xBFD JUMP JUMPDEST PUSH2 0x397 PUSH1 0x0 PUSH2 0xC5C JUMP JUMPDEST JUMP JUMPDEST PUSH1 0x4 SLOAD PUSH1 0x1 PUSH1 0x1 PUSH1 0xA0 SHL SUB AND CALLER EQ PUSH2 0x3E6 JUMPI PUSH1 0x40 MLOAD PUSH3 0x461BCD PUSH1 0xE5 SHL DUP2 MSTORE PUSH1 0x20 PUSH1 0x4 DUP3 ADD MSTORE PUSH1 0xB PUSH1 0x24 DUP3 ADD MSTORE PUSH11 0x2737BA1036B0B730B3B2B9 PUSH1 0xA9 SHL PUSH1 0x44 DUP3 ADD MSTORE PUSH1 0x64 ADD JUMPDEST PUSH1 0x40 MLOAD DUP1 SWAP2 SUB SWAP1 REVERT JUMPDEST PUSH1 0x0 DUP3 DUP2 MSTORE PUSH1 0x1 PUSH1 0x20 DUP2 SWAP1 MSTORE PUSH1 0x40 SWAP2 DUP3 SWAP1 KECCAK256 DUP5 DUP2 SSTORE SWAP1 DUP2 ADD DUP4 SWAP1 SSTORE TIMESTAMP PUSH1 0x2 DUP3 ADD DUP2 SWAP1 SSTORE PUSH1 0x5 SLOAD PUSH1 0x4 SWAP1 SWAP3 ADD SWAP2 SWAP1 SWAP2 SSTORE SWAP1 MLOAD DUP4 SWAP2 PUSH32 0xE0676B694D0BFE16E5E764F5D05A4DA18534EFE97B72A21AA785E3E6767B42C1 SWAP2 PUSH2 0x44D SWAP2 DUP6 DUP3 MSTORE PUSH1 0x20 DUP3 ADD MSTORE PUSH1 0x40 ADD SWAP1 JUMP JUMPDEST PUSH1 0x40 MLOAD DUP1 SWAP2 SUB SWAP1 LOG2 POP POP JUMP JUMPDEST PUSH2 0x461 PUSH2 0xBFD JUMP JUMPDEST PUSH1 0x9 SSTORE JUMP JUMPDEST PUSH1 0x0 DUP2 DUP2 MSTORE PUSH1 0x1 PUSH1 0x20 MSTORE PUSH1 0x40 SWAP1 KECCAK256 PUSH1 0x3 ADD SLOAD PUSH1 0x60 SWAP1 PUSH1 0x1 PUSH1 0x1 PUSH1 0x40 SHL SUB DUP2 GT ISZERO PUSH2 0x492 JUMPI PUSH2 0x492 PUSH2 0xE8C JUMP JUMPDEST PUSH1 0x40 MLOAD SWAP1 DUP1 DUP3 MSTORE DUP1 PUSH1 0x20 MUL PUSH1 0x20 ADD DUP3 ADD PUSH1 0x40 MSTORE DUP1 ISZERO PUSH2 0x4BB JUMPI DUP2 PUSH1 0x20 ADD PUSH1 0x20 DUP3 MUL DUP1 CALLDATASIZE DUP4 CALLDATACOPY ADD SWAP1 POP JUMPDEST POP PUSH1 0x0 DUP4 DUP2 MSTORE PUSH1 0x1 PUSH1 0x20 SWAP1 DUP2 MSTORE PUSH1 0x40 SWAP2 DUP3 SWAP1 KECCAK256 PUSH1 0x3 ADD DUP1 SLOAD DUP4 MLOAD DUP2 DUP5 MUL DUP2 ADD DUP5 ADD SWAP1 SWAP5 MSTORE DUP1 DUP5 MSTORE SWAP4 SWAP5 POP SWAP2 SWAP3 SWAP1 DUP4 ADD DUP3 DUP3 DUP1 ISZERO PUSH2 0x521 JUMPI PUSH1 0x20 MUL DUP3 ADD SWAP2 SWAP1 PUSH1 0x0 MSTORE PUSH1 0x20 PUSH1 0x0 KECCAK256 SWAP1 JUMPDEST DUP2 SLOAD PUSH1 0x1 PUSH1 0x1 PUSH1 0xA0 SHL SUB AND DUP2 MSTORE PUSH1 0x1 SWAP1 SWAP2 ADD SWAP1 PUSH1 0x20 ADD DUP1 DUP4 GT PUSH2 0x503 JUMPI JUMPDEST POP POP POP POP POP SWAP1 POP SWAP2 SWAP1 POP JUMP JUMPDEST PUSH1 0x0 SLOAD PUSH1 0x1 PUSH1 0x1 PUSH1 0xA0 SHL SUB AND SWAP1 JUMP JUMPDEST PUSH2 0x544 PUSH2 0xBFD JUMP JUMPDEST PUSH1 0x5 SSTORE JUMP JUMPDEST PUSH2 0x551 PUSH2 0xBFD JUMP JUMPDEST PUSH1 0x4 DUP1 SLOAD PUSH1 0x1 PUSH1 0x1 PUSH1 0xA0 SHL SUB NOT AND PUSH1 0x1 PUSH1 0x1 PUSH1 0xA0 SHL SUB SWAP3 SWAP1 SWAP3 AND SWAP2 SWAP1 SWAP2 OR SWAP1 SSTORE JUMP JUMPDEST PUSH1 0x0 DUP2 DUP2 MSTORE PUSH1 0x2 PUSH1 0x20 SWAP1 DUP2 MSTORE PUSH1 0x40 DUP1 DUP4 KECCAK256 CALLER DUP5 MSTORE SWAP1 SWAP2 MSTORE SWAP1 KECCAK256 PUSH1 0x3 ADD SLOAD PUSH1 0xFF AND ISZERO PUSH2 0x5D5 JUMPI PUSH1 0x40 MLOAD PUSH3 0x461BCD PUSH1 0xE5 SHL DUP2 MSTORE PUSH1 0x20 PUSH1 0x4 DUP3 ADD MSTORE PUSH1 0x12 PUSH1 0x24 DUP3 ADD MSTORE PUSH18 0x185B1C9958591E481DDA5D1A191C985DD959 PUSH1 0x72 SHL PUSH1 0x44 DUP3 ADD MSTORE PUSH1 0x64 ADD PUSH2 0x3DD JUMP JUMPDEST PUSH1 0x0 DUP2 DUP2 MSTORE PUSH1 0x2 PUSH1 0x20 DUP2 DUP2 MSTORE PUSH1 0x40 DUP1 DUP5 KECCAK256 CALLER DUP6 MSTORE SWAP1 SWAP2 MSTORE SWAP1 SWAP2 KECCAK256 ADD SLOAD TIMESTAMP SWAP1 PUSH2 0x5FF SWAP1 PUSH2 0xE10 PUSH2 0xEB8 JUMP JUMPDEST LT PUSH2 0x638 JUMPI PUSH1 0x40 MLOAD PUSH3 0x461BCD PUSH1 0xE5 SHL DUP2 MSTORE PUSH1 0x20 PUSH1 0x4 DUP3 ADD MSTORE PUSH1 0x9 PUSH1 0x24 DUP3 ADD MSTORE PUSH9 0x6E6F74207265616479 PUSH1 0xB8 SHL PUSH1 0x44 DUP3 ADD MSTORE PUSH1 0x64 ADD PUSH2 0x3DD JUMP JUMPDEST PUSH1 0x7 SLOAD PUSH1 0x6 SLOAD PUSH1 0x0 DUP4 DUP2 MSTORE PUSH1 0x1 PUSH1 0x20 DUP2 SWAP1 MSTORE PUSH1 0x40 DUP3 KECCAK256 ADD SLOAD SWAP1 SWAP3 SWAP2 PUSH2 0x65C SWAP2 PUSH2 0xECB JUMP JUMPDEST PUSH2 0x666 SWAP2 SWAP1 PUSH2 0xEE2 JUMP JUMPDEST PUSH1 0x0 DUP4 DUP2 MSTORE PUSH1 0x1 PUSH1 0x20 DUP2 DUP2 MSTORE PUSH1 0x40 DUP1 DUP5 KECCAK256 PUSH1 0x5 DUP2 ADD SLOAD SWAP1 DUP5 ADD SLOAD PUSH1 0x2 DUP5 MSTORE DUP3 DUP7 KECCAK256 CALLER DUP8 MSTORE SWAP1 SWAP4 MSTORE SWAP1 DUP5 KECCAK256 SWAP1 SWAP3 ADD SLOAD SWAP4 SWAP5 POP SWAP2 SWAP3 SWAP1 SWAP2 PUSH2 0x6A4 SWAP2 PUSH2 0xECB JUMP JUMPDEST PUSH2 0x6AE SWAP2 SWAP1 PUSH2 0xEE2 JUMP JUMPDEST PUSH1 0xA SLOAD SWAP1 SWAP2 POP PUSH1 0x1 PUSH1 0x1 PUSH1 0xA0 SHL SUB AND PUSH4 0xA9059CBB CALLER PUSH2 0x6CD DUP5 DUP7 PUSH2 0xEB8 JUMP JUMPDEST PUSH1 0x40 MLOAD PUSH1 0x1 PUSH1 0x1 PUSH1 0xE0 SHL SUB NOT PUSH1 0xE0 DUP6 SWAP1 SHL AND DUP2 MSTORE PUSH1 0x1 PUSH1 0x1 PUSH1 0xA0 SHL SUB SWAP1 SWAP3 AND PUSH1 0x4 DUP4 ADD MSTORE PUSH1 0x24 DUP3 ADD MSTORE PUSH1 0x44 ADD PUSH1 0x20 PUSH1 0x40 MLOAD DUP1 DUP4 SUB DUP2 PUSH1 0x0 DUP8 GAS CALL ISZERO DUP1 ISZERO PUSH2 0x718 JUMPI RETURNDATASIZE PUSH1 0x0 DUP1 RETURNDATACOPY RETURNDATASIZE PUSH1 0x0 REVERT JUMPDEST POP POP POP POP PUSH1 0x40 MLOAD RETURNDATASIZE PUSH1 0x1F NOT PUSH1 0x1F DUP3 ADD AND DUP3 ADD DUP1 PUSH1 0x40 MSTORE POP DUP2 ADD SWAP1 PUSH2 0x73C SWAP2 SWAP1 PUSH2 0xF04 JUMP JUMPDEST POP PUSH1 0x40 DUP1 MLOAD DUP3 DUP2 MSTORE PUSH1 0x20 DUP2 ADD DUP5 SWAP1 MSTORE CALLER SWAP2 DUP6 SWAP2 PUSH32 0xB0ECF14E184EFFDED5473BBA77DCFAB32B094B77AC1FBB36BEEC2AEF55587970 SWAP2 ADD JUMPDEST PUSH1 0x40 MLOAD DUP1 SWAP2 SUB SWAP1 LOG3 POP POP POP JUMP JUMPDEST PUSH2 0x788 PUSH2 0xBFD JUMP JUMPDEST PUSH1 0x3 DUP1 SLOAD PUSH1 0x1 PUSH1 0x1 PUSH1 0xA0 SHL SUB NOT AND PUSH1 0x1 PUSH1 0x1 PUSH1 0xA0 SHL SUB SWAP3 SWAP1 SWAP3 AND SWAP2 SWAP1 SWAP2 OR SWAP1 SSTORE JUMP JUMPDEST PUSH2 0x7B2 PUSH2 0xBFD JUMP JUMPDEST PUSH1 0x1 PUSH1 0x1 PUSH1 0xA0 SHL SUB DUP2 AND PUSH2 0x817 JUMPI PUSH1 0x40 MLOAD PUSH3 0x461BCD PUSH1 0xE5 SHL DUP2 MSTORE PUSH1 0x20 PUSH1 0x4 DUP3 ADD MSTORE PUSH1 0x26 PUSH1 0x24 DUP3 ADD MSTORE PUSH32 0x4F776E61626C653A206E6577206F776E657220697320746865207A65726F2061 PUSH1 0x44 DUP3 ADD MSTORE PUSH6 0x646472657373 PUSH1 0xD0 SHL PUSH1 0x64 DUP3 ADD MSTORE PUSH1 0x84 ADD PUSH2 0x3DD JUMP JUMPDEST PUSH2 0x820 DUP2 PUSH2 0xC5C JUMP JUMPDEST POP JUMP JUMPDEST PUSH1 0x0 DUP4 DUP2 MSTORE PUSH1 0x1 PUSH1 0x20 MSTORE PUSH1 0x40 SWAP1 KECCAK256 SLOAD ISZERO DUP1 ISZERO SWAP1 PUSH2 0x851 JUMPI POP PUSH1 0x0 DUP4 DUP2 MSTORE PUSH1 0x1 PUSH1 0x20 DUP2 SWAP1 MSTORE PUSH1 0x40 SWAP1 SWAP2 KECCAK256 ADD SLOAD ISZERO ISZERO JUMPDEST DUP1 ISZERO PUSH2 0x86D JUMPI POP PUSH1 0x0 DUP4 DUP2 MSTORE PUSH1 0x1 PUSH1 0x20 MSTORE PUSH1 0x40 SWAP1 KECCAK256 PUSH1 0x2 ADD SLOAD ISZERO ISZERO JUMPDEST PUSH2 0x8A7 JUMPI PUSH1 0x40 MLOAD PUSH3 0x461BCD PUSH1 0xE5 SHL DUP2 MSTORE PUSH1 0x20 PUSH1 0x4 DUP3 ADD MSTORE PUSH1 0xB PUSH1 0x24 DUP3 ADD MSTORE PUSH11 0x139BDD081A5B9A5D1A585B PUSH1 0xAA SHL PUSH1 0x44 DUP3 ADD MSTORE PUSH1 0x64 ADD PUSH2 0x3DD JUMP JUMPDEST PUSH1 0x0 DUP4 DUP2 MSTORE PUSH1 0x1 PUSH1 0x20 MSTORE PUSH1 0x40 SWAP1 KECCAK256 PUSH1 0x2 ADD SLOAD TIMESTAMP SWAP1 PUSH2 0x8C7 SWAP1 PUSH2 0x12C PUSH2 0xEB8 JUMP JUMPDEST GT PUSH2 0x900 JUMPI PUSH1 0x40 MLOAD PUSH3 0x461BCD PUSH1 0xE5 SHL DUP2 MSTORE PUSH1 0x20 PUSH1 0x4 DUP3 ADD MSTORE PUSH1 0x9 PUSH1 0x24 DUP3 ADD MSTORE PUSH9 0x74696D65206F757421 PUSH1 0xB8 SHL PUSH1 0x44 DUP3 ADD MSTORE PUSH1 0x64 ADD PUSH2 0x3DD JUMP JUMPDEST PUSH1 0x0 DUP4 DUP2 MSTORE PUSH1 0x2 PUSH1 0x20 SWAP1 DUP2 MSTORE PUSH1 0x40 DUP1 DUP4 KECCAK256 CALLER DUP5 MSTORE SWAP1 SWAP2 MSTORE SWAP1 KECCAK256 PUSH1 0x1 ADD SLOAD ISZERO PUSH2 0x95A JUMPI PUSH1 0x40 MLOAD PUSH3 0x461BCD PUSH1 0xE5 SHL DUP2 MSTORE PUSH1 0x20 PUSH1 0x4 DUP3 ADD MSTORE PUSH1 0xD PUSH1 0x24 DUP3 ADD MSTORE PUSH13 0x63616E7420616464206D6F7265 PUSH1 0x98 SHL PUSH1 0x44 DUP3 ADD MSTORE PUSH1 0x64 ADD PUSH2 0x3DD JUMP JUMPDEST PUSH2 0x964 DUP4 DUP3 PUSH2 0xCAC JUMP JUMPDEST PUSH2 0x9A1 JUMPI PUSH1 0x40 MLOAD PUSH3 0x461BCD PUSH1 0xE5 SHL DUP2 MSTORE PUSH1 0x20 PUSH1 0x4 DUP3 ADD MSTORE PUSH1 0xE PUSH1 0x24 DUP3 ADD MSTORE PUSH14 0x1A5B9D985B1A5908185B5BDD5B9D PUSH1 0x92 SHL PUSH1 0x44 DUP3 ADD MSTORE PUSH1 0x64 ADD PUSH2 0x3DD JUMP JUMPDEST PUSH2 0x9AB DUP4 DUP3 PUSH2 0xD07 JUMP JUMPDEST PUSH2 0x9EC JUMPI PUSH1 0x40 MLOAD PUSH3 0x461BCD PUSH1 0xE5 SHL DUP2 MSTORE PUSH1 0x20 PUSH1 0x4 DUP3 ADD MSTORE PUSH1 0x12 PUSH1 0x24 DUP3 ADD MSTORE PUSH18 0x195E18D9595908199D5B1B08185B5BDD5B9D PUSH1 0x72 SHL PUSH1 0x44 DUP3 ADD MSTORE PUSH1 0x64 ADD PUSH2 0x3DD JUMP JUMPDEST PUSH1 0x0 DUP4 DUP2 MSTORE PUSH1 0x1 PUSH1 0x20 DUP2 DUP2 MSTORE PUSH1 0x40 DUP4 KECCAK256 PUSH1 0x3 DUP2 ADD DUP1 SLOAD SWAP4 DUP5 ADD DUP2 SSTORE DUP5 MSTORE SWAP1 DUP4 KECCAK256 SWAP1 SWAP2 ADD DUP1 SLOAD PUSH1 0x1 PUSH1 0x1 PUSH1 0xA0 SHL SUB NOT AND CALLER OR SWAP1 SSTORE DUP5 DUP3 MSTORE PUSH1 0x5 ADD DUP1 SLOAD DUP4 SWAP3 SWAP1 PUSH2 0xA35 SWAP1 DUP5 SWAP1 PUSH2 0xEB8 JUMP JUMPDEST SWAP1 SWAP2 SSTORE POP POP PUSH1 0x0 DUP4 DUP2 MSTORE PUSH1 0x2 PUSH1 0x20 DUP2 DUP2 MSTORE PUSH1 0x40 DUP1 DUP5 KECCAK256 CALLER DUP1 DUP7 MSTORE SWAP1 DUP4 MSTORE DUP2 DUP6 KECCAK256 PUSH1 0x1 DUP1 DUP3 ADD DUP9 SWAP1 SSTORE DUP2 SLOAD PUSH1 0x1 PUSH1 0x1 PUSH1 0xA0 SHL SUB NOT AND PUSH1 0x1 PUSH1 0x1 PUSH1 0xA0 SHL SUB DUP11 DUP2 AND SWAP2 SWAP1 SWAP2 OR DUP4 SSTORE TIMESTAMP SWAP3 SWAP1 SWAP7 ADD SWAP2 SWAP1 SWAP2 SSTORE PUSH1 0xA SLOAD PUSH1 0x7 SLOAD PUSH1 0x6 SLOAD DUP12 DUP10 MSTORE SWAP6 DUP4 SWAP1 MSTORE SWAP4 SWAP1 SWAP7 KECCAK256 ADD SLOAD SWAP5 SWAP1 SWAP4 AND SWAP4 PUSH4 0x23B872DD SWAP4 SWAP3 ADDRESS SWAP3 SWAP2 PUSH2 0xAB2 SWAP2 SWAP1 PUSH2 0xECB JUMP JUMPDEST PUSH2 0xABC SWAP2 SWAP1 PUSH2 0xEE2 JUMP JUMPDEST PUSH1 0x40 MLOAD DUP5 PUSH4 0xFFFFFFFF AND PUSH1 0xE0 SHL DUP2 MSTORE PUSH1 0x4 ADD PUSH2 0xADA SWAP4 SWAP3 SWAP2 SWAP1 PUSH2 0xF2D JUMP JUMPDEST PUSH1 0x20 PUSH1 0x40 MLOAD DUP1 DUP4 SUB DUP2 PUSH1 0x0 DUP8 GAS CALL ISZERO DUP1 ISZERO PUSH2 0xAF9 JUMPI RETURNDATASIZE PUSH1 0x0 DUP1 RETURNDATACOPY RETURNDATASIZE PUSH1 0x0 REVERT JUMPDEST POP POP POP POP PUSH1 0x40 MLOAD RETURNDATASIZE PUSH1 0x1F NOT PUSH1 0x1F DUP3 ADD AND DUP3 ADD DUP1 PUSH1 0x40 MSTORE POP DUP2 ADD SWAP1 PUSH2 0xB1D SWAP2 SWAP1 PUSH2 0xF04 JUMP JUMPDEST POP PUSH1 0x3 SLOAD PUSH1 0x40 MLOAD PUSH4 0x23B872DD PUSH1 0xE0 SHL DUP2 MSTORE PUSH1 0x1 PUSH1 0x1 PUSH1 0xA0 SHL SUB DUP1 DUP6 AND SWAP3 PUSH4 0x23B872DD SWAP3 PUSH2 0xB52 SWAP3 CALLER SWAP3 AND SWAP1 DUP7 SWAP1 PUSH1 0x4 ADD PUSH2 0xF2D JUMP JUMPDEST PUSH1 0x20 PUSH1 0x40 MLOAD DUP1 DUP4 SUB DUP2 PUSH1 0x0 DUP8 GAS CALL ISZERO DUP1 ISZERO PUSH2 0xB71 JUMPI RETURNDATASIZE PUSH1 0x0 DUP1 RETURNDATACOPY RETURNDATASIZE PUSH1 0x0 REVERT JUMPDEST POP POP POP POP PUSH1 0x40 MLOAD RETURNDATASIZE PUSH1 0x1F NOT PUSH1 0x1F DUP3 ADD AND DUP3 ADD DUP1 PUSH1 0x40 MSTORE POP DUP2 ADD SWAP1 PUSH2 0xB95 SWAP2 SWAP1 PUSH2 0xF04 JUMP JUMPDEST POP PUSH1 0x0 DUP4 DUP2 MSTORE PUSH1 0x2 PUSH1 0x20 DUP2 DUP2 MSTORE PUSH1 0x40 DUP1 DUP5 KECCAK256 CALLER DUP1 DUP7 MSTORE SWAP1 DUP4 MSTORE SWAP4 DUP2 SWAP1 KECCAK256 SWAP1 SWAP3 ADD SLOAD DUP3 MLOAD PUSH1 0x1 PUSH1 0x1 PUSH1 0xA0 SHL SUB DUP8 AND DUP2 MSTORE SWAP2 DUP3 ADD DUP6 SWAP1 MSTORE SWAP2 DUP2 ADD SWAP2 SWAP1 SWAP2 MSTORE DUP5 SWAP1 PUSH32 0x7A82030CDCB2E8909ECF6432D973748C3C907EDE3A2D61FF7CC5B1C1B8DE4287 SWAP1 PUSH1 0x60 ADD PUSH2 0x773 JUMP JUMPDEST CALLER PUSH2 0xC06 PUSH2 0x52D JUMP JUMPDEST PUSH1 0x1 PUSH1 0x1 PUSH1 0xA0 SHL SUB AND EQ PUSH2 0x397 JUMPI PUSH1 0x40 MLOAD PUSH3 0x461BCD PUSH1 0xE5 SHL DUP2 MSTORE PUSH1 0x20 PUSH1 0x4 DUP3 ADD DUP2 SWAP1 MSTORE PUSH1 0x24 DUP3 ADD MSTORE PUSH32 0x4F776E61626C653A2063616C6C6572206973206E6F7420746865206F776E6572 PUSH1 0x44 DUP3 ADD MSTORE PUSH1 0x64 ADD PUSH2 0x3DD JUMP JUMPDEST PUSH1 0x0 DUP1 SLOAD PUSH1 0x1 PUSH1 0x1 PUSH1 0xA0 SHL SUB DUP4 DUP2 AND PUSH1 0x1 PUSH1 0x1 PUSH1 0xA0 SHL SUB NOT DUP4 AND DUP2 OR DUP5 SSTORE PUSH1 0x40 MLOAD SWAP2 SWAP1 SWAP3 AND SWAP3 DUP4 SWAP2 PUSH32 0x8BE0079C531659141344CD1FD0A4F28419497F9722A3DAAFE3B4186F6B6457E0 SWAP2 SWAP1 LOG3 POP POP JUMP JUMPDEST PUSH1 0x0 DUP3 DUP2 MSTORE PUSH1 0x1 PUSH1 0x20 MSTORE PUSH1 0x40 DUP2 KECCAK256 PUSH1 0x4 ADD SLOAD DUP3 LT DUP1 ISZERO SWAP1 PUSH2 0xCFE JUMPI POP PUSH1 0x8 SLOAD PUSH1 0x0 DUP5 DUP2 MSTORE PUSH1 0x1 PUSH1 0x20 DUP2 SWAP1 MSTORE PUSH1 0x40 SWAP1 SWAP2 KECCAK256 SWAP1 DUP2 ADD SLOAD PUSH1 0x4 SWAP1 SWAP2 ADD SLOAD PUSH2 0xCF0 SWAP2 SWAP1 PUSH2 0xECB JUMP JUMPDEST PUSH2 0xCFA SWAP2 SWAP1 PUSH2 0xECB JUMP JUMPDEST DUP3 GT ISZERO JUMPDEST SWAP1 POP JUMPDEST SWAP3 SWAP2 POP POP JUMP JUMPDEST PUSH1 0x9 SLOAD PUSH1 0x0 DUP4 DUP2 MSTORE PUSH1 0x1 PUSH1 0x20 DUP2 SWAP1 MSTORE PUSH1 0x40 DUP3 KECCAK256 PUSH1 0x4 DUP2 ADD SLOAD SWAP2 ADD SLOAD SWAP2 SWAP3 PUSH1 0xA SWAP3 SWAP1 SWAP2 PUSH2 0xD32 SWAP2 PUSH2 0xECB JUMP JUMPDEST PUSH2 0xD3C SWAP2 SWAP1 PUSH2 0xECB JUMP JUMPDEST PUSH2 0xD46 SWAP2 SWAP1 PUSH2 0xEE2 JUMP JUMPDEST PUSH1 0x0 DUP5 DUP2 MSTORE PUSH1 0x1 PUSH1 0x20 MSTORE PUSH1 0x40 SWAP1 KECCAK256 PUSH1 0x5 ADD SLOAD PUSH2 0xD63 SWAP1 DUP5 SWAP1 PUSH2 0xEB8 JUMP JUMPDEST GT ISZERO SWAP4 SWAP3 POP POP POP JUMP JUMPDEST PUSH1 0x0 PUSH1 0x20 DUP3 DUP5 SUB SLT ISZERO PUSH2 0xD7E JUMPI PUSH1 0x0 DUP1 REVERT JUMPDEST POP CALLDATALOAD SWAP2 SWAP1 POP JUMP JUMPDEST DUP1 CALLDATALOAD PUSH1 0x1 PUSH1 0x1 PUSH1 0xA0 SHL SUB DUP2 AND DUP2 EQ PUSH2 0xD9C JUMPI PUSH1 0x0 DUP1 REVERT JUMPDEST SWAP2 SWAP1 POP JUMP JUMPDEST PUSH1 0x0 DUP1 PUSH1 0x40 DUP4 DUP6 SUB SLT ISZERO PUSH2 0xDB4 JUMPI PUSH1 0x0 DUP1 REVERT JUMPDEST DUP3 CALLDATALOAD SWAP2 POP PUSH2 0xDC4 PUSH1 0x20 DUP5 ADD PUSH2 0xD85 JUMP JUMPDEST SWAP1 POP SWAP3 POP SWAP3 SWAP1 POP JUMP JUMPDEST PUSH1 0x0 DUP1 PUSH1 0x40 DUP4 DUP6 SUB SLT ISZERO PUSH2 0xDE0 JUMPI PUSH1 0x0 DUP1 REVERT JUMPDEST POP POP DUP1 CALLDATALOAD SWAP3 PUSH1 0x20 SWAP1 SWAP2 ADD CALLDATALOAD SWAP2 POP JUMP JUMPDEST PUSH1 0x20 DUP1 DUP3 MSTORE DUP3 MLOAD DUP3 DUP3 ADD DUP2 SWAP1 MSTORE PUSH1 0x0 SWAP2 SWAP1 DUP5 DUP3 ADD SWAP1 PUSH1 0x40 DUP6 ADD SWAP1 DUP5 JUMPDEST DUP2 DUP2 LT ISZERO PUSH2 0xE30 JUMPI DUP4 MLOAD PUSH1 0x1 PUSH1 0x1 PUSH1 0xA0 SHL SUB AND DUP4 MSTORE SWAP3 DUP5 ADD SWAP3 SWAP2 DUP5 ADD SWAP2 PUSH1 0x1 ADD PUSH2 0xE0B JUMP JUMPDEST POP SWAP1 SWAP7 SWAP6 POP POP POP POP POP POP JUMP JUMPDEST PUSH1 0x0 PUSH1 0x20 DUP3 DUP5 SUB SLT ISZERO PUSH2 0xE4E JUMPI PUSH1 0x0 DUP1 REVERT JUMPDEST PUSH2 0xCFE DUP3 PUSH2 0xD85 JUMP JUMPDEST PUSH1 0x0 DUP1 PUSH1 0x0 PUSH1 0x60 DUP5 DUP7 SUB SLT ISZERO PUSH2 0xE6C JUMPI PUSH1 0x0 DUP1 REVERT JUMPDEST DUP4 CALLDATALOAD SWAP3 POP PUSH2 0xE7C PUSH1 0x20 DUP6 ADD PUSH2 0xD85 JUMP JUMPDEST SWAP2 POP PUSH1 0x40 DUP5 ADD CALLDATALOAD SWAP1 POP SWAP3 POP SWAP3 POP SWAP3 JUMP JUMPDEST PUSH4 0x4E487B71 PUSH1 0xE0 SHL PUSH1 0x0 MSTORE PUSH1 0x41 PUSH1 0x4 MSTORE PUSH1 0x24 PUSH1 0x0 REVERT JUMPDEST PUSH4 0x4E487B71 PUSH1 0xE0 SHL PUSH1 0x0 MSTORE PUSH1 0x11 PUSH1 0x4 MSTORE PUSH1 0x24 PUSH1 0x0 REVERT JUMPDEST DUP1 DUP3 ADD DUP1 DUP3 GT ISZERO PUSH2 0xD01 JUMPI PUSH2 0xD01 PUSH2 0xEA2 JUMP JUMPDEST DUP1 DUP3 MUL DUP2 ISZERO DUP3 DUP3 DIV DUP5 EQ OR PUSH2 0xD01 JUMPI PUSH2 0xD01 PUSH2 0xEA2 JUMP JUMPDEST PUSH1 0x0 DUP3 PUSH2 0xEFF JUMPI PUSH4 0x4E487B71 PUSH1 0xE0 SHL PUSH1 0x0 MSTORE PUSH1 0x12 PUSH1 0x4 MSTORE PUSH1 0x24 PUSH1 0x0 REVERT JUMPDEST POP DIV SWAP1 JUMP JUMPDEST PUSH1 0x0 PUSH1 0x20 DUP3 DUP5 SUB SLT ISZERO PUSH2 0xF16 JUMPI PUSH1 0x0 DUP1 REVERT JUMPDEST DUP2 MLOAD DUP1 ISZERO ISZERO DUP2 EQ PUSH2 0xF26 JUMPI PUSH1 0x0 DUP1 REVERT JUMPDEST SWAP4 SWAP3 POP POP POP JUMP JUMPDEST PUSH1 0x1 PUSH1 0x1 PUSH1 0xA0 SHL SUB SWAP4 DUP5 AND DUP2 MSTORE SWAP2 SWAP1 SWAP3 AND PUSH1 0x20 DUP3 ADD MSTORE PUSH1 0x40 DUP2 ADD SWAP2 SWAP1 SWAP2 MSTORE PUSH1 0x60 ADD SWAP1 JUMP INVALID LOG2 PUSH5 0x6970667358 0x22 SLT KECCAK256 0xBF 0xC7 PUSH30 0x12B604E8A63877888863AF150764A7D11F84047CCE3020FA66435942FC64 PUSH20 0x6F6C634300081100330000000000000000000000 "},"methodIdentifiers":{"bitConey()":"2fa81a71","blockInfo(uint256)":"3bcd77da","createBlock(uint256,uint256)":"7c51e41b","entranceMulter()":"4228e221","getUserListFromBlock(uint256)":"844ed61d","invest(uint256,address,uint256)":"fecba3a5","manager()":"481c6a75","maxDepositMulter()":"45c44a1b","maxPooledAmountMulter()":"f58cf3ff","owner()":"8da5cb5b","price()":"a035b1fe","renounceOwnership()":"715018a6","setEntranceMulter(uint256)":"4bcf529d","setManager(address)":"d0ebdbe7","setMaxDepositMulter(uint256)":"1f10a89a","setMaxPooledAmountMulter(uint256)":"814cbf30","setPrice(uint256)":"91b7f5ed","setTreasury(address)":"f0f44260","stakeInfo(uint256,address)":"7584f914","transferOwnership(address)":"f2fde38b","treasury()":"61d027b3","widthdraw(uint256)":"e0da260c"}},"storageLayout":{"storage":[{"astId":7,"contract":"contracts/Stake.sol:Stake","label":"_owner","offset":0,"slot":"0","type":"t_address"},{"astId":860,"contract":"contracts/Stake.sol:Stake","label":"blockInfo","offset":0,"slot":"1","type":"t_mapping(t_uint256,t_struct(BlockInfo)846_storage)"},{"astId":867,"contract":"contracts/Stake.sol:Stake","label":"stakeInfo","offset":0,"slot":"2","type":"t_mapping(t_uint256,t_mapping(t_address,t_struct(StakeInfo)855_storage))"},{"astId":869,"contract":"contracts/Stake.sol:Stake","label":"treasury","offset":0,"slot":"3","type":"t_address"},{"astId":871,"contract":"contracts/Stake.sol:Stake","label":"manager","offset":0,"slot":"4","type":"t_address"},{"astId":874,"contract":"contracts/Stake.sol:Stake","label":"price","offset":0,"slot":"5","type":"t_uint256"},{"astId":877,"contract":"contracts/Stake.sol:Stake","label":"entranceMulter","offset":0,"slot":"6","type":"t_uint256"},{"astId":880,"contract":"contracts/Stake.sol:Stake","label":"entranceDivider","offset":0,"slot":"7","type":"t_uint256"},{"astId":883,"contract":"contracts/Stake.sol:Stake","label":"maxDepositMulter","offset":0,"slot":"8","type":"t_uint256"},{"astId":886,"contract":"contracts/Stake.sol:Stake","label":"maxPooledAmountMulter","offset":0,"slot":"9","type":"t_uint256"},{"astId":889,"contract":"contracts/Stake.sol:Stake","label":"bitConey","offset":0,"slot":"10","type":"t_contract(IERC20)777"}],"types":{"t_address":{"encoding":"inplace","label":"address","numberOfBytes":"20"},"t_array(t_address)dyn_storage":{"base":"t_address","encoding":"dynamic_array","label":"address[]","numberOfBytes":"32"},"t_bool":{"encoding":"inplace","label":"bool","numberOfBytes":"1"},"t_contract(IERC20)777":{"encoding":"inplace","label":"contract IERC20","numberOfBytes":"20"},"t_mapping(t_address,t_struct(StakeInfo)855_storage)":{"encoding":"mapping","key":"t_address","label":"mapping(address => struct Stake.StakeInfo)","numberOfBytes":"32","value":"t_struct(StakeInfo)855_storage"},"t_mapping(t_uint256,t_mapping(t_address,t_struct(StakeInfo)855_storage))":{"encoding":"mapping","key":"t_uint256","label":"mapping(uint256 => mapping(address => struct Stake.StakeInfo))","numberOfBytes":"32","value":"t_mapping(t_address,t_struct(StakeInfo)855_storage)"},"t_mapping(t_uint256,t_struct(BlockInfo)846_storage)":{"encoding":"mapping","key":"t_uint256","label":"mapping(uint256 => struct Stake.BlockInfo)","numberOfBytes":"32","value":"t_struct(BlockInfo)846_storage"},"t_struct(BlockInfo)846_storage":{"encoding":"inplace","label":"struct Stake.BlockInfo","members":[{"astId":834,"contract":"contracts/Stake.sol:Stake","label":"blockNumber","offset":0,"slot":"0","type":"t_uint256"},{"astId":836,"contract":"contracts/Stake.sol:Stake","label":"prizeAmount","offset":0,"slot":"1","type":"t_uint256"},{"astId":838,"contract":"contracts/Stake.sol:Stake","label":"startTime","offset":0,"slot":"2","type":"t_uint256"},{"astId":841,"contract":"contracts/Stake.sol:Stake","label":"userList","offset":0,"slot":"3","type":"t_array(t_address)dyn_storage"},{"astId":843,"contract":"contracts/Stake.sol:Stake","label":"price","offset":0,"slot":"4","type":"t_uint256"},{"astId":845,"contract":"contracts/Stake.sol:Stake","label":"pooledAmount","offset":0,"slot":"5","type":"t_uint256"}],"numberOfBytes":"192"},"t_struct(StakeInfo)855_storage":{"encoding":"inplace","label":"struct Stake.StakeInfo","members":[{"astId":848,"contract":"contracts/Stake.sol:Stake","label":"coin","offset":0,"slot":"0","type":"t_address"},{"astId":850,"contract":"contracts/Stake.sol:Stake","label":"amount","offset":0,"slot":"1","type":"t_uint256"},{"astId":852,"contract":"contracts/Stake.sol:Stake","label":"stakedTime","offset":0,"slot":"2","type":"t_uint256"},{"astId":854,"contract":"contracts/Stake.sol:Stake","label":"refunded","offset":0,"slot":"3","type":"t_bool"}],"numberOfBytes":"128"},"t_uint256":{"encoding":"inplace","label":"uint256","numberOfBytes":"32"}}}}}}