{"contracts/Stake.sol":{"Stake":{"abi":[{"inputs":[{"internalType":"address","name":"_treasury","type":"address"},{"internalType":"address","name":"_manager","type":"address"},{"internalType":"address","name":"_bitConeyAddr","type":"address"},{"internalType":"address","name":"_BUSD","type":"address"},{"internalType":"address","name":"_USDT","type":"address"}],"stateMutability":"nonpayable","type":"constructor"},{"anonymous":false,"inputs":[{"indexed":true,"internalType":"uint256","name":"blockNumber","type":"uint256"},{"indexed":false,"internalType":"uint256","name":"prizeAmount","type":"uint256"},{"indexed":false,"internalType":"uint256","name":"startTime","type":"uint256"}],"name":"CreateBlock","type":"event"},{"anonymous":false,"inputs":[{"indexed":true,"internalType":"uint256","name":"blockNumber","type":"uint256"},{"indexed":false,"internalType":"address","name":"coin","type":"address"},{"indexed":false,"internalType":"uint256","name":"amount","type":"uint256"},{"indexed":false,"internalType":"uint256","name":"stakedTime","type":"uint256"},{"indexed":true,"internalType":"address","name":"user","type":"address"}],"name":"Invest","type":"event"},{"anonymous":false,"inputs":[{"indexed":true,"internalType":"address","name":"previousOwner","type":"address"},{"indexed":true,"internalType":"address","name":"newOwner","type":"address"}],"name":"OwnershipTransferred","type":"event"},{"anonymous":false,"inputs":[{"indexed":false,"internalType":"address","name":"account","type":"address"}],"name":"Paused","type":"event"},{"anonymous":false,"inputs":[{"indexed":false,"internalType":"address","name":"account","type":"address"}],"name":"Unpaused","type":"event"},{"anonymous":false,"inputs":[{"indexed":true,"internalType":"uint256","name":"_blockNumber","type":"uint256"},{"indexed":true,"internalType":"address","name":"user","type":"address"},{"indexed":false,"internalType":"uint256","name":"reward","type":"uint256"},{"indexed":false,"internalType":"uint256","name":"entrance","type":"uint256"}],"name":"Withdraw","type":"event"},{"inputs":[],"name":"BUSD","outputs":[{"internalType":"address","name":"","type":"address"}],"stateMutability":"view","type":"function"},{"inputs":[],"name":"USDT","outputs":[{"internalType":"address","name":"","type":"address"}],"stateMutability":"view","type":"function"},{"inputs":[],"name":"bitConey","outputs":[{"internalType":"contract IERC20Metadata","name":"","type":"address"}],"stateMutability":"view","type":"function"},{"inputs":[{"internalType":"uint256","name":"","type":"uint256"}],"name":"blockInfo","outputs":[{"internalType":"uint256","name":"blockNumber","type":"uint256"},{"internalType":"uint256","name":"prizeAmount","type":"uint256"},{"internalType":"uint256","name":"startTime","type":"uint256"},{"internalType":"uint256","name":"price","type":"uint256"},{"internalType":"uint256","name":"pooledAmount","type":"uint256"}],"stateMutability":"view","type":"function"},{"inputs":[{"internalType":"uint256","name":"_blockNumber","type":"uint256"},{"internalType":"uint256","name":"_prizeAmount","type":"uint256"},{"internalType":"uint256","name":"_price","type":"uint256"}],"name":"createBlock","outputs":[],"stateMutability":"nonpayable","type":"function"},{"inputs":[],"name":"entranceMulter","outputs":[{"internalType":"uint256","name":"","type":"uint256"}],"stateMutability":"view","type":"function"},{"inputs":[{"internalType":"uint256","name":"_blockNumber","type":"uint256"}],"name":"getUserListFromBlock","outputs":[{"internalType":"address[]","name":"userList","type":"address[]"}],"stateMutability":"view","type":"function"},{"inputs":[{"internalType":"uint256","name":"_blockNumber","type":"uint256"},{"internalType":"address","name":"_coin","type":"address"},{"internalType":"uint256","name":"amount","type":"uint256"}],"name":"invest","outputs":[],"stateMutability":"nonpayable","type":"function"},{"inputs":[],"name":"manager","outputs":[{"internalType":"address","name":"","type":"address"}],"stateMutability":"view","type":"function"},{"inputs":[],"name":"maxDepositMulter","outputs":[{"internalType":"uint256","name":"","type":"uint256"}],"stateMutability":"view","type":"function"},{"inputs":[],"name":"maxPooledAmountMulter","outputs":[{"internalType":"uint256","name":"","type":"uint256"}],"stateMutability":"view","type":"function"},{"inputs":[],"name":"owner","outputs":[{"internalType":"address","name":"","type":"address"}],"stateMutability":"view","type":"function"},{"inputs":[],"name":"paused","outputs":[{"internalType":"bool","name":"","type":"bool"}],"stateMutability":"view","type":"function"},{"inputs":[],"name":"priceDecimal","outputs":[{"internalType":"uint256","name":"","type":"uint256"}],"stateMutability":"view","type":"function"},{"inputs":[],"name":"renounceOwnership","outputs":[],"stateMutability":"nonpayable","type":"function"},{"inputs":[{"internalType":"uint256","name":"_multer","type":"uint256"}],"name":"setEntranceMulter","outputs":[],"stateMutability":"nonpayable","type":"function"},{"inputs":[{"internalType":"uint256","name":"time","type":"uint256"}],"name":"setLockTimeforReward","outputs":[],"stateMutability":"nonpayable","type":"function"},{"inputs":[{"internalType":"address","name":"_manager","type":"address"}],"name":"setManager","outputs":[],"stateMutability":"nonpayable","type":"function"},{"inputs":[{"internalType":"uint256","name":"_multer","type":"uint256"}],"name":"setMaxDepositMulter","outputs":[],"stateMutability":"nonpayable","type":"function"},{"inputs":[{"internalType":"uint256","name":"_multer","type":"uint256"}],"name":"setMaxPooledAmountMulter","outputs":[],"stateMutability":"nonpayable","type":"function"},{"inputs":[{"internalType":"uint256","name":"value","type":"uint256"}],"name":"setMinStakeValue","outputs":[],"stateMutability":"nonpayable","type":"function"},{"inputs":[{"internalType":"bool","name":"flag","type":"bool"}],"name":"setPause","outputs":[],"stateMutability":"nonpayable","type":"function"},{"inputs":[{"internalType":"address","name":"_wallet","type":"address"}],"name":"setTreasury","outputs":[],"stateMutability":"nonpayable","type":"function"},{"inputs":[{"internalType":"uint256","name":"time","type":"uint256"}],"name":"setValidTimeforNewBlock","outputs":[],"stateMutability":"nonpayable","type":"function"},{"inputs":[{"internalType":"uint256","name":"","type":"uint256"},{"internalType":"address","name":"","type":"address"}],"name":"stakeInfo","outputs":[{"internalType":"address","name":"coin","type":"address"},{"internalType":"uint256","name":"amount","type":"uint256"},{"internalType":"uint256","name":"stakedTime","type":"uint256"},{"internalType":"bool","name":"refunded","type":"bool"}],"stateMutability":"view","type":"function"},{"inputs":[{"internalType":"address","name":"newOwner","type":"address"}],"name":"transferOwnership","outputs":[],"stateMutability":"nonpayable","type":"function"},{"inputs":[],"name":"treasury","outputs":[{"internalType":"address","name":"","type":"address"}],"stateMutability":"view","type":"function"},{"inputs":[{"internalType":"uint256","name":"_blockNumber","type":"uint256"}],"name":"widthdraw","outputs":[],"stateMutability":"nonpayable","type":"function"}],"evm":{"bytecode":{"linkReferences":{},"object":"60c06040526008600555600a6006556019600755605a60085561012c600a55610e10600b55678ac7230489e80000600c553480156200003d57600080fd5b506040516200191c3803806200191c833981016040819052620000609162000135565b6200006b33620000c8565b6000805460ff60a01b19169055600380546001600160a01b03199081166001600160a01b03978816179091556004805482169587169590951790945560098054909416928516929092179092559082166080521660a052620001a5565b600080546001600160a01b038381166001600160a01b0319831681178455604051919092169283917f8be0079c531659141344cd1fd0a4f28419497f9722a3daafe3b4186f6b6457e09190a35050565b80516001600160a01b03811681146200013057600080fd5b919050565b600080600080600060a086880312156200014e57600080fd5b620001598662000118565b9450620001696020870162000118565b9350620001796040870162000118565b9250620001896060870162000118565b9150620001996080870162000118565b90509295509295909350565b60805160a051611743620001d9600039600081816103a70152610cc20152600081816102590152610cfd01526117436000f3fe608060405234801561001057600080fd5b50600436106101545760003560e01c8063065310791461015957806310e4e0191461016e5780631f10a89a146101815780632fa81a71146101945780633bcd77da146101bd5780634228e2211461022157806345c44a1b14610238578063481c6a7514610241578063484f4ea9146102545780634bcf529d1461027b5780634d9859441461028e5780635c975abb146102a157806361d027b3146102b9578063715018a6146102cc5780637584f914146102d4578063814cbf301461034c578063844ed61d1461035f5780638da5cb5b1461037f578063bc9113f014610387578063bedb86fb1461038f578063c54e44eb146103a2578063d0ebdbe7146103c9578063e0da260c146103dc578063f0f44260146103ef578063f2fde38b14610402578063f58cf3ff14610415578063fe3cde3f1461041e578063fecba3a514610431575b600080fd5b61016c61016736600461137d565b610444565b005b61016c61017c366004611396565b61045d565b61016c61018f36600461137d565b61056f565b6009546101a7906001600160a01b031681565b6040516101b491906113c2565b60405180910390f35b6101f96101cb36600461137d565b6001602081905260009182526040909120805491810154600282015460048301546005909301549192909185565b604080519586526020860194909452928401919091526060830152608082015260a0016101b4565b61022a60055481565b6040519081526020016101b4565b61022a60075481565b6004546101a7906001600160a01b031681565b6101a77f000000000000000000000000000000000000000000000000000000000000000081565b61016c61028936600461137d565b61057c565b61016c61029c36600461137d565b610589565b6102a9610596565b60405190151581526020016101b4565b6003546101a7906001600160a01b031681565b61016c6105a6565b6103206102e23660046113f2565b6002602081815260009384526040808520909152918352912080546001820154928201546003909201546001600160a01b0390911692919060ff1684565b604080516001600160a01b039095168552602085019390935291830152151560608201526080016101b4565b61016c61035a36600461137d565b6105ba565b61037261036d36600461137d565b6105c7565b6040516101b4919061141e565b6101a761068e565b61022a600881565b61016c61039d366004611479565b61069d565b6101a77f000000000000000000000000000000000000000000000000000000000000000081565b61016c6103d736600461149d565b6106be565b61016c6103ea36600461137d565b6106e8565b61016c6103fd36600461149d565b610a36565b61016c61041036600461149d565b610a60565b61022a60085481565b61016c61042c36600461137d565b610ad6565b61016c61043f3660046114b8565b610aef565b61044c610f88565b61045781603c611503565b600b5550565b610465610fe7565b6004546001600160a01b031633146104b25760405162461bcd60e51b815260206004820152600b60248201526a2737ba1036b0b730b3b2b960a91b60448201526064015b60405180910390fd5b600083815260016020526040902054156104ff5760405162461bcd60e51b815260206004820152600e60248201526d616c72656164792065786973747360901b60448201526064016104a9565b60008381526001602081905260409182902085815590810184905542600282018190556004909101839055905184917fe0676b694d0bfe16e5e764f5d05a4da18534efe97b72a21aa785e3e6767b42c19161056291868252602082015260400190565b60405180910390a2505050565b610577610f88565b600755565b610584610f88565b600555565b610591610f88565b600c55565b600054600160a01b900460ff1690565b6105ae610f88565b6105b8600061102f565b565b6105c2610f88565b600855565b6000818152600160205260409020600301546060906001600160401b038111156105f3576105f361151a565b60405190808252806020026020018201604052801561061c578160200160208202803683370190505b50600083815260016020908152604091829020600301805483518184028101840190945280845293945091929083018282801561068257602002820191906000526020600020905b81546001600160a01b03168152600190910190602001808311610664575b50505050509050919050565b6000546001600160a01b031690565b6106a5610f88565b80156106b6576106b361107f565b50565b6106b36110d9565b6106c6610f88565b600480546001600160a01b0319166001600160a01b0392909216919091179055565b600081815260026020908152604080832033845290915290206003015460ff161561074a5760405162461bcd60e51b8152602060048201526012602482015271185b1c9958591e481dda5d1a191c985dd95960721b60448201526064016104a9565b600b5460008281526002602081815260408084203385529091529091200154429161077491611530565b106107ad5760405162461bcd60e51b81526020600482015260096024820152686e6f7420726561647960b81b60448201526064016104a9565b600081815260026020908152604080832033845290915281206001015490036108025760405162461bcd60e51b81526020600482015260076024820152663737903ab9b2b960c91b60448201526064016104a9565b6000805b60008381526001602052604090206003015481101561087a57600083815260016020526040902060030180543391908390811061084557610845611543565b6000918252602090912001546001600160a01b031603610868576001915061087a565b8061087281611559565b915050610806565b5060018115151461088d5761088d611572565b6006546005546000848152600160208190526040822001549092916108b191611503565b6108bb9190611588565b6000848152600160208190526040822060048101546005909101549394509192906108e7908290611530565b6108f36008600a61168e565b600088815260026020908152604080832033845290915290206001015461091a9190611503565b6109249190611503565b61092e9190611588565b6109389190611588565b6000858152600260209081526040808320338085529252909120600301805460ff191660011790556009549192506001600160a01b03919091169063a9059cbb906109838486611530565b6040516001600160e01b031960e085901b1681526001600160a01b03909216600483015260248201526044016020604051808303816000875af11580156109ce573d6000803e3d6000fd5b505050506040513d601f19601f820116820180604052508101906109f2919061169a565b506040805182815260208101849052339186917fb0ecf14e184effded5473bba77dcfab32b094b77ac1fbb36beec2aef55587970910160405180910390a350505050565b610a3e610f88565b600380546001600160a01b0319166001600160a01b0392909216919091179055565b610a68610f88565b6001600160a01b038116610acd5760405162461bcd60e51b815260206004820152602660248201527f4f776e61626c653a206e6577206f776e657220697320746865207a65726f206160448201526564647265737360d01b60648201526084016104a9565b6106b38161102f565b610ade610f88565b610ae981603c611503565b600a5550565b610af7610fe7565b60008381526001602052604090205415801590610b2557506000838152600160208190526040909120015415155b8015610b41575060008381526001602052604090206002015415155b610b7b5760405162461bcd60e51b815260206004820152600b60248201526a139bdd081a5b9a5d1a585b60aa1b60448201526064016104a9565b600a546000848152600160205260409020600201544291610b9b91611530565b11610bd45760405162461bcd60e51b815260206004820152600960248201526874696d65206f75742160b81b60448201526064016104a9565b600083815260026020908152604080832033845290915290206001015415610c2e5760405162461bcd60e51b815260206004820152600d60248201526c63616e7420616464206d6f726560981b60448201526064016104a9565b610c388382611115565b610c755760405162461bcd60e51b815260206004820152600e60248201526d1a5b9d985b1a5908185b5bdd5b9d60921b60448201526064016104a9565b610c7f8382611224565b610cc05760405162461bcd60e51b8152602060048201526012602482015271195e18d9595908199d5b1b08185b5bdd5b9d60721b60448201526064016104a9565b7f00000000000000000000000000000000000000000000000000000000000000006001600160a01b0316826001600160a01b03161480610d3157507f00000000000000000000000000000000000000000000000000000000000000006001600160a01b0316826001600160a01b0316145b610d725760405162461bcd60e51b81526020600482015260126024820152713737ba1030bb30b4b630b136329031b7b4b760711b60448201526064016104a9565b600083815260016020818152604083206003810180549384018155845290832090910180546001600160a01b031916331790558482526005018054839290610dbb908490611530565b9091555050600083815260026020818152604080842033808652908352818520600180820188905581546001600160a01b0319166001600160a01b038a81169190911783554292909601919091556009546006546005548b89529583905293909620015494909316936323b872dd9392309291610e389190611503565b610e429190611588565b6040518463ffffffff1660e01b8152600401610e60939291906116b7565b6020604051808303816000875af1158015610e7f573d6000803e3d6000fd5b505050506040513d601f19601f82011682018060405250810190610ea3919061169a565b506003546040516323b872dd60e01b81526001600160a01b03808516926323b872dd92610ed8923392169086906004016116b7565b6020604051808303816000875af1158015610ef7573d6000803e3d6000fd5b505050506040513d601f19601f82011682018060405250810190610f1b919061169a565b50600083815260026020818152604080842033808652908352938190209092015482516001600160a01b038716815291820185905281830152905185917f7a82030cdcb2e8909ecf6432d973748c3c907ede3a2d61ff7cc5b1c1b8de4287919081900360600190a3505050565b33610f9161068e565b6001600160a01b0316146105b85760405162461bcd60e51b815260206004820181905260248201527f4f776e61626c653a2063616c6c6572206973206e6f7420746865206f776e657260448201526064016104a9565b610fef610596565b156105b85760405162461bcd60e51b815260206004820152601060248201526f14185d5cd8589b194e881c185d5cd95960821b60448201526064016104a9565b600080546001600160a01b038381166001600160a01b0319831681178455604051919092169283917f8be0079c531659141344cd1fd0a4f28419497f9722a3daafe3b4186f6b6457e09190a35050565b611087610fe7565b6000805460ff60a01b1916600160a01b1790557f62e78cea01bee320cd4e420270b5ea74000d11b0c9f74754ebdbfc544b05a2586110c23390565b6040516110cf91906113c2565b60405180910390a1565b6110e1611332565b6000805460ff60a01b191690557f5db9ee0a495bf2e6ff9c91a7834c1ba4fdd244a5e8aa4e537bd38aeae4b073aa336110c2565b600081600c541115801561121b5750600960009054906101000a90046001600160a01b03166001600160a01b031663313ce5676040518163ffffffff1660e01b8152600401602060405180830381865afa158015611177573d6000803e3d6000fd5b505050506040513d601f19601f8201168201806040525081019061119b91906116db565b6111a690600a6116fe565b6111b26008600a61168e565b600754600086815260016020819052604090912090810154600490910154606492916111dd91611503565b6111e79190611503565b6111f990670de0b6b3a7640000611503565b6112039190611588565b61120d9190611588565b6112179190611588565b8211155b90505b92915050565b6009546040805163313ce56760e01b815290516000926001600160a01b03169163313ce5679160048083019260209291908290030181865afa15801561126e573d6000803e3d6000fd5b505050506040513d601f19601f8201168201806040525081019061129291906116db565b61129d90600a6116fe565b6112a96008600a61168e565b60085460008681526001602081905260409091206004810154910154606492916112d291611503565b6112dc9190611503565b6112ee90670de0b6b3a7640000611503565b6112f89190611588565b6113029190611588565b61130c9190611588565b600084815260016020526040902060050154611329908490611530565b11159392505050565b61133a610596565b6105b85760405162461bcd60e51b815260206004820152601460248201527314185d5cd8589b194e881b9bdd081c185d5cd95960621b60448201526064016104a9565b60006020828403121561138f57600080fd5b5035919050565b6000806000606084860312156113ab57600080fd5b505081359360208301359350604090920135919050565b6001600160a01b0391909116815260200190565b80356001600160a01b03811681146113ed57600080fd5b919050565b6000806040838503121561140557600080fd5b82359150611415602084016113d6565b90509250929050565b6020808252825182820181905260009190848201906040850190845b8181101561145f5783516001600160a01b03168352928401929184019160010161143a565b50909695505050505050565b80151581146106b357600080fd5b60006020828403121561148b57600080fd5b81356114968161146b565b9392505050565b6000602082840312156114af57600080fd5b61121b826113d6565b6000806000606084860312156114cd57600080fd5b833592506114dd602085016113d6565b9150604084013590509250925092565b634e487b7160e01b600052601160045260246000fd5b808202811582820484141761121e5761121e6114ed565b634e487b7160e01b600052604160045260246000fd5b8082018082111561121e5761121e6114ed565b634e487b7160e01b600052603260045260246000fd5b60006001820161156b5761156b6114ed565b5060010190565b634e487b7160e01b600052600160045260246000fd5b6000826115a557634e487b7160e01b600052601260045260246000fd5b500490565b600181815b808511156115e55781600019048211156115cb576115cb6114ed565b808516156115d857918102915b93841c93908002906115af565b509250929050565b6000826115fc5750600161121e565b816116095750600061121e565b816001811461161f576002811461162957611645565b600191505061121e565b60ff84111561163a5761163a6114ed565b50506001821b61121e565b5060208310610133831016604e8410600b8410161715611668575081810a61121e565b61167283836115aa565b8060001904821115611686576116866114ed565b029392505050565b600061121b83836115ed565b6000602082840312156116ac57600080fd5b81516114968161146b565b6001600160a01b039384168152919092166020820152604081019190915260600190565b6000602082840312156116ed57600080fd5b815160ff8116811461149657600080fd5b600061121b60ff8416836115ed56fea2646970667358221220c5eee0940f72d5e415ee7e3e8b4bffb34572a3890fb0859dd15269cf65f9030964736f6c63430008110033","opcodes":"PUSH1 0xC0 PUSH1 0x40 MSTORE PUSH1 0x8 PUSH1 0x5 SSTORE PUSH1 0xA PUSH1 0x6 SSTORE PUSH1 0x19 PUSH1 0x7 SSTORE PUSH1 0x5A PUSH1 0x8 SSTORE PUSH2 0x12C PUSH1 0xA SSTORE PUSH2 0xE10 PUSH1 0xB SSTORE PUSH8 0x8AC7230489E80000 PUSH1 0xC SSTORE CALLVALUE DUP1 ISZERO PUSH3 0x3D JUMPI PUSH1 0x0 DUP1 REVERT JUMPDEST POP PUSH1 0x40 MLOAD PUSH3 0x191C CODESIZE SUB DUP1 PUSH3 0x191C DUP4 CODECOPY DUP2 ADD PUSH1 0x40 DUP2 SWAP1 MSTORE PUSH3 0x60 SWAP2 PUSH3 0x135 JUMP JUMPDEST PUSH3 0x6B CALLER PUSH3 0xC8 JUMP JUMPDEST PUSH1 0x0 DUP1 SLOAD PUSH1 0xFF PUSH1 0xA0 SHL NOT AND SWAP1 SSTORE PUSH1 0x3 DUP1 SLOAD PUSH1 0x1 PUSH1 0x1 PUSH1 0xA0 SHL SUB NOT SWAP1 DUP2 AND PUSH1 0x1 PUSH1 0x1 PUSH1 0xA0 SHL SUB SWAP8 DUP9 AND OR SWAP1 SWAP2 SSTORE PUSH1 0x4 DUP1 SLOAD DUP3 AND SWAP6 DUP8 AND SWAP6 SWAP1 SWAP6 OR SWAP1 SWAP5 SSTORE PUSH1 0x9 DUP1 SLOAD SWAP1 SWAP5 AND SWAP3 DUP6 AND SWAP3 SWAP1 SWAP3 OR SWAP1 SWAP3 SSTORE SWAP1 DUP3 AND PUSH1 0x80 MSTORE AND PUSH1 0xA0 MSTORE PUSH3 0x1A5 JUMP JUMPDEST PUSH1 0x0 DUP1 SLOAD PUSH1 0x1 PUSH1 0x1 PUSH1 0xA0 SHL SUB DUP4 DUP2 AND PUSH1 0x1 PUSH1 0x1 PUSH1 0xA0 SHL SUB NOT DUP4 AND DUP2 OR DUP5 SSTORE PUSH1 0x40 MLOAD SWAP2 SWAP1 SWAP3 AND SWAP3 DUP4 SWAP2 PUSH32 0x8BE0079C531659141344CD1FD0A4F28419497F9722A3DAAFE3B4186F6B6457E0 SWAP2 SWAP1 LOG3 POP POP JUMP JUMPDEST DUP1 MLOAD PUSH1 0x1 PUSH1 0x1 PUSH1 0xA0 SHL SUB DUP2 AND DUP2 EQ PUSH3 0x130 JUMPI PUSH1 0x0 DUP1 REVERT JUMPDEST SWAP2 SWAP1 POP JUMP JUMPDEST PUSH1 0x0 DUP1 PUSH1 0x0 DUP1 PUSH1 0x0 PUSH1 0xA0 DUP7 DUP9 SUB SLT ISZERO PUSH3 0x14E JUMPI PUSH1 0x0 DUP1 REVERT JUMPDEST PUSH3 0x159 DUP7 PUSH3 0x118 JUMP JUMPDEST SWAP5 POP PUSH3 0x169 PUSH1 0x20 DUP8 ADD PUSH3 0x118 JUMP JUMPDEST SWAP4 POP PUSH3 0x179 PUSH1 0x40 DUP8 ADD PUSH3 0x118 JUMP JUMPDEST SWAP3 POP PUSH3 0x189 PUSH1 0x60 DUP8 ADD PUSH3 0x118 JUMP JUMPDEST SWAP2 POP PUSH3 0x199 PUSH1 0x80 DUP8 ADD PUSH3 0x118 JUMP JUMPDEST SWAP1 POP SWAP3 SWAP6 POP SWAP3 SWAP6 SWAP1 SWAP4 POP JUMP JUMPDEST PUSH1 0x80 MLOAD PUSH1 0xA0 MLOAD PUSH2 0x1743 PUSH3 0x1D9 PUSH1 0x0 CODECOPY PUSH1 0x0 DUP2 DUP2 PUSH2 0x3A7 ADD MSTORE PUSH2 0xCC2 ADD MSTORE PUSH1 0x0 DUP2 DUP2 PUSH2 0x259 ADD MSTORE PUSH2 0xCFD ADD MSTORE PUSH2 0x1743 PUSH1 0x0 RETURN INVALID PUSH1 0x80 PUSH1 0x40 MSTORE CALLVALUE DUP1 ISZERO PUSH2 0x10 JUMPI PUSH1 0x0 DUP1 REVERT JUMPDEST POP PUSH1 0x4 CALLDATASIZE LT PUSH2 0x154 JUMPI PUSH1 0x0 CALLDATALOAD PUSH1 0xE0 SHR DUP1 PUSH4 0x6531079 EQ PUSH2 0x159 JUMPI DUP1 PUSH4 0x10E4E019 EQ PUSH2 0x16E JUMPI DUP1 PUSH4 0x1F10A89A EQ PUSH2 0x181 JUMPI DUP1 PUSH4 0x2FA81A71 EQ PUSH2 0x194 JUMPI DUP1 PUSH4 0x3BCD77DA EQ PUSH2 0x1BD JUMPI DUP1 PUSH4 0x4228E221 EQ PUSH2 0x221 JUMPI DUP1 PUSH4 0x45C44A1B EQ PUSH2 0x238 JUMPI DUP1 PUSH4 0x481C6A75 EQ PUSH2 0x241 JUMPI DUP1 PUSH4 0x484F4EA9 EQ PUSH2 0x254 JUMPI DUP1 PUSH4 0x4BCF529D EQ PUSH2 0x27B JUMPI DUP1 PUSH4 0x4D985944 EQ PUSH2 0x28E JUMPI DUP1 PUSH4 0x5C975ABB EQ PUSH2 0x2A1 JUMPI DUP1 PUSH4 0x61D027B3 EQ PUSH2 0x2B9 JUMPI DUP1 PUSH4 0x715018A6 EQ PUSH2 0x2CC JUMPI DUP1 PUSH4 0x7584F914 EQ PUSH2 0x2D4 JUMPI DUP1 PUSH4 0x814CBF30 EQ PUSH2 0x34C JUMPI DUP1 PUSH4 0x844ED61D EQ PUSH2 0x35F JUMPI DUP1 PUSH4 0x8DA5CB5B EQ PUSH2 0x37F JUMPI DUP1 PUSH4 0xBC9113F0 EQ PUSH2 0x387 JUMPI DUP1 PUSH4 0xBEDB86FB EQ PUSH2 0x38F JUMPI DUP1 PUSH4 0xC54E44EB EQ PUSH2 0x3A2 JUMPI DUP1 PUSH4 0xD0EBDBE7 EQ PUSH2 0x3C9 JUMPI DUP1 PUSH4 0xE0DA260C EQ PUSH2 0x3DC JUMPI DUP1 PUSH4 0xF0F44260 EQ PUSH2 0x3EF JUMPI DUP1 PUSH4 0xF2FDE38B EQ PUSH2 0x402 JUMPI DUP1 PUSH4 0xF58CF3FF EQ PUSH2 0x415 JUMPI DUP1 PUSH4 0xFE3CDE3F EQ PUSH2 0x41E JUMPI DUP1 PUSH4 0xFECBA3A5 EQ PUSH2 0x431 JUMPI JUMPDEST PUSH1 0x0 DUP1 REVERT JUMPDEST PUSH2 0x16C PUSH2 0x167 CALLDATASIZE PUSH1 0x4 PUSH2 0x137D JUMP JUMPDEST PUSH2 0x444 JUMP JUMPDEST STOP JUMPDEST PUSH2 0x16C PUSH2 0x17C CALLDATASIZE PUSH1 0x4 PUSH2 0x1396 JUMP JUMPDEST PUSH2 0x45D JUMP JUMPDEST PUSH2 0x16C PUSH2 0x18F CALLDATASIZE PUSH1 0x4 PUSH2 0x137D JUMP JUMPDEST PUSH2 0x56F JUMP JUMPDEST PUSH1 0x9 SLOAD PUSH2 0x1A7 SWAP1 PUSH1 0x1 PUSH1 0x1 PUSH1 0xA0 SHL SUB AND DUP2 JUMP JUMPDEST PUSH1 0x40 MLOAD PUSH2 0x1B4 SWAP2 SWAP1 PUSH2 0x13C2 JUMP JUMPDEST PUSH1 0x40 MLOAD DUP1 SWAP2 SUB SWAP1 RETURN JUMPDEST PUSH2 0x1F9 PUSH2 0x1CB CALLDATASIZE PUSH1 0x4 PUSH2 0x137D JUMP JUMPDEST PUSH1 0x1 PUSH1 0x20 DUP2 SWAP1 MSTORE PUSH1 0x0 SWAP2 DUP3 MSTORE PUSH1 0x40 SWAP1 SWAP2 KECCAK256 DUP1 SLOAD SWAP2 DUP2 ADD SLOAD PUSH1 0x2 DUP3 ADD SLOAD PUSH1 0x4 DUP4 ADD SLOAD PUSH1 0x5 SWAP1 SWAP4 ADD SLOAD SWAP2 SWAP3 SWAP1 SWAP2 DUP6 JUMP JUMPDEST PUSH1 0x40 DUP1 MLOAD SWAP6 DUP7 MSTORE PUSH1 0x20 DUP7 ADD SWAP5 SWAP1 SWAP5 MSTORE SWAP3 DUP5 ADD SWAP2 SWAP1 SWAP2 MSTORE PUSH1 0x60 DUP4 ADD MSTORE PUSH1 0x80 DUP3 ADD MSTORE PUSH1 0xA0 ADD PUSH2 0x1B4 JUMP JUMPDEST PUSH2 0x22A PUSH1 0x5 SLOAD DUP2 JUMP JUMPDEST PUSH1 0x40 MLOAD SWAP1 DUP2 MSTORE PUSH1 0x20 ADD PUSH2 0x1B4 JUMP JUMPDEST PUSH2 0x22A PUSH1 0x7 SLOAD DUP2 JUMP JUMPDEST PUSH1 0x4 SLOAD PUSH2 0x1A7 SWAP1 PUSH1 0x1 PUSH1 0x1 PUSH1 0xA0 SHL SUB AND DUP2 JUMP JUMPDEST PUSH2 0x1A7 PUSH32 0x0 DUP2 JUMP JUMPDEST PUSH2 0x16C PUSH2 0x289 CALLDATASIZE PUSH1 0x4 PUSH2 0x137D JUMP JUMPDEST PUSH2 0x57C JUMP JUMPDEST PUSH2 0x16C PUSH2 0x29C CALLDATASIZE PUSH1 0x4 PUSH2 0x137D JUMP JUMPDEST PUSH2 0x589 JUMP JUMPDEST PUSH2 0x2A9 PUSH2 0x596 JUMP JUMPDEST PUSH1 0x40 MLOAD SWAP1 ISZERO ISZERO DUP2 MSTORE PUSH1 0x20 ADD PUSH2 0x1B4 JUMP JUMPDEST PUSH1 0x3 SLOAD PUSH2 0x1A7 SWAP1 PUSH1 0x1 PUSH1 0x1 PUSH1 0xA0 SHL SUB AND DUP2 JUMP JUMPDEST PUSH2 0x16C PUSH2 0x5A6 JUMP JUMPDEST PUSH2 0x320 PUSH2 0x2E2 CALLDATASIZE PUSH1 0x4 PUSH2 0x13F2 JUMP JUMPDEST PUSH1 0x2 PUSH1 0x20 DUP2 DUP2 MSTORE PUSH1 0x0 SWAP4 DUP5 MSTORE PUSH1 0x40 DUP1 DUP6 KECCAK256 SWAP1 SWAP2 MSTORE SWAP2 DUP4 MSTORE SWAP2 KECCAK256 DUP1 SLOAD PUSH1 0x1 DUP3 ADD SLOAD SWAP3 DUP3 ADD SLOAD PUSH1 0x3 SWAP1 SWAP3 ADD SLOAD PUSH1 0x1 PUSH1 0x1 PUSH1 0xA0 SHL SUB SWAP1 SWAP2 AND SWAP3 SWAP2 SWAP1 PUSH1 0xFF AND DUP5 JUMP JUMPDEST PUSH1 0x40 DUP1 MLOAD PUSH1 0x1 PUSH1 0x1 PUSH1 0xA0 SHL SUB SWAP1 SWAP6 AND DUP6 MSTORE PUSH1 0x20 DUP6 ADD SWAP4 SWAP1 SWAP4 MSTORE SWAP2 DUP4 ADD MSTORE ISZERO ISZERO PUSH1 0x60 DUP3 ADD MSTORE PUSH1 0x80 ADD PUSH2 0x1B4 JUMP JUMPDEST PUSH2 0x16C PUSH2 0x35A CALLDATASIZE PUSH1 0x4 PUSH2 0x137D JUMP JUMPDEST PUSH2 0x5BA JUMP JUMPDEST PUSH2 0x372 PUSH2 0x36D CALLDATASIZE PUSH1 0x4 PUSH2 0x137D JUMP JUMPDEST PUSH2 0x5C7 JUMP JUMPDEST PUSH1 0x40 MLOAD PUSH2 0x1B4 SWAP2 SWAP1 PUSH2 0x141E JUMP JUMPDEST PUSH2 0x1A7 PUSH2 0x68E JUMP JUMPDEST PUSH2 0x22A PUSH1 0x8 DUP2 JUMP JUMPDEST PUSH2 0x16C PUSH2 0x39D CALLDATASIZE PUSH1 0x4 PUSH2 0x1479 JUMP JUMPDEST PUSH2 0x69D JUMP JUMPDEST PUSH2 0x1A7 PUSH32 0x0 DUP2 JUMP JUMPDEST PUSH2 0x16C PUSH2 0x3D7 CALLDATASIZE PUSH1 0x4 PUSH2 0x149D JUMP JUMPDEST PUSH2 0x6BE JUMP JUMPDEST PUSH2 0x16C PUSH2 0x3EA CALLDATASIZE PUSH1 0x4 PUSH2 0x137D JUMP JUMPDEST PUSH2 0x6E8 JUMP JUMPDEST PUSH2 0x16C PUSH2 0x3FD CALLDATASIZE PUSH1 0x4 PUSH2 0x149D JUMP JUMPDEST PUSH2 0xA36 JUMP JUMPDEST PUSH2 0x16C PUSH2 0x410 CALLDATASIZE PUSH1 0x4 PUSH2 0x149D JUMP JUMPDEST PUSH2 0xA60 JUMP JUMPDEST PUSH2 0x22A PUSH1 0x8 SLOAD DUP2 JUMP JUMPDEST PUSH2 0x16C PUSH2 0x42C CALLDATASIZE PUSH1 0x4 PUSH2 0x137D JUMP JUMPDEST PUSH2 0xAD6 JUMP JUMPDEST PUSH2 0x16C PUSH2 0x43F CALLDATASIZE PUSH1 0x4 PUSH2 0x14B8 JUMP JUMPDEST PUSH2 0xAEF JUMP JUMPDEST PUSH2 0x44C PUSH2 0xF88 JUMP JUMPDEST PUSH2 0x457 DUP2 PUSH1 0x3C PUSH2 0x1503 JUMP JUMPDEST PUSH1 0xB SSTORE POP JUMP JUMPDEST PUSH2 0x465 PUSH2 0xFE7 JUMP JUMPDEST PUSH1 0x4 SLOAD PUSH1 0x1 PUSH1 0x1 PUSH1 0xA0 SHL SUB AND CALLER EQ PUSH2 0x4B2 JUMPI PUSH1 0x40 MLOAD PUSH3 0x461BCD PUSH1 0xE5 SHL DUP2 MSTORE PUSH1 0x20 PUSH1 0x4 DUP3 ADD MSTORE PUSH1 0xB PUSH1 0x24 DUP3 ADD MSTORE PUSH11 0x2737BA1036B0B730B3B2B9 PUSH1 0xA9 SHL PUSH1 0x44 DUP3 ADD MSTORE PUSH1 0x64 ADD JUMPDEST PUSH1 0x40 MLOAD DUP1 SWAP2 SUB SWAP1 REVERT JUMPDEST PUSH1 0x0 DUP4 DUP2 MSTORE PUSH1 0x1 PUSH1 0x20 MSTORE PUSH1 0x40 SWAP1 KECCAK256 SLOAD ISZERO PUSH2 0x4FF JUMPI PUSH1 0x40 MLOAD PUSH3 0x461BCD PUSH1 0xE5 SHL DUP2 MSTORE PUSH1 0x20 PUSH1 0x4 DUP3 ADD MSTORE PUSH1 0xE PUSH1 0x24 DUP3 ADD MSTORE PUSH14 0x616C726561647920657869737473 PUSH1 0x90 SHL PUSH1 0x44 DUP3 ADD MSTORE PUSH1 0x64 ADD PUSH2 0x4A9 JUMP JUMPDEST PUSH1 0x0 DUP4 DUP2 MSTORE PUSH1 0x1 PUSH1 0x20 DUP2 SWAP1 MSTORE PUSH1 0x40 SWAP2 DUP3 SWAP1 KECCAK256 DUP6 DUP2 SSTORE SWAP1 DUP2 ADD DUP5 SWAP1 SSTORE TIMESTAMP PUSH1 0x2 DUP3 ADD DUP2 SWAP1 SSTORE PUSH1 0x4 SWAP1 SWAP2 ADD DUP4 SWAP1 SSTORE SWAP1 MLOAD DUP5 SWAP2 PUSH32 0xE0676B694D0BFE16E5E764F5D05A4DA18534EFE97B72A21AA785E3E6767B42C1 SWAP2 PUSH2 0x562 SWAP2 DUP7 DUP3 MSTORE PUSH1 0x20 DUP3 ADD MSTORE PUSH1 0x40 ADD SWAP1 JUMP JUMPDEST PUSH1 0x40 MLOAD DUP1 SWAP2 SUB SWAP1 LOG2 POP POP POP JUMP JUMPDEST PUSH2 0x577 PUSH2 0xF88 JUMP JUMPDEST PUSH1 0x7 SSTORE JUMP JUMPDEST PUSH2 0x584 PUSH2 0xF88 JUMP JUMPDEST PUSH1 0x5 SSTORE JUMP JUMPDEST PUSH2 0x591 PUSH2 0xF88 JUMP JUMPDEST PUSH1 0xC SSTORE JUMP JUMPDEST PUSH1 0x0 SLOAD PUSH1 0x1 PUSH1 0xA0 SHL SWAP1 DIV PUSH1 0xFF AND SWAP1 JUMP JUMPDEST PUSH2 0x5AE PUSH2 0xF88 JUMP JUMPDEST PUSH2 0x5B8 PUSH1 0x0 PUSH2 0x102F JUMP JUMPDEST JUMP JUMPDEST PUSH2 0x5C2 PUSH2 0xF88 JUMP JUMPDEST PUSH1 0x8 SSTORE JUMP JUMPDEST PUSH1 0x0 DUP2 DUP2 MSTORE PUSH1 0x1 PUSH1 0x20 MSTORE PUSH1 0x40 SWAP1 KECCAK256 PUSH1 0x3 ADD SLOAD PUSH1 0x60 SWAP1 PUSH1 0x1 PUSH1 0x1 PUSH1 0x40 SHL SUB DUP2 GT ISZERO PUSH2 0x5F3 JUMPI PUSH2 0x5F3 PUSH2 0x151A JUMP JUMPDEST PUSH1 0x40 MLOAD SWAP1 DUP1 DUP3 MSTORE DUP1 PUSH1 0x20 MUL PUSH1 0x20 ADD DUP3 ADD PUSH1 0x40 MSTORE DUP1 ISZERO PUSH2 0x61C JUMPI DUP2 PUSH1 0x20 ADD PUSH1 0x20 DUP3 MUL DUP1 CALLDATASIZE DUP4 CALLDATACOPY ADD SWAP1 POP JUMPDEST POP PUSH1 0x0 DUP4 DUP2 MSTORE PUSH1 0x1 PUSH1 0x20 SWAP1 DUP2 MSTORE PUSH1 0x40 SWAP2 DUP3 SWAP1 KECCAK256 PUSH1 0x3 ADD DUP1 SLOAD DUP4 MLOAD DUP2 DUP5 MUL DUP2 ADD DUP5 ADD SWAP1 SWAP5 MSTORE DUP1 DUP5 MSTORE SWAP4 SWAP5 POP SWAP2 SWAP3 SWAP1 DUP4 ADD DUP3 DUP3 DUP1 ISZERO PUSH2 0x682 JUMPI PUSH1 0x20 MUL DUP3 ADD SWAP2 SWAP1 PUSH1 0x0 MSTORE PUSH1 0x20 PUSH1 0x0 KECCAK256 SWAP1 JUMPDEST DUP2 SLOAD PUSH1 0x1 PUSH1 0x1 PUSH1 0xA0 SHL SUB AND DUP2 MSTORE PUSH1 0x1 SWAP1 SWAP2 ADD SWAP1 PUSH1 0x20 ADD DUP1 DUP4 GT PUSH2 0x664 JUMPI JUMPDEST POP POP POP POP POP SWAP1 POP SWAP2 SWAP1 POP JUMP JUMPDEST PUSH1 0x0 SLOAD PUSH1 0x1 PUSH1 0x1 PUSH1 0xA0 SHL SUB AND SWAP1 JUMP JUMPDEST PUSH2 0x6A5 PUSH2 0xF88 JUMP JUMPDEST DUP1 ISZERO PUSH2 0x6B6 JUMPI PUSH2 0x6B3 PUSH2 0x107F JUMP JUMPDEST POP JUMP JUMPDEST PUSH2 0x6B3 PUSH2 0x10D9 JUMP JUMPDEST PUSH2 0x6C6 PUSH2 0xF88 JUMP JUMPDEST PUSH1 0x4 DUP1 SLOAD PUSH1 0x1 PUSH1 0x1 PUSH1 0xA0 SHL SUB NOT AND PUSH1 0x1 PUSH1 0x1 PUSH1 0xA0 SHL SUB SWAP3 SWAP1 SWAP3 AND SWAP2 SWAP1 SWAP2 OR SWAP1 SSTORE JUMP JUMPDEST PUSH1 0x0 DUP2 DUP2 MSTORE PUSH1 0x2 PUSH1 0x20 SWAP1 DUP2 MSTORE PUSH1 0x40 DUP1 DUP4 KECCAK256 CALLER DUP5 MSTORE SWAP1 SWAP2 MSTORE SWAP1 KECCAK256 PUSH1 0x3 ADD SLOAD PUSH1 0xFF AND ISZERO PUSH2 0x74A JUMPI PUSH1 0x40 MLOAD PUSH3 0x461BCD PUSH1 0xE5 SHL DUP2 MSTORE PUSH1 0x20 PUSH1 0x4 DUP3 ADD MSTORE PUSH1 0x12 PUSH1 0x24 DUP3 ADD MSTORE PUSH18 0x185B1C9958591E481DDA5D1A191C985DD959 PUSH1 0x72 SHL PUSH1 0x44 DUP3 ADD MSTORE PUSH1 0x64 ADD PUSH2 0x4A9 JUMP JUMPDEST PUSH1 0xB SLOAD PUSH1 0x0 DUP3 DUP2 MSTORE PUSH1 0x2 PUSH1 0x20 DUP2 DUP2 MSTORE PUSH1 0x40 DUP1 DUP5 KECCAK256 CALLER DUP6 MSTORE SWAP1 SWAP2 MSTORE SWAP1 SWAP2 KECCAK256 ADD SLOAD TIMESTAMP SWAP2 PUSH2 0x774 SWAP2 PUSH2 0x1530 JUMP JUMPDEST LT PUSH2 0x7AD JUMPI PUSH1 0x40 MLOAD PUSH3 0x461BCD PUSH1 0xE5 SHL DUP2 MSTORE PUSH1 0x20 PUSH1 0x4 DUP3 ADD MSTORE PUSH1 0x9 PUSH1 0x24 DUP3 ADD MSTORE PUSH9 0x6E6F74207265616479 PUSH1 0xB8 SHL PUSH1 0x44 DUP3 ADD MSTORE PUSH1 0x64 ADD PUSH2 0x4A9 JUMP JUMPDEST PUSH1 0x0 DUP2 DUP2 MSTORE PUSH1 0x2 PUSH1 0x20 SWAP1 DUP2 MSTORE PUSH1 0x40 DUP1 DUP4 KECCAK256 CALLER DUP5 MSTORE SWAP1 SWAP2 MSTORE DUP2 KECCAK256 PUSH1 0x1 ADD SLOAD SWAP1 SUB PUSH2 0x802 JUMPI PUSH1 0x40 MLOAD PUSH3 0x461BCD PUSH1 0xE5 SHL DUP2 MSTORE PUSH1 0x20 PUSH1 0x4 DUP3 ADD MSTORE PUSH1 0x7 PUSH1 0x24 DUP3 ADD MSTORE PUSH7 0x3737903AB9B2B9 PUSH1 0xC9 SHL PUSH1 0x44 DUP3 ADD MSTORE PUSH1 0x64 ADD PUSH2 0x4A9 JUMP JUMPDEST PUSH1 0x0 DUP1 JUMPDEST PUSH1 0x0 DUP4 DUP2 MSTORE PUSH1 0x1 PUSH1 0x20 MSTORE PUSH1 0x40 SWAP1 KECCAK256 PUSH1 0x3 ADD SLOAD DUP2 LT ISZERO PUSH2 0x87A JUMPI PUSH1 0x0 DUP4 DUP2 MSTORE PUSH1 0x1 PUSH1 0x20 MSTORE PUSH1 0x40 SWAP1 KECCAK256 PUSH1 0x3 ADD DUP1 SLOAD CALLER SWAP2 SWAP1 DUP4 SWAP1 DUP2 LT PUSH2 0x845 JUMPI PUSH2 0x845 PUSH2 0x1543 JUMP JUMPDEST PUSH1 0x0 SWAP2 DUP3 MSTORE PUSH1 0x20 SWAP1 SWAP2 KECCAK256 ADD SLOAD PUSH1 0x1 PUSH1 0x1 PUSH1 0xA0 SHL SUB AND SUB PUSH2 0x868 JUMPI PUSH1 0x1 SWAP2 POP PUSH2 0x87A JUMP JUMPDEST DUP1 PUSH2 0x872 DUP2 PUSH2 0x1559 JUMP JUMPDEST SWAP2 POP POP PUSH2 0x806 JUMP JUMPDEST POP PUSH1 0x1 DUP2 ISZERO ISZERO EQ PUSH2 0x88D JUMPI PUSH2 0x88D PUSH2 0x1572 JUMP JUMPDEST PUSH1 0x6 SLOAD PUSH1 0x5 SLOAD PUSH1 0x0 DUP5 DUP2 MSTORE PUSH1 0x1 PUSH1 0x20 DUP2 SWAP1 MSTORE PUSH1 0x40 DUP3 KECCAK256 ADD SLOAD SWAP1 SWAP3 SWAP2 PUSH2 0x8B1 SWAP2 PUSH2 0x1503 JUMP JUMPDEST PUSH2 0x8BB SWAP2 SWAP1 PUSH2 0x1588 JUMP JUMPDEST PUSH1 0x0 DUP5 DUP2 MSTORE PUSH1 0x1 PUSH1 0x20 DUP2 SWAP1 MSTORE PUSH1 0x40 DUP3 KECCAK256 PUSH1 0x4 DUP2 ADD SLOAD PUSH1 0x5 SWAP1 SWAP2 ADD SLOAD SWAP4 SWAP5 POP SWAP2 SWAP3 SWAP1 PUSH2 0x8E7 SWAP1 DUP3 SWAP1 PUSH2 0x1530 JUMP JUMPDEST PUSH2 0x8F3 PUSH1 0x8 PUSH1 0xA PUSH2 0x168E JUMP JUMPDEST PUSH1 0x0 DUP9 DUP2 MSTORE PUSH1 0x2 PUSH1 0x20 SWAP1 DUP2 MSTORE PUSH1 0x40 DUP1 DUP4 KECCAK256 CALLER DUP5 MSTORE SWAP1 SWAP2 MSTORE SWAP1 KECCAK256 PUSH1 0x1 ADD SLOAD PUSH2 0x91A SWAP2 SWAP1 PUSH2 0x1503 JUMP JUMPDEST PUSH2 0x924 SWAP2 SWAP1 PUSH2 0x1503 JUMP JUMPDEST PUSH2 0x92E SWAP2 SWAP1 PUSH2 0x1588 JUMP JUMPDEST PUSH2 0x938 SWAP2 SWAP1 PUSH2 0x1588 JUMP JUMPDEST PUSH1 0x0 DUP6 DUP2 MSTORE PUSH1 0x2 PUSH1 0x20 SWAP1 DUP2 MSTORE PUSH1 0x40 DUP1 DUP4 KECCAK256 CALLER DUP1 DUP6 MSTORE SWAP3 MSTORE SWAP1 SWAP2 KECCAK256 PUSH1 0x3 ADD DUP1 SLOAD PUSH1 0xFF NOT AND PUSH1 0x1 OR SWAP1 SSTORE PUSH1 0x9 SLOAD SWAP2 SWAP3 POP PUSH1 0x1 PUSH1 0x1 PUSH1 0xA0 SHL SUB SWAP2 SWAP1 SWAP2 AND SWAP1 PUSH4 0xA9059CBB SWAP1 PUSH2 0x983 DUP5 DUP7 PUSH2 0x1530 JUMP JUMPDEST PUSH1 0x40 MLOAD PUSH1 0x1 PUSH1 0x1 PUSH1 0xE0 SHL SUB NOT PUSH1 0xE0 DUP6 SWAP1 SHL AND DUP2 MSTORE PUSH1 0x1 PUSH1 0x1 PUSH1 0xA0 SHL SUB SWAP1 SWAP3 AND PUSH1 0x4 DUP4 ADD MSTORE PUSH1 0x24 DUP3 ADD MSTORE PUSH1 0x44 ADD PUSH1 0x20 PUSH1 0x40 MLOAD DUP1 DUP4 SUB DUP2 PUSH1 0x0 DUP8 GAS CALL ISZERO DUP1 ISZERO PUSH2 0x9CE JUMPI RETURNDATASIZE PUSH1 0x0 DUP1 RETURNDATACOPY RETURNDATASIZE PUSH1 0x0 REVERT JUMPDEST POP POP POP POP PUSH1 0x40 MLOAD RETURNDATASIZE PUSH1 0x1F NOT PUSH1 0x1F DUP3 ADD AND DUP3 ADD DUP1 PUSH1 0x40 MSTORE POP DUP2 ADD SWAP1 PUSH2 0x9F2 SWAP2 SWAP1 PUSH2 0x169A JUMP JUMPDEST POP PUSH1 0x40 DUP1 MLOAD DUP3 DUP2 MSTORE PUSH1 0x20 DUP2 ADD DUP5 SWAP1 MSTORE CALLER SWAP2 DUP7 SWAP2 PUSH32 0xB0ECF14E184EFFDED5473BBA77DCFAB32B094B77AC1FBB36BEEC2AEF55587970 SWAP2 ADD PUSH1 0x40 MLOAD DUP1 SWAP2 SUB SWAP1 LOG3 POP POP POP POP JUMP JUMPDEST PUSH2 0xA3E PUSH2 0xF88 JUMP JUMPDEST PUSH1 0x3 DUP1 SLOAD PUSH1 0x1 PUSH1 0x1 PUSH1 0xA0 SHL SUB NOT AND PUSH1 0x1 PUSH1 0x1 PUSH1 0xA0 SHL SUB SWAP3 SWAP1 SWAP3 AND SWAP2 SWAP1 SWAP2 OR SWAP1 SSTORE JUMP JUMPDEST PUSH2 0xA68 PUSH2 0xF88 JUMP JUMPDEST PUSH1 0x1 PUSH1 0x1 PUSH1 0xA0 SHL SUB DUP2 AND PUSH2 0xACD JUMPI PUSH1 0x40 MLOAD PUSH3 0x461BCD PUSH1 0xE5 SHL DUP2 MSTORE PUSH1 0x20 PUSH1 0x4 DUP3 ADD MSTORE PUSH1 0x26 PUSH1 0x24 DUP3 ADD MSTORE PUSH32 0x4F776E61626C653A206E6577206F776E657220697320746865207A65726F2061 PUSH1 0x44 DUP3 ADD MSTORE PUSH6 0x646472657373 PUSH1 0xD0 SHL PUSH1 0x64 DUP3 ADD MSTORE PUSH1 0x84 ADD PUSH2 0x4A9 JUMP JUMPDEST PUSH2 0x6B3 DUP2 PUSH2 0x102F JUMP JUMPDEST PUSH2 0xADE PUSH2 0xF88 JUMP JUMPDEST PUSH2 0xAE9 DUP2 PUSH1 0x3C PUSH2 0x1503 JUMP JUMPDEST PUSH1 0xA SSTORE POP JUMP JUMPDEST PUSH2 0xAF7 PUSH2 0xFE7 JUMP JUMPDEST PUSH1 0x0 DUP4 DUP2 MSTORE PUSH1 0x1 PUSH1 0x20 MSTORE PUSH1 0x40 SWAP1 KECCAK256 SLOAD ISZERO DUP1 ISZERO SWAP1 PUSH2 0xB25 JUMPI POP PUSH1 0x0 DUP4 DUP2 MSTORE PUSH1 0x1 PUSH1 0x20 DUP2 SWAP1 MSTORE PUSH1 0x40 SWAP1 SWAP2 KECCAK256 ADD SLOAD ISZERO ISZERO JUMPDEST DUP1 ISZERO PUSH2 0xB41 JUMPI POP PUSH1 0x0 DUP4 DUP2 MSTORE PUSH1 0x1 PUSH1 0x20 MSTORE PUSH1 0x40 SWAP1 KECCAK256 PUSH1 0x2 ADD SLOAD ISZERO ISZERO JUMPDEST PUSH2 0xB7B JUMPI PUSH1 0x40 MLOAD PUSH3 0x461BCD PUSH1 0xE5 SHL DUP2 MSTORE PUSH1 0x20 PUSH1 0x4 DUP3 ADD MSTORE PUSH1 0xB PUSH1 0x24 DUP3 ADD MSTORE PUSH11 0x139BDD081A5B9A5D1A585B PUSH1 0xAA SHL PUSH1 0x44 DUP3 ADD MSTORE PUSH1 0x64 ADD PUSH2 0x4A9 JUMP JUMPDEST PUSH1 0xA SLOAD PUSH1 0x0 DUP5 DUP2 MSTORE PUSH1 0x1 PUSH1 0x20 MSTORE PUSH1 0x40 SWAP1 KECCAK256 PUSH1 0x2 ADD SLOAD TIMESTAMP SWAP2 PUSH2 0xB9B SWAP2 PUSH2 0x1530 JUMP JUMPDEST GT PUSH2 0xBD4 JUMPI PUSH1 0x40 MLOAD PUSH3 0x461BCD PUSH1 0xE5 SHL DUP2 MSTORE PUSH1 0x20 PUSH1 0x4 DUP3 ADD MSTORE PUSH1 0x9 PUSH1 0x24 DUP3 ADD MSTORE PUSH9 0x74696D65206F757421 PUSH1 0xB8 SHL PUSH1 0x44 DUP3 ADD MSTORE PUSH1 0x64 ADD PUSH2 0x4A9 JUMP JUMPDEST PUSH1 0x0 DUP4 DUP2 MSTORE PUSH1 0x2 PUSH1 0x20 SWAP1 DUP2 MSTORE PUSH1 0x40 DUP1 DUP4 KECCAK256 CALLER DUP5 MSTORE SWAP1 SWAP2 MSTORE SWAP1 KECCAK256 PUSH1 0x1 ADD SLOAD ISZERO PUSH2 0xC2E JUMPI PUSH1 0x40 MLOAD PUSH3 0x461BCD PUSH1 0xE5 SHL DUP2 MSTORE PUSH1 0x20 PUSH1 0x4 DUP3 ADD MSTORE PUSH1 0xD PUSH1 0x24 DUP3 ADD MSTORE PUSH13 0x63616E7420616464206D6F7265 PUSH1 0x98 SHL PUSH1 0x44 DUP3 ADD MSTORE PUSH1 0x64 ADD PUSH2 0x4A9 JUMP JUMPDEST PUSH2 0xC38 DUP4 DUP3 PUSH2 0x1115 JUMP JUMPDEST PUSH2 0xC75 JUMPI PUSH1 0x40 MLOAD PUSH3 0x461BCD PUSH1 0xE5 SHL DUP2 MSTORE PUSH1 0x20 PUSH1 0x4 DUP3 ADD MSTORE PUSH1 0xE PUSH1 0x24 DUP3 ADD MSTORE PUSH14 0x1A5B9D985B1A5908185B5BDD5B9D PUSH1 0x92 SHL PUSH1 0x44 DUP3 ADD MSTORE PUSH1 0x64 ADD PUSH2 0x4A9 JUMP JUMPDEST PUSH2 0xC7F DUP4 DUP3 PUSH2 0x1224 JUMP JUMPDEST PUSH2 0xCC0 JUMPI PUSH1 0x40 MLOAD PUSH3 0x461BCD PUSH1 0xE5 SHL DUP2 MSTORE PUSH1 0x20 PUSH1 0x4 DUP3 ADD MSTORE PUSH1 0x12 PUSH1 0x24 DUP3 ADD MSTORE PUSH18 0x195E18D9595908199D5B1B08185B5BDD5B9D PUSH1 0x72 SHL PUSH1 0x44 DUP3 ADD MSTORE PUSH1 0x64 ADD PUSH2 0x4A9 JUMP JUMPDEST PUSH32 0x0 PUSH1 0x1 PUSH1 0x1 PUSH1 0xA0 SHL SUB AND DUP3 PUSH1 0x1 PUSH1 0x1 PUSH1 0xA0 SHL SUB AND EQ DUP1 PUSH2 0xD31 JUMPI POP PUSH32 0x0 PUSH1 0x1 PUSH1 0x1 PUSH1 0xA0 SHL SUB AND DUP3 PUSH1 0x1 PUSH1 0x1 PUSH1 0xA0 SHL SUB AND EQ JUMPDEST PUSH2 0xD72 JUMPI PUSH1 0x40 MLOAD PUSH3 0x461BCD PUSH1 0xE5 SHL DUP2 MSTORE PUSH1 0x20 PUSH1 0x4 DUP3 ADD MSTORE PUSH1 0x12 PUSH1 0x24 DUP3 ADD MSTORE PUSH18 0x3737BA1030BB30B4B630B136329031B7B4B7 PUSH1 0x71 SHL PUSH1 0x44 DUP3 ADD MSTORE PUSH1 0x64 ADD PUSH2 0x4A9 JUMP JUMPDEST PUSH1 0x0 DUP4 DUP2 MSTORE PUSH1 0x1 PUSH1 0x20 DUP2 DUP2 MSTORE PUSH1 0x40 DUP4 KECCAK256 PUSH1 0x3 DUP2 ADD DUP1 SLOAD SWAP4 DUP5 ADD DUP2 SSTORE DUP5 MSTORE SWAP1 DUP4 KECCAK256 SWAP1 SWAP2 ADD DUP1 SLOAD PUSH1 0x1 PUSH1 0x1 PUSH1 0xA0 SHL SUB NOT AND CALLER OR SWAP1 SSTORE DUP5 DUP3 MSTORE PUSH1 0x5 ADD DUP1 SLOAD DUP4 SWAP3 SWAP1 PUSH2 0xDBB SWAP1 DUP5 SWAP1 PUSH2 0x1530 JUMP JUMPDEST SWAP1 SWAP2 SSTORE POP POP PUSH1 0x0 DUP4 DUP2 MSTORE PUSH1 0x2 PUSH1 0x20 DUP2 DUP2 MSTORE PUSH1 0x40 DUP1 DUP5 KECCAK256 CALLER DUP1 DUP7 MSTORE SWAP1 DUP4 MSTORE DUP2 DUP6 KECCAK256 PUSH1 0x1 DUP1 DUP3 ADD DUP9 SWAP1 SSTORE DUP2 SLOAD PUSH1 0x1 PUSH1 0x1 PUSH1 0xA0 SHL SUB NOT AND PUSH1 0x1 PUSH1 0x1 PUSH1 0xA0 SHL SUB DUP11 DUP2 AND SWAP2 SWAP1 SWAP2 OR DUP4 SSTORE TIMESTAMP SWAP3 SWAP1 SWAP7 ADD SWAP2 SWAP1 SWAP2 SSTORE PUSH1 0x9 SLOAD PUSH1 0x6 SLOAD PUSH1 0x5 SLOAD DUP12 DUP10 MSTORE SWAP6 DUP4 SWAP1 MSTORE SWAP4 SWAP1 SWAP7 KECCAK256 ADD SLOAD SWAP5 SWAP1 SWAP4 AND SWAP4 PUSH4 0x23B872DD SWAP4 SWAP3 ADDRESS SWAP3 SWAP2 PUSH2 0xE38 SWAP2 SWAP1 PUSH2 0x1503 JUMP JUMPDEST PUSH2 0xE42 SWAP2 SWAP1 PUSH2 0x1588 JUMP JUMPDEST PUSH1 0x40 MLOAD DUP5 PUSH4 0xFFFFFFFF AND PUSH1 0xE0 SHL DUP2 MSTORE PUSH1 0x4 ADD PUSH2 0xE60 SWAP4 SWAP3 SWAP2 SWAP1 PUSH2 0x16B7 JUMP JUMPDEST PUSH1 0x20 PUSH1 0x40 MLOAD DUP1 DUP4 SUB DUP2 PUSH1 0x0 DUP8 GAS CALL ISZERO DUP1 ISZERO PUSH2 0xE7F JUMPI RETURNDATASIZE PUSH1 0x0 DUP1 RETURNDATACOPY RETURNDATASIZE PUSH1 0x0 REVERT JUMPDEST POP POP POP POP PUSH1 0x40 MLOAD RETURNDATASIZE PUSH1 0x1F NOT PUSH1 0x1F DUP3 ADD AND DUP3 ADD DUP1 PUSH1 0x40 MSTORE POP DUP2 ADD SWAP1 PUSH2 0xEA3 SWAP2 SWAP1 PUSH2 0x169A JUMP JUMPDEST POP PUSH1 0x3 SLOAD PUSH1 0x40 MLOAD PUSH4 0x23B872DD PUSH1 0xE0 SHL DUP2 MSTORE PUSH1 0x1 PUSH1 0x1 PUSH1 0xA0 SHL SUB DUP1 DUP6 AND SWAP3 PUSH4 0x23B872DD SWAP3 PUSH2 0xED8 SWAP3 CALLER SWAP3 AND SWAP1 DUP7 SWAP1 PUSH1 0x4 ADD PUSH2 0x16B7 JUMP JUMPDEST PUSH1 0x20 PUSH1 0x40 MLOAD DUP1 DUP4 SUB DUP2 PUSH1 0x0 DUP8 GAS CALL ISZERO DUP1 ISZERO PUSH2 0xEF7 JUMPI RETURNDATASIZE PUSH1 0x0 DUP1 RETURNDATACOPY RETURNDATASIZE PUSH1 0x0 REVERT JUMPDEST POP POP POP POP PUSH1 0x40 MLOAD RETURNDATASIZE PUSH1 0x1F NOT PUSH1 0x1F DUP3 ADD AND DUP3 ADD DUP1 PUSH1 0x40 MSTORE POP DUP2 ADD SWAP1 PUSH2 0xF1B SWAP2 SWAP1 PUSH2 0x169A JUMP JUMPDEST POP PUSH1 0x0 DUP4 DUP2 MSTORE PUSH1 0x2 PUSH1 0x20 DUP2 DUP2 MSTORE PUSH1 0x40 DUP1 DUP5 KECCAK256 CALLER DUP1 DUP7 MSTORE SWAP1 DUP4 MSTORE SWAP4 DUP2 SWAP1 KECCAK256 SWAP1 SWAP3 ADD SLOAD DUP3 MLOAD PUSH1 0x1 PUSH1 0x1 PUSH1 0xA0 SHL SUB DUP8 AND DUP2 MSTORE SWAP2 DUP3 ADD DUP6 SWAP1 MSTORE DUP2 DUP4 ADD MSTORE SWAP1 MLOAD DUP6 SWAP2 PUSH32 0x7A82030CDCB2E8909ECF6432D973748C3C907EDE3A2D61FF7CC5B1C1B8DE4287 SWAP2 SWAP1 DUP2 SWAP1 SUB PUSH1 0x60 ADD SWAP1 LOG3 POP POP POP JUMP JUMPDEST CALLER PUSH2 0xF91 PUSH2 0x68E JUMP JUMPDEST PUSH1 0x1 PUSH1 0x1 PUSH1 0xA0 SHL SUB AND EQ PUSH2 0x5B8 JUMPI PUSH1 0x40 MLOAD PUSH3 0x461BCD PUSH1 0xE5 SHL DUP2 MSTORE PUSH1 0x20 PUSH1 0x4 DUP3 ADD DUP2 SWAP1 MSTORE PUSH1 0x24 DUP3 ADD MSTORE PUSH32 0x4F776E61626C653A2063616C6C6572206973206E6F7420746865206F776E6572 PUSH1 0x44 DUP3 ADD MSTORE PUSH1 0x64 ADD PUSH2 0x4A9 JUMP JUMPDEST PUSH2 0xFEF PUSH2 0x596 JUMP JUMPDEST ISZERO PUSH2 0x5B8 JUMPI PUSH1 0x40 MLOAD PUSH3 0x461BCD PUSH1 0xE5 SHL DUP2 MSTORE PUSH1 0x20 PUSH1 0x4 DUP3 ADD MSTORE PUSH1 0x10 PUSH1 0x24 DUP3 ADD MSTORE PUSH16 0x14185D5CD8589B194E881C185D5CD959 PUSH1 0x82 SHL PUSH1 0x44 DUP3 ADD MSTORE PUSH1 0x64 ADD PUSH2 0x4A9 JUMP JUMPDEST PUSH1 0x0 DUP1 SLOAD PUSH1 0x1 PUSH1 0x1 PUSH1 0xA0 SHL SUB DUP4 DUP2 AND PUSH1 0x1 PUSH1 0x1 PUSH1 0xA0 SHL SUB NOT DUP4 AND DUP2 OR DUP5 SSTORE PUSH1 0x40 MLOAD SWAP2 SWAP1 SWAP3 AND SWAP3 DUP4 SWAP2 PUSH32 0x8BE0079C531659141344CD1FD0A4F28419497F9722A3DAAFE3B4186F6B6457E0 SWAP2 SWAP1 LOG3 POP POP JUMP JUMPDEST PUSH2 0x1087 PUSH2 0xFE7 JUMP JUMPDEST PUSH1 0x0 DUP1 SLOAD PUSH1 0xFF PUSH1 0xA0 SHL NOT AND PUSH1 0x1 PUSH1 0xA0 SHL OR SWAP1 SSTORE PUSH32 0x62E78CEA01BEE320CD4E420270B5EA74000D11B0C9F74754EBDBFC544B05A258 PUSH2 0x10C2 CALLER SWAP1 JUMP JUMPDEST PUSH1 0x40 MLOAD PUSH2 0x10CF SWAP2 SWAP1 PUSH2 0x13C2 JUMP JUMPDEST PUSH1 0x40 MLOAD DUP1 SWAP2 SUB SWAP1 LOG1 JUMP JUMPDEST PUSH2 0x10E1 PUSH2 0x1332 JUMP JUMPDEST PUSH1 0x0 DUP1 SLOAD PUSH1 0xFF PUSH1 0xA0 SHL NOT AND SWAP1 SSTORE PUSH32 0x5DB9EE0A495BF2E6FF9C91A7834C1BA4FDD244A5E8AA4E537BD38AEAE4B073AA CALLER PUSH2 0x10C2 JUMP JUMPDEST PUSH1 0x0 DUP2 PUSH1 0xC SLOAD GT ISZERO DUP1 ISZERO PUSH2 0x121B JUMPI POP PUSH1 0x9 PUSH1 0x0 SWAP1 SLOAD SWAP1 PUSH2 0x100 EXP SWAP1 DIV PUSH1 0x1 PUSH1 0x1 PUSH1 0xA0 SHL SUB AND PUSH1 0x1 PUSH1 0x1 PUSH1 0xA0 SHL SUB AND PUSH4 0x313CE567 PUSH1 0x40 MLOAD DUP2 PUSH4 0xFFFFFFFF AND PUSH1 0xE0 SHL DUP2 MSTORE PUSH1 0x4 ADD PUSH1 0x20 PUSH1 0x40 MLOAD DUP1 DUP4 SUB DUP2 DUP7 GAS STATICCALL ISZERO DUP1 ISZERO PUSH2 0x1177 JUMPI RETURNDATASIZE PUSH1 0x0 DUP1 RETURNDATACOPY RETURNDATASIZE PUSH1 0x0 REVERT JUMPDEST POP POP POP POP PUSH1 0x40 MLOAD RETURNDATASIZE PUSH1 0x1F NOT PUSH1 0x1F DUP3 ADD AND DUP3 ADD DUP1 PUSH1 0x40 MSTORE POP DUP2 ADD SWAP1 PUSH2 0x119B SWAP2 SWAP1 PUSH2 0x16DB JUMP JUMPDEST PUSH2 0x11A6 SWAP1 PUSH1 0xA PUSH2 0x16FE JUMP JUMPDEST PUSH2 0x11B2 PUSH1 0x8 PUSH1 0xA PUSH2 0x168E JUMP JUMPDEST PUSH1 0x7 SLOAD PUSH1 0x0 DUP7 DUP2 MSTORE PUSH1 0x1 PUSH1 0x20 DUP2 SWAP1 MSTORE PUSH1 0x40 SWAP1 SWAP2 KECCAK256 SWAP1 DUP2 ADD SLOAD PUSH1 0x4 SWAP1 SWAP2 ADD SLOAD PUSH1 0x64 SWAP3 SWAP2 PUSH2 0x11DD SWAP2 PUSH2 0x1503 JUMP JUMPDEST PUSH2 0x11E7 SWAP2 SWAP1 PUSH2 0x1503 JUMP JUMPDEST PUSH2 0x11F9 SWAP1 PUSH8 0xDE0B6B3A7640000 PUSH2 0x1503 JUMP JUMPDEST PUSH2 0x1203 SWAP2 SWAP1 PUSH2 0x1588 JUMP JUMPDEST PUSH2 0x120D SWAP2 SWAP1 PUSH2 0x1588 JUMP JUMPDEST PUSH2 0x1217 SWAP2 SWAP1 PUSH2 0x1588 JUMP JUMPDEST DUP3 GT ISZERO JUMPDEST SWAP1 POP JUMPDEST SWAP3 SWAP2 POP POP JUMP JUMPDEST PUSH1 0x9 SLOAD PUSH1 0x40 DUP1 MLOAD PUSH4 0x313CE567 PUSH1 0xE0 SHL DUP2 MSTORE SWAP1 MLOAD PUSH1 0x0 SWAP3 PUSH1 0x1 PUSH1 0x1 PUSH1 0xA0 SHL SUB AND SWAP2 PUSH4 0x313CE567 SWAP2 PUSH1 0x4 DUP1 DUP4 ADD SWAP3 PUSH1 0x20 SWAP3 SWAP2 SWAP1 DUP3 SWAP1 SUB ADD DUP2 DUP7 GAS STATICCALL ISZERO DUP1 ISZERO PUSH2 0x126E JUMPI RETURNDATASIZE PUSH1 0x0 DUP1 RETURNDATACOPY RETURNDATASIZE PUSH1 0x0 REVERT JUMPDEST POP POP POP POP PUSH1 0x40 MLOAD RETURNDATASIZE PUSH1 0x1F NOT PUSH1 0x1F DUP3 ADD AND DUP3 ADD DUP1 PUSH1 0x40 MSTORE POP DUP2 ADD SWAP1 PUSH2 0x1292 SWAP2 SWAP1 PUSH2 0x16DB JUMP JUMPDEST PUSH2 0x129D SWAP1 PUSH1 0xA PUSH2 0x16FE JUMP JUMPDEST PUSH2 0x12A9 PUSH1 0x8 PUSH1 0xA PUSH2 0x168E JUMP JUMPDEST PUSH1 0x8 SLOAD PUSH1 0x0 DUP7 DUP2 MSTORE PUSH1 0x1 PUSH1 0x20 DUP2 SWAP1 MSTORE PUSH1 0x40 SWAP1 SWAP2 KECCAK256 PUSH1 0x4 DUP2 ADD SLOAD SWAP2 ADD SLOAD PUSH1 0x64 SWAP3 SWAP2 PUSH2 0x12D2 SWAP2 PUSH2 0x1503 JUMP JUMPDEST PUSH2 0x12DC SWAP2 SWAP1 PUSH2 0x1503 JUMP JUMPDEST PUSH2 0x12EE SWAP1 PUSH8 0xDE0B6B3A7640000 PUSH2 0x1503 JUMP JUMPDEST PUSH2 0x12F8 SWAP2 SWAP1 PUSH2 0x1588 JUMP JUMPDEST PUSH2 0x1302 SWAP2 SWAP1 PUSH2 0x1588 JUMP JUMPDEST PUSH2 0x130C SWAP2 SWAP1 PUSH2 0x1588 JUMP JUMPDEST PUSH1 0x0 DUP5 DUP2 MSTORE PUSH1 0x1 PUSH1 0x20 MSTORE PUSH1 0x40 SWAP1 KECCAK256 PUSH1 0x5 ADD SLOAD PUSH2 0x1329 SWAP1 DUP5 SWAP1 PUSH2 0x1530 JUMP JUMPDEST GT ISZERO SWAP4 SWAP3 POP POP POP JUMP JUMPDEST PUSH2 0x133A PUSH2 0x596 JUMP JUMPDEST PUSH2 0x5B8 JUMPI PUSH1 0x40 MLOAD PUSH3 0x461BCD PUSH1 0xE5 SHL DUP2 MSTORE PUSH1 0x20 PUSH1 0x4 DUP3 ADD MSTORE PUSH1 0x14 PUSH1 0x24 DUP3 ADD MSTORE PUSH20 0x14185D5CD8589B194E881B9BDD081C185D5CD959 PUSH1 0x62 SHL PUSH1 0x44 DUP3 ADD MSTORE PUSH1 0x64 ADD PUSH2 0x4A9 JUMP JUMPDEST PUSH1 0x0 PUSH1 0x20 DUP3 DUP5 SUB SLT ISZERO PUSH2 0x138F JUMPI PUSH1 0x0 DUP1 REVERT JUMPDEST POP CALLDATALOAD SWAP2 SWAP1 POP JUMP JUMPDEST PUSH1 0x0 DUP1 PUSH1 0x0 PUSH1 0x60 DUP5 DUP7 SUB SLT ISZERO PUSH2 0x13AB JUMPI PUSH1 0x0 DUP1 REVERT JUMPDEST POP POP DUP2 CALLDATALOAD SWAP4 PUSH1 0x20 DUP4 ADD CALLDATALOAD SWAP4 POP PUSH1 0x40 SWAP1 SWAP3 ADD CALLDATALOAD SWAP2 SWAP1 POP JUMP JUMPDEST PUSH1 0x1 PUSH1 0x1 PUSH1 0xA0 SHL SUB SWAP2 SWAP1 SWAP2 AND DUP2 MSTORE PUSH1 0x20 ADD SWAP1 JUMP JUMPDEST DUP1 CALLDATALOAD PUSH1 0x1 PUSH1 0x1 PUSH1 0xA0 SHL SUB DUP2 AND DUP2 EQ PUSH2 0x13ED JUMPI PUSH1 0x0 DUP1 REVERT JUMPDEST SWAP2 SWAP1 POP JUMP JUMPDEST PUSH1 0x0 DUP1 PUSH1 0x40 DUP4 DUP6 SUB SLT ISZERO PUSH2 0x1405 JUMPI PUSH1 0x0 DUP1 REVERT JUMPDEST DUP3 CALLDATALOAD SWAP2 POP PUSH2 0x1415 PUSH1 0x20 DUP5 ADD PUSH2 0x13D6 JUMP JUMPDEST SWAP1 POP SWAP3 POP SWAP3 SWAP1 POP JUMP JUMPDEST PUSH1 0x20 DUP1 DUP3 MSTORE DUP3 MLOAD DUP3 DUP3 ADD DUP2 SWAP1 MSTORE PUSH1 0x0 SWAP2 SWAP1 DUP5 DUP3 ADD SWAP1 PUSH1 0x40 DUP6 ADD SWAP1 DUP5 JUMPDEST DUP2 DUP2 LT ISZERO PUSH2 0x145F JUMPI DUP4 MLOAD PUSH1 0x1 PUSH1 0x1 PUSH1 0xA0 SHL SUB AND DUP4 MSTORE SWAP3 DUP5 ADD SWAP3 SWAP2 DUP5 ADD SWAP2 PUSH1 0x1 ADD PUSH2 0x143A JUMP JUMPDEST POP SWAP1 SWAP7 SWAP6 POP POP POP POP POP POP JUMP JUMPDEST DUP1 ISZERO ISZERO DUP2 EQ PUSH2 0x6B3 JUMPI PUSH1 0x0 DUP1 REVERT JUMPDEST PUSH1 0x0 PUSH1 0x20 DUP3 DUP5 SUB SLT ISZERO PUSH2 0x148B JUMPI PUSH1 0x0 DUP1 REVERT JUMPDEST DUP2 CALLDATALOAD PUSH2 0x1496 DUP2 PUSH2 0x146B JUMP JUMPDEST SWAP4 SWAP3 POP POP POP JUMP JUMPDEST PUSH1 0x0 PUSH1 0x20 DUP3 DUP5 SUB SLT ISZERO PUSH2 0x14AF JUMPI PUSH1 0x0 DUP1 REVERT JUMPDEST PUSH2 0x121B DUP3 PUSH2 0x13D6 JUMP JUMPDEST PUSH1 0x0 DUP1 PUSH1 0x0 PUSH1 0x60 DUP5 DUP7 SUB SLT ISZERO PUSH2 0x14CD JUMPI PUSH1 0x0 DUP1 REVERT JUMPDEST DUP4 CALLDATALOAD SWAP3 POP PUSH2 0x14DD PUSH1 0x20 DUP6 ADD PUSH2 0x13D6 JUMP JUMPDEST SWAP2 POP PUSH1 0x40 DUP5 ADD CALLDATALOAD SWAP1 POP SWAP3 POP SWAP3 POP SWAP3 JUMP JUMPDEST PUSH4 0x4E487B71 PUSH1 0xE0 SHL PUSH1 0x0 MSTORE PUSH1 0x11 PUSH1 0x4 MSTORE PUSH1 0x24 PUSH1 0x0 REVERT JUMPDEST DUP1 DUP3 MUL DUP2 ISZERO DUP3 DUP3 DIV DUP5 EQ OR PUSH2 0x121E JUMPI PUSH2 0x121E PUSH2 0x14ED JUMP JUMPDEST PUSH4 0x4E487B71 PUSH1 0xE0 SHL PUSH1 0x0 MSTORE PUSH1 0x41 PUSH1 0x4 MSTORE PUSH1 0x24 PUSH1 0x0 REVERT JUMPDEST DUP1 DUP3 ADD DUP1 DUP3 GT ISZERO PUSH2 0x121E JUMPI PUSH2 0x121E PUSH2 0x14ED JUMP JUMPDEST PUSH4 0x4E487B71 PUSH1 0xE0 SHL PUSH1 0x0 MSTORE PUSH1 0x32 PUSH1 0x4 MSTORE PUSH1 0x24 PUSH1 0x0 REVERT JUMPDEST PUSH1 0x0 PUSH1 0x1 DUP3 ADD PUSH2 0x156B JUMPI PUSH2 0x156B PUSH2 0x14ED JUMP JUMPDEST POP PUSH1 0x1 ADD SWAP1 JUMP JUMPDEST PUSH4 0x4E487B71 PUSH1 0xE0 SHL PUSH1 0x0 MSTORE PUSH1 0x1 PUSH1 0x4 MSTORE PUSH1 0x24 PUSH1 0x0 REVERT JUMPDEST PUSH1 0x0 DUP3 PUSH2 0x15A5 JUMPI PUSH4 0x4E487B71 PUSH1 0xE0 SHL PUSH1 0x0 MSTORE PUSH1 0x12 PUSH1 0x4 MSTORE PUSH1 0x24 PUSH1 0x0 REVERT JUMPDEST POP DIV SWAP1 JUMP JUMPDEST PUSH1 0x1 DUP2 DUP2 JUMPDEST DUP1 DUP6 GT ISZERO PUSH2 0x15E5 JUMPI DUP2 PUSH1 0x0 NOT DIV DUP3 GT ISZERO PUSH2 0x15CB JUMPI PUSH2 0x15CB PUSH2 0x14ED JUMP JUMPDEST DUP1 DUP6 AND ISZERO PUSH2 0x15D8 JUMPI SWAP2 DUP2 MUL SWAP2 JUMPDEST SWAP4 DUP5 SHR SWAP4 SWAP1 DUP1 MUL SWAP1 PUSH2 0x15AF JUMP JUMPDEST POP SWAP3 POP SWAP3 SWAP1 POP JUMP JUMPDEST PUSH1 0x0 DUP3 PUSH2 0x15FC JUMPI POP PUSH1 0x1 PUSH2 0x121E JUMP JUMPDEST DUP2 PUSH2 0x1609 JUMPI POP PUSH1 0x0 PUSH2 0x121E JUMP JUMPDEST DUP2 PUSH1 0x1 DUP2 EQ PUSH2 0x161F JUMPI PUSH1 0x2 DUP2 EQ PUSH2 0x1629 JUMPI PUSH2 0x1645 JUMP JUMPDEST PUSH1 0x1 SWAP2 POP POP PUSH2 0x121E JUMP JUMPDEST PUSH1 0xFF DUP5 GT ISZERO PUSH2 0x163A JUMPI PUSH2 0x163A PUSH2 0x14ED JUMP JUMPDEST POP POP PUSH1 0x1 DUP3 SHL PUSH2 0x121E JUMP JUMPDEST POP PUSH1 0x20 DUP4 LT PUSH2 0x133 DUP4 LT AND PUSH1 0x4E DUP5 LT PUSH1 0xB DUP5 LT AND OR ISZERO PUSH2 0x1668 JUMPI POP DUP2 DUP2 EXP PUSH2 0x121E JUMP JUMPDEST PUSH2 0x1672 DUP4 DUP4 PUSH2 0x15AA JUMP JUMPDEST DUP1 PUSH1 0x0 NOT DIV DUP3 GT ISZERO PUSH2 0x1686 JUMPI PUSH2 0x1686 PUSH2 0x14ED JUMP JUMPDEST MUL SWAP4 SWAP3 POP POP POP JUMP JUMPDEST PUSH1 0x0 PUSH2 0x121B DUP4 DUP4 PUSH2 0x15ED JUMP JUMPDEST PUSH1 0x0 PUSH1 0x20 DUP3 DUP5 SUB SLT ISZERO PUSH2 0x16AC JUMPI PUSH1 0x0 DUP1 REVERT JUMPDEST DUP2 MLOAD PUSH2 0x1496 DUP2 PUSH2 0x146B JUMP JUMPDEST PUSH1 0x1 PUSH1 0x1 PUSH1 0xA0 SHL SUB SWAP4 DUP5 AND DUP2 MSTORE SWAP2 SWAP1 SWAP3 AND PUSH1 0x20 DUP3 ADD MSTORE PUSH1 0x40 DUP2 ADD SWAP2 SWAP1 SWAP2 MSTORE PUSH1 0x60 ADD SWAP1 JUMP JUMPDEST PUSH1 0x0 PUSH1 0x20 DUP3 DUP5 SUB SLT ISZERO PUSH2 0x16ED JUMPI PUSH1 0x0 DUP1 REVERT JUMPDEST DUP2 MLOAD PUSH1 0xFF DUP2 AND DUP2 EQ PUSH2 0x1496 JUMPI PUSH1 0x0 DUP1 REVERT JUMPDEST PUSH1 0x0 PUSH2 0x121B PUSH1 0xFF DUP5 AND DUP4 PUSH2 0x15ED JUMP INVALID LOG2 PUSH5 0x6970667358 0x22 SLT KECCAK256 0xC5 0xEE 0xE0 SWAP5 0xF PUSH19 0xD5E415EE7E3E8B4BFFB34572A3890FB0859DD1 MSTORE PUSH10 0xCF65F9030964736F6C63 NUMBER STOP ADDMOD GT STOP CALLER "},"methodIdentifiers":{"BUSD()":"484f4ea9","USDT()":"c54e44eb","bitConey()":"2fa81a71","blockInfo(uint256)":"3bcd77da","createBlock(uint256,uint256,uint256)":"10e4e019","entranceMulter()":"4228e221","getUserListFromBlock(uint256)":"844ed61d","invest(uint256,address,uint256)":"fecba3a5","manager()":"481c6a75","maxDepositMulter()":"45c44a1b","maxPooledAmountMulter()":"f58cf3ff","owner()":"8da5cb5b","paused()":"5c975abb","priceDecimal()":"bc9113f0","renounceOwnership()":"715018a6","setEntranceMulter(uint256)":"4bcf529d","setLockTimeforReward(uint256)":"06531079","setManager(address)":"d0ebdbe7","setMaxDepositMulter(uint256)":"1f10a89a","setMaxPooledAmountMulter(uint256)":"814cbf30","setMinStakeValue(uint256)":"4d985944","setPause(bool)":"bedb86fb","setTreasury(address)":"f0f44260","setValidTimeforNewBlock(uint256)":"fe3cde3f","stakeInfo(uint256,address)":"7584f914","transferOwnership(address)":"f2fde38b","treasury()":"61d027b3","widthdraw(uint256)":"e0da260c"}},"storageLayout":{"storage":[{"astId":7,"contract":"contracts/Stake.sol:Stake","label":"_owner","offset":0,"slot":"0","type":"t_address"},{"astId":130,"contract":"contracts/Stake.sol:Stake","label":"_paused","offset":20,"slot":"0","type":"t_bool"},{"astId":710,"contract":"contracts/Stake.sol:Stake","label":"blockInfo","offset":0,"slot":"1","type":"t_mapping(t_uint256,t_struct(BlockInfo)696_storage)"},{"astId":717,"contract":"contracts/Stake.sol:Stake","label":"stakeInfo","offset":0,"slot":"2","type":"t_mapping(t_uint256,t_mapping(t_address,t_struct(StakeInfo)705_storage))"},{"astId":719,"contract":"contracts/Stake.sol:Stake","label":"treasury","offset":0,"slot":"3","type":"t_address"},{"astId":721,"contract":"contracts/Stake.sol:Stake","label":"manager","offset":0,"slot":"4","type":"t_address"},{"astId":724,"contract":"contracts/Stake.sol:Stake","label":"entranceMulter","offset":0,"slot":"5","type":"t_uint256"},{"astId":727,"contract":"contracts/Stake.sol:Stake","label":"entranceDivider","offset":0,"slot":"6","type":"t_uint256"},{"astId":730,"contract":"contracts/Stake.sol:Stake","label":"maxDepositMulter","offset":0,"slot":"7","type":"t_uint256"},{"astId":733,"contract":"contracts/Stake.sol:Stake","label":"maxPooledAmountMulter","offset":0,"slot":"8","type":"t_uint256"},{"astId":739,"contract":"contracts/Stake.sol:Stake","label":"bitConey","offset":0,"slot":"9","type":"t_contract(IERC20Metadata)323"},{"astId":748,"contract":"contracts/Stake.sol:Stake","label":"validTimeforNewBlock","offset":0,"slot":"10","type":"t_uint256"},{"astId":753,"contract":"contracts/Stake.sol:Stake","label":"lockTimeforReward","offset":0,"slot":"11","type":"t_uint256"},{"astId":760,"contract":"contracts/Stake.sol:Stake","label":"minStakeValue","offset":0,"slot":"12","type":"t_uint256"}],"types":{"t_address":{"encoding":"inplace","label":"address","numberOfBytes":"20"},"t_array(t_address)dyn_storage":{"base":"t_address","encoding":"dynamic_array","label":"address[]","numberOfBytes":"32"},"t_bool":{"encoding":"inplace","label":"bool","numberOfBytes":"1"},"t_contract(IERC20Metadata)323":{"encoding":"inplace","label":"contract IERC20Metadata","numberOfBytes":"20"},"t_mapping(t_address,t_struct(StakeInfo)705_storage)":{"encoding":"mapping","key":"t_address","label":"mapping(address => struct Stake.StakeInfo)","numberOfBytes":"32","value":"t_struct(StakeInfo)705_storage"},"t_mapping(t_uint256,t_mapping(t_address,t_struct(StakeInfo)705_storage))":{"encoding":"mapping","key":"t_uint256","label":"mapping(uint256 => mapping(address => struct Stake.StakeInfo))","numberOfBytes":"32","value":"t_mapping(t_address,t_struct(StakeInfo)705_storage)"},"t_mapping(t_uint256,t_struct(BlockInfo)696_storage)":{"encoding":"mapping","key":"t_uint256","label":"mapping(uint256 => struct Stake.BlockInfo)","numberOfBytes":"32","value":"t_struct(BlockInfo)696_storage"},"t_struct(BlockInfo)696_storage":{"encoding":"inplace","label":"struct Stake.BlockInfo","members":[{"astId":684,"contract":"contracts/Stake.sol:Stake","label":"blockNumber","offset":0,"slot":"0","type":"t_uint256"},{"astId":686,"contract":"contracts/Stake.sol:Stake","label":"prizeAmount","offset":0,"slot":"1","type":"t_uint256"},{"astId":688,"contract":"contracts/Stake.sol:Stake","label":"startTime","offset":0,"slot":"2","type":"t_uint256"},{"astId":691,"contract":"contracts/Stake.sol:Stake","label":"userList","offset":0,"slot":"3","type":"t_array(t_address)dyn_storage"},{"astId":693,"contract":"contracts/Stake.sol:Stake","label":"price","offset":0,"slot":"4","type":"t_uint256"},{"astId":695,"contract":"contracts/Stake.sol:Stake","label":"pooledAmount","offset":0,"slot":"5","type":"t_uint256"}],"numberOfBytes":"192"},"t_struct(StakeInfo)705_storage":{"encoding":"inplace","label":"struct Stake.StakeInfo","members":[{"astId":698,"contract":"contracts/Stake.sol:Stake","label":"coin","offset":0,"slot":"0","type":"t_address"},{"astId":700,"contract":"contracts/Stake.sol:Stake","label":"amount","offset":0,"slot":"1","type":"t_uint256"},{"astId":702,"contract":"contracts/Stake.sol:Stake","label":"stakedTime","offset":0,"slot":"2","type":"t_uint256"},{"astId":704,"contract":"contracts/Stake.sol:Stake","label":"refunded","offset":0,"slot":"3","type":"t_bool"}],"numberOfBytes":"128"},"t_uint256":{"encoding":"inplace","label":"uint256","numberOfBytes":"32"}}}}}}