{"contracts/Bond.sol":{"Bond":{"abi":[{"inputs":[{"internalType":"address","name":"_treasuryWallet","type":"address"},{"internalType":"address","name":"_USDT","type":"address"},{"internalType":"address","name":"_bitConey","type":"address"},{"internalType":"address","name":"_bitconeyWallet","type":"address"}],"stateMutability":"nonpayable","type":"constructor"},{"anonymous":false,"inputs":[{"indexed":true,"internalType":"address","name":"previousOwner","type":"address"},{"indexed":true,"internalType":"address","name":"newOwner","type":"address"}],"name":"OwnershipTransferred","type":"event"},{"inputs":[],"name":"USDT","outputs":[{"internalType":"address","name":"","type":"address"}],"stateMutability":"view","type":"function"},{"inputs":[],"name":"bitConey","outputs":[{"internalType":"contract IERC20Metadata","name":"","type":"address"}],"stateMutability":"view","type":"function"},{"inputs":[{"internalType":"uint256","name":"_amount","type":"uint256"}],"name":"bond","outputs":[],"stateMutability":"nonpayable","type":"function"},{"inputs":[{"internalType":"address","name":"","type":"address"}],"name":"bondInfo","outputs":[{"internalType":"uint256","name":"amount","type":"uint256"},{"internalType":"uint256","name":"bondingTime","type":"uint256"},{"internalType":"uint256","name":"bondPrice","type":"uint256"}],"stateMutability":"view","type":"function"},{"inputs":[],"name":"bondPrice","outputs":[{"internalType":"uint256","name":"","type":"uint256"}],"stateMutability":"view","type":"function"},{"inputs":[],"name":"bondingPeriod","outputs":[{"internalType":"uint256","name":"","type":"uint256"}],"stateMutability":"view","type":"function"},{"inputs":[],"name":"claim","outputs":[],"stateMutability":"nonpayable","type":"function"},{"inputs":[{"internalType":"address","name":"user","type":"address"}],"name":"getUserClaimTime","outputs":[{"internalType":"uint256","name":"","type":"uint256"}],"stateMutability":"view","type":"function"},{"inputs":[{"internalType":"uint256","name":"_amount","type":"uint256"}],"name":"isAvailableBond","outputs":[{"internalType":"bool","name":"","type":"bool"}],"stateMutability":"view","type":"function"},{"inputs":[{"internalType":"address","name":"user","type":"address"}],"name":"isAvailableClaim","outputs":[{"internalType":"bool","name":"","type":"bool"}],"stateMutability":"view","type":"function"},{"inputs":[],"name":"lockingPeriod","outputs":[{"internalType":"uint256","name":"","type":"uint256"}],"stateMutability":"view","type":"function"},{"inputs":[],"name":"owner","outputs":[{"internalType":"address","name":"","type":"address"}],"stateMutability":"view","type":"function"},{"inputs":[],"name":"renounceOwnership","outputs":[],"stateMutability":"nonpayable","type":"function"},{"inputs":[],"name":"setInitialBondState","outputs":[],"stateMutability":"nonpayable","type":"function"},{"inputs":[{"internalType":"uint256","name":"_price","type":"uint256"},{"internalType":"uint256","name":"_period","type":"uint256"}],"name":"setStartBond","outputs":[],"stateMutability":"nonpayable","type":"function"},{"inputs":[],"name":"startBond","outputs":[{"internalType":"bool","name":"","type":"bool"}],"stateMutability":"view","type":"function"},{"inputs":[{"internalType":"address","name":"newOwner","type":"address"}],"name":"transferOwnership","outputs":[],"stateMutability":"nonpayable","type":"function"},{"inputs":[{"internalType":"address","name":"user","type":"address"}],"name":"userClaimAmount","outputs":[{"internalType":"uint256","name":"","type":"uint256"}],"stateMutability":"view","type":"function"}],"evm":{"bytecode":{"linkReferences":{},"object":"60c0604052624f1a00600455600260055534801561001c57600080fd5b50604051610ace380380610ace83398101604081905261003b916100ed565b61004433610081565b600780546001600160a01b039586166001600160a01b03199182161790915592841660805290831660a05260088054919093169116179055610141565b600080546001600160a01b038381166001600160a01b0319831681178455604051919092169283917f8be0079c531659141344cd1fd0a4f28419497f9722a3daafe3b4186f6b6457e09190a35050565b80516001600160a01b03811681146100e857600080fd5b919050565b6000806000806080858703121561010357600080fd5b61010c856100d1565b935061011a602086016100d1565b9250610128604086016100d1565b9150610136606086016100d1565b905092959194509250565b60805160a05161095a610174600039600061014c0152600081816101f8015281816104a70152610655015261095a6000f3fe608060405234801561001057600080fd5b50600436106100e55760003560e01c806246a76a146100ea57806309fde0801461011257806310b40b49146101335780632fa81a71146101475780633d3e42c1146101865780634d88db4d146101905780634e71d92d146101a3578063550066d5146101ab578063715018a6146101b45780637eb96b7b146101bc5780638da5cb5b146101cf5780639940686e146101d7578063c31c6fb9146101ea578063c54e44eb146101f3578063cc717c051461021a578063cd1234b31461022d578063d7ccfb0b14610277578063f2fde38b14610280575b600080fd5b6100fd6100f83660046107fe565b610293565b60405190151581526020015b60405180910390f35b6101256101203660046107fe565b6102c7565b604051908152602001610109565b6000546100fd90600160a01b900460ff1681565b61016e7f000000000000000000000000000000000000000000000000000000000000000081565b6040516001600160a01b039091168152602001610109565b61018e61033a565b005b61018e61019e36600461082e565b610351565b61018e6103dd565b61012560045481565b61018e610532565b6101256101ca3660046107fe565b610546565b61016e61058b565b61018e6101e5366004610850565b61059a565b61012560035481565b61016e7f000000000000000000000000000000000000000000000000000000000000000081565b6100fd610228366004610850565b61068f565b61025c61023b3660046107fe565b60096020526000908152604090208054600182015460029092015490919083565b60408051938452602084019290925290820152606001610109565b61012560065481565b61018e61028e3660046107fe565b6106d6565b6004546001600160a01b038216600090815260096020526040812060010154909142916102c0919061087f565b1092915050565b6004546001600160a01b038216600090815260096020526040812060010154909142916102f4919061087f565b11610300576000610334565b6004546001600160a01b038316600090815260096020526040902060010154429161032a9161087f565b6103349190610892565b92915050565b61034261074f565b6000805460ff60a01b19169055565b61035961074f565b600054600160a01b900460ff16156103aa5760405162461bcd60e51b815260206004820152600f60248201526e185b1c9958591e481cdd185c9d1959608a1b60448201526064015b60405180910390fd5b6000805460ff60a01b1916600160a01b1781556001554260025560068290556103d681620151806108a5565b6003555050565b6103e633610293565b6104245760405162461bcd60e51b815260206004820152600f60248201526e109bdb990e9b9bc8195e1c1a5c9959608a1b60448201526064016103a1565b3360009081526009602052604081205490036104745760405162461bcd60e51b815260206004820152600f60248201526e109bdb990e881b9bc81c995dd85c99608a1b60448201526064016103a1565b600061047f33610546565b336000818152600960205260408082209190915560085490516323b872dd60e01b81529293507f00000000000000000000000000000000000000000000000000000000000000006001600160a01b03908116936323b872dd936104eb93909216919086906004016108bc565b6020604051808303816000875af115801561050a573d6000803e3d6000fd5b505050506040513d601f19601f8201168201806040525081019061052e91906108e0565b5050565b61053a61074f565b61054460006107ae565b565b6005546006546001600160a01b03831660009081526009602052604081205490929190610577906305f5e1006108a5565b6105819190610902565b61033491906108a5565b6000546001600160a01b031690565b426003546002546105ab919061087f565b1180156105bc57506105bc8161068f565b6105f85760405162461bcd60e51b815260206004820152600d60248201526c6e6f7420617661696c61626c6560981b60448201526064016103a1565b336000908152600960205260408120805483929061061790849061087f565b9091555050336000818152600960205260409081902042600182015560065460029091015560075490516323b872dd60e01b81526001600160a01b037f00000000000000000000000000000000000000000000000000000000000000008116936323b872dd936104eb939192169086906004016108bc565b6000600154600554600654846305f5e1006106aa91906108a5565b6106b49190610902565b6106be91906108a5565b6106c8919061087f565b64e8d4a51000101592915050565b6106de61074f565b6001600160a01b0381166107435760405162461bcd60e51b815260206004820152602660248201527f4f776e61626c653a206e6577206f776e657220697320746865207a65726f206160448201526564647265737360d01b60648201526084016103a1565b61074c816107ae565b50565b3361075861058b565b6001600160a01b0316146105445760405162461bcd60e51b815260206004820181905260248201527f4f776e61626c653a2063616c6c6572206973206e6f7420746865206f776e657260448201526064016103a1565b600080546001600160a01b038381166001600160a01b0319831681178455604051919092169283917f8be0079c531659141344cd1fd0a4f28419497f9722a3daafe3b4186f6b6457e09190a35050565b60006020828403121561081057600080fd5b81356001600160a01b038116811461082757600080fd5b9392505050565b6000806040838503121561084157600080fd5b50508035926020909101359150565b60006020828403121561086257600080fd5b5035919050565b634e487b7160e01b600052601160045260246000fd5b8082018082111561033457610334610869565b8181038181111561033457610334610869565b808202811582820484141761033457610334610869565b6001600160a01b039384168152919092166020820152604081019190915260600190565b6000602082840312156108f257600080fd5b8151801515811461082757600080fd5b60008261091f57634e487b7160e01b600052601260045260246000fd5b50049056fea2646970667358221220795d1b884e2592a42e0df7be16e69b267ee57af1f85e186da68f57515b0e5a9264736f6c63430008110033","opcodes":"PUSH1 0xC0 PUSH1 0x40 MSTORE PUSH3 0x4F1A00 PUSH1 0x4 SSTORE PUSH1 0x2 PUSH1 0x5 SSTORE CALLVALUE DUP1 ISZERO PUSH2 0x1C JUMPI PUSH1 0x0 DUP1 REVERT JUMPDEST POP PUSH1 0x40 MLOAD PUSH2 0xACE CODESIZE SUB DUP1 PUSH2 0xACE DUP4 CODECOPY DUP2 ADD PUSH1 0x40 DUP2 SWAP1 MSTORE PUSH2 0x3B SWAP2 PUSH2 0xED JUMP JUMPDEST PUSH2 0x44 CALLER PUSH2 0x81 JUMP JUMPDEST PUSH1 0x7 DUP1 SLOAD PUSH1 0x1 PUSH1 0x1 PUSH1 0xA0 SHL SUB SWAP6 DUP7 AND PUSH1 0x1 PUSH1 0x1 PUSH1 0xA0 SHL SUB NOT SWAP2 DUP3 AND OR SWAP1 SWAP2 SSTORE SWAP3 DUP5 AND PUSH1 0x80 MSTORE SWAP1 DUP4 AND PUSH1 0xA0 MSTORE PUSH1 0x8 DUP1 SLOAD SWAP2 SWAP1 SWAP4 AND SWAP2 AND OR SWAP1 SSTORE PUSH2 0x141 JUMP JUMPDEST PUSH1 0x0 DUP1 SLOAD PUSH1 0x1 PUSH1 0x1 PUSH1 0xA0 SHL SUB DUP4 DUP2 AND PUSH1 0x1 PUSH1 0x1 PUSH1 0xA0 SHL SUB NOT DUP4 AND DUP2 OR DUP5 SSTORE PUSH1 0x40 MLOAD SWAP2 SWAP1 SWAP3 AND SWAP3 DUP4 SWAP2 PUSH32 0x8BE0079C531659141344CD1FD0A4F28419497F9722A3DAAFE3B4186F6B6457E0 SWAP2 SWAP1 LOG3 POP POP JUMP JUMPDEST DUP1 MLOAD PUSH1 0x1 PUSH1 0x1 PUSH1 0xA0 SHL SUB DUP2 AND DUP2 EQ PUSH2 0xE8 JUMPI PUSH1 0x0 DUP1 REVERT JUMPDEST SWAP2 SWAP1 POP JUMP JUMPDEST PUSH1 0x0 DUP1 PUSH1 0x0 DUP1 PUSH1 0x80 DUP6 DUP8 SUB SLT ISZERO PUSH2 0x103 JUMPI PUSH1 0x0 DUP1 REVERT JUMPDEST PUSH2 0x10C DUP6 PUSH2 0xD1 JUMP JUMPDEST SWAP4 POP PUSH2 0x11A PUSH1 0x20 DUP7 ADD PUSH2 0xD1 JUMP JUMPDEST SWAP3 POP PUSH2 0x128 PUSH1 0x40 DUP7 ADD PUSH2 0xD1 JUMP JUMPDEST SWAP2 POP PUSH2 0x136 PUSH1 0x60 DUP7 ADD PUSH2 0xD1 JUMP JUMPDEST SWAP1 POP SWAP3 SWAP6 SWAP2 SWAP5 POP SWAP3 POP JUMP JUMPDEST PUSH1 0x80 MLOAD PUSH1 0xA0 MLOAD PUSH2 0x95A PUSH2 0x174 PUSH1 0x0 CODECOPY PUSH1 0x0 PUSH2 0x14C ADD MSTORE PUSH1 0x0 DUP2 DUP2 PUSH2 0x1F8 ADD MSTORE DUP2 DUP2 PUSH2 0x4A7 ADD MSTORE PUSH2 0x655 ADD MSTORE PUSH2 0x95A PUSH1 0x0 RETURN INVALID PUSH1 0x80 PUSH1 0x40 MSTORE CALLVALUE DUP1 ISZERO PUSH2 0x10 JUMPI PUSH1 0x0 DUP1 REVERT JUMPDEST POP PUSH1 0x4 CALLDATASIZE LT PUSH2 0xE5 JUMPI PUSH1 0x0 CALLDATALOAD PUSH1 0xE0 SHR DUP1 PUSH3 0x46A76A EQ PUSH2 0xEA JUMPI DUP1 PUSH4 0x9FDE080 EQ PUSH2 0x112 JUMPI DUP1 PUSH4 0x10B40B49 EQ PUSH2 0x133 JUMPI DUP1 PUSH4 0x2FA81A71 EQ PUSH2 0x147 JUMPI DUP1 PUSH4 0x3D3E42C1 EQ PUSH2 0x186 JUMPI DUP1 PUSH4 0x4D88DB4D EQ PUSH2 0x190 JUMPI DUP1 PUSH4 0x4E71D92D EQ PUSH2 0x1A3 JUMPI DUP1 PUSH4 0x550066D5 EQ PUSH2 0x1AB JUMPI DUP1 PUSH4 0x715018A6 EQ PUSH2 0x1B4 JUMPI DUP1 PUSH4 0x7EB96B7B EQ PUSH2 0x1BC JUMPI DUP1 PUSH4 0x8DA5CB5B EQ PUSH2 0x1CF JUMPI DUP1 PUSH4 0x9940686E EQ PUSH2 0x1D7 JUMPI DUP1 PUSH4 0xC31C6FB9 EQ PUSH2 0x1EA JUMPI DUP1 PUSH4 0xC54E44EB EQ PUSH2 0x1F3 JUMPI DUP1 PUSH4 0xCC717C05 EQ PUSH2 0x21A JUMPI DUP1 PUSH4 0xCD1234B3 EQ PUSH2 0x22D JUMPI DUP1 PUSH4 0xD7CCFB0B EQ PUSH2 0x277 JUMPI DUP1 PUSH4 0xF2FDE38B EQ PUSH2 0x280 JUMPI JUMPDEST PUSH1 0x0 DUP1 REVERT JUMPDEST PUSH2 0xFD PUSH2 0xF8 CALLDATASIZE PUSH1 0x4 PUSH2 0x7FE JUMP JUMPDEST PUSH2 0x293 JUMP JUMPDEST PUSH1 0x40 MLOAD SWAP1 ISZERO ISZERO DUP2 MSTORE PUSH1 0x20 ADD JUMPDEST PUSH1 0x40 MLOAD DUP1 SWAP2 SUB SWAP1 RETURN JUMPDEST PUSH2 0x125 PUSH2 0x120 CALLDATASIZE PUSH1 0x4 PUSH2 0x7FE JUMP JUMPDEST PUSH2 0x2C7 JUMP JUMPDEST PUSH1 0x40 MLOAD SWAP1 DUP2 MSTORE PUSH1 0x20 ADD PUSH2 0x109 JUMP JUMPDEST PUSH1 0x0 SLOAD PUSH2 0xFD SWAP1 PUSH1 0x1 PUSH1 0xA0 SHL SWAP1 DIV PUSH1 0xFF AND DUP2 JUMP JUMPDEST PUSH2 0x16E PUSH32 0x0 DUP2 JUMP JUMPDEST PUSH1 0x40 MLOAD PUSH1 0x1 PUSH1 0x1 PUSH1 0xA0 SHL SUB SWAP1 SWAP2 AND DUP2 MSTORE PUSH1 0x20 ADD PUSH2 0x109 JUMP JUMPDEST PUSH2 0x18E PUSH2 0x33A JUMP JUMPDEST STOP JUMPDEST PUSH2 0x18E PUSH2 0x19E CALLDATASIZE PUSH1 0x4 PUSH2 0x82E JUMP JUMPDEST PUSH2 0x351 JUMP JUMPDEST PUSH2 0x18E PUSH2 0x3DD JUMP JUMPDEST PUSH2 0x125 PUSH1 0x4 SLOAD DUP2 JUMP JUMPDEST PUSH2 0x18E PUSH2 0x532 JUMP JUMPDEST PUSH2 0x125 PUSH2 0x1CA CALLDATASIZE PUSH1 0x4 PUSH2 0x7FE JUMP JUMPDEST PUSH2 0x546 JUMP JUMPDEST PUSH2 0x16E PUSH2 0x58B JUMP JUMPDEST PUSH2 0x18E PUSH2 0x1E5 CALLDATASIZE PUSH1 0x4 PUSH2 0x850 JUMP JUMPDEST PUSH2 0x59A JUMP JUMPDEST PUSH2 0x125 PUSH1 0x3 SLOAD DUP2 JUMP JUMPDEST PUSH2 0x16E PUSH32 0x0 DUP2 JUMP JUMPDEST PUSH2 0xFD PUSH2 0x228 CALLDATASIZE PUSH1 0x4 PUSH2 0x850 JUMP JUMPDEST PUSH2 0x68F JUMP JUMPDEST PUSH2 0x25C PUSH2 0x23B CALLDATASIZE PUSH1 0x4 PUSH2 0x7FE JUMP JUMPDEST PUSH1 0x9 PUSH1 0x20 MSTORE PUSH1 0x0 SWAP1 DUP2 MSTORE PUSH1 0x40 SWAP1 KECCAK256 DUP1 SLOAD PUSH1 0x1 DUP3 ADD SLOAD PUSH1 0x2 SWAP1 SWAP3 ADD SLOAD SWAP1 SWAP2 SWAP1 DUP4 JUMP JUMPDEST PUSH1 0x40 DUP1 MLOAD SWAP4 DUP5 MSTORE PUSH1 0x20 DUP5 ADD SWAP3 SWAP1 SWAP3 MSTORE SWAP1 DUP3 ADD MSTORE PUSH1 0x60 ADD PUSH2 0x109 JUMP JUMPDEST PUSH2 0x125 PUSH1 0x6 SLOAD DUP2 JUMP JUMPDEST PUSH2 0x18E PUSH2 0x28E CALLDATASIZE PUSH1 0x4 PUSH2 0x7FE JUMP JUMPDEST PUSH2 0x6D6 JUMP JUMPDEST PUSH1 0x4 SLOAD PUSH1 0x1 PUSH1 0x1 PUSH1 0xA0 SHL SUB DUP3 AND PUSH1 0x0 SWAP1 DUP2 MSTORE PUSH1 0x9 PUSH1 0x20 MSTORE PUSH1 0x40 DUP2 KECCAK256 PUSH1 0x1 ADD SLOAD SWAP1 SWAP2 TIMESTAMP SWAP2 PUSH2 0x2C0 SWAP2 SWAP1 PUSH2 0x87F JUMP JUMPDEST LT SWAP3 SWAP2 POP POP JUMP JUMPDEST PUSH1 0x4 SLOAD PUSH1 0x1 PUSH1 0x1 PUSH1 0xA0 SHL SUB DUP3 AND PUSH1 0x0 SWAP1 DUP2 MSTORE PUSH1 0x9 PUSH1 0x20 MSTORE PUSH1 0x40 DUP2 KECCAK256 PUSH1 0x1 ADD SLOAD SWAP1 SWAP2 TIMESTAMP SWAP2 PUSH2 0x2F4 SWAP2 SWAP1 PUSH2 0x87F JUMP JUMPDEST GT PUSH2 0x300 JUMPI PUSH1 0x0 PUSH2 0x334 JUMP JUMPDEST PUSH1 0x4 SLOAD PUSH1 0x1 PUSH1 0x1 PUSH1 0xA0 SHL SUB DUP4 AND PUSH1 0x0 SWAP1 DUP2 MSTORE PUSH1 0x9 PUSH1 0x20 MSTORE PUSH1 0x40 SWAP1 KECCAK256 PUSH1 0x1 ADD SLOAD TIMESTAMP SWAP2 PUSH2 0x32A SWAP2 PUSH2 0x87F JUMP JUMPDEST PUSH2 0x334 SWAP2 SWAP1 PUSH2 0x892 JUMP JUMPDEST SWAP3 SWAP2 POP POP JUMP JUMPDEST PUSH2 0x342 PUSH2 0x74F JUMP JUMPDEST PUSH1 0x0 DUP1 SLOAD PUSH1 0xFF PUSH1 0xA0 SHL NOT AND SWAP1 SSTORE JUMP JUMPDEST PUSH2 0x359 PUSH2 0x74F JUMP JUMPDEST PUSH1 0x0 SLOAD PUSH1 0x1 PUSH1 0xA0 SHL SWAP1 DIV PUSH1 0xFF AND ISZERO PUSH2 0x3AA JUMPI PUSH1 0x40 MLOAD PUSH3 0x461BCD PUSH1 0xE5 SHL DUP2 MSTORE PUSH1 0x20 PUSH1 0x4 DUP3 ADD MSTORE PUSH1 0xF PUSH1 0x24 DUP3 ADD MSTORE PUSH15 0x185B1C9958591E481CDD185C9D1959 PUSH1 0x8A SHL PUSH1 0x44 DUP3 ADD MSTORE PUSH1 0x64 ADD JUMPDEST PUSH1 0x40 MLOAD DUP1 SWAP2 SUB SWAP1 REVERT JUMPDEST PUSH1 0x0 DUP1 SLOAD PUSH1 0xFF PUSH1 0xA0 SHL NOT AND PUSH1 0x1 PUSH1 0xA0 SHL OR DUP2 SSTORE PUSH1 0x1 SSTORE TIMESTAMP PUSH1 0x2 SSTORE PUSH1 0x6 DUP3 SWAP1 SSTORE PUSH2 0x3D6 DUP2 PUSH3 0x15180 PUSH2 0x8A5 JUMP JUMPDEST PUSH1 0x3 SSTORE POP POP JUMP JUMPDEST PUSH2 0x3E6 CALLER PUSH2 0x293 JUMP JUMPDEST PUSH2 0x424 JUMPI PUSH1 0x40 MLOAD PUSH3 0x461BCD PUSH1 0xE5 SHL DUP2 MSTORE PUSH1 0x20 PUSH1 0x4 DUP3 ADD MSTORE PUSH1 0xF PUSH1 0x24 DUP3 ADD MSTORE PUSH15 0x109BDB990E9B9BC8195E1C1A5C9959 PUSH1 0x8A SHL PUSH1 0x44 DUP3 ADD MSTORE PUSH1 0x64 ADD PUSH2 0x3A1 JUMP JUMPDEST CALLER PUSH1 0x0 SWAP1 DUP2 MSTORE PUSH1 0x9 PUSH1 0x20 MSTORE PUSH1 0x40 DUP2 KECCAK256 SLOAD SWAP1 SUB PUSH2 0x474 JUMPI PUSH1 0x40 MLOAD PUSH3 0x461BCD PUSH1 0xE5 SHL DUP2 MSTORE PUSH1 0x20 PUSH1 0x4 DUP3 ADD MSTORE PUSH1 0xF PUSH1 0x24 DUP3 ADD MSTORE PUSH15 0x109BDB990E881B9BC81C995DD85C99 PUSH1 0x8A SHL PUSH1 0x44 DUP3 ADD MSTORE PUSH1 0x64 ADD PUSH2 0x3A1 JUMP JUMPDEST PUSH1 0x0 PUSH2 0x47F CALLER PUSH2 0x546 JUMP JUMPDEST CALLER PUSH1 0x0 DUP2 DUP2 MSTORE PUSH1 0x9 PUSH1 0x20 MSTORE PUSH1 0x40 DUP1 DUP3 KECCAK256 SWAP2 SWAP1 SWAP2 SSTORE PUSH1 0x8 SLOAD SWAP1 MLOAD PUSH4 0x23B872DD PUSH1 0xE0 SHL DUP2 MSTORE SWAP3 SWAP4 POP PUSH32 0x0 PUSH1 0x1 PUSH1 0x1 PUSH1 0xA0 SHL SUB SWAP1 DUP2 AND SWAP4 PUSH4 0x23B872DD SWAP4 PUSH2 0x4EB SWAP4 SWAP1 SWAP3 AND SWAP2 SWAP1 DUP7 SWAP1 PUSH1 0x4 ADD PUSH2 0x8BC JUMP JUMPDEST PUSH1 0x20 PUSH1 0x40 MLOAD DUP1 DUP4 SUB DUP2 PUSH1 0x0 DUP8 GAS CALL ISZERO DUP1 ISZERO PUSH2 0x50A JUMPI RETURNDATASIZE PUSH1 0x0 DUP1 RETURNDATACOPY RETURNDATASIZE PUSH1 0x0 REVERT JUMPDEST POP POP POP POP PUSH1 0x40 MLOAD RETURNDATASIZE PUSH1 0x1F NOT PUSH1 0x1F DUP3 ADD AND DUP3 ADD DUP1 PUSH1 0x40 MSTORE POP DUP2 ADD SWAP1 PUSH2 0x52E SWAP2 SWAP1 PUSH2 0x8E0 JUMP JUMPDEST POP POP JUMP JUMPDEST PUSH2 0x53A PUSH2 0x74F JUMP JUMPDEST PUSH2 0x544 PUSH1 0x0 PUSH2 0x7AE JUMP JUMPDEST JUMP JUMPDEST PUSH1 0x5 SLOAD PUSH1 0x6 SLOAD PUSH1 0x1 PUSH1 0x1 PUSH1 0xA0 SHL SUB DUP4 AND PUSH1 0x0 SWAP1 DUP2 MSTORE PUSH1 0x9 PUSH1 0x20 MSTORE PUSH1 0x40 DUP2 KECCAK256 SLOAD SWAP1 SWAP3 SWAP2 SWAP1 PUSH2 0x577 SWAP1 PUSH4 0x5F5E100 PUSH2 0x8A5 JUMP JUMPDEST PUSH2 0x581 SWAP2 SWAP1 PUSH2 0x902 JUMP JUMPDEST PUSH2 0x334 SWAP2 SWAP1 PUSH2 0x8A5 JUMP JUMPDEST PUSH1 0x0 SLOAD PUSH1 0x1 PUSH1 0x1 PUSH1 0xA0 SHL SUB AND SWAP1 JUMP JUMPDEST TIMESTAMP PUSH1 0x3 SLOAD PUSH1 0x2 SLOAD PUSH2 0x5AB SWAP2 SWAP1 PUSH2 0x87F JUMP JUMPDEST GT DUP1 ISZERO PUSH2 0x5BC JUMPI POP PUSH2 0x5BC DUP2 PUSH2 0x68F JUMP JUMPDEST PUSH2 0x5F8 JUMPI PUSH1 0x40 MLOAD PUSH3 0x461BCD PUSH1 0xE5 SHL DUP2 MSTORE PUSH1 0x20 PUSH1 0x4 DUP3 ADD MSTORE PUSH1 0xD PUSH1 0x24 DUP3 ADD MSTORE PUSH13 0x6E6F7420617661696C61626C65 PUSH1 0x98 SHL PUSH1 0x44 DUP3 ADD MSTORE PUSH1 0x64 ADD PUSH2 0x3A1 JUMP JUMPDEST CALLER PUSH1 0x0 SWAP1 DUP2 MSTORE PUSH1 0x9 PUSH1 0x20 MSTORE PUSH1 0x40 DUP2 KECCAK256 DUP1 SLOAD DUP4 SWAP3 SWAP1 PUSH2 0x617 SWAP1 DUP5 SWAP1 PUSH2 0x87F JUMP JUMPDEST SWAP1 SWAP2 SSTORE POP POP CALLER PUSH1 0x0 DUP2 DUP2 MSTORE PUSH1 0x9 PUSH1 0x20 MSTORE PUSH1 0x40 SWAP1 DUP2 SWAP1 KECCAK256 TIMESTAMP PUSH1 0x1 DUP3 ADD SSTORE PUSH1 0x6 SLOAD PUSH1 0x2 SWAP1 SWAP2 ADD SSTORE PUSH1 0x7 SLOAD SWAP1 MLOAD PUSH4 0x23B872DD PUSH1 0xE0 SHL DUP2 MSTORE PUSH1 0x1 PUSH1 0x1 PUSH1 0xA0 SHL SUB PUSH32 0x0 DUP2 AND SWAP4 PUSH4 0x23B872DD SWAP4 PUSH2 0x4EB SWAP4 SWAP2 SWAP3 AND SWAP1 DUP7 SWAP1 PUSH1 0x4 ADD PUSH2 0x8BC JUMP JUMPDEST PUSH1 0x0 PUSH1 0x1 SLOAD PUSH1 0x5 SLOAD PUSH1 0x6 SLOAD DUP5 PUSH4 0x5F5E100 PUSH2 0x6AA SWAP2 SWAP1 PUSH2 0x8A5 JUMP JUMPDEST PUSH2 0x6B4 SWAP2 SWAP1 PUSH2 0x902 JUMP JUMPDEST PUSH2 0x6BE SWAP2 SWAP1 PUSH2 0x8A5 JUMP JUMPDEST PUSH2 0x6C8 SWAP2 SWAP1 PUSH2 0x87F JUMP JUMPDEST PUSH5 0xE8D4A51000 LT ISZERO SWAP3 SWAP2 POP POP JUMP JUMPDEST PUSH2 0x6DE PUSH2 0x74F JUMP JUMPDEST PUSH1 0x1 PUSH1 0x1 PUSH1 0xA0 SHL SUB DUP2 AND PUSH2 0x743 JUMPI PUSH1 0x40 MLOAD PUSH3 0x461BCD PUSH1 0xE5 SHL DUP2 MSTORE PUSH1 0x20 PUSH1 0x4 DUP3 ADD MSTORE PUSH1 0x26 PUSH1 0x24 DUP3 ADD MSTORE PUSH32 0x4F776E61626C653A206E6577206F776E657220697320746865207A65726F2061 PUSH1 0x44 DUP3 ADD MSTORE PUSH6 0x646472657373 PUSH1 0xD0 SHL PUSH1 0x64 DUP3 ADD MSTORE PUSH1 0x84 ADD PUSH2 0x3A1 JUMP JUMPDEST PUSH2 0x74C DUP2 PUSH2 0x7AE JUMP JUMPDEST POP JUMP JUMPDEST CALLER PUSH2 0x758 PUSH2 0x58B JUMP JUMPDEST PUSH1 0x1 PUSH1 0x1 PUSH1 0xA0 SHL SUB AND EQ PUSH2 0x544 JUMPI PUSH1 0x40 MLOAD PUSH3 0x461BCD PUSH1 0xE5 SHL DUP2 MSTORE PUSH1 0x20 PUSH1 0x4 DUP3 ADD DUP2 SWAP1 MSTORE PUSH1 0x24 DUP3 ADD MSTORE PUSH32 0x4F776E61626C653A2063616C6C6572206973206E6F7420746865206F776E6572 PUSH1 0x44 DUP3 ADD MSTORE PUSH1 0x64 ADD PUSH2 0x3A1 JUMP JUMPDEST PUSH1 0x0 DUP1 SLOAD PUSH1 0x1 PUSH1 0x1 PUSH1 0xA0 SHL SUB DUP4 DUP2 AND PUSH1 0x1 PUSH1 0x1 PUSH1 0xA0 SHL SUB NOT DUP4 AND DUP2 OR DUP5 SSTORE PUSH1 0x40 MLOAD SWAP2 SWAP1 SWAP3 AND SWAP3 DUP4 SWAP2 PUSH32 0x8BE0079C531659141344CD1FD0A4F28419497F9722A3DAAFE3B4186F6B6457E0 SWAP2 SWAP1 LOG3 POP POP JUMP JUMPDEST PUSH1 0x0 PUSH1 0x20 DUP3 DUP5 SUB SLT ISZERO PUSH2 0x810 JUMPI PUSH1 0x0 DUP1 REVERT JUMPDEST DUP2 CALLDATALOAD PUSH1 0x1 PUSH1 0x1 PUSH1 0xA0 SHL SUB DUP2 AND DUP2 EQ PUSH2 0x827 JUMPI PUSH1 0x0 DUP1 REVERT JUMPDEST SWAP4 SWAP3 POP POP POP JUMP JUMPDEST PUSH1 0x0 DUP1 PUSH1 0x40 DUP4 DUP6 SUB SLT ISZERO PUSH2 0x841 JUMPI PUSH1 0x0 DUP1 REVERT JUMPDEST POP POP DUP1 CALLDATALOAD SWAP3 PUSH1 0x20 SWAP1 SWAP2 ADD CALLDATALOAD SWAP2 POP JUMP JUMPDEST PUSH1 0x0 PUSH1 0x20 DUP3 DUP5 SUB SLT ISZERO PUSH2 0x862 JUMPI PUSH1 0x0 DUP1 REVERT JUMPDEST POP CALLDATALOAD SWAP2 SWAP1 POP JUMP JUMPDEST PUSH4 0x4E487B71 PUSH1 0xE0 SHL PUSH1 0x0 MSTORE PUSH1 0x11 PUSH1 0x4 MSTORE PUSH1 0x24 PUSH1 0x0 REVERT JUMPDEST DUP1 DUP3 ADD DUP1 DUP3 GT ISZERO PUSH2 0x334 JUMPI PUSH2 0x334 PUSH2 0x869 JUMP JUMPDEST DUP2 DUP2 SUB DUP2 DUP2 GT ISZERO PUSH2 0x334 JUMPI PUSH2 0x334 PUSH2 0x869 JUMP JUMPDEST DUP1 DUP3 MUL DUP2 ISZERO DUP3 DUP3 DIV DUP5 EQ OR PUSH2 0x334 JUMPI PUSH2 0x334 PUSH2 0x869 JUMP JUMPDEST PUSH1 0x1 PUSH1 0x1 PUSH1 0xA0 SHL SUB SWAP4 DUP5 AND DUP2 MSTORE SWAP2 SWAP1 SWAP3 AND PUSH1 0x20 DUP3 ADD MSTORE PUSH1 0x40 DUP2 ADD SWAP2 SWAP1 SWAP2 MSTORE PUSH1 0x60 ADD SWAP1 JUMP JUMPDEST PUSH1 0x0 PUSH1 0x20 DUP3 DUP5 SUB SLT ISZERO PUSH2 0x8F2 JUMPI PUSH1 0x0 DUP1 REVERT JUMPDEST DUP2 MLOAD DUP1 ISZERO ISZERO DUP2 EQ PUSH2 0x827 JUMPI PUSH1 0x0 DUP1 REVERT JUMPDEST PUSH1 0x0 DUP3 PUSH2 0x91F JUMPI PUSH4 0x4E487B71 PUSH1 0xE0 SHL PUSH1 0x0 MSTORE PUSH1 0x12 PUSH1 0x4 MSTORE PUSH1 0x24 PUSH1 0x0 REVERT JUMPDEST POP DIV SWAP1 JUMP INVALID LOG2 PUSH5 0x6970667358 0x22 SLT KECCAK256 PUSH26 0x5D1B884E2592A42E0DF7BE16E69B267EE57AF1F85E186DA68F57 MLOAD JUMPDEST 0xE GAS SWAP3 PUSH5 0x736F6C6343 STOP ADDMOD GT STOP CALLER "},"methodIdentifiers":{"USDT()":"c54e44eb","bitConey()":"2fa81a71","bond(uint256)":"9940686e","bondInfo(address)":"cd1234b3","bondPrice()":"d7ccfb0b","bondingPeriod()":"c31c6fb9","claim()":"4e71d92d","getUserClaimTime(address)":"09fde080","isAvailableBond(uint256)":"cc717c05","isAvailableClaim(address)":"0046a76a","lockingPeriod()":"550066d5","owner()":"8da5cb5b","renounceOwnership()":"715018a6","setInitialBondState()":"3d3e42c1","setStartBond(uint256,uint256)":"4d88db4d","startBond()":"10b40b49","transferOwnership(address)":"f2fde38b","userClaimAmount(address)":"7eb96b7b"}},"storageLayout":{"storage":[{"astId":7,"contract":"contracts/Bond.sol:Bond","label":"_owner","offset":0,"slot":"0","type":"t_address"},{"astId":355,"contract":"contracts/Bond.sol:Bond","label":"startBond","offset":20,"slot":"0","type":"t_bool"},{"astId":357,"contract":"contracts/Bond.sol:Bond","label":"bondAmount","offset":0,"slot":"1","type":"t_uint256"},{"astId":359,"contract":"contracts/Bond.sol:Bond","label":"bondStartTime","offset":0,"slot":"2","type":"t_uint256"},{"astId":361,"contract":"contracts/Bond.sol:Bond","label":"bondingPeriod","offset":0,"slot":"3","type":"t_uint256"},{"astId":364,"contract":"contracts/Bond.sol:Bond","label":"lockingPeriod","offset":0,"slot":"4","type":"t_uint256"},{"astId":374,"contract":"contracts/Bond.sol:Bond","label":"DOUBLE_MULTER","offset":0,"slot":"5","type":"t_uint256"},{"astId":376,"contract":"contracts/Bond.sol:Bond","label":"bondPrice","offset":0,"slot":"6","type":"t_uint256"},{"astId":383,"contract":"contracts/Bond.sol:Bond","label":"treasuryWallet","offset":0,"slot":"7","type":"t_address"},{"astId":385,"contract":"contracts/Bond.sol:Bond","label":"bitconeyWallet","offset":0,"slot":"8","type":"t_address"},{"astId":397,"contract":"contracts/Bond.sol:Bond","label":"bondInfo","offset":0,"slot":"9","type":"t_mapping(t_address,t_struct(BondInfo)392_storage)"}],"types":{"t_address":{"encoding":"inplace","label":"address","numberOfBytes":"20"},"t_bool":{"encoding":"inplace","label":"bool","numberOfBytes":"1"},"t_mapping(t_address,t_struct(BondInfo)392_storage)":{"encoding":"mapping","key":"t_address","label":"mapping(address => struct Bond.BondInfo)","numberOfBytes":"32","value":"t_struct(BondInfo)392_storage"},"t_struct(BondInfo)392_storage":{"encoding":"inplace","label":"struct Bond.BondInfo","members":[{"astId":387,"contract":"contracts/Bond.sol:Bond","label":"amount","offset":0,"slot":"0","type":"t_uint256"},{"astId":389,"contract":"contracts/Bond.sol:Bond","label":"bondingTime","offset":0,"slot":"1","type":"t_uint256"},{"astId":391,"contract":"contracts/Bond.sol:Bond","label":"bondPrice","offset":0,"slot":"2","type":"t_uint256"}],"numberOfBytes":"96"},"t_uint256":{"encoding":"inplace","label":"uint256","numberOfBytes":"32"}}}}}}