{"contracts/Stake.sol":{"Stake":{"abi":[{"inputs":[{"internalType":"address","name":"_treasury","type":"address"},{"internalType":"address","name":"_manager","type":"address"},{"internalType":"address","name":"_bitConeyAddr","type":"address"},{"internalType":"address","name":"_BUSD","type":"address"},{"internalType":"address","name":"_USDT","type":"address"}],"stateMutability":"nonpayable","type":"constructor"},{"anonymous":false,"inputs":[{"indexed":true,"internalType":"uint256","name":"blockNumber","type":"uint256"},{"indexed":false,"internalType":"uint256","name":"prizeAmount","type":"uint256"},{"indexed":false,"internalType":"uint256","name":"startTime","type":"uint256"}],"name":"CreateBlock","type":"event"},{"anonymous":false,"inputs":[{"indexed":true,"internalType":"uint256","name":"blockNumber","type":"uint256"},{"indexed":false,"internalType":"address","name":"coin","type":"address"},{"indexed":false,"internalType":"uint256","name":"amount","type":"uint256"},{"indexed":false,"internalType":"uint256","name":"stakedTime","type":"uint256"},{"indexed":true,"internalType":"address","name":"user","type":"address"}],"name":"Invest","type":"event"},{"anonymous":false,"inputs":[{"indexed":true,"internalType":"address","name":"previousOwner","type":"address"},{"indexed":true,"internalType":"address","name":"newOwner","type":"address"}],"name":"OwnershipTransferred","type":"event"},{"anonymous":false,"inputs":[{"indexed":false,"internalType":"address","name":"account","type":"address"}],"name":"Paused","type":"event"},{"anonymous":false,"inputs":[{"indexed":false,"internalType":"address","name":"account","type":"address"}],"name":"Unpaused","type":"event"},{"anonymous":false,"inputs":[{"indexed":true,"internalType":"uint256","name":"_blockNumber","type":"uint256"},{"indexed":true,"internalType":"address","name":"user","type":"address"},{"indexed":false,"internalType":"uint256","name":"reward","type":"uint256"},{"indexed":false,"internalType":"uint256","name":"entrance","type":"uint256"}],"name":"Withdraw","type":"event"},{"inputs":[],"name":"BUSD","outputs":[{"internalType":"address","name":"","type":"address"}],"stateMutability":"view","type":"function"},{"inputs":[],"name":"USDT","outputs":[{"internalType":"address","name":"","type":"address"}],"stateMutability":"view","type":"function"},{"inputs":[],"name":"bitConey","outputs":[{"internalType":"contract IERC20Metadata","name":"","type":"address"}],"stateMutability":"view","type":"function"},{"inputs":[{"internalType":"uint256","name":"","type":"uint256"}],"name":"blockInfo","outputs":[{"internalType":"uint256","name":"blockNumber","type":"uint256"},{"internalType":"uint256","name":"prizeAmount","type":"uint256"},{"internalType":"uint256","name":"startTime","type":"uint256"},{"internalType":"uint256","name":"price","type":"uint256"},{"internalType":"uint256","name":"pooledAmount","type":"uint256"}],"stateMutability":"view","type":"function"},{"inputs":[{"internalType":"uint256","name":"_blockNumber","type":"uint256"},{"internalType":"uint256","name":"_prizeAmount","type":"uint256"},{"internalType":"uint256","name":"_price","type":"uint256"}],"name":"createBlock","outputs":[],"stateMutability":"nonpayable","type":"function"},{"inputs":[],"name":"entranceMulter","outputs":[{"internalType":"uint256","name":"","type":"uint256"}],"stateMutability":"view","type":"function"},{"inputs":[{"internalType":"uint256","name":"_blockNumber","type":"uint256"}],"name":"getUserListFromBlock","outputs":[{"internalType":"address[]","name":"userList","type":"address[]"}],"stateMutability":"view","type":"function"},{"inputs":[{"internalType":"uint256","name":"_blockNumber","type":"uint256"},{"internalType":"address","name":"_coin","type":"address"},{"internalType":"uint256","name":"amount","type":"uint256"}],"name":"invest","outputs":[],"stateMutability":"nonpayable","type":"function"},{"inputs":[],"name":"manager","outputs":[{"internalType":"address","name":"","type":"address"}],"stateMutability":"view","type":"function"},{"inputs":[],"name":"maxDepositMulter","outputs":[{"internalType":"uint256","name":"","type":"uint256"}],"stateMutability":"view","type":"function"},{"inputs":[],"name":"maxPooledAmountMulter","outputs":[{"internalType":"uint256","name":"","type":"uint256"}],"stateMutability":"view","type":"function"},{"inputs":[],"name":"owner","outputs":[{"internalType":"address","name":"","type":"address"}],"stateMutability":"view","type":"function"},{"inputs":[],"name":"paused","outputs":[{"internalType":"bool","name":"","type":"bool"}],"stateMutability":"view","type":"function"},{"inputs":[],"name":"priceDecimal","outputs":[{"internalType":"uint256","name":"","type":"uint256"}],"stateMutability":"view","type":"function"},{"inputs":[],"name":"renounceOwnership","outputs":[],"stateMutability":"nonpayable","type":"function"},{"inputs":[{"internalType":"uint256","name":"_multer","type":"uint256"}],"name":"setEntranceMulter","outputs":[],"stateMutability":"nonpayable","type":"function"},{"inputs":[{"internalType":"uint256","name":"time","type":"uint256"}],"name":"setLockTimeforReward","outputs":[],"stateMutability":"nonpayable","type":"function"},{"inputs":[{"internalType":"address","name":"_manager","type":"address"}],"name":"setManager","outputs":[],"stateMutability":"nonpayable","type":"function"},{"inputs":[{"internalType":"uint256","name":"_multer","type":"uint256"}],"name":"setMaxDepositMulter","outputs":[],"stateMutability":"nonpayable","type":"function"},{"inputs":[{"internalType":"uint256","name":"_multer","type":"uint256"}],"name":"setMaxPooledAmountMulter","outputs":[],"stateMutability":"nonpayable","type":"function"},{"inputs":[{"internalType":"bool","name":"flag","type":"bool"}],"name":"setPause","outputs":[],"stateMutability":"nonpayable","type":"function"},{"inputs":[{"internalType":"address","name":"_wallet","type":"address"}],"name":"setTreasury","outputs":[],"stateMutability":"nonpayable","type":"function"},{"inputs":[{"internalType":"uint256","name":"time","type":"uint256"}],"name":"setValidTimeforNewBlock","outputs":[],"stateMutability":"nonpayable","type":"function"},{"inputs":[{"internalType":"uint256","name":"","type":"uint256"},{"internalType":"address","name":"","type":"address"}],"name":"stakeInfo","outputs":[{"internalType":"address","name":"coin","type":"address"},{"internalType":"uint256","name":"amount","type":"uint256"},{"internalType":"uint256","name":"stakedTime","type":"uint256"},{"internalType":"bool","name":"refunded","type":"bool"}],"stateMutability":"view","type":"function"},{"inputs":[{"internalType":"address","name":"newOwner","type":"address"}],"name":"transferOwnership","outputs":[],"stateMutability":"nonpayable","type":"function"},{"inputs":[],"name":"treasury","outputs":[{"internalType":"address","name":"","type":"address"}],"stateMutability":"view","type":"function"},{"inputs":[{"internalType":"uint256","name":"_blockNumber","type":"uint256"}],"name":"widthdraw","outputs":[],"stateMutability":"nonpayable","type":"function"}],"evm":{"bytecode":{"linkReferences":{},"object":"60c06040526008600555600a6006556019600755605a60085561012c600a55610e10600b553480156200003157600080fd5b506040516200183038038062001830833981016040819052620000549162000129565b6200005f33620000bc565b6000805460ff60a01b19169055600380546001600160a01b03199081166001600160a01b03978816179091556004805482169587169590951790945560098054909416928516929092179092559082166080521660a05262000199565b600080546001600160a01b038381166001600160a01b0319831681178455604051919092169283917f8be0079c531659141344cd1fd0a4f28419497f9722a3daafe3b4186f6b6457e09190a35050565b80516001600160a01b03811681146200012457600080fd5b919050565b600080600080600060a086880312156200014257600080fd5b6200014d866200010c565b94506200015d602087016200010c565b93506200016d604087016200010c565b92506200017d606087016200010c565b91506200018d608087016200010c565b90509295509295909350565b60805160a051611663620001cd600039600081816103890152610c6201526000818161024e0152610c9d01526116636000f3fe608060405234801561001057600080fd5b50600436106101495760003560e01c8063065310791461014e57806310e4e019146101635780631f10a89a146101765780632fa81a71146101895780633bcd77da146101b25780634228e2211461021657806345c44a1b1461022d578063481c6a7514610236578063484f4ea9146102495780634bcf529d146102705780635c975abb1461028357806361d027b31461029b578063715018a6146102ae5780637584f914146102b6578063814cbf301461032e578063844ed61d146103415780638da5cb5b14610361578063bc9113f014610369578063bedb86fb14610371578063c54e44eb14610384578063d0ebdbe7146103ab578063e0da260c146103be578063f0f44260146103d1578063f2fde38b146103e4578063f58cf3ff146103f7578063fe3cde3f14610400578063fecba3a514610413575b600080fd5b61016161015c36600461129d565b610426565b005b6101616101713660046112b6565b61043f565b61016161018436600461129d565b610551565b60095461019c906001600160a01b031681565b6040516101a991906112e2565b60405180910390f35b6101ee6101c036600461129d565b6001602081905260009182526040909120805491810154600282015460048301546005909301549192909185565b604080519586526020860194909452928401919091526060830152608082015260a0016101a9565b61021f60055481565b6040519081526020016101a9565b61021f60075481565b60045461019c906001600160a01b031681565b61019c7f000000000000000000000000000000000000000000000000000000000000000081565b61016161027e36600461129d565b61055e565b61028b61056b565b60405190151581526020016101a9565b60035461019c906001600160a01b031681565b61016161057b565b6103026102c4366004611312565b6002602081815260009384526040808520909152918352912080546001820154928201546003909201546001600160a01b0390911692919060ff1684565b604080516001600160a01b039095168552602085019390935291830152151560608201526080016101a9565b61016161033c36600461129d565b61058f565b61035461034f36600461129d565b61059c565b6040516101a9919061133e565b61019c610663565b61021f600881565b61016161037f366004611399565b610672565b61019c7f000000000000000000000000000000000000000000000000000000000000000081565b6101616103b93660046113bd565b610693565b6101616103cc36600461129d565b6106bd565b6101616103df3660046113bd565b6109d6565b6101616103f23660046113bd565b610a00565b61021f60085481565b61016161040e36600461129d565b610a76565b6101616104213660046113d8565b610a8f565b61042e610f28565b61043981603c611423565b600b5550565b610447610f87565b6004546001600160a01b031633146104945760405162461bcd60e51b815260206004820152600b60248201526a2737ba1036b0b730b3b2b960a91b60448201526064015b60405180910390fd5b600083815260016020526040902054156104e15760405162461bcd60e51b815260206004820152600e60248201526d616c72656164792065786973747360901b604482015260640161048b565b60008381526001602081905260409182902085815590810184905542600282018190556004909101839055905184917fe0676b694d0bfe16e5e764f5d05a4da18534efe97b72a21aa785e3e6767b42c19161054491868252602082015260400190565b60405180910390a2505050565b610559610f28565b600755565b610566610f28565b600555565b600054600160a01b900460ff1690565b610583610f28565b61058d6000610fcf565b565b610597610f28565b600855565b6000818152600160205260409020600301546060906001600160401b038111156105c8576105c861143a565b6040519080825280602002602001820160405280156105f1578160200160208202803683370190505b50600083815260016020908152604091829020600301805483518184028101840190945280845293945091929083018282801561065757602002820191906000526020600020905b81546001600160a01b03168152600190910190602001808311610639575b50505050509050919050565b6000546001600160a01b031690565b61067a610f28565b801561068b5761068861101f565b50565b610688611079565b61069b610f28565b600480546001600160a01b0319166001600160a01b0392909216919091179055565b600081815260026020908152604080832033845290915290206003015460ff161561071f5760405162461bcd60e51b8152602060048201526012602482015271185b1c9958591e481dda5d1a191c985dd95960721b604482015260640161048b565b600b5460008281526002602081815260408084203385529091529091200154429161074991611450565b106107825760405162461bcd60e51b81526020600482015260096024820152686e6f7420726561647960b81b604482015260640161048b565b600081815260026020908152604080832033845290915281206001015490036107d75760405162461bcd60e51b81526020600482015260076024820152663737903ab9b2b960c91b604482015260640161048b565b6000805b60008381526001602052604090206003015481101561084f57600083815260016020526040902060030180543391908390811061081a5761081a611463565b6000918252602090912001546001600160a01b03160361083d576001915061084f565b8061084781611479565b9150506107db565b5060018115151461086257610862611492565b60065460055460008481526001602081905260408220015490929161088691611423565b61089091906114a8565b60008481526001602081815260408084206005810154908401546002845282862033875290935290842090920154939450919290916108ce91611423565b6108d891906114a8565b6000858152600260209081526040808320338085529252909120600301805460ff191660011790556009549192506001600160a01b03919091169063a9059cbb906109238486611450565b6040516001600160e01b031960e085901b1681526001600160a01b03909216600483015260248201526044016020604051808303816000875af115801561096e573d6000803e3d6000fd5b505050506040513d601f19601f8201168201806040525081019061099291906114ca565b506040805182815260208101849052339186917fb0ecf14e184effded5473bba77dcfab32b094b77ac1fbb36beec2aef55587970910160405180910390a350505050565b6109de610f28565b600380546001600160a01b0319166001600160a01b0392909216919091179055565b610a08610f28565b6001600160a01b038116610a6d5760405162461bcd60e51b815260206004820152602660248201527f4f776e61626c653a206e6577206f776e657220697320746865207a65726f206160448201526564647265737360d01b606482015260840161048b565b61068881610fcf565b610a7e610f28565b610a8981603c611423565b600a5550565b610a97610f87565b60008381526001602052604090205415801590610ac557506000838152600160208190526040909120015415155b8015610ae1575060008381526001602052604090206002015415155b610b1b5760405162461bcd60e51b815260206004820152600b60248201526a139bdd081a5b9a5d1a585b60aa1b604482015260640161048b565b600a546000848152600160205260409020600201544291610b3b91611450565b11610b745760405162461bcd60e51b815260206004820152600960248201526874696d65206f75742160b81b604482015260640161048b565b600083815260026020908152604080832033845290915290206001015415610bce5760405162461bcd60e51b815260206004820152600d60248201526c63616e7420616464206d6f726560981b604482015260640161048b565b610bd883826110b5565b610c155760405162461bcd60e51b815260206004820152600e60248201526d1a5b9d985b1a5908185b5bdd5b9d60921b604482015260640161048b565b610c1f83826111d7565b610c605760405162461bcd60e51b8152602060048201526012602482015271195e18d9595908199d5b1b08185b5bdd5b9d60721b604482015260640161048b565b7f00000000000000000000000000000000000000000000000000000000000000006001600160a01b0316826001600160a01b03161480610cd157507f00000000000000000000000000000000000000000000000000000000000000006001600160a01b0316826001600160a01b0316145b610d125760405162461bcd60e51b81526020600482015260126024820152713737ba1030bb30b4b630b136329031b7b4b760711b604482015260640161048b565b600083815260016020818152604083206003810180549384018155845290832090910180546001600160a01b031916331790558482526005018054839290610d5b908490611450565b9091555050600083815260026020818152604080842033808652908352818520600180820188905581546001600160a01b0319166001600160a01b038a81169190911783554292909601919091556009546006546005548b89529583905293909620015494909316936323b872dd9392309291610dd89190611423565b610de291906114a8565b6040518463ffffffff1660e01b8152600401610e00939291906114e7565b6020604051808303816000875af1158015610e1f573d6000803e3d6000fd5b505050506040513d601f19601f82011682018060405250810190610e4391906114ca565b506003546040516323b872dd60e01b81526001600160a01b03808516926323b872dd92610e78923392169086906004016114e7565b6020604051808303816000875af1158015610e97573d6000803e3d6000fd5b505050506040513d601f19601f82011682018060405250810190610ebb91906114ca565b50600083815260026020818152604080842033808652908352938190209092015482516001600160a01b038716815291820185905281830152905185917f7a82030cdcb2e8909ecf6432d973748c3c907ede3a2d61ff7cc5b1c1b8de4287919081900360600190a3505050565b33610f31610663565b6001600160a01b03161461058d5760405162461bcd60e51b815260206004820181905260248201527f4f776e61626c653a2063616c6c6572206973206e6f7420746865206f776e6572604482015260640161048b565b610f8f61056b565b1561058d5760405162461bcd60e51b815260206004820152601060248201526f14185d5cd8589b194e881c185d5cd95960821b604482015260640161048b565b600080546001600160a01b038381166001600160a01b0319831681178455604051919092169283917f8be0079c531659141344cd1fd0a4f28419497f9722a3daafe3b4186f6b6457e09190a35050565b611027610f87565b6000805460ff60a01b1916600160a01b1790557f62e78cea01bee320cd4e420270b5ea74000d11b0c9f74754ebdbfc544b05a2586110623390565b60405161106f91906112e2565b60405180910390a1565b611081611252565b6000805460ff60a01b191690557f5db9ee0a495bf2e6ff9c91a7834c1ba4fdd244a5e8aa4e537bd38aeae4b073aa33611062565b6000816110c46008600a6115ef565b600960009054906101000a90046001600160a01b03166001600160a01b031663313ce5676040518163ffffffff1660e01b8152600401602060405180830381865afa158015611117573d6000803e3d6000fd5b505050506040513d601f19601f8201168201806040525081019061113b91906115fb565b61114690600a61161e565b6000868152600160205260409020600401546111629190611423565b61116c91906114a8565b111580156111ce57506111816008600a6115ef565b600754600085815260016020819052604090912090810154600490910154606492916111ac91611423565b6111b69190611423565b6111c091906114a8565b6111ca91906114a8565b8211155b90505b92915050565b60006111e56008600a6115ef565b600854600085815260016020819052604090912060048101549101546064929161120e91611423565b6112189190611423565b61122291906114a8565b61122c91906114a8565b600084815260016020526040902060050154611249908490611450565b11159392505050565b61125a61056b565b61058d5760405162461bcd60e51b815260206004820152601460248201527314185d5cd8589b194e881b9bdd081c185d5cd95960621b604482015260640161048b565b6000602082840312156112af57600080fd5b5035919050565b6000806000606084860312156112cb57600080fd5b505081359360208301359350604090920135919050565b6001600160a01b0391909116815260200190565b80356001600160a01b038116811461130d57600080fd5b919050565b6000806040838503121561132557600080fd5b82359150611335602084016112f6565b90509250929050565b6020808252825182820181905260009190848201906040850190845b8181101561137f5783516001600160a01b03168352928401929184019160010161135a565b50909695505050505050565b801515811461068857600080fd5b6000602082840312156113ab57600080fd5b81356113b68161138b565b9392505050565b6000602082840312156113cf57600080fd5b6111ce826112f6565b6000806000606084860312156113ed57600080fd5b833592506113fd602085016112f6565b9150604084013590509250925092565b634e487b7160e01b600052601160045260246000fd5b80820281158282048414176111d1576111d161140d565b634e487b7160e01b600052604160045260246000fd5b808201808211156111d1576111d161140d565b634e487b7160e01b600052603260045260246000fd5b60006001820161148b5761148b61140d565b5060010190565b634e487b7160e01b600052600160045260246000fd5b6000826114c557634e487b7160e01b600052601260045260246000fd5b500490565b6000602082840312156114dc57600080fd5b81516113b68161138b565b6001600160a01b039384168152919092166020820152604081019190915260600190565b600181815b8085111561154657816000190482111561152c5761152c61140d565b8085161561153957918102915b93841c9390800290611510565b509250929050565b60008261155d575060016111d1565b8161156a575060006111d1565b8160018114611580576002811461158a576115a6565b60019150506111d1565b60ff84111561159b5761159b61140d565b50506001821b6111d1565b5060208310610133831016604e8410600b84101617156115c9575081810a6111d1565b6115d3838361150b565b80600019048211156115e7576115e761140d565b029392505050565b60006111ce838361154e565b60006020828403121561160d57600080fd5b815160ff811681146113b657600080fd5b60006111ce60ff84168361154e56fea2646970667358221220dee3b43f4d558c46d0fef02394d1382954bcf9a222139d0d0737884105029df964736f6c63430008110033","opcodes":"PUSH1 0xC0 PUSH1 0x40 MSTORE PUSH1 0x8 PUSH1 0x5 SSTORE PUSH1 0xA PUSH1 0x6 SSTORE PUSH1 0x19 PUSH1 0x7 SSTORE PUSH1 0x5A PUSH1 0x8 SSTORE PUSH2 0x12C PUSH1 0xA SSTORE PUSH2 0xE10 PUSH1 0xB SSTORE CALLVALUE DUP1 ISZERO PUSH3 0x31 JUMPI PUSH1 0x0 DUP1 REVERT JUMPDEST POP PUSH1 0x40 MLOAD PUSH3 0x1830 CODESIZE SUB DUP1 PUSH3 0x1830 DUP4 CODECOPY DUP2 ADD PUSH1 0x40 DUP2 SWAP1 MSTORE PUSH3 0x54 SWAP2 PUSH3 0x129 JUMP JUMPDEST PUSH3 0x5F CALLER PUSH3 0xBC JUMP JUMPDEST PUSH1 0x0 DUP1 SLOAD PUSH1 0xFF PUSH1 0xA0 SHL NOT AND SWAP1 SSTORE PUSH1 0x3 DUP1 SLOAD PUSH1 0x1 PUSH1 0x1 PUSH1 0xA0 SHL SUB NOT SWAP1 DUP2 AND PUSH1 0x1 PUSH1 0x1 PUSH1 0xA0 SHL SUB SWAP8 DUP9 AND OR SWAP1 SWAP2 SSTORE PUSH1 0x4 DUP1 SLOAD DUP3 AND SWAP6 DUP8 AND SWAP6 SWAP1 SWAP6 OR SWAP1 SWAP5 SSTORE PUSH1 0x9 DUP1 SLOAD SWAP1 SWAP5 AND SWAP3 DUP6 AND SWAP3 SWAP1 SWAP3 OR SWAP1 SWAP3 SSTORE SWAP1 DUP3 AND PUSH1 0x80 MSTORE AND PUSH1 0xA0 MSTORE PUSH3 0x199 JUMP JUMPDEST PUSH1 0x0 DUP1 SLOAD PUSH1 0x1 PUSH1 0x1 PUSH1 0xA0 SHL SUB DUP4 DUP2 AND PUSH1 0x1 PUSH1 0x1 PUSH1 0xA0 SHL SUB NOT DUP4 AND DUP2 OR DUP5 SSTORE PUSH1 0x40 MLOAD SWAP2 SWAP1 SWAP3 AND SWAP3 DUP4 SWAP2 PUSH32 0x8BE0079C531659141344CD1FD0A4F28419497F9722A3DAAFE3B4186F6B6457E0 SWAP2 SWAP1 LOG3 POP POP JUMP JUMPDEST DUP1 MLOAD PUSH1 0x1 PUSH1 0x1 PUSH1 0xA0 SHL SUB DUP2 AND DUP2 EQ PUSH3 0x124 JUMPI PUSH1 0x0 DUP1 REVERT JUMPDEST SWAP2 SWAP1 POP JUMP JUMPDEST PUSH1 0x0 DUP1 PUSH1 0x0 DUP1 PUSH1 0x0 PUSH1 0xA0 DUP7 DUP9 SUB SLT ISZERO PUSH3 0x142 JUMPI PUSH1 0x0 DUP1 REVERT JUMPDEST PUSH3 0x14D DUP7 PUSH3 0x10C JUMP JUMPDEST SWAP5 POP PUSH3 0x15D PUSH1 0x20 DUP8 ADD PUSH3 0x10C JUMP JUMPDEST SWAP4 POP PUSH3 0x16D PUSH1 0x40 DUP8 ADD PUSH3 0x10C JUMP JUMPDEST SWAP3 POP PUSH3 0x17D PUSH1 0x60 DUP8 ADD PUSH3 0x10C JUMP JUMPDEST SWAP2 POP PUSH3 0x18D PUSH1 0x80 DUP8 ADD PUSH3 0x10C JUMP JUMPDEST SWAP1 POP SWAP3 SWAP6 POP SWAP3 SWAP6 SWAP1 SWAP4 POP JUMP JUMPDEST PUSH1 0x80 MLOAD PUSH1 0xA0 MLOAD PUSH2 0x1663 PUSH3 0x1CD PUSH1 0x0 CODECOPY PUSH1 0x0 DUP2 DUP2 PUSH2 0x389 ADD MSTORE PUSH2 0xC62 ADD MSTORE PUSH1 0x0 DUP2 DUP2 PUSH2 0x24E ADD MSTORE PUSH2 0xC9D ADD MSTORE PUSH2 0x1663 PUSH1 0x0 RETURN INVALID PUSH1 0x80 PUSH1 0x40 MSTORE CALLVALUE DUP1 ISZERO PUSH2 0x10 JUMPI PUSH1 0x0 DUP1 REVERT JUMPDEST POP PUSH1 0x4 CALLDATASIZE LT PUSH2 0x149 JUMPI PUSH1 0x0 CALLDATALOAD PUSH1 0xE0 SHR DUP1 PUSH4 0x6531079 EQ PUSH2 0x14E JUMPI DUP1 PUSH4 0x10E4E019 EQ PUSH2 0x163 JUMPI DUP1 PUSH4 0x1F10A89A EQ PUSH2 0x176 JUMPI DUP1 PUSH4 0x2FA81A71 EQ PUSH2 0x189 JUMPI DUP1 PUSH4 0x3BCD77DA EQ PUSH2 0x1B2 JUMPI DUP1 PUSH4 0x4228E221 EQ PUSH2 0x216 JUMPI DUP1 PUSH4 0x45C44A1B EQ PUSH2 0x22D JUMPI DUP1 PUSH4 0x481C6A75 EQ PUSH2 0x236 JUMPI DUP1 PUSH4 0x484F4EA9 EQ PUSH2 0x249 JUMPI DUP1 PUSH4 0x4BCF529D EQ PUSH2 0x270 JUMPI DUP1 PUSH4 0x5C975ABB EQ PUSH2 0x283 JUMPI DUP1 PUSH4 0x61D027B3 EQ PUSH2 0x29B JUMPI DUP1 PUSH4 0x715018A6 EQ PUSH2 0x2AE JUMPI DUP1 PUSH4 0x7584F914 EQ PUSH2 0x2B6 JUMPI DUP1 PUSH4 0x814CBF30 EQ PUSH2 0x32E JUMPI DUP1 PUSH4 0x844ED61D EQ PUSH2 0x341 JUMPI DUP1 PUSH4 0x8DA5CB5B EQ PUSH2 0x361 JUMPI DUP1 PUSH4 0xBC9113F0 EQ PUSH2 0x369 JUMPI DUP1 PUSH4 0xBEDB86FB EQ PUSH2 0x371 JUMPI DUP1 PUSH4 0xC54E44EB EQ PUSH2 0x384 JUMPI DUP1 PUSH4 0xD0EBDBE7 EQ PUSH2 0x3AB JUMPI DUP1 PUSH4 0xE0DA260C EQ PUSH2 0x3BE JUMPI DUP1 PUSH4 0xF0F44260 EQ PUSH2 0x3D1 JUMPI DUP1 PUSH4 0xF2FDE38B EQ PUSH2 0x3E4 JUMPI DUP1 PUSH4 0xF58CF3FF EQ PUSH2 0x3F7 JUMPI DUP1 PUSH4 0xFE3CDE3F EQ PUSH2 0x400 JUMPI DUP1 PUSH4 0xFECBA3A5 EQ PUSH2 0x413 JUMPI JUMPDEST PUSH1 0x0 DUP1 REVERT JUMPDEST PUSH2 0x161 PUSH2 0x15C CALLDATASIZE PUSH1 0x4 PUSH2 0x129D JUMP JUMPDEST PUSH2 0x426 JUMP JUMPDEST STOP JUMPDEST PUSH2 0x161 PUSH2 0x171 CALLDATASIZE PUSH1 0x4 PUSH2 0x12B6 JUMP JUMPDEST PUSH2 0x43F JUMP JUMPDEST PUSH2 0x161 PUSH2 0x184 CALLDATASIZE PUSH1 0x4 PUSH2 0x129D JUMP JUMPDEST PUSH2 0x551 JUMP JUMPDEST PUSH1 0x9 SLOAD PUSH2 0x19C SWAP1 PUSH1 0x1 PUSH1 0x1 PUSH1 0xA0 SHL SUB AND DUP2 JUMP JUMPDEST PUSH1 0x40 MLOAD PUSH2 0x1A9 SWAP2 SWAP1 PUSH2 0x12E2 JUMP JUMPDEST PUSH1 0x40 MLOAD DUP1 SWAP2 SUB SWAP1 RETURN JUMPDEST PUSH2 0x1EE PUSH2 0x1C0 CALLDATASIZE PUSH1 0x4 PUSH2 0x129D JUMP JUMPDEST PUSH1 0x1 PUSH1 0x20 DUP2 SWAP1 MSTORE PUSH1 0x0 SWAP2 DUP3 MSTORE PUSH1 0x40 SWAP1 SWAP2 KECCAK256 DUP1 SLOAD SWAP2 DUP2 ADD SLOAD PUSH1 0x2 DUP3 ADD SLOAD PUSH1 0x4 DUP4 ADD SLOAD PUSH1 0x5 SWAP1 SWAP4 ADD SLOAD SWAP2 SWAP3 SWAP1 SWAP2 DUP6 JUMP JUMPDEST PUSH1 0x40 DUP1 MLOAD SWAP6 DUP7 MSTORE PUSH1 0x20 DUP7 ADD SWAP5 SWAP1 SWAP5 MSTORE SWAP3 DUP5 ADD SWAP2 SWAP1 SWAP2 MSTORE PUSH1 0x60 DUP4 ADD MSTORE PUSH1 0x80 DUP3 ADD MSTORE PUSH1 0xA0 ADD PUSH2 0x1A9 JUMP JUMPDEST PUSH2 0x21F PUSH1 0x5 SLOAD DUP2 JUMP JUMPDEST PUSH1 0x40 MLOAD SWAP1 DUP2 MSTORE PUSH1 0x20 ADD PUSH2 0x1A9 JUMP JUMPDEST PUSH2 0x21F PUSH1 0x7 SLOAD DUP2 JUMP JUMPDEST PUSH1 0x4 SLOAD PUSH2 0x19C SWAP1 PUSH1 0x1 PUSH1 0x1 PUSH1 0xA0 SHL SUB AND DUP2 JUMP JUMPDEST PUSH2 0x19C PUSH32 0x0 DUP2 JUMP JUMPDEST PUSH2 0x161 PUSH2 0x27E CALLDATASIZE PUSH1 0x4 PUSH2 0x129D JUMP JUMPDEST PUSH2 0x55E JUMP JUMPDEST PUSH2 0x28B PUSH2 0x56B JUMP JUMPDEST PUSH1 0x40 MLOAD SWAP1 ISZERO ISZERO DUP2 MSTORE PUSH1 0x20 ADD PUSH2 0x1A9 JUMP JUMPDEST PUSH1 0x3 SLOAD PUSH2 0x19C SWAP1 PUSH1 0x1 PUSH1 0x1 PUSH1 0xA0 SHL SUB AND DUP2 JUMP JUMPDEST PUSH2 0x161 PUSH2 0x57B JUMP JUMPDEST PUSH2 0x302 PUSH2 0x2C4 CALLDATASIZE PUSH1 0x4 PUSH2 0x1312 JUMP JUMPDEST PUSH1 0x2 PUSH1 0x20 DUP2 DUP2 MSTORE PUSH1 0x0 SWAP4 DUP5 MSTORE PUSH1 0x40 DUP1 DUP6 KECCAK256 SWAP1 SWAP2 MSTORE SWAP2 DUP4 MSTORE SWAP2 KECCAK256 DUP1 SLOAD PUSH1 0x1 DUP3 ADD SLOAD SWAP3 DUP3 ADD SLOAD PUSH1 0x3 SWAP1 SWAP3 ADD SLOAD PUSH1 0x1 PUSH1 0x1 PUSH1 0xA0 SHL SUB SWAP1 SWAP2 AND SWAP3 SWAP2 SWAP1 PUSH1 0xFF AND DUP5 JUMP JUMPDEST PUSH1 0x40 DUP1 MLOAD PUSH1 0x1 PUSH1 0x1 PUSH1 0xA0 SHL SUB SWAP1 SWAP6 AND DUP6 MSTORE PUSH1 0x20 DUP6 ADD SWAP4 SWAP1 SWAP4 MSTORE SWAP2 DUP4 ADD MSTORE ISZERO ISZERO PUSH1 0x60 DUP3 ADD MSTORE PUSH1 0x80 ADD PUSH2 0x1A9 JUMP JUMPDEST PUSH2 0x161 PUSH2 0x33C CALLDATASIZE PUSH1 0x4 PUSH2 0x129D JUMP JUMPDEST PUSH2 0x58F JUMP JUMPDEST PUSH2 0x354 PUSH2 0x34F CALLDATASIZE PUSH1 0x4 PUSH2 0x129D JUMP JUMPDEST PUSH2 0x59C JUMP JUMPDEST PUSH1 0x40 MLOAD PUSH2 0x1A9 SWAP2 SWAP1 PUSH2 0x133E JUMP JUMPDEST PUSH2 0x19C PUSH2 0x663 JUMP JUMPDEST PUSH2 0x21F PUSH1 0x8 DUP2 JUMP JUMPDEST PUSH2 0x161 PUSH2 0x37F CALLDATASIZE PUSH1 0x4 PUSH2 0x1399 JUMP JUMPDEST PUSH2 0x672 JUMP JUMPDEST PUSH2 0x19C PUSH32 0x0 DUP2 JUMP JUMPDEST PUSH2 0x161 PUSH2 0x3B9 CALLDATASIZE PUSH1 0x4 PUSH2 0x13BD JUMP JUMPDEST PUSH2 0x693 JUMP JUMPDEST PUSH2 0x161 PUSH2 0x3CC CALLDATASIZE PUSH1 0x4 PUSH2 0x129D JUMP JUMPDEST PUSH2 0x6BD JUMP JUMPDEST PUSH2 0x161 PUSH2 0x3DF CALLDATASIZE PUSH1 0x4 PUSH2 0x13BD JUMP JUMPDEST PUSH2 0x9D6 JUMP JUMPDEST PUSH2 0x161 PUSH2 0x3F2 CALLDATASIZE PUSH1 0x4 PUSH2 0x13BD JUMP JUMPDEST PUSH2 0xA00 JUMP JUMPDEST PUSH2 0x21F PUSH1 0x8 SLOAD DUP2 JUMP JUMPDEST PUSH2 0x161 PUSH2 0x40E CALLDATASIZE PUSH1 0x4 PUSH2 0x129D JUMP JUMPDEST PUSH2 0xA76 JUMP JUMPDEST PUSH2 0x161 PUSH2 0x421 CALLDATASIZE PUSH1 0x4 PUSH2 0x13D8 JUMP JUMPDEST PUSH2 0xA8F JUMP JUMPDEST PUSH2 0x42E PUSH2 0xF28 JUMP JUMPDEST PUSH2 0x439 DUP2 PUSH1 0x3C PUSH2 0x1423 JUMP JUMPDEST PUSH1 0xB SSTORE POP JUMP JUMPDEST PUSH2 0x447 PUSH2 0xF87 JUMP JUMPDEST PUSH1 0x4 SLOAD PUSH1 0x1 PUSH1 0x1 PUSH1 0xA0 SHL SUB AND CALLER EQ PUSH2 0x494 JUMPI PUSH1 0x40 MLOAD PUSH3 0x461BCD PUSH1 0xE5 SHL DUP2 MSTORE PUSH1 0x20 PUSH1 0x4 DUP3 ADD MSTORE PUSH1 0xB PUSH1 0x24 DUP3 ADD MSTORE PUSH11 0x2737BA1036B0B730B3B2B9 PUSH1 0xA9 SHL PUSH1 0x44 DUP3 ADD MSTORE PUSH1 0x64 ADD JUMPDEST PUSH1 0x40 MLOAD DUP1 SWAP2 SUB SWAP1 REVERT JUMPDEST PUSH1 0x0 DUP4 DUP2 MSTORE PUSH1 0x1 PUSH1 0x20 MSTORE PUSH1 0x40 SWAP1 KECCAK256 SLOAD ISZERO PUSH2 0x4E1 JUMPI PUSH1 0x40 MLOAD PUSH3 0x461BCD PUSH1 0xE5 SHL DUP2 MSTORE PUSH1 0x20 PUSH1 0x4 DUP3 ADD MSTORE PUSH1 0xE PUSH1 0x24 DUP3 ADD MSTORE PUSH14 0x616C726561647920657869737473 PUSH1 0x90 SHL PUSH1 0x44 DUP3 ADD MSTORE PUSH1 0x64 ADD PUSH2 0x48B JUMP JUMPDEST PUSH1 0x0 DUP4 DUP2 MSTORE PUSH1 0x1 PUSH1 0x20 DUP2 SWAP1 MSTORE PUSH1 0x40 SWAP2 DUP3 SWAP1 KECCAK256 DUP6 DUP2 SSTORE SWAP1 DUP2 ADD DUP5 SWAP1 SSTORE TIMESTAMP PUSH1 0x2 DUP3 ADD DUP2 SWAP1 SSTORE PUSH1 0x4 SWAP1 SWAP2 ADD DUP4 SWAP1 SSTORE SWAP1 MLOAD DUP5 SWAP2 PUSH32 0xE0676B694D0BFE16E5E764F5D05A4DA18534EFE97B72A21AA785E3E6767B42C1 SWAP2 PUSH2 0x544 SWAP2 DUP7 DUP3 MSTORE PUSH1 0x20 DUP3 ADD MSTORE PUSH1 0x40 ADD SWAP1 JUMP JUMPDEST PUSH1 0x40 MLOAD DUP1 SWAP2 SUB SWAP1 LOG2 POP POP POP JUMP JUMPDEST PUSH2 0x559 PUSH2 0xF28 JUMP JUMPDEST PUSH1 0x7 SSTORE JUMP JUMPDEST PUSH2 0x566 PUSH2 0xF28 JUMP JUMPDEST PUSH1 0x5 SSTORE JUMP JUMPDEST PUSH1 0x0 SLOAD PUSH1 0x1 PUSH1 0xA0 SHL SWAP1 DIV PUSH1 0xFF AND SWAP1 JUMP JUMPDEST PUSH2 0x583 PUSH2 0xF28 JUMP JUMPDEST PUSH2 0x58D PUSH1 0x0 PUSH2 0xFCF JUMP JUMPDEST JUMP JUMPDEST PUSH2 0x597 PUSH2 0xF28 JUMP JUMPDEST PUSH1 0x8 SSTORE JUMP JUMPDEST PUSH1 0x0 DUP2 DUP2 MSTORE PUSH1 0x1 PUSH1 0x20 MSTORE PUSH1 0x40 SWAP1 KECCAK256 PUSH1 0x3 ADD SLOAD PUSH1 0x60 SWAP1 PUSH1 0x1 PUSH1 0x1 PUSH1 0x40 SHL SUB DUP2 GT ISZERO PUSH2 0x5C8 JUMPI PUSH2 0x5C8 PUSH2 0x143A JUMP JUMPDEST PUSH1 0x40 MLOAD SWAP1 DUP1 DUP3 MSTORE DUP1 PUSH1 0x20 MUL PUSH1 0x20 ADD DUP3 ADD PUSH1 0x40 MSTORE DUP1 ISZERO PUSH2 0x5F1 JUMPI DUP2 PUSH1 0x20 ADD PUSH1 0x20 DUP3 MUL DUP1 CALLDATASIZE DUP4 CALLDATACOPY ADD SWAP1 POP JUMPDEST POP PUSH1 0x0 DUP4 DUP2 MSTORE PUSH1 0x1 PUSH1 0x20 SWAP1 DUP2 MSTORE PUSH1 0x40 SWAP2 DUP3 SWAP1 KECCAK256 PUSH1 0x3 ADD DUP1 SLOAD DUP4 MLOAD DUP2 DUP5 MUL DUP2 ADD DUP5 ADD SWAP1 SWAP5 MSTORE DUP1 DUP5 MSTORE SWAP4 SWAP5 POP SWAP2 SWAP3 SWAP1 DUP4 ADD DUP3 DUP3 DUP1 ISZERO PUSH2 0x657 JUMPI PUSH1 0x20 MUL DUP3 ADD SWAP2 SWAP1 PUSH1 0x0 MSTORE PUSH1 0x20 PUSH1 0x0 KECCAK256 SWAP1 JUMPDEST DUP2 SLOAD PUSH1 0x1 PUSH1 0x1 PUSH1 0xA0 SHL SUB AND DUP2 MSTORE PUSH1 0x1 SWAP1 SWAP2 ADD SWAP1 PUSH1 0x20 ADD DUP1 DUP4 GT PUSH2 0x639 JUMPI JUMPDEST POP POP POP POP POP SWAP1 POP SWAP2 SWAP1 POP JUMP JUMPDEST PUSH1 0x0 SLOAD PUSH1 0x1 PUSH1 0x1 PUSH1 0xA0 SHL SUB AND SWAP1 JUMP JUMPDEST PUSH2 0x67A PUSH2 0xF28 JUMP JUMPDEST DUP1 ISZERO PUSH2 0x68B JUMPI PUSH2 0x688 PUSH2 0x101F JUMP JUMPDEST POP JUMP JUMPDEST PUSH2 0x688 PUSH2 0x1079 JUMP JUMPDEST PUSH2 0x69B PUSH2 0xF28 JUMP JUMPDEST PUSH1 0x4 DUP1 SLOAD PUSH1 0x1 PUSH1 0x1 PUSH1 0xA0 SHL SUB NOT AND PUSH1 0x1 PUSH1 0x1 PUSH1 0xA0 SHL SUB SWAP3 SWAP1 SWAP3 AND SWAP2 SWAP1 SWAP2 OR SWAP1 SSTORE JUMP JUMPDEST PUSH1 0x0 DUP2 DUP2 MSTORE PUSH1 0x2 PUSH1 0x20 SWAP1 DUP2 MSTORE PUSH1 0x40 DUP1 DUP4 KECCAK256 CALLER DUP5 MSTORE SWAP1 SWAP2 MSTORE SWAP1 KECCAK256 PUSH1 0x3 ADD SLOAD PUSH1 0xFF AND ISZERO PUSH2 0x71F JUMPI PUSH1 0x40 MLOAD PUSH3 0x461BCD PUSH1 0xE5 SHL DUP2 MSTORE PUSH1 0x20 PUSH1 0x4 DUP3 ADD MSTORE PUSH1 0x12 PUSH1 0x24 DUP3 ADD MSTORE PUSH18 0x185B1C9958591E481DDA5D1A191C985DD959 PUSH1 0x72 SHL PUSH1 0x44 DUP3 ADD MSTORE PUSH1 0x64 ADD PUSH2 0x48B JUMP JUMPDEST PUSH1 0xB SLOAD PUSH1 0x0 DUP3 DUP2 MSTORE PUSH1 0x2 PUSH1 0x20 DUP2 DUP2 MSTORE PUSH1 0x40 DUP1 DUP5 KECCAK256 CALLER DUP6 MSTORE SWAP1 SWAP2 MSTORE SWAP1 SWAP2 KECCAK256 ADD SLOAD TIMESTAMP SWAP2 PUSH2 0x749 SWAP2 PUSH2 0x1450 JUMP JUMPDEST LT PUSH2 0x782 JUMPI PUSH1 0x40 MLOAD PUSH3 0x461BCD PUSH1 0xE5 SHL DUP2 MSTORE PUSH1 0x20 PUSH1 0x4 DUP3 ADD MSTORE PUSH1 0x9 PUSH1 0x24 DUP3 ADD MSTORE PUSH9 0x6E6F74207265616479 PUSH1 0xB8 SHL PUSH1 0x44 DUP3 ADD MSTORE PUSH1 0x64 ADD PUSH2 0x48B JUMP JUMPDEST PUSH1 0x0 DUP2 DUP2 MSTORE PUSH1 0x2 PUSH1 0x20 SWAP1 DUP2 MSTORE PUSH1 0x40 DUP1 DUP4 KECCAK256 CALLER DUP5 MSTORE SWAP1 SWAP2 MSTORE DUP2 KECCAK256 PUSH1 0x1 ADD SLOAD SWAP1 SUB PUSH2 0x7D7 JUMPI PUSH1 0x40 MLOAD PUSH3 0x461BCD PUSH1 0xE5 SHL DUP2 MSTORE PUSH1 0x20 PUSH1 0x4 DUP3 ADD MSTORE PUSH1 0x7 PUSH1 0x24 DUP3 ADD MSTORE PUSH7 0x3737903AB9B2B9 PUSH1 0xC9 SHL PUSH1 0x44 DUP3 ADD MSTORE PUSH1 0x64 ADD PUSH2 0x48B JUMP JUMPDEST PUSH1 0x0 DUP1 JUMPDEST PUSH1 0x0 DUP4 DUP2 MSTORE PUSH1 0x1 PUSH1 0x20 MSTORE PUSH1 0x40 SWAP1 KECCAK256 PUSH1 0x3 ADD SLOAD DUP2 LT ISZERO PUSH2 0x84F JUMPI PUSH1 0x0 DUP4 DUP2 MSTORE PUSH1 0x1 PUSH1 0x20 MSTORE PUSH1 0x40 SWAP1 KECCAK256 PUSH1 0x3 ADD DUP1 SLOAD CALLER SWAP2 SWAP1 DUP4 SWAP1 DUP2 LT PUSH2 0x81A JUMPI PUSH2 0x81A PUSH2 0x1463 JUMP JUMPDEST PUSH1 0x0 SWAP2 DUP3 MSTORE PUSH1 0x20 SWAP1 SWAP2 KECCAK256 ADD SLOAD PUSH1 0x1 PUSH1 0x1 PUSH1 0xA0 SHL SUB AND SUB PUSH2 0x83D JUMPI PUSH1 0x1 SWAP2 POP PUSH2 0x84F JUMP JUMPDEST DUP1 PUSH2 0x847 DUP2 PUSH2 0x1479 JUMP JUMPDEST SWAP2 POP POP PUSH2 0x7DB JUMP JUMPDEST POP PUSH1 0x1 DUP2 ISZERO ISZERO EQ PUSH2 0x862 JUMPI PUSH2 0x862 PUSH2 0x1492 JUMP JUMPDEST PUSH1 0x6 SLOAD PUSH1 0x5 SLOAD PUSH1 0x0 DUP5 DUP2 MSTORE PUSH1 0x1 PUSH1 0x20 DUP2 SWAP1 MSTORE PUSH1 0x40 DUP3 KECCAK256 ADD SLOAD SWAP1 SWAP3 SWAP2 PUSH2 0x886 SWAP2 PUSH2 0x1423 JUMP JUMPDEST PUSH2 0x890 SWAP2 SWAP1 PUSH2 0x14A8 JUMP JUMPDEST PUSH1 0x0 DUP5 DUP2 MSTORE PUSH1 0x1 PUSH1 0x20 DUP2 DUP2 MSTORE PUSH1 0x40 DUP1 DUP5 KECCAK256 PUSH1 0x5 DUP2 ADD SLOAD SWAP1 DUP5 ADD SLOAD PUSH1 0x2 DUP5 MSTORE DUP3 DUP7 KECCAK256 CALLER DUP8 MSTORE SWAP1 SWAP4 MSTORE SWAP1 DUP5 KECCAK256 SWAP1 SWAP3 ADD SLOAD SWAP4 SWAP5 POP SWAP2 SWAP3 SWAP1 SWAP2 PUSH2 0x8CE SWAP2 PUSH2 0x1423 JUMP JUMPDEST PUSH2 0x8D8 SWAP2 SWAP1 PUSH2 0x14A8 JUMP JUMPDEST PUSH1 0x0 DUP6 DUP2 MSTORE PUSH1 0x2 PUSH1 0x20 SWAP1 DUP2 MSTORE PUSH1 0x40 DUP1 DUP4 KECCAK256 CALLER DUP1 DUP6 MSTORE SWAP3 MSTORE SWAP1 SWAP2 KECCAK256 PUSH1 0x3 ADD DUP1 SLOAD PUSH1 0xFF NOT AND PUSH1 0x1 OR SWAP1 SSTORE PUSH1 0x9 SLOAD SWAP2 SWAP3 POP PUSH1 0x1 PUSH1 0x1 PUSH1 0xA0 SHL SUB SWAP2 SWAP1 SWAP2 AND SWAP1 PUSH4 0xA9059CBB SWAP1 PUSH2 0x923 DUP5 DUP7 PUSH2 0x1450 JUMP JUMPDEST PUSH1 0x40 MLOAD PUSH1 0x1 PUSH1 0x1 PUSH1 0xE0 SHL SUB NOT PUSH1 0xE0 DUP6 SWAP1 SHL AND DUP2 MSTORE PUSH1 0x1 PUSH1 0x1 PUSH1 0xA0 SHL SUB SWAP1 SWAP3 AND PUSH1 0x4 DUP4 ADD MSTORE PUSH1 0x24 DUP3 ADD MSTORE PUSH1 0x44 ADD PUSH1 0x20 PUSH1 0x40 MLOAD DUP1 DUP4 SUB DUP2 PUSH1 0x0 DUP8 GAS CALL ISZERO DUP1 ISZERO PUSH2 0x96E JUMPI RETURNDATASIZE PUSH1 0x0 DUP1 RETURNDATACOPY RETURNDATASIZE PUSH1 0x0 REVERT JUMPDEST POP POP POP POP PUSH1 0x40 MLOAD RETURNDATASIZE PUSH1 0x1F NOT PUSH1 0x1F DUP3 ADD AND DUP3 ADD DUP1 PUSH1 0x40 MSTORE POP DUP2 ADD SWAP1 PUSH2 0x992 SWAP2 SWAP1 PUSH2 0x14CA JUMP JUMPDEST POP PUSH1 0x40 DUP1 MLOAD DUP3 DUP2 MSTORE PUSH1 0x20 DUP2 ADD DUP5 SWAP1 MSTORE CALLER SWAP2 DUP7 SWAP2 PUSH32 0xB0ECF14E184EFFDED5473BBA77DCFAB32B094B77AC1FBB36BEEC2AEF55587970 SWAP2 ADD PUSH1 0x40 MLOAD DUP1 SWAP2 SUB SWAP1 LOG3 POP POP POP POP JUMP JUMPDEST PUSH2 0x9DE PUSH2 0xF28 JUMP JUMPDEST PUSH1 0x3 DUP1 SLOAD PUSH1 0x1 PUSH1 0x1 PUSH1 0xA0 SHL SUB NOT AND PUSH1 0x1 PUSH1 0x1 PUSH1 0xA0 SHL SUB SWAP3 SWAP1 SWAP3 AND SWAP2 SWAP1 SWAP2 OR SWAP1 SSTORE JUMP JUMPDEST PUSH2 0xA08 PUSH2 0xF28 JUMP JUMPDEST PUSH1 0x1 PUSH1 0x1 PUSH1 0xA0 SHL SUB DUP2 AND PUSH2 0xA6D JUMPI PUSH1 0x40 MLOAD PUSH3 0x461BCD PUSH1 0xE5 SHL DUP2 MSTORE PUSH1 0x20 PUSH1 0x4 DUP3 ADD MSTORE PUSH1 0x26 PUSH1 0x24 DUP3 ADD MSTORE PUSH32 0x4F776E61626C653A206E6577206F776E657220697320746865207A65726F2061 PUSH1 0x44 DUP3 ADD MSTORE PUSH6 0x646472657373 PUSH1 0xD0 SHL PUSH1 0x64 DUP3 ADD MSTORE PUSH1 0x84 ADD PUSH2 0x48B JUMP JUMPDEST PUSH2 0x688 DUP2 PUSH2 0xFCF JUMP JUMPDEST PUSH2 0xA7E PUSH2 0xF28 JUMP JUMPDEST PUSH2 0xA89 DUP2 PUSH1 0x3C PUSH2 0x1423 JUMP JUMPDEST PUSH1 0xA SSTORE POP JUMP JUMPDEST PUSH2 0xA97 PUSH2 0xF87 JUMP JUMPDEST PUSH1 0x0 DUP4 DUP2 MSTORE PUSH1 0x1 PUSH1 0x20 MSTORE PUSH1 0x40 SWAP1 KECCAK256 SLOAD ISZERO DUP1 ISZERO SWAP1 PUSH2 0xAC5 JUMPI POP PUSH1 0x0 DUP4 DUP2 MSTORE PUSH1 0x1 PUSH1 0x20 DUP2 SWAP1 MSTORE PUSH1 0x40 SWAP1 SWAP2 KECCAK256 ADD SLOAD ISZERO ISZERO JUMPDEST DUP1 ISZERO PUSH2 0xAE1 JUMPI POP PUSH1 0x0 DUP4 DUP2 MSTORE PUSH1 0x1 PUSH1 0x20 MSTORE PUSH1 0x40 SWAP1 KECCAK256 PUSH1 0x2 ADD SLOAD ISZERO ISZERO JUMPDEST PUSH2 0xB1B JUMPI PUSH1 0x40 MLOAD PUSH3 0x461BCD PUSH1 0xE5 SHL DUP2 MSTORE PUSH1 0x20 PUSH1 0x4 DUP3 ADD MSTORE PUSH1 0xB PUSH1 0x24 DUP3 ADD MSTORE PUSH11 0x139BDD081A5B9A5D1A585B PUSH1 0xAA SHL PUSH1 0x44 DUP3 ADD MSTORE PUSH1 0x64 ADD PUSH2 0x48B JUMP JUMPDEST PUSH1 0xA SLOAD PUSH1 0x0 DUP5 DUP2 MSTORE PUSH1 0x1 PUSH1 0x20 MSTORE PUSH1 0x40 SWAP1 KECCAK256 PUSH1 0x2 ADD SLOAD TIMESTAMP SWAP2 PUSH2 0xB3B SWAP2 PUSH2 0x1450 JUMP JUMPDEST GT PUSH2 0xB74 JUMPI PUSH1 0x40 MLOAD PUSH3 0x461BCD PUSH1 0xE5 SHL DUP2 MSTORE PUSH1 0x20 PUSH1 0x4 DUP3 ADD MSTORE PUSH1 0x9 PUSH1 0x24 DUP3 ADD MSTORE PUSH9 0x74696D65206F757421 PUSH1 0xB8 SHL PUSH1 0x44 DUP3 ADD MSTORE PUSH1 0x64 ADD PUSH2 0x48B JUMP JUMPDEST PUSH1 0x0 DUP4 DUP2 MSTORE PUSH1 0x2 PUSH1 0x20 SWAP1 DUP2 MSTORE PUSH1 0x40 DUP1 DUP4 KECCAK256 CALLER DUP5 MSTORE SWAP1 SWAP2 MSTORE SWAP1 KECCAK256 PUSH1 0x1 ADD SLOAD ISZERO PUSH2 0xBCE JUMPI PUSH1 0x40 MLOAD PUSH3 0x461BCD PUSH1 0xE5 SHL DUP2 MSTORE PUSH1 0x20 PUSH1 0x4 DUP3 ADD MSTORE PUSH1 0xD PUSH1 0x24 DUP3 ADD MSTORE PUSH13 0x63616E7420616464206D6F7265 PUSH1 0x98 SHL PUSH1 0x44 DUP3 ADD MSTORE PUSH1 0x64 ADD PUSH2 0x48B JUMP JUMPDEST PUSH2 0xBD8 DUP4 DUP3 PUSH2 0x10B5 JUMP JUMPDEST PUSH2 0xC15 JUMPI PUSH1 0x40 MLOAD PUSH3 0x461BCD PUSH1 0xE5 SHL DUP2 MSTORE PUSH1 0x20 PUSH1 0x4 DUP3 ADD MSTORE PUSH1 0xE PUSH1 0x24 DUP3 ADD MSTORE PUSH14 0x1A5B9D985B1A5908185B5BDD5B9D PUSH1 0x92 SHL PUSH1 0x44 DUP3 ADD MSTORE PUSH1 0x64 ADD PUSH2 0x48B JUMP JUMPDEST PUSH2 0xC1F DUP4 DUP3 PUSH2 0x11D7 JUMP JUMPDEST PUSH2 0xC60 JUMPI PUSH1 0x40 MLOAD PUSH3 0x461BCD PUSH1 0xE5 SHL DUP2 MSTORE PUSH1 0x20 PUSH1 0x4 DUP3 ADD MSTORE PUSH1 0x12 PUSH1 0x24 DUP3 ADD MSTORE PUSH18 0x195E18D9595908199D5B1B08185B5BDD5B9D PUSH1 0x72 SHL PUSH1 0x44 DUP3 ADD MSTORE PUSH1 0x64 ADD PUSH2 0x48B JUMP JUMPDEST PUSH32 0x0 PUSH1 0x1 PUSH1 0x1 PUSH1 0xA0 SHL SUB AND DUP3 PUSH1 0x1 PUSH1 0x1 PUSH1 0xA0 SHL SUB AND EQ DUP1 PUSH2 0xCD1 JUMPI POP PUSH32 0x0 PUSH1 0x1 PUSH1 0x1 PUSH1 0xA0 SHL SUB AND DUP3 PUSH1 0x1 PUSH1 0x1 PUSH1 0xA0 SHL SUB AND EQ JUMPDEST PUSH2 0xD12 JUMPI PUSH1 0x40 MLOAD PUSH3 0x461BCD PUSH1 0xE5 SHL DUP2 MSTORE PUSH1 0x20 PUSH1 0x4 DUP3 ADD MSTORE PUSH1 0x12 PUSH1 0x24 DUP3 ADD MSTORE PUSH18 0x3737BA1030BB30B4B630B136329031B7B4B7 PUSH1 0x71 SHL PUSH1 0x44 DUP3 ADD MSTORE PUSH1 0x64 ADD PUSH2 0x48B JUMP JUMPDEST PUSH1 0x0 DUP4 DUP2 MSTORE PUSH1 0x1 PUSH1 0x20 DUP2 DUP2 MSTORE PUSH1 0x40 DUP4 KECCAK256 PUSH1 0x3 DUP2 ADD DUP1 SLOAD SWAP4 DUP5 ADD DUP2 SSTORE DUP5 MSTORE SWAP1 DUP4 KECCAK256 SWAP1 SWAP2 ADD DUP1 SLOAD PUSH1 0x1 PUSH1 0x1 PUSH1 0xA0 SHL SUB NOT AND CALLER OR SWAP1 SSTORE DUP5 DUP3 MSTORE PUSH1 0x5 ADD DUP1 SLOAD DUP4 SWAP3 SWAP1 PUSH2 0xD5B SWAP1 DUP5 SWAP1 PUSH2 0x1450 JUMP JUMPDEST SWAP1 SWAP2 SSTORE POP POP PUSH1 0x0 DUP4 DUP2 MSTORE PUSH1 0x2 PUSH1 0x20 DUP2 DUP2 MSTORE PUSH1 0x40 DUP1 DUP5 KECCAK256 CALLER DUP1 DUP7 MSTORE SWAP1 DUP4 MSTORE DUP2 DUP6 KECCAK256 PUSH1 0x1 DUP1 DUP3 ADD DUP9 SWAP1 SSTORE DUP2 SLOAD PUSH1 0x1 PUSH1 0x1 PUSH1 0xA0 SHL SUB NOT AND PUSH1 0x1 PUSH1 0x1 PUSH1 0xA0 SHL SUB DUP11 DUP2 AND SWAP2 SWAP1 SWAP2 OR DUP4 SSTORE TIMESTAMP SWAP3 SWAP1 SWAP7 ADD SWAP2 SWAP1 SWAP2 SSTORE PUSH1 0x9 SLOAD PUSH1 0x6 SLOAD PUSH1 0x5 SLOAD DUP12 DUP10 MSTORE SWAP6 DUP4 SWAP1 MSTORE SWAP4 SWAP1 SWAP7 KECCAK256 ADD SLOAD SWAP5 SWAP1 SWAP4 AND SWAP4 PUSH4 0x23B872DD SWAP4 SWAP3 ADDRESS SWAP3 SWAP2 PUSH2 0xDD8 SWAP2 SWAP1 PUSH2 0x1423 JUMP JUMPDEST PUSH2 0xDE2 SWAP2 SWAP1 PUSH2 0x14A8 JUMP JUMPDEST PUSH1 0x40 MLOAD DUP5 PUSH4 0xFFFFFFFF AND PUSH1 0xE0 SHL DUP2 MSTORE PUSH1 0x4 ADD PUSH2 0xE00 SWAP4 SWAP3 SWAP2 SWAP1 PUSH2 0x14E7 JUMP JUMPDEST PUSH1 0x20 PUSH1 0x40 MLOAD DUP1 DUP4 SUB DUP2 PUSH1 0x0 DUP8 GAS CALL ISZERO DUP1 ISZERO PUSH2 0xE1F JUMPI RETURNDATASIZE PUSH1 0x0 DUP1 RETURNDATACOPY RETURNDATASIZE PUSH1 0x0 REVERT JUMPDEST POP POP POP POP PUSH1 0x40 MLOAD RETURNDATASIZE PUSH1 0x1F NOT PUSH1 0x1F DUP3 ADD AND DUP3 ADD DUP1 PUSH1 0x40 MSTORE POP DUP2 ADD SWAP1 PUSH2 0xE43 SWAP2 SWAP1 PUSH2 0x14CA JUMP JUMPDEST POP PUSH1 0x3 SLOAD PUSH1 0x40 MLOAD PUSH4 0x23B872DD PUSH1 0xE0 SHL DUP2 MSTORE PUSH1 0x1 PUSH1 0x1 PUSH1 0xA0 SHL SUB DUP1 DUP6 AND SWAP3 PUSH4 0x23B872DD SWAP3 PUSH2 0xE78 SWAP3 CALLER SWAP3 AND SWAP1 DUP7 SWAP1 PUSH1 0x4 ADD PUSH2 0x14E7 JUMP JUMPDEST PUSH1 0x20 PUSH1 0x40 MLOAD DUP1 DUP4 SUB DUP2 PUSH1 0x0 DUP8 GAS CALL ISZERO DUP1 ISZERO PUSH2 0xE97 JUMPI RETURNDATASIZE PUSH1 0x0 DUP1 RETURNDATACOPY RETURNDATASIZE PUSH1 0x0 REVERT JUMPDEST POP POP POP POP PUSH1 0x40 MLOAD RETURNDATASIZE PUSH1 0x1F NOT PUSH1 0x1F DUP3 ADD AND DUP3 ADD DUP1 PUSH1 0x40 MSTORE POP DUP2 ADD SWAP1 PUSH2 0xEBB SWAP2 SWAP1 PUSH2 0x14CA JUMP JUMPDEST POP PUSH1 0x0 DUP4 DUP2 MSTORE PUSH1 0x2 PUSH1 0x20 DUP2 DUP2 MSTORE PUSH1 0x40 DUP1 DUP5 KECCAK256 CALLER DUP1 DUP7 MSTORE SWAP1 DUP4 MSTORE SWAP4 DUP2 SWAP1 KECCAK256 SWAP1 SWAP3 ADD SLOAD DUP3 MLOAD PUSH1 0x1 PUSH1 0x1 PUSH1 0xA0 SHL SUB DUP8 AND DUP2 MSTORE SWAP2 DUP3 ADD DUP6 SWAP1 MSTORE DUP2 DUP4 ADD MSTORE SWAP1 MLOAD DUP6 SWAP2 PUSH32 0x7A82030CDCB2E8909ECF6432D973748C3C907EDE3A2D61FF7CC5B1C1B8DE4287 SWAP2 SWAP1 DUP2 SWAP1 SUB PUSH1 0x60 ADD SWAP1 LOG3 POP POP POP JUMP JUMPDEST CALLER PUSH2 0xF31 PUSH2 0x663 JUMP JUMPDEST PUSH1 0x1 PUSH1 0x1 PUSH1 0xA0 SHL SUB AND EQ PUSH2 0x58D JUMPI PUSH1 0x40 MLOAD PUSH3 0x461BCD PUSH1 0xE5 SHL DUP2 MSTORE PUSH1 0x20 PUSH1 0x4 DUP3 ADD DUP2 SWAP1 MSTORE PUSH1 0x24 DUP3 ADD MSTORE PUSH32 0x4F776E61626C653A2063616C6C6572206973206E6F7420746865206F776E6572 PUSH1 0x44 DUP3 ADD MSTORE PUSH1 0x64 ADD PUSH2 0x48B JUMP JUMPDEST PUSH2 0xF8F PUSH2 0x56B JUMP JUMPDEST ISZERO PUSH2 0x58D JUMPI PUSH1 0x40 MLOAD PUSH3 0x461BCD PUSH1 0xE5 SHL DUP2 MSTORE PUSH1 0x20 PUSH1 0x4 DUP3 ADD MSTORE PUSH1 0x10 PUSH1 0x24 DUP3 ADD MSTORE PUSH16 0x14185D5CD8589B194E881C185D5CD959 PUSH1 0x82 SHL PUSH1 0x44 DUP3 ADD MSTORE PUSH1 0x64 ADD PUSH2 0x48B JUMP JUMPDEST PUSH1 0x0 DUP1 SLOAD PUSH1 0x1 PUSH1 0x1 PUSH1 0xA0 SHL SUB DUP4 DUP2 AND PUSH1 0x1 PUSH1 0x1 PUSH1 0xA0 SHL SUB NOT DUP4 AND DUP2 OR DUP5 SSTORE PUSH1 0x40 MLOAD SWAP2 SWAP1 SWAP3 AND SWAP3 DUP4 SWAP2 PUSH32 0x8BE0079C531659141344CD1FD0A4F28419497F9722A3DAAFE3B4186F6B6457E0 SWAP2 SWAP1 LOG3 POP POP JUMP JUMPDEST PUSH2 0x1027 PUSH2 0xF87 JUMP JUMPDEST PUSH1 0x0 DUP1 SLOAD PUSH1 0xFF PUSH1 0xA0 SHL NOT AND PUSH1 0x1 PUSH1 0xA0 SHL OR SWAP1 SSTORE PUSH32 0x62E78CEA01BEE320CD4E420270B5EA74000D11B0C9F74754EBDBFC544B05A258 PUSH2 0x1062 CALLER SWAP1 JUMP JUMPDEST PUSH1 0x40 MLOAD PUSH2 0x106F SWAP2 SWAP1 PUSH2 0x12E2 JUMP JUMPDEST PUSH1 0x40 MLOAD DUP1 SWAP2 SUB SWAP1 LOG1 JUMP JUMPDEST PUSH2 0x1081 PUSH2 0x1252 JUMP JUMPDEST PUSH1 0x0 DUP1 SLOAD PUSH1 0xFF PUSH1 0xA0 SHL NOT AND SWAP1 SSTORE PUSH32 0x5DB9EE0A495BF2E6FF9C91A7834C1BA4FDD244A5E8AA4E537BD38AEAE4B073AA CALLER PUSH2 0x1062 JUMP JUMPDEST PUSH1 0x0 DUP2 PUSH2 0x10C4 PUSH1 0x8 PUSH1 0xA PUSH2 0x15EF JUMP JUMPDEST PUSH1 0x9 PUSH1 0x0 SWAP1 SLOAD SWAP1 PUSH2 0x100 EXP SWAP1 DIV PUSH1 0x1 PUSH1 0x1 PUSH1 0xA0 SHL SUB AND PUSH1 0x1 PUSH1 0x1 PUSH1 0xA0 SHL SUB AND PUSH4 0x313CE567 PUSH1 0x40 MLOAD DUP2 PUSH4 0xFFFFFFFF AND PUSH1 0xE0 SHL DUP2 MSTORE PUSH1 0x4 ADD PUSH1 0x20 PUSH1 0x40 MLOAD DUP1 DUP4 SUB DUP2 DUP7 GAS STATICCALL ISZERO DUP1 ISZERO PUSH2 0x1117 JUMPI RETURNDATASIZE PUSH1 0x0 DUP1 RETURNDATACOPY RETURNDATASIZE PUSH1 0x0 REVERT JUMPDEST POP POP POP POP PUSH1 0x40 MLOAD RETURNDATASIZE PUSH1 0x1F NOT PUSH1 0x1F DUP3 ADD AND DUP3 ADD DUP1 PUSH1 0x40 MSTORE POP DUP2 ADD SWAP1 PUSH2 0x113B SWAP2 SWAP1 PUSH2 0x15FB JUMP JUMPDEST PUSH2 0x1146 SWAP1 PUSH1 0xA PUSH2 0x161E JUMP JUMPDEST PUSH1 0x0 DUP7 DUP2 MSTORE PUSH1 0x1 PUSH1 0x20 MSTORE PUSH1 0x40 SWAP1 KECCAK256 PUSH1 0x4 ADD SLOAD PUSH2 0x1162 SWAP2 SWAP1 PUSH2 0x1423 JUMP JUMPDEST PUSH2 0x116C SWAP2 SWAP1 PUSH2 0x14A8 JUMP JUMPDEST GT ISZERO DUP1 ISZERO PUSH2 0x11CE JUMPI POP PUSH2 0x1181 PUSH1 0x8 PUSH1 0xA PUSH2 0x15EF JUMP JUMPDEST PUSH1 0x7 SLOAD PUSH1 0x0 DUP6 DUP2 MSTORE PUSH1 0x1 PUSH1 0x20 DUP2 SWAP1 MSTORE PUSH1 0x40 SWAP1 SWAP2 KECCAK256 SWAP1 DUP2 ADD SLOAD PUSH1 0x4 SWAP1 SWAP2 ADD SLOAD PUSH1 0x64 SWAP3 SWAP2 PUSH2 0x11AC SWAP2 PUSH2 0x1423 JUMP JUMPDEST PUSH2 0x11B6 SWAP2 SWAP1 PUSH2 0x1423 JUMP JUMPDEST PUSH2 0x11C0 SWAP2 SWAP1 PUSH2 0x14A8 JUMP JUMPDEST PUSH2 0x11CA SWAP2 SWAP1 PUSH2 0x14A8 JUMP JUMPDEST DUP3 GT ISZERO JUMPDEST SWAP1 POP JUMPDEST SWAP3 SWAP2 POP POP JUMP JUMPDEST PUSH1 0x0 PUSH2 0x11E5 PUSH1 0x8 PUSH1 0xA PUSH2 0x15EF JUMP JUMPDEST PUSH1 0x8 SLOAD PUSH1 0x0 DUP6 DUP2 MSTORE PUSH1 0x1 PUSH1 0x20 DUP2 SWAP1 MSTORE PUSH1 0x40 SWAP1 SWAP2 KECCAK256 PUSH1 0x4 DUP2 ADD SLOAD SWAP2 ADD SLOAD PUSH1 0x64 SWAP3 SWAP2 PUSH2 0x120E SWAP2 PUSH2 0x1423 JUMP JUMPDEST PUSH2 0x1218 SWAP2 SWAP1 PUSH2 0x1423 JUMP JUMPDEST PUSH2 0x1222 SWAP2 SWAP1 PUSH2 0x14A8 JUMP JUMPDEST PUSH2 0x122C SWAP2 SWAP1 PUSH2 0x14A8 JUMP JUMPDEST PUSH1 0x0 DUP5 DUP2 MSTORE PUSH1 0x1 PUSH1 0x20 MSTORE PUSH1 0x40 SWAP1 KECCAK256 PUSH1 0x5 ADD SLOAD PUSH2 0x1249 SWAP1 DUP5 SWAP1 PUSH2 0x1450 JUMP JUMPDEST GT ISZERO SWAP4 SWAP3 POP POP POP JUMP JUMPDEST PUSH2 0x125A PUSH2 0x56B JUMP JUMPDEST PUSH2 0x58D JUMPI PUSH1 0x40 MLOAD PUSH3 0x461BCD PUSH1 0xE5 SHL DUP2 MSTORE PUSH1 0x20 PUSH1 0x4 DUP3 ADD MSTORE PUSH1 0x14 PUSH1 0x24 DUP3 ADD MSTORE PUSH20 0x14185D5CD8589B194E881B9BDD081C185D5CD959 PUSH1 0x62 SHL PUSH1 0x44 DUP3 ADD MSTORE PUSH1 0x64 ADD PUSH2 0x48B JUMP JUMPDEST PUSH1 0x0 PUSH1 0x20 DUP3 DUP5 SUB SLT ISZERO PUSH2 0x12AF JUMPI PUSH1 0x0 DUP1 REVERT JUMPDEST POP CALLDATALOAD SWAP2 SWAP1 POP JUMP JUMPDEST PUSH1 0x0 DUP1 PUSH1 0x0 PUSH1 0x60 DUP5 DUP7 SUB SLT ISZERO PUSH2 0x12CB JUMPI PUSH1 0x0 DUP1 REVERT JUMPDEST POP POP DUP2 CALLDATALOAD SWAP4 PUSH1 0x20 DUP4 ADD CALLDATALOAD SWAP4 POP PUSH1 0x40 SWAP1 SWAP3 ADD CALLDATALOAD SWAP2 SWAP1 POP JUMP JUMPDEST PUSH1 0x1 PUSH1 0x1 PUSH1 0xA0 SHL SUB SWAP2 SWAP1 SWAP2 AND DUP2 MSTORE PUSH1 0x20 ADD SWAP1 JUMP JUMPDEST DUP1 CALLDATALOAD PUSH1 0x1 PUSH1 0x1 PUSH1 0xA0 SHL SUB DUP2 AND DUP2 EQ PUSH2 0x130D JUMPI PUSH1 0x0 DUP1 REVERT JUMPDEST SWAP2 SWAP1 POP JUMP JUMPDEST PUSH1 0x0 DUP1 PUSH1 0x40 DUP4 DUP6 SUB SLT ISZERO PUSH2 0x1325 JUMPI PUSH1 0x0 DUP1 REVERT JUMPDEST DUP3 CALLDATALOAD SWAP2 POP PUSH2 0x1335 PUSH1 0x20 DUP5 ADD PUSH2 0x12F6 JUMP JUMPDEST SWAP1 POP SWAP3 POP SWAP3 SWAP1 POP JUMP JUMPDEST PUSH1 0x20 DUP1 DUP3 MSTORE DUP3 MLOAD DUP3 DUP3 ADD DUP2 SWAP1 MSTORE PUSH1 0x0 SWAP2 SWAP1 DUP5 DUP3 ADD SWAP1 PUSH1 0x40 DUP6 ADD SWAP1 DUP5 JUMPDEST DUP2 DUP2 LT ISZERO PUSH2 0x137F JUMPI DUP4 MLOAD PUSH1 0x1 PUSH1 0x1 PUSH1 0xA0 SHL SUB AND DUP4 MSTORE SWAP3 DUP5 ADD SWAP3 SWAP2 DUP5 ADD SWAP2 PUSH1 0x1 ADD PUSH2 0x135A JUMP JUMPDEST POP SWAP1 SWAP7 SWAP6 POP POP POP POP POP POP JUMP JUMPDEST DUP1 ISZERO ISZERO DUP2 EQ PUSH2 0x688 JUMPI PUSH1 0x0 DUP1 REVERT JUMPDEST PUSH1 0x0 PUSH1 0x20 DUP3 DUP5 SUB SLT ISZERO PUSH2 0x13AB JUMPI PUSH1 0x0 DUP1 REVERT JUMPDEST DUP2 CALLDATALOAD PUSH2 0x13B6 DUP2 PUSH2 0x138B JUMP JUMPDEST SWAP4 SWAP3 POP POP POP JUMP JUMPDEST PUSH1 0x0 PUSH1 0x20 DUP3 DUP5 SUB SLT ISZERO PUSH2 0x13CF JUMPI PUSH1 0x0 DUP1 REVERT JUMPDEST PUSH2 0x11CE DUP3 PUSH2 0x12F6 JUMP JUMPDEST PUSH1 0x0 DUP1 PUSH1 0x0 PUSH1 0x60 DUP5 DUP7 SUB SLT ISZERO PUSH2 0x13ED JUMPI PUSH1 0x0 DUP1 REVERT JUMPDEST DUP4 CALLDATALOAD SWAP3 POP PUSH2 0x13FD PUSH1 0x20 DUP6 ADD PUSH2 0x12F6 JUMP JUMPDEST SWAP2 POP PUSH1 0x40 DUP5 ADD CALLDATALOAD SWAP1 POP SWAP3 POP SWAP3 POP SWAP3 JUMP JUMPDEST PUSH4 0x4E487B71 PUSH1 0xE0 SHL PUSH1 0x0 MSTORE PUSH1 0x11 PUSH1 0x4 MSTORE PUSH1 0x24 PUSH1 0x0 REVERT JUMPDEST DUP1 DUP3 MUL DUP2 ISZERO DUP3 DUP3 DIV DUP5 EQ OR PUSH2 0x11D1 JUMPI PUSH2 0x11D1 PUSH2 0x140D JUMP JUMPDEST PUSH4 0x4E487B71 PUSH1 0xE0 SHL PUSH1 0x0 MSTORE PUSH1 0x41 PUSH1 0x4 MSTORE PUSH1 0x24 PUSH1 0x0 REVERT JUMPDEST DUP1 DUP3 ADD DUP1 DUP3 GT ISZERO PUSH2 0x11D1 JUMPI PUSH2 0x11D1 PUSH2 0x140D JUMP JUMPDEST PUSH4 0x4E487B71 PUSH1 0xE0 SHL PUSH1 0x0 MSTORE PUSH1 0x32 PUSH1 0x4 MSTORE PUSH1 0x24 PUSH1 0x0 REVERT JUMPDEST PUSH1 0x0 PUSH1 0x1 DUP3 ADD PUSH2 0x148B JUMPI PUSH2 0x148B PUSH2 0x140D JUMP JUMPDEST POP PUSH1 0x1 ADD SWAP1 JUMP JUMPDEST PUSH4 0x4E487B71 PUSH1 0xE0 SHL PUSH1 0x0 MSTORE PUSH1 0x1 PUSH1 0x4 MSTORE PUSH1 0x24 PUSH1 0x0 REVERT JUMPDEST PUSH1 0x0 DUP3 PUSH2 0x14C5 JUMPI PUSH4 0x4E487B71 PUSH1 0xE0 SHL PUSH1 0x0 MSTORE PUSH1 0x12 PUSH1 0x4 MSTORE PUSH1 0x24 PUSH1 0x0 REVERT JUMPDEST POP DIV SWAP1 JUMP JUMPDEST PUSH1 0x0 PUSH1 0x20 DUP3 DUP5 SUB SLT ISZERO PUSH2 0x14DC JUMPI PUSH1 0x0 DUP1 REVERT JUMPDEST DUP2 MLOAD PUSH2 0x13B6 DUP2 PUSH2 0x138B JUMP JUMPDEST PUSH1 0x1 PUSH1 0x1 PUSH1 0xA0 SHL SUB SWAP4 DUP5 AND DUP2 MSTORE SWAP2 SWAP1 SWAP3 AND PUSH1 0x20 DUP3 ADD MSTORE PUSH1 0x40 DUP2 ADD SWAP2 SWAP1 SWAP2 MSTORE PUSH1 0x60 ADD SWAP1 JUMP JUMPDEST PUSH1 0x1 DUP2 DUP2 JUMPDEST DUP1 DUP6 GT ISZERO PUSH2 0x1546 JUMPI DUP2 PUSH1 0x0 NOT DIV DUP3 GT ISZERO PUSH2 0x152C JUMPI PUSH2 0x152C PUSH2 0x140D JUMP JUMPDEST DUP1 DUP6 AND ISZERO PUSH2 0x1539 JUMPI SWAP2 DUP2 MUL SWAP2 JUMPDEST SWAP4 DUP5 SHR SWAP4 SWAP1 DUP1 MUL SWAP1 PUSH2 0x1510 JUMP JUMPDEST POP SWAP3 POP SWAP3 SWAP1 POP JUMP JUMPDEST PUSH1 0x0 DUP3 PUSH2 0x155D JUMPI POP PUSH1 0x1 PUSH2 0x11D1 JUMP JUMPDEST DUP2 PUSH2 0x156A JUMPI POP PUSH1 0x0 PUSH2 0x11D1 JUMP JUMPDEST DUP2 PUSH1 0x1 DUP2 EQ PUSH2 0x1580 JUMPI PUSH1 0x2 DUP2 EQ PUSH2 0x158A JUMPI PUSH2 0x15A6 JUMP JUMPDEST PUSH1 0x1 SWAP2 POP POP PUSH2 0x11D1 JUMP JUMPDEST PUSH1 0xFF DUP5 GT ISZERO PUSH2 0x159B JUMPI PUSH2 0x159B PUSH2 0x140D JUMP JUMPDEST POP POP PUSH1 0x1 DUP3 SHL PUSH2 0x11D1 JUMP JUMPDEST POP PUSH1 0x20 DUP4 LT PUSH2 0x133 DUP4 LT AND PUSH1 0x4E DUP5 LT PUSH1 0xB DUP5 LT AND OR ISZERO PUSH2 0x15C9 JUMPI POP DUP2 DUP2 EXP PUSH2 0x11D1 JUMP JUMPDEST PUSH2 0x15D3 DUP4 DUP4 PUSH2 0x150B JUMP JUMPDEST DUP1 PUSH1 0x0 NOT DIV DUP3 GT ISZERO PUSH2 0x15E7 JUMPI PUSH2 0x15E7 PUSH2 0x140D JUMP JUMPDEST MUL SWAP4 SWAP3 POP POP POP JUMP JUMPDEST PUSH1 0x0 PUSH2 0x11CE DUP4 DUP4 PUSH2 0x154E JUMP JUMPDEST PUSH1 0x0 PUSH1 0x20 DUP3 DUP5 SUB SLT ISZERO PUSH2 0x160D JUMPI PUSH1 0x0 DUP1 REVERT JUMPDEST DUP2 MLOAD PUSH1 0xFF DUP2 AND DUP2 EQ PUSH2 0x13B6 JUMPI PUSH1 0x0 DUP1 REVERT JUMPDEST PUSH1 0x0 PUSH2 0x11CE PUSH1 0xFF DUP5 AND DUP4 PUSH2 0x154E JUMP INVALID LOG2 PUSH5 0x6970667358 0x22 SLT KECCAK256 0xDE 0xE3 0xB4 EXTCODEHASH 0x4D SSTORE DUP13 CHAINID 0xD0 INVALID CREATE 0x23 SWAP5 0xD1 CODESIZE 0x29 SLOAD 0xBC 0xF9 LOG2 0x22 SGT SWAP14 0xD SMOD CALLDATACOPY DUP9 COINBASE SDIV MUL SWAP14 0xF9 PUSH5 0x736F6C6343 STOP ADDMOD GT STOP CALLER "},"methodIdentifiers":{"BUSD()":"484f4ea9","USDT()":"c54e44eb","bitConey()":"2fa81a71","blockInfo(uint256)":"3bcd77da","createBlock(uint256,uint256,uint256)":"10e4e019","entranceMulter()":"4228e221","getUserListFromBlock(uint256)":"844ed61d","invest(uint256,address,uint256)":"fecba3a5","manager()":"481c6a75","maxDepositMulter()":"45c44a1b","maxPooledAmountMulter()":"f58cf3ff","owner()":"8da5cb5b","paused()":"5c975abb","priceDecimal()":"bc9113f0","renounceOwnership()":"715018a6","setEntranceMulter(uint256)":"4bcf529d","setLockTimeforReward(uint256)":"06531079","setManager(address)":"d0ebdbe7","setMaxDepositMulter(uint256)":"1f10a89a","setMaxPooledAmountMulter(uint256)":"814cbf30","setPause(bool)":"bedb86fb","setTreasury(address)":"f0f44260","setValidTimeforNewBlock(uint256)":"fe3cde3f","stakeInfo(uint256,address)":"7584f914","transferOwnership(address)":"f2fde38b","treasury()":"61d027b3","widthdraw(uint256)":"e0da260c"}},"storageLayout":{"storage":[{"astId":7,"contract":"contracts/Stake.sol:Stake","label":"_owner","offset":0,"slot":"0","type":"t_address"},{"astId":130,"contract":"contracts/Stake.sol:Stake","label":"_paused","offset":20,"slot":"0","type":"t_bool"},{"astId":384,"contract":"contracts/Stake.sol:Stake","label":"blockInfo","offset":0,"slot":"1","type":"t_mapping(t_uint256,t_struct(BlockInfo)370_storage)"},{"astId":391,"contract":"contracts/Stake.sol:Stake","label":"stakeInfo","offset":0,"slot":"2","type":"t_mapping(t_uint256,t_mapping(t_address,t_struct(StakeInfo)379_storage))"},{"astId":393,"contract":"contracts/Stake.sol:Stake","label":"treasury","offset":0,"slot":"3","type":"t_address"},{"astId":395,"contract":"contracts/Stake.sol:Stake","label":"manager","offset":0,"slot":"4","type":"t_address"},{"astId":398,"contract":"contracts/Stake.sol:Stake","label":"entranceMulter","offset":0,"slot":"5","type":"t_uint256"},{"astId":401,"contract":"contracts/Stake.sol:Stake","label":"entranceDivider","offset":0,"slot":"6","type":"t_uint256"},{"astId":404,"contract":"contracts/Stake.sol:Stake","label":"maxDepositMulter","offset":0,"slot":"7","type":"t_uint256"},{"astId":407,"contract":"contracts/Stake.sol:Stake","label":"maxPooledAmountMulter","offset":0,"slot":"8","type":"t_uint256"},{"astId":413,"contract":"contracts/Stake.sol:Stake","label":"bitConey","offset":0,"slot":"9","type":"t_contract(IERC20Metadata)323"},{"astId":422,"contract":"contracts/Stake.sol:Stake","label":"validTimeforNewBlock","offset":0,"slot":"10","type":"t_uint256"},{"astId":427,"contract":"contracts/Stake.sol:Stake","label":"lockTimeforReward","offset":0,"slot":"11","type":"t_uint256"}],"types":{"t_address":{"encoding":"inplace","label":"address","numberOfBytes":"20"},"t_array(t_address)dyn_storage":{"base":"t_address","encoding":"dynamic_array","label":"address[]","numberOfBytes":"32"},"t_bool":{"encoding":"inplace","label":"bool","numberOfBytes":"1"},"t_contract(IERC20Metadata)323":{"encoding":"inplace","label":"contract IERC20Metadata","numberOfBytes":"20"},"t_mapping(t_address,t_struct(StakeInfo)379_storage)":{"encoding":"mapping","key":"t_address","label":"mapping(address => struct Stake.StakeInfo)","numberOfBytes":"32","value":"t_struct(StakeInfo)379_storage"},"t_mapping(t_uint256,t_mapping(t_address,t_struct(StakeInfo)379_storage))":{"encoding":"mapping","key":"t_uint256","label":"mapping(uint256 => mapping(address => struct Stake.StakeInfo))","numberOfBytes":"32","value":"t_mapping(t_address,t_struct(StakeInfo)379_storage)"},"t_mapping(t_uint256,t_struct(BlockInfo)370_storage)":{"encoding":"mapping","key":"t_uint256","label":"mapping(uint256 => struct Stake.BlockInfo)","numberOfBytes":"32","value":"t_struct(BlockInfo)370_storage"},"t_struct(BlockInfo)370_storage":{"encoding":"inplace","label":"struct Stake.BlockInfo","members":[{"astId":358,"contract":"contracts/Stake.sol:Stake","label":"blockNumber","offset":0,"slot":"0","type":"t_uint256"},{"astId":360,"contract":"contracts/Stake.sol:Stake","label":"prizeAmount","offset":0,"slot":"1","type":"t_uint256"},{"astId":362,"contract":"contracts/Stake.sol:Stake","label":"startTime","offset":0,"slot":"2","type":"t_uint256"},{"astId":365,"contract":"contracts/Stake.sol:Stake","label":"userList","offset":0,"slot":"3","type":"t_array(t_address)dyn_storage"},{"astId":367,"contract":"contracts/Stake.sol:Stake","label":"price","offset":0,"slot":"4","type":"t_uint256"},{"astId":369,"contract":"contracts/Stake.sol:Stake","label":"pooledAmount","offset":0,"slot":"5","type":"t_uint256"}],"numberOfBytes":"192"},"t_struct(StakeInfo)379_storage":{"encoding":"inplace","label":"struct Stake.StakeInfo","members":[{"astId":372,"contract":"contracts/Stake.sol:Stake","label":"coin","offset":0,"slot":"0","type":"t_address"},{"astId":374,"contract":"contracts/Stake.sol:Stake","label":"amount","offset":0,"slot":"1","type":"t_uint256"},{"astId":376,"contract":"contracts/Stake.sol:Stake","label":"stakedTime","offset":0,"slot":"2","type":"t_uint256"},{"astId":378,"contract":"contracts/Stake.sol:Stake","label":"refunded","offset":0,"slot":"3","type":"t_bool"}],"numberOfBytes":"128"},"t_uint256":{"encoding":"inplace","label":"uint256","numberOfBytes":"32"}}}}}}