{
  "_format": "hh-sol-artifact-1",
  "contractName": "Stake",
  "sourceName": "contracts/Stake.sol",
  "abi": [
    {
      "inputs": [
        {
          "internalType": "address",
          "name": "_treasury",
          "type": "address"
        },
        {
          "internalType": "address",
          "name": "_manager",
          "type": "address"
        },
        {
          "internalType": "address",
          "name": "_bitConeyAddr",
          "type": "address"
        },
        {
          "internalType": "address",
          "name": "_BUSD",
          "type": "address"
        },
        {
          "internalType": "address",
          "name": "_USDT",
          "type": "address"
        }
      ],
      "stateMutability": "nonpayable",
      "type": "constructor"
    },
    {
      "anonymous": false,
      "inputs": [
        {
          "indexed": true,
          "internalType": "uint256",
          "name": "blockNumber",
          "type": "uint256"
        },
        {
          "indexed": false,
          "internalType": "uint256",
          "name": "prizeAmount",
          "type": "uint256"
        },
        {
          "indexed": false,
          "internalType": "uint256",
          "name": "startTime",
          "type": "uint256"
        }
      ],
      "name": "CreateBlock",
      "type": "event"
    },
    {
      "anonymous": false,
      "inputs": [
        {
          "indexed": true,
          "internalType": "uint256",
          "name": "blockNumber",
          "type": "uint256"
        },
        {
          "indexed": false,
          "internalType": "address",
          "name": "coin",
          "type": "address"
        },
        {
          "indexed": false,
          "internalType": "uint256",
          "name": "amount",
          "type": "uint256"
        },
        {
          "indexed": false,
          "internalType": "uint256",
          "name": "stakedTime",
          "type": "uint256"
        },
        {
          "indexed": true,
          "internalType": "address",
          "name": "user",
          "type": "address"
        }
      ],
      "name": "Invest",
      "type": "event"
    },
    {
      "anonymous": false,
      "inputs": [
        {
          "indexed": true,
          "internalType": "address",
          "name": "previousOwner",
          "type": "address"
        },
        {
          "indexed": true,
          "internalType": "address",
          "name": "newOwner",
          "type": "address"
        }
      ],
      "name": "OwnershipTransferred",
      "type": "event"
    },
    {
      "anonymous": false,
      "inputs": [
        {
          "indexed": false,
          "internalType": "address",
          "name": "account",
          "type": "address"
        }
      ],
      "name": "Paused",
      "type": "event"
    },
    {
      "anonymous": false,
      "inputs": [
        {
          "indexed": false,
          "internalType": "address",
          "name": "account",
          "type": "address"
        }
      ],
      "name": "Unpaused",
      "type": "event"
    },
    {
      "anonymous": false,
      "inputs": [
        {
          "indexed": true,
          "internalType": "uint256",
          "name": "_blockNumber",
          "type": "uint256"
        },
        {
          "indexed": true,
          "internalType": "address",
          "name": "user",
          "type": "address"
        },
        {
          "indexed": false,
          "internalType": "uint256",
          "name": "reward",
          "type": "uint256"
        },
        {
          "indexed": false,
          "internalType": "uint256",
          "name": "entrance",
          "type": "uint256"
        }
      ],
      "name": "Withdraw",
      "type": "event"
    },
    {
      "inputs": [],
      "name": "BUSD",
      "outputs": [
        {
          "internalType": "address",
          "name": "",
          "type": "address"
        }
      ],
      "stateMutability": "view",
      "type": "function"
    },
    {
      "inputs": [],
      "name": "USDT",
      "outputs": [
        {
          "internalType": "address",
          "name": "",
          "type": "address"
        }
      ],
      "stateMutability": "view",
      "type": "function"
    },
    {
      "inputs": [],
      "name": "bitConey",
      "outputs": [
        {
          "internalType": "contract IERC20Metadata",
          "name": "",
          "type": "address"
        }
      ],
      "stateMutability": "view",
      "type": "function"
    },
    {
      "inputs": [
        {
          "internalType": "uint256",
          "name": "",
          "type": "uint256"
        }
      ],
      "name": "blockInfo",
      "outputs": [
        {
          "internalType": "uint256",
          "name": "blockNumber",
          "type": "uint256"
        },
        {
          "internalType": "uint256",
          "name": "prizeAmount",
          "type": "uint256"
        },
        {
          "internalType": "uint256",
          "name": "startTime",
          "type": "uint256"
        },
        {
          "internalType": "uint256",
          "name": "price",
          "type": "uint256"
        },
        {
          "internalType": "uint256",
          "name": "pooledAmount",
          "type": "uint256"
        }
      ],
      "stateMutability": "view",
      "type": "function"
    },
    {
      "inputs": [
        {
          "internalType": "uint256",
          "name": "_blockNumber",
          "type": "uint256"
        },
        {
          "internalType": "uint256",
          "name": "_prizeAmount",
          "type": "uint256"
        },
        {
          "internalType": "uint256",
          "name": "_price",
          "type": "uint256"
        }
      ],
      "name": "createBlock",
      "outputs": [],
      "stateMutability": "nonpayable",
      "type": "function"
    },
    {
      "inputs": [],
      "name": "entranceMulter",
      "outputs": [
        {
          "internalType": "uint256",
          "name": "",
          "type": "uint256"
        }
      ],
      "stateMutability": "view",
      "type": "function"
    },
    {
      "inputs": [
        {
          "internalType": "uint256",
          "name": "_blockNumber",
          "type": "uint256"
        }
      ],
      "name": "getUserListFromBlock",
      "outputs": [
        {
          "internalType": "address[]",
          "name": "userList",
          "type": "address[]"
        }
      ],
      "stateMutability": "view",
      "type": "function"
    },
    {
      "inputs": [
        {
          "internalType": "uint256",
          "name": "_blockNumber",
          "type": "uint256"
        },
        {
          "internalType": "address",
          "name": "_coin",
          "type": "address"
        },
        {
          "internalType": "uint256",
          "name": "amount",
          "type": "uint256"
        }
      ],
      "name": "invest",
      "outputs": [],
      "stateMutability": "nonpayable",
      "type": "function"
    },
    {
      "inputs": [],
      "name": "manager",
      "outputs": [
        {
          "internalType": "address",
          "name": "",
          "type": "address"
        }
      ],
      "stateMutability": "view",
      "type": "function"
    },
    {
      "inputs": [],
      "name": "maxDepositMulter",
      "outputs": [
        {
          "internalType": "uint256",
          "name": "",
          "type": "uint256"
        }
      ],
      "stateMutability": "view",
      "type": "function"
    },
    {
      "inputs": [],
      "name": "maxPooledAmountMulter",
      "outputs": [
        {
          "internalType": "uint256",
          "name": "",
          "type": "uint256"
        }
      ],
      "stateMutability": "view",
      "type": "function"
    },
    {
      "inputs": [],
      "name": "owner",
      "outputs": [
        {
          "internalType": "address",
          "name": "",
          "type": "address"
        }
      ],
      "stateMutability": "view",
      "type": "function"
    },
    {
      "inputs": [],
      "name": "paused",
      "outputs": [
        {
          "internalType": "bool",
          "name": "",
          "type": "bool"
        }
      ],
      "stateMutability": "view",
      "type": "function"
    },
    {
      "inputs": [],
      "name": "priceDecimal",
      "outputs": [
        {
          "internalType": "uint256",
          "name": "",
          "type": "uint256"
        }
      ],
      "stateMutability": "view",
      "type": "function"
    },
    {
      "inputs": [],
      "name": "renounceOwnership",
      "outputs": [],
      "stateMutability": "nonpayable",
      "type": "function"
    },
    {
      "inputs": [
        {
          "internalType": "uint256",
          "name": "_multer",
          "type": "uint256"
        }
      ],
      "name": "setEntranceMulter",
      "outputs": [],
      "stateMutability": "nonpayable",
      "type": "function"
    },
    {
      "inputs": [
        {
          "internalType": "uint256",
          "name": "time",
          "type": "uint256"
        }
      ],
      "name": "setLockTimeforReward",
      "outputs": [],
      "stateMutability": "nonpayable",
      "type": "function"
    },
    {
      "inputs": [
        {
          "internalType": "address",
          "name": "_manager",
          "type": "address"
        }
      ],
      "name": "setManager",
      "outputs": [],
      "stateMutability": "nonpayable",
      "type": "function"
    },
    {
      "inputs": [
        {
          "internalType": "uint256",
          "name": "_multer",
          "type": "uint256"
        }
      ],
      "name": "setMaxDepositMulter",
      "outputs": [],
      "stateMutability": "nonpayable",
      "type": "function"
    },
    {
      "inputs": [
        {
          "internalType": "uint256",
          "name": "_multer",
          "type": "uint256"
        }
      ],
      "name": "setMaxPooledAmountMulter",
      "outputs": [],
      "stateMutability": "nonpayable",
      "type": "function"
    },
    {
      "inputs": [
        {
          "internalType": "uint256",
          "name": "value",
          "type": "uint256"
        }
      ],
      "name": "setMinStakeValue",
      "outputs": [],
      "stateMutability": "nonpayable",
      "type": "function"
    },
    {
      "inputs": [
        {
          "internalType": "bool",
          "name": "flag",
          "type": "bool"
        }
      ],
      "name": "setPause",
      "outputs": [],
      "stateMutability": "nonpayable",
      "type": "function"
    },
    {
      "inputs": [
        {
          "internalType": "address",
          "name": "_wallet",
          "type": "address"
        }
      ],
      "name": "setTreasury",
      "outputs": [],
      "stateMutability": "nonpayable",
      "type": "function"
    },
    {
      "inputs": [
        {
          "internalType": "uint256",
          "name": "time",
          "type": "uint256"
        }
      ],
      "name": "setValidTimeforNewBlock",
      "outputs": [],
      "stateMutability": "nonpayable",
      "type": "function"
    },
    {
      "inputs": [
        {
          "internalType": "uint256",
          "name": "",
          "type": "uint256"
        },
        {
          "internalType": "address",
          "name": "",
          "type": "address"
        }
      ],
      "name": "stakeInfo",
      "outputs": [
        {
          "internalType": "address",
          "name": "coin",
          "type": "address"
        },
        {
          "internalType": "uint256",
          "name": "amount",
          "type": "uint256"
        },
        {
          "internalType": "uint256",
          "name": "stakedTime",
          "type": "uint256"
        },
        {
          "internalType": "bool",
          "name": "refunded",
          "type": "bool"
        }
      ],
      "stateMutability": "view",
      "type": "function"
    },
    {
      "inputs": [
        {
          "internalType": "address",
          "name": "newOwner",
          "type": "address"
        }
      ],
      "name": "transferOwnership",
      "outputs": [],
      "stateMutability": "nonpayable",
      "type": "function"
    },
    {
      "inputs": [],
      "name": "treasury",
      "outputs": [
        {
          "internalType": "address",
          "name": "",
          "type": "address"
        }
      ],
      "stateMutability": "view",
      "type": "function"
    },
    {
      "inputs": [
        {
          "internalType": "uint256",
          "name": "_blockNumber",
          "type": "uint256"
        }
      ],
      "name": "widthdraw",
      "outputs": [],
      "stateMutability": "nonpayable",
      "type": "function"
    }
  ],
  "bytecode": "0x60c06040526008600555600a6006556019600755605a60085561012c600a55610e10600b55678ac7230489e80000600c553480156200003d57600080fd5b50604051620019ce380380620019ce833981016040819052620000609162000135565b6200006b33620000c8565b6000805460ff60a01b19169055600380546001600160a01b03199081166001600160a01b03978816179091556004805482169587169590951790945560098054909416928516929092179092559082166080521660a052620001a5565b600080546001600160a01b038381166001600160a01b0319831681178455604051919092169283917f8be0079c531659141344cd1fd0a4f28419497f9722a3daafe3b4186f6b6457e09190a35050565b80516001600160a01b03811681146200013057600080fd5b919050565b600080600080600060a086880312156200014e57600080fd5b620001598662000118565b9450620001696020870162000118565b9350620001796040870162000118565b9250620001896060870162000118565b9150620001996080870162000118565b90509295509295909350565b60805160a0516117f5620001d9600039600081816103a70152610d740152600081816102590152610daf01526117f56000f3fe608060405234801561001057600080fd5b50600436106101545760003560e01c8063065310791461015957806310e4e0191461016e5780631f10a89a146101815780632fa81a71146101945780633bcd77da146101bd5780634228e2211461022157806345c44a1b14610238578063481c6a7514610241578063484f4ea9146102545780634bcf529d1461027b5780634d9859441461028e5780635c975abb146102a157806361d027b3146102b9578063715018a6146102cc5780637584f914146102d4578063814cbf301461034c578063844ed61d1461035f5780638da5cb5b1461037f578063bc9113f014610387578063bedb86fb1461038f578063c54e44eb146103a2578063d0ebdbe7146103c9578063e0da260c146103dc578063f0f44260146103ef578063f2fde38b14610402578063f58cf3ff14610415578063fe3cde3f1461041e578063fecba3a514610431575b600080fd5b61016c61016736600461142f565b610444565b005b61016c61017c366004611448565b61045d565b61016c61018f36600461142f565b61056f565b6009546101a7906001600160a01b031681565b6040516101b49190611474565b60405180910390f35b6101f96101cb36600461142f565b6001602081905260009182526040909120805491810154600282015460048301546005909301549192909185565b604080519586526020860194909452928401919091526060830152608082015260a0016101b4565b61022a60055481565b6040519081526020016101b4565b61022a60075481565b6004546101a7906001600160a01b031681565b6101a77f000000000000000000000000000000000000000000000000000000000000000081565b61016c61028936600461142f565b61057c565b61016c61029c36600461142f565b610589565b6102a9610596565b60405190151581526020016101b4565b6003546101a7906001600160a01b031681565b61016c6105a6565b6103206102e23660046114a4565b6002602081815260009384526040808520909152918352912080546001820154928201546003909201546001600160a01b0390911692919060ff1684565b604080516001600160a01b039095168552602085019390935291830152151560608201526080016101b4565b61016c61035a36600461142f565b6105ba565b61037261036d36600461142f565b6105c7565b6040516101b491906114d0565b6101a761068e565b61022a600881565b61016c61039d36600461152b565b61069d565b6101a77f000000000000000000000000000000000000000000000000000000000000000081565b61016c6103d736600461154f565b6106be565b61016c6103ea36600461142f565b6106e8565b61016c6103fd36600461154f565b610ae8565b61016c61041036600461154f565b610b12565b61022a60085481565b61016c61042c36600461142f565b610b88565b61016c61043f36600461156a565b610ba1565b61044c61103a565b61045781603c6115b5565b600b5550565b610465611099565b6004546001600160a01b031633146104b25760405162461bcd60e51b815260206004820152600b60248201526a2737ba1036b0b730b3b2b960a91b60448201526064015b60405180910390fd5b600083815260016020526040902054156104ff5760405162461bcd60e51b815260206004820152600e60248201526d616c72656164792065786973747360901b60448201526064016104a9565b60008381526001602081905260409182902085815590810184905542600282018190556004909101839055905184917fe0676b694d0bfe16e5e764f5d05a4da18534efe97b72a21aa785e3e6767b42c19161056291868252602082015260400190565b60405180910390a2505050565b61057761103a565b600755565b61058461103a565b600555565b61059161103a565b600c55565b600054600160a01b900460ff1690565b6105ae61103a565b6105b860006110e1565b565b6105c261103a565b600855565b6000818152600160205260409020600301546060906001600160401b038111156105f3576105f36115cc565b60405190808252806020026020018201604052801561061c578160200160208202803683370190505b50600083815260016020908152604091829020600301805483518184028101840190945280845293945091929083018282801561068257602002820191906000526020600020905b81546001600160a01b03168152600190910190602001808311610664575b50505050509050919050565b6000546001600160a01b031690565b6106a561103a565b80156106b6576106b3611131565b50565b6106b361118b565b6106c661103a565b600480546001600160a01b0319166001600160a01b0392909216919091179055565b600081815260026020908152604080832033845290915290206003015460ff161561074a5760405162461bcd60e51b8152602060048201526012602482015271185b1c9958591e481dda5d1a191c985dd95960721b60448201526064016104a9565b600b54600082815260026020818152604080842033855290915290912001544291610774916115e2565b106107ad5760405162461bcd60e51b81526020600482015260096024820152686e6f7420726561647960b81b60448201526064016104a9565b600081815260026020908152604080832033845290915281206001015490036108025760405162461bcd60e51b81526020600482015260076024820152663737903ab9b2b960c91b60448201526064016104a9565b6000805b60008381526001602052604090206003015481101561087a576000838152600160205260409020600301805433919083908110610845576108456115f5565b6000918252602090912001546001600160a01b031603610868576001915061087a565b806108728161160b565b915050610806565b5060018115151461088d5761088d611624565b6006546005546000848152600160208190526040822001549092916108b1916115b5565b6108bb919061163a565b90506000600960009054906101000a90046001600160a01b03166001600160a01b031663313ce5676040518163ffffffff1660e01b8152600401602060405180830381865afa158015610912573d6000803e3d6000fd5b505050506040513d601f19601f82011682018060405250810190610936919061165c565b61094190600a611763565b61094d6008600a611772565b6008546000878152600160208190526040909120600481015491015460649291610976916115b5565b61098091906115b5565b61099290670de0b6b3a76400006115b5565b61099c919061163a565b6109a6919061163a565b6109b0919061163a565b60008581526001602081815260408084208301546002835281852033865290925290922001546109e091906115b5565b6109ea919061163a565b6000858152600260209081526040808320338085529252909120600301805460ff191660011790556009549192506001600160a01b03919091169063a9059cbb90610a3584866115e2565b6040516001600160e01b031960e085901b1681526001600160a01b03909216600483015260248201526044016020604051808303816000875af1158015610a80573d6000803e3d6000fd5b505050506040513d601f19601f82011682018060405250810190610aa4919061177e565b506040805182815260208101849052339186917fb0ecf14e184effded5473bba77dcfab32b094b77ac1fbb36beec2aef55587970910160405180910390a350505050565b610af061103a565b600380546001600160a01b0319166001600160a01b0392909216919091179055565b610b1a61103a565b6001600160a01b038116610b7f5760405162461bcd60e51b815260206004820152602660248201527f4f776e61626c653a206e6577206f776e657220697320746865207a65726f206160448201526564647265737360d01b60648201526084016104a9565b6106b3816110e1565b610b9061103a565b610b9b81603c6115b5565b600a5550565b610ba9611099565b60008381526001602052604090205415801590610bd757506000838152600160208190526040909120015415155b8015610bf3575060008381526001602052604090206002015415155b610c2d5760405162461bcd60e51b815260206004820152600b60248201526a139bdd081a5b9a5d1a585b60aa1b60448201526064016104a9565b600a546000848152600160205260409020600201544291610c4d916115e2565b11610c865760405162461bcd60e51b815260206004820152600960248201526874696d65206f75742160b81b60448201526064016104a9565b600083815260026020908152604080832033845290915290206001015415610ce05760405162461bcd60e51b815260206004820152600d60248201526c63616e7420616464206d6f726560981b60448201526064016104a9565b610cea83826111c7565b610d275760405162461bcd60e51b815260206004820152600e60248201526d1a5b9d985b1a5908185b5bdd5b9d60921b60448201526064016104a9565b610d3183826112d6565b610d725760405162461bcd60e51b8152602060048201526012602482015271195e18d9595908199d5b1b08185b5bdd5b9d60721b60448201526064016104a9565b7f00000000000000000000000000000000000000000000000000000000000000006001600160a01b0316826001600160a01b03161480610de357507f00000000000000000000000000000000000000000000000000000000000000006001600160a01b0316826001600160a01b0316145b610e245760405162461bcd60e51b81526020600482015260126024820152713737ba1030bb30b4b630b136329031b7b4b760711b60448201526064016104a9565b600083815260016020818152604083206003810180549384018155845290832090910180546001600160a01b031916331790558482526005018054839290610e6d9084906115e2565b9091555050600083815260026020818152604080842033808652908352818520600180820188905581546001600160a01b0319166001600160a01b038a81169190911783554292909601919091556009546006546005548b89529583905293909620015494909316936323b872dd9392309291610eea91906115b5565b610ef4919061163a565b6040518463ffffffff1660e01b8152600401610f129392919061179b565b6020604051808303816000875af1158015610f31573d6000803e3d6000fd5b505050506040513d601f19601f82011682018060405250810190610f55919061177e565b506003546040516323b872dd60e01b81526001600160a01b03808516926323b872dd92610f8a9233921690869060040161179b565b6020604051808303816000875af1158015610fa9573d6000803e3d6000fd5b505050506040513d601f19601f82011682018060405250810190610fcd919061177e565b50600083815260026020818152604080842033808652908352938190209092015482516001600160a01b038716815291820185905281830152905185917f7a82030cdcb2e8909ecf6432d973748c3c907ede3a2d61ff7cc5b1c1b8de4287919081900360600190a3505050565b3361104361068e565b6001600160a01b0316146105b85760405162461bcd60e51b815260206004820181905260248201527f4f776e61626c653a2063616c6c6572206973206e6f7420746865206f776e657260448201526064016104a9565b6110a1610596565b156105b85760405162461bcd60e51b815260206004820152601060248201526f14185d5cd8589b194e881c185d5cd95960821b60448201526064016104a9565b600080546001600160a01b038381166001600160a01b0319831681178455604051919092169283917f8be0079c531659141344cd1fd0a4f28419497f9722a3daafe3b4186f6b6457e09190a35050565b611139611099565b6000805460ff60a01b1916600160a01b1790557f62e78cea01bee320cd4e420270b5ea74000d11b0c9f74754ebdbfc544b05a2586111743390565b6040516111819190611474565b60405180910390a1565b6111936113e4565b6000805460ff60a01b191690557f5db9ee0a495bf2e6ff9c91a7834c1ba4fdd244a5e8aa4e537bd38aeae4b073aa33611174565b600081600c54111580156112cd5750600960009054906101000a90046001600160a01b03166001600160a01b031663313ce5676040518163ffffffff1660e01b8152600401602060405180830381865afa158015611229573d6000803e3d6000fd5b505050506040513d601f19601f8201168201806040525081019061124d919061165c565b61125890600a611763565b6112646008600a611772565b6007546000868152600160208190526040909120908101546004909101546064929161128f916115b5565b61129991906115b5565b6112ab90670de0b6b3a76400006115b5565b6112b5919061163a565b6112bf919061163a565b6112c9919061163a565b8211155b90505b92915050565b6009546040805163313ce56760e01b815290516000926001600160a01b03169163313ce5679160048083019260209291908290030181865afa158015611320573d6000803e3d6000fd5b505050506040513d601f19601f82011682018060405250810190611344919061165c565b61134f90600a611763565b61135b6008600a611772565b6008546000868152600160208190526040909120600481015491015460649291611384916115b5565b61138e91906115b5565b6113a090670de0b6b3a76400006115b5565b6113aa919061163a565b6113b4919061163a565b6113be919061163a565b6000848152600160205260409020600501546113db9084906115e2565b11159392505050565b6113ec610596565b6105b85760405162461bcd60e51b815260206004820152601460248201527314185d5cd8589b194e881b9bdd081c185d5cd95960621b60448201526064016104a9565b60006020828403121561144157600080fd5b5035919050565b60008060006060848603121561145d57600080fd5b505081359360208301359350604090920135919050565b6001600160a01b0391909116815260200190565b80356001600160a01b038116811461149f57600080fd5b919050565b600080604083850312156114b757600080fd5b823591506114c760208401611488565b90509250929050565b6020808252825182820181905260009190848201906040850190845b818110156115115783516001600160a01b0316835292840192918401916001016114ec565b50909695505050505050565b80151581146106b357600080fd5b60006020828403121561153d57600080fd5b81356115488161151d565b9392505050565b60006020828403121561156157600080fd5b6112cd82611488565b60008060006060848603121561157f57600080fd5b8335925061158f60208501611488565b9150604084013590509250925092565b634e487b7160e01b600052601160045260246000fd5b80820281158282048414176112d0576112d061159f565b634e487b7160e01b600052604160045260246000fd5b808201808211156112d0576112d061159f565b634e487b7160e01b600052603260045260246000fd5b60006001820161161d5761161d61159f565b5060010190565b634e487b7160e01b600052600160045260246000fd5b60008261165757634e487b7160e01b600052601260045260246000fd5b500490565b60006020828403121561166e57600080fd5b815160ff8116811461154857600080fd5b600181815b808511156116ba5781600019048211156116a0576116a061159f565b808516156116ad57918102915b93841c9390800290611684565b509250929050565b6000826116d1575060016112d0565b816116de575060006112d0565b81600181146116f457600281146116fe5761171a565b60019150506112d0565b60ff84111561170f5761170f61159f565b50506001821b6112d0565b5060208310610133831016604e8410600b841016171561173d575081810a6112d0565b611747838361167f565b806000190482111561175b5761175b61159f565b029392505050565b60006112cd60ff8416836116c2565b60006112cd83836116c2565b60006020828403121561179057600080fd5b81516115488161151d565b6001600160a01b03938416815291909216602082015260408101919091526060019056fea2646970667358221220588f6dab5a61fad7bcf8d1c229dfd11d5741d8fa2e2711f755ad50910783a29b64736f6c63430008110033",
  "linkReferences": {},
  "deployedLinkReferences": {}
}