{
  "_format": "hh-sol-artifact-1",
  "contractName": "Bond",
  "sourceName": "contracts/Bond.sol",
  "abi": [
    {
      "inputs": [
        {
          "internalType": "address",
          "name": "_treasuryWallet",
          "type": "address"
        },
        {
          "internalType": "address",
          "name": "_USDT",
          "type": "address"
        },
        {
          "internalType": "address",
          "name": "_bitConey",
          "type": "address"
        },
        {
          "internalType": "address",
          "name": "_bitconeyWallet",
          "type": "address"
        }
      ],
      "stateMutability": "nonpayable",
      "type": "constructor"
    },
    {
      "anonymous": false,
      "inputs": [
        {
          "indexed": true,
          "internalType": "address",
          "name": "user",
          "type": "address"
        },
        {
          "indexed": false,
          "internalType": "uint256",
          "name": "amount",
          "type": "uint256"
        },
        {
          "indexed": false,
          "internalType": "uint256",
          "name": "time",
          "type": "uint256"
        }
      ],
      "name": "BondEvent",
      "type": "event"
    },
    {
      "anonymous": false,
      "inputs": [
        {
          "indexed": true,
          "internalType": "address",
          "name": "user",
          "type": "address"
        },
        {
          "indexed": false,
          "internalType": "uint256",
          "name": "amount",
          "type": "uint256"
        }
      ],
      "name": "ClaimEvent",
      "type": "event"
    },
    {
      "anonymous": false,
      "inputs": [
        {
          "indexed": true,
          "internalType": "address",
          "name": "previousOwner",
          "type": "address"
        },
        {
          "indexed": true,
          "internalType": "address",
          "name": "newOwner",
          "type": "address"
        }
      ],
      "name": "OwnershipTransferred",
      "type": "event"
    },
    {
      "inputs": [],
      "name": "DOUBLE_MULTER",
      "outputs": [
        {
          "internalType": "uint256",
          "name": "",
          "type": "uint256"
        }
      ],
      "stateMutability": "view",
      "type": "function"
    },
    {
      "inputs": [],
      "name": "USDT",
      "outputs": [
        {
          "internalType": "address",
          "name": "",
          "type": "address"
        }
      ],
      "stateMutability": "view",
      "type": "function"
    },
    {
      "inputs": [],
      "name": "bitConey",
      "outputs": [
        {
          "internalType": "contract IERC20Metadata",
          "name": "",
          "type": "address"
        }
      ],
      "stateMutability": "view",
      "type": "function"
    },
    {
      "inputs": [
        {
          "internalType": "uint256",
          "name": "_amount",
          "type": "uint256"
        }
      ],
      "name": "bond",
      "outputs": [],
      "stateMutability": "nonpayable",
      "type": "function"
    },
    {
      "inputs": [],
      "name": "bondAmount",
      "outputs": [
        {
          "internalType": "uint256",
          "name": "",
          "type": "uint256"
        }
      ],
      "stateMutability": "view",
      "type": "function"
    },
    {
      "inputs": [
        {
          "internalType": "address",
          "name": "",
          "type": "address"
        }
      ],
      "name": "bondInfo",
      "outputs": [
        {
          "internalType": "uint256",
          "name": "amount",
          "type": "uint256"
        },
        {
          "internalType": "uint256",
          "name": "bondingTime",
          "type": "uint256"
        },
        {
          "internalType": "uint256",
          "name": "bondPrice",
          "type": "uint256"
        }
      ],
      "stateMutability": "view",
      "type": "function"
    },
    {
      "inputs": [],
      "name": "bondPrice",
      "outputs": [
        {
          "internalType": "uint256",
          "name": "",
          "type": "uint256"
        }
      ],
      "stateMutability": "view",
      "type": "function"
    },
    {
      "inputs": [],
      "name": "bondingPeriod",
      "outputs": [
        {
          "internalType": "uint256",
          "name": "",
          "type": "uint256"
        }
      ],
      "stateMutability": "view",
      "type": "function"
    },
    {
      "inputs": [],
      "name": "claim",
      "outputs": [],
      "stateMutability": "nonpayable",
      "type": "function"
    },
    {
      "inputs": [
        {
          "internalType": "address",
          "name": "user",
          "type": "address"
        }
      ],
      "name": "getUserClaimTime",
      "outputs": [
        {
          "internalType": "uint256",
          "name": "",
          "type": "uint256"
        }
      ],
      "stateMutability": "view",
      "type": "function"
    },
    {
      "inputs": [
        {
          "internalType": "uint256",
          "name": "_amount",
          "type": "uint256"
        }
      ],
      "name": "isAvailableBondByAmount",
      "outputs": [
        {
          "internalType": "bool",
          "name": "",
          "type": "bool"
        }
      ],
      "stateMutability": "view",
      "type": "function"
    },
    {
      "inputs": [],
      "name": "isAvailableBondByTime",
      "outputs": [
        {
          "internalType": "bool",
          "name": "",
          "type": "bool"
        }
      ],
      "stateMutability": "view",
      "type": "function"
    },
    {
      "inputs": [
        {
          "internalType": "address",
          "name": "user",
          "type": "address"
        }
      ],
      "name": "isAvailableClaim",
      "outputs": [
        {
          "internalType": "bool",
          "name": "",
          "type": "bool"
        }
      ],
      "stateMutability": "view",
      "type": "function"
    },
    {
      "inputs": [],
      "name": "lockingPeriod",
      "outputs": [
        {
          "internalType": "uint256",
          "name": "",
          "type": "uint256"
        }
      ],
      "stateMutability": "view",
      "type": "function"
    },
    {
      "inputs": [],
      "name": "maxBondAmount",
      "outputs": [
        {
          "internalType": "uint256",
          "name": "",
          "type": "uint256"
        }
      ],
      "stateMutability": "view",
      "type": "function"
    },
    {
      "inputs": [],
      "name": "owner",
      "outputs": [
        {
          "internalType": "address",
          "name": "",
          "type": "address"
        }
      ],
      "stateMutability": "view",
      "type": "function"
    },
    {
      "inputs": [],
      "name": "renounceOwnership",
      "outputs": [],
      "stateMutability": "nonpayable",
      "type": "function"
    },
    {
      "inputs": [],
      "name": "setInitialBondState",
      "outputs": [],
      "stateMutability": "nonpayable",
      "type": "function"
    },
    {
      "inputs": [
        {
          "internalType": "uint256",
          "name": "_period",
          "type": "uint256"
        }
      ],
      "name": "setLockingPeriod",
      "outputs": [],
      "stateMutability": "nonpayable",
      "type": "function"
    },
    {
      "inputs": [
        {
          "internalType": "uint256",
          "name": "_amount",
          "type": "uint256"
        }
      ],
      "name": "setMaxBondAmount",
      "outputs": [],
      "stateMutability": "nonpayable",
      "type": "function"
    },
    {
      "inputs": [
        {
          "internalType": "uint256",
          "name": "_price",
          "type": "uint256"
        },
        {
          "internalType": "uint256",
          "name": "_period",
          "type": "uint256"
        }
      ],
      "name": "setStartBond",
      "outputs": [],
      "stateMutability": "nonpayable",
      "type": "function"
    },
    {
      "inputs": [],
      "name": "startBond",
      "outputs": [
        {
          "internalType": "bool",
          "name": "",
          "type": "bool"
        }
      ],
      "stateMutability": "view",
      "type": "function"
    },
    {
      "inputs": [
        {
          "internalType": "address",
          "name": "newOwner",
          "type": "address"
        }
      ],
      "name": "transferOwnership",
      "outputs": [],
      "stateMutability": "nonpayable",
      "type": "function"
    },
    {
      "inputs": [
        {
          "internalType": "address",
          "name": "user",
          "type": "address"
        }
      ],
      "name": "userClaimAmount",
      "outputs": [
        {
          "internalType": "uint256",
          "name": "",
          "type": "uint256"
        }
      ],
      "stateMutability": "view",
      "type": "function"
    }
  ],
  "bytecode": "0x60c0604052624f1a0060045564e8d4a51000600555600260065534801561002557600080fd5b50604051610c62380380610c62833981016040819052610044916100f6565b61004d3361008a565b600880546001600160a01b039586166001600160a01b03199182161790915592841660805290831660a0526009805491909316911617905561014a565b600080546001600160a01b038381166001600160a01b0319831681178455604051919092169283917f8be0079c531659141344cd1fd0a4f28419497f9722a3daafe3b4186f6b6457e09190a35050565b80516001600160a01b03811681146100f157600080fd5b919050565b6000806000806080858703121561010c57600080fd5b610115856100da565b9350610123602086016100da565b9250610131604086016100da565b915061013f606086016100da565b905092959194509250565b60805160a051610ae561017d600039600081816101ac015261051d01526000818161027b015261071d0152610ae56000f3fe608060405234801561001057600080fd5b50600436106101275760003560e01c806246a76a1461012c57806309fde0801461015457806310b40b4914610175578063221a3f8c1461018957806326b321d1146101925780632fa81a71146101a757806332e5eeaf146101e65780633d3e42c1146101f95780634d88db4d146102015780634e71d92d14610214578063550066d51461021c578063699a20b814610225578063715018a61461022e5780637eb96b7b1461023657806380f323a7146102495780638da5cb5b146102525780639940686e1461025a578063c31c6fb91461026d578063c54e44eb14610276578063cd1234b31461029d578063d7ccfb0b146102e7578063e03d44a1146102f0578063e1fbe49a146102f8578063f2fde38b1461030b575b600080fd5b61013f61013a366004610989565b61031e565b60405190151581526020015b60405180910390f35b610167610162366004610989565b610375565b60405190815260200161014b565b60005461013f90600160a01b900460ff1681565b61016760055481565b6101a56101a03660046109b9565b6103e2565b005b6101ce7f000000000000000000000000000000000000000000000000000000000000000081565b6040516001600160a01b03909116815260200161014b565b6101a56101f43660046109b9565b6103ef565b6101a56103fc565b6101a561020f3660046109d2565b610413565b6101a561044e565b61016760045481565b61016760065481565b6101a56105de565b610167610244366004610989565b6105f2565b61016760015481565b6101ce61065d565b6101a56102683660046109b9565b61066c565b61016760035481565b6101ce7f000000000000000000000000000000000000000000000000000000000000000081565b6102cc6102ab366004610989565b600a6020526000908152604090208054600182015460029092015490919083565b6040805193845260208401929092529082015260600161014b565b61016760075481565b61013f6107e3565b61013f6103063660046109b9565b6107fc565b6101a5610319366004610989565b610861565b6001600160a01b0381166000908152600a60205260408120600101541580159061036f57506004546001600160a01b0383166000908152600a6020526040902060010154429161036d91610a0a565b105b92915050565b6004546001600160a01b0382166000908152600a6020526040812060010154909142916103a29190610a0a565b116103ae57600061036f565b6004546001600160a01b0383166000908152600a602052604090206001015442916103d891610a0a565b61036f9190610a1d565b6103ea6108da565b600455565b6103f76108da565b600555565b6104046108da565b6000805460ff60a01b19169055565b61041b6108da565b6000805460ff60a01b1916600160a01b1781556001554260025560078290556104478162015180610a30565b6003555050565b6104573361031e565b61049a5760405162461bcd60e51b815260206004820152600f60248201526e109bdb990e9b9bc8195e1c1a5c9959608a1b60448201526064015b60405180910390fd5b336000908152600a602052604081205490036104ea5760405162461bcd60e51b815260206004820152600f60248201526e109bdb990e881b9bc81c995dd85c99608a1b6044820152606401610491565b60006104f5336105f2565b336000818152600a60205260408082209190915560095490516323b872dd60e01b81529293507f00000000000000000000000000000000000000000000000000000000000000006001600160a01b03908116936323b872dd936105619390921691908690600401610a47565b6020604051808303816000875af1158015610580573d6000803e3d6000fd5b505050506040513d601f19601f820116820180604052508101906105a49190610a6b565b5060405181815233907fcf90cf38909cf403e9a6b19be28f518cafff82c84df42f7baaa56d1a607663cd906020015b60405180910390a250565b6105e66108da565b6105f06000610939565b565b6000806007541161060457600061036f565b6006546007546001600160a01b0384166000908152600a6020526040902054670de0b6b3a7640000919061063f90662386f26fc10000610a30565b6106499190610a8d565b6106539190610a8d565b61036f9190610a30565b6000546001600160a01b031690565b6106746107e3565b80156106845750610684816107fc565b6106c05760405162461bcd60e51b815260206004820152600d60248201526c6e6f7420617661696c61626c6560981b6044820152606401610491565b336000908152600a6020526040812080548392906106df908490610a0a565b9091555050336000818152600a60205260409081902042600182015560075460029091015560085490516323b872dd60e01b81526001600160a01b037f00000000000000000000000000000000000000000000000000000000000000008116936323b872dd9361075793919216908690600401610a47565b6020604051808303816000875af1158015610776573d6000803e3d6000fd5b505050506040513d601f19601f8201168201806040525081019061079a9190610a6b565b50336000818152600a6020908152604091829020600101548251858152918201527f060bf72b9acaee8f3f1e5d2c4a34af2c7120cb51ed5e94133d5edc0c5ff82cb491016105d3565b6000426003546002546107f69190610a0a565b11905090565b60008060075411801561036f5750600154600654600754670de0b6b3a76400009061082e86662386f26fc10000610a30565b6108389190610a8d565b6108429190610a8d565b61084c9190610a30565b6108569190610a0a565b600554101592915050565b6108696108da565b6001600160a01b0381166108ce5760405162461bcd60e51b815260206004820152602660248201527f4f776e61626c653a206e6577206f776e657220697320746865207a65726f206160448201526564647265737360d01b6064820152608401610491565b6108d781610939565b50565b336108e361065d565b6001600160a01b0316146105f05760405162461bcd60e51b815260206004820181905260248201527f4f776e61626c653a2063616c6c6572206973206e6f7420746865206f776e65726044820152606401610491565b600080546001600160a01b038381166001600160a01b0319831681178455604051919092169283917f8be0079c531659141344cd1fd0a4f28419497f9722a3daafe3b4186f6b6457e09190a35050565b60006020828403121561099b57600080fd5b81356001600160a01b03811681146109b257600080fd5b9392505050565b6000602082840312156109cb57600080fd5b5035919050565b600080604083850312156109e557600080fd5b50508035926020909101359150565b634e487b7160e01b600052601160045260246000fd5b8082018082111561036f5761036f6109f4565b8181038181111561036f5761036f6109f4565b808202811582820484141761036f5761036f6109f4565b6001600160a01b039384168152919092166020820152604081019190915260600190565b600060208284031215610a7d57600080fd5b815180151581146109b257600080fd5b600082610aaa57634e487b7160e01b600052601260045260246000fd5b50049056fea26469706673582212209f352b79bf0df4edf97d5bc17bcaf7aa14aa336ab5dd332ae08a81b1805a494d64736f6c63430008110033",
  "linkReferences": {},
  "deployedLinkReferences": {}
}